:10000000A8C30000D7C30000D5C30000D3C30000BD
:10001000D1C30000CFC30000CDC30000CBC300009C
:10002000C9C30000C7C30000C5C30000C3C30000AC
:10003000C1C30000BFC30000BDC30000BBC30000BC
:10004000B9C30000B7C30000B5C30000B3C30000CC
:100050000C94AC1BAFC30000ADC300000C946E1D2C
:10006000A9C300000C94831B0C945A1BA3C300006B
:10007000A1C300009FC300009DC300009BC30000FC
:1000800099C3000097C3000095C3000093C300000C
:1000900091C300008FC300008DC300008BC300001C
:1000A00089C3000087C3000085C3000083C300002C
:1000B00081C300007FC300007DC300007BC300003C
:1000C00079C3000077C3000075C300000C94311B96
:1000D0000C94081B6FC300000C94DF1A0C94B61A22
:1000E00069C30000EC16EC16EC16EC16E916E916DE
:1000F000F016F016F016F016F016F016F016F016D0
:10010000E916E916F016F016F016F016F016EE16CF
:10011000EC16901C931C821C861C8C1CCA1C971C01
:100120009B1CA11CA51CA91CAF1CB31CB71CCA1C82
:10013000BD1CC11CC51C3C2D2D49507634002E0021
:100140002E002E003C2D2D504F5254003C2D2D449E
:100150004944003C2D2D434944003C2D2D55287326
:1001600029003C2D2D434944004F0045004E003CE2
:100170002D2D5020003C2D2D4D4F44206261756483
:10018000003C2D2D4D4F44205245545259002074AF
:100190006F20307846460053657474696E6720009E
:1001A0004E6F2064617461002D2D2D2D2D2D097C45
:1001B000007C007C0009007C20200009007C2000DD
:1001C00009007C2020200009007C2020200009005C
:1001D0007C2020200052656164696E672054616252
:1001E0006C653A00534554555020444F4E450041EC
:1001F0005400506C6561736520576169742E2E0040
:10020000462F7720496E6E6F76617465642062793F
:100210003A2053455053204D4F4E49544F52494E6A
:100220004720505654204C54442E00462F773A20F5
:10023000562D302E353046000000200023002600C9
:1002400029002C002F0032000001000003010601EC
:1002500009012E2E4F4B004D6F646275732D004DBA
:100260004F444255533A20496E76616C696420438D
:100270005243004D4F444255533A20496E76616CCB
:10028000696420536C617665206964004D4F444277
:1002900055533A2054696D656F7574004D4F444253
:1002A00055533A20496E76616C69642046756E63D9
:1002B00074696F6E004D4F444255533A20536C6140
:1002C0007665204661696C757265004D4F444255F4
:1002D000533A20496C6C6967616C204461746120F9
:1002E00056616C7565004D4F444255533A20496C38
:1002F0006C6967616C2044617461204164642E0004
:10030000282A2E2A290074656D70207265616400A8
:100310002D2D2D2D2D2D097C007C007C2020534E71
:100320006F097C20204944097C2046756E43097C76
:100330002041646472097C20504F4C4C53097C006E
:100340002D2D2D2D2D2D097C007C00446220656E05
:100350006400416C72656164792064656C657465E4
:10036000640052656164696E6720446F6E65002D9C
:100370002D2D2D2D2D097C007C007C0009007C207A
:10038000200009007C200009007C202020000900BA
:100390007C2020200009007C2020200053686F77FB
:1003A000696E67205461626C653A20466F7220491D
:1003B000442D0030004F4B0041540052445900413D
:1003C000542B43504F57443D3000727374204753B1
:1003D0004D00436865636B696E672047534D004766
:1003E000534D204641494C0A4769766520506F7746
:1003F0006572210047534D204F4B004F4B00415435
:1004000000220041542B53415042523D332C312C99
:100410002241504E222C2200544154412E444F433D
:100420004F4D4F2E494E5445524E455400646F6314
:100430006F6D6F00756E696E6F7200756E696E6FAD
:100440007200736D6172746E65740072656C6961BF
:100450006E63650062736E6C6E65740062736E6CC1
:100460000061697263656C677072732E70720061EF
:10047000697263656C0077777700766F6461666F89
:100480006E6500696E7465726E657400696465619D
:100490000061697274656C677072732E636F6D00B2
:1004A00061697274656C002B4353500041542B43B7
:1004B00053504E3F002E004552524F52004F4B00BA
:1004C00041542B53415042523D332C312C22434F47
:1004D0004E54595045222C22475052532200525418
:1004E00043204F4B00415426570041542B434C545A
:1004F000533D3100545A563A00525443002B435452
:100500005A5620744F555400545A563A0041544597
:1005100030004C4B3A20220041542B43434C4B3F7C
:100520000025005349474E414C3A200053513A2090
:100530000041542B4353510041542B5341504252DC
:100540003D312C3100436F6E6E656374696E6720B8
:1005500047505253005042523A200041542B5341CD
:100560005042523D322C310055504C4F41442046B0
:1005700041494C0055504C4F414420444F4E45009A
:1005800041434B00524541443A0041542B48545496
:100590005052454144004C494E4B204F4B003230A5
:1005A000302C0054494D45204F55540054494F4E6E
:1005B0003A0041542B48545450414354494F4E3D06
:1005C000300041542B48545450494E495400415432
:1005D0002B485454505445524D003267206661698F
:1005E0006C00414C4C20446F6E650044656C657432
:1005F000696E672044617461005265747279696E36
:10060000672000220026646174613D00264445563F
:100610003D56002F4144536D6172742E61736D78A5
:100620002F44656D6F313F44543D003A0041542BD7
:1006300048545450504152413D2255524C222C2294
:10064000687474703A2F2F000000220025002800E3
:100650002B002E00310034000201000005010801CA
:100660000B0100002100240027002A002D0030008B
:10067000330001010000040107010A010505050519
:10068000070508080808020202020A0A080804040A
:100690000404010101010101010103030303030338
:1006A0000303040707070C0C0C0C0C0C0C0C0202C7
:1006B000020206060606060606060B0B0B0B0B0BC4
:1006C0000B0B010210202008081020401020408051
:1006D0000201020108040201010204081020408006
:1006E0008040201008040201800402018040201094
:1006F00008040201080402010102040810204080DD
:10070000010204081020408000000A0B02090C0DB1
:100710000E080703040100000000000000000000B4
:1007200000000000000000000000000000000000C9
:100730000000000012111000000000000000000086
:1007400000000000000000000000000000008D23F9
:10075000752411241FBECFEFD1E2DEBFCDBF00E074
:100760000CBF12E0A0E0B2E0E0ECF3E500E00BBF6C
:1007700002C007900D92A438B107D9F726E0A4E88B
:10078000B2E001C01D92AE37B207E1F713E0C8EA4C
:10079000D3E000E006C021970109802FFE010E94EE
:1007A000A428C73AD10780E00807A9F70E94B81D1E
:1007B0000C94CF2925CC0E94AC29FC0124813581E1
:1007C0006217730720F480819181009729F41092B9
:1007D000900280E992E00895860F971F0895EF92A6
:1007E000FF920F931F93CF93DF936115710511F45F
:1007F00080E01EC08B01EC01CB010E94A92500976F
:10080000B1F02C813D817C01E20EF31EB701CE01D7
:100810000E945C19882361F3288139818C819D8134
:10082000B801820F931F0E94A225FD82EC8281E015
:10083000DF91CF911F910F91FF90EF900895CF938B
:10084000DF93EC01CCDF811103C0CE010E94C919F6
:10085000CE01DF91CF9108959091970281E0892791
:1008600080939702609197028AE20C94CB1C60E01F
:1008700081E30C94CB1C61E081E30C94CB1C809150
:100880009702811104C060E08BE20E94CB1C81E0E2
:100890008093970290E1909381001092800020E570
:1008A00033EC309387002093860093E1909381008E
:1008B00021E634E03093700620936F0680936F003A
:1008C000089580919702882321F061E08BE20E94D5
:1008D000CB1C1092970280E18093810010928000DF
:1008E00080E593EC909387008093860082E180936B
:1008F00081008FE394E09093700680936F0681E00F
:1009000080936F0008959091970281E089278093EA
:100910009702609197028BE20C94CB1CEF92FF92AE
:100920000F931F93CF93DF938C017B01D42F0E94F1
:100930001C1380E090E0D701ED91FC91119720818C
:10094000222329F001963196ED93FC93F4CFE81B16
:10095000F90BD701ED93FC93C82FD695D6958D173B
:1009600040F4CD1731F063EB73E0C80138DFCF5F9F
:10097000F8CFB701C8010E94C319F801C081D18125
:10098000209751F08881882339F0082E000C990BAC
:100990000E94B0298993F6CFC801DF91CF911F91B2
:1009A0000F91FF90EF9008950F931F93CF938C01B9
:1009B000A89501960E94FD1BC82FC8010E94FD1B2F
:1009C0002C2F30E0322F2227A895A901482BCA01ED
:1009D000CF911F910F910895CF93DF931F921F9294
:1009E000CDB7DEB720917A0630917B06211531050F
:1009F00011F42EE736E0CE010196821B930B0F9087
:100A00000F90DF91CF910895CF93DF93A89569E47C
:100A100073E089ED93E00E943A13C5E0D0E060E412
:100A200073E089ED93E00E943A132197C1F789EDB5
:100A300093E00E9437136BE173E089ED93E00E942D
:100A4000581369E173E089ED93E00E943A13C5E021
:100A5000D0E060E173E089ED93E00E943A132197C2
:100A6000C1F789ED93E0DF91CF910C9437131F9379
:100A7000CF93DF93182FA89590E0019726E0289F49
:100A8000E001299FD00D1124C85ADD4FD0930202F6
:100A9000C0930102CE010E94FD1B882309F48DC082
:100AA0008F3F09F492C0181388C066E872E0CE0147
:100AB0000E94D71B6CE973E089ED93E00E943A1322
:100AC000812F0E94641489ED93E00E9437139CDF0C
:100AD00067E973E089ED93E00E943A138091860202
:100AE0000E94641465E973E089ED93E00E943A1373
:100AF00060E973E089ED93E00E943A1380918702E8
:100B00000E9464146EE873E089ED93E00E943A134A
:100B100069E873E089ED93E00E943A1380918802BE
:100B20000E94641467E873E089ED93E00E943A1331
:100B300064E873E089ED93E00E943A1380918902A2
:100B400090918A020E946A1462E873E089ED93E052
:100B50000E943A136EE773E089ED93E00E943A1326
:100B600080918B020E9464146CE773E089ED93E03E
:100B70000E943A136AE773E089ED93E00E945813EC
:100B800068E773E089ED93E00E943A13A895C5E009
:100B9000D0E06FE673E089ED93E00E943A1321976D
:100BA000C1F789ED93E00E94371362E673E089EDA7
:100BB00093E00E94581381E00FC062E573E089ED75
:100BC00093E00E94581380E007C06BE473E089ED66
:100BD00093E00E94581382E0DF91CF911F91089516
:100BE000CF93DF93D82FC1E06C2F61708D2F0E94BF
:100BF000CB1C8C2F837031F066E970E080E090E0D0
:100C00000E94F91CCF5FC53079F7DB3211F41092E6
:100C10009702DF91CF910895CF93DF93C82FD62FFE
:100C2000642F8CE20E94CB1C6D2F8DE20E94CB1CA6
:100C30006C2F8EE2DF91CF910C94CB1CCF92DF9280
:100C4000EF92FF920F931F93CF93DF9300D000D0CA
:100C5000CDB7DEB78C010E941C130E94311D6B01C1
:100C60007C018CE393E00E943E1818161906FCF0F4
:100C70000E94311DDC01CB018C199D09AE09BF0911
:100C8000893C9105A105B10560F38FC0AFEFFA165D
:100C900041F06FE4C8010E94B0196F2DC8010E9495
:100CA000B01962E070E080E090E00E94F91C8CE3F3
:100CB00093E00E943E1818161906D4F5CE0101964D
:100CC0000E941C130E943D1D97FD09C08F349105A1
:100CD00031F0682FCE0101960E94B019F3CFBE010A
:100CE0006F5F7F4FC8010E94C319CE0101960E9419
:100CF0004A1A62E070E080E090E00E94F91C8CE308
:100D000093E00E941C18F82E8BE4F81206C06FE4E2
:100D1000C8010E94B0196BE408C092E5F912B6CF81
:100D20006FE4C8010E94B01962E5C8010E94B019C1
:100D3000F80184819581892B31F00190F081E02DBB
:100D4000808181111BC08CE393E00E943E1818162D
:100D50001906A4F466E073E089ED93E00E9458134D
:100D6000CE0101967C016ADFE016F10621F0B701A1
:100D7000C8010E942219C7010E944A1A62E070E06D
:100D800080E090E00E94F91C8CE393E00E943E1802
:100D90001816190654F48CE393E00E941C188E3345
:100DA00069F76EE3C8010E94B019C80126960FB614
:100DB000F894DEBF0FBECDBFDF91CF911F910F9191
:100DC000FF90EF90DF90CF900895CF92DF92EF9257
:100DD000FF921F93CF93DF9300D000D0CDB7DEB743
:100DE0000E94311D6B017C01A895CE01019626DF82
:100DF000BE016F5F7F4F82E894E00E942219CE010E
:100E000001960E944A1A6DEB74E0CE0101960E9491
:100E1000A61A42E0BE016F5F7F4F82E894E00E9415
:100E20009914182FCE0101960E944A1A11112AC056
:100E3000A89567EB74E0CE0101960E94A61A45E0E2
:100E4000BE016F5F7F4F82E894E00E949914182FD3
:100E5000CE0101960E944A1A111114C00E94311D40
:100E6000DC01CB018C199D09AE09BF09893B9B4070
:100E7000A105B10540F465EB74E089ED93E00E94B3
:100E80003A13B3CF11E0812F26960FB6F894DEBF48
:100E90000FBECDBFDF91CF911F91FF90EF90DF90FC
:100EA000CF9008959F92AF92BF92CF92DF92EF9230
:100EB000FF920F931F93CF93DF93CDB7DEB72C979D
:100EC0000FB6F894DEBF0FBECDBF68E175E08CE3CE
:100ED00093E00E94581379DF811104C0C12CD12CFA
:100EE0007601E5C162E175E0CE0101960E94A61A85
:100EF00045E0BE016F5F7F4F82E894E00E94991445
:100F0000182FCE0101960E944A1A112339F3CE01FF
:100F100007960E941C138091420290914302019611
:100F2000909343028093420262E872E0CE010796FA
:100F30000E94201A609142027091430282E894E07C
:100F40003CDCFC01808160914202709143028F324F
:100F500021F182E894E031DCFC011081BE01695F7F
:100F60007F4FCE0101960E94AE1A612FCE010196ED
:100F70000E948D14BC01CE0107960E94351ACE0145
:100F800001960E944A1A8091420290914302019672
:100F90009093430280934202CDCF6F5F7F4F709357
:100FA000430260934202CE0107960E946F14182FED
:100FB00062E872E0CE0107960E94201A6091420218
:100FC0007091430282E894E0F8DBFC0180818F326B
:100FD00041F1609142027091430282E894E0EDDBBE
:100FE000FC010081BE01695F7F4FCE0101960E9426
:100FF000AE1A602FCE0101960E948D14BC01CE0165
:1010000007960E94351ACE0101960E944A1A8091D5
:1010100042029091430201969093430280934202D0
:10102000CDCFCE0107960E946F14082F8091420207
:10103000909143020196909343028093420262E8AA
:1010400072E0CE0107960E94201A609142027091D0
:10105000430282E894E0B1DBFC0180818C3241F1F3
:10106000609142027091430282E894E0A6DBFC01A9
:10107000F080BE01695F7F4FCE0101960E94AE1ADB
:101080006F2DCE0101960E948D14BC01CE010796F2
:101090000E94351ACE0101960E944A1A809142029E
:1010A0009091430201969093430280934202CDCFE8
:1010B000CE0107960E946F14982E80914202909163
:1010C00043020196909343028093420262E872E0E9
:1010D000CE0107960E94201A60914202709143024D
:1010E00082E894E06ADBFC0180818A3341F16091FF
:1010F00042027091430282E894E05FDBFC01F080E1
:10110000BE01695F7F4FCE0101960E94AE1A6F2D1E
:10111000CE0101960E948D14BC01CE0107960E945B
:10112000351ACE0101960E944A1A8091420290918E
:10113000430201969093430280934202CDCFCE01A9
:1011400007960E946F14A82E80914202909143024C
:101150000196909343028093420262E872E0CE01CE
:1011600007960E94201A609142027091430282E821
:1011700094E023DBFC0180818A3341F160914202DB
:101180007091430282E894E018DBFC01F080BE011C
:10119000695F7F4FCE0101960E94AE1A6F2DCE017E
:1011A00001960E948D14BC01CE0107960E94351A4B
:1011B000CE0101960E944A1A809142029091430208
:1011C00001969093430280934202CDCFCE010796C1
:1011D0000E946F14B82E80915405E12F012E000C4F
:1011E000FF0BE80FF11D87FDFA95DF0120E833E3DF
:1011F00041EE51E00E9449276B017C01A02FAA0F0C
:10120000BB0BA65CBA4F0D90BC91A02DA90DB11DD2
:1012100097FCBA95CF01029697FD03969595879511
:1012200095958795A80FB91F119720E831E541E002
:1012300050E00E944927C60ED71EE81EF91EAA2DAF
:10124000AA0CBB0B20E13EE00E94AC28C60ED71EC4
:10125000E81EF91EAB2DBB0CBB0B2CE330E00E944B
:10126000AC28DC01CB018C0D9D1DAE1DBF1D137084
:1012700031F4033024F480589145A140B1098732FC
:10128000F2E19F07F2EDAF07FCE5BF0748F06C0104
:101290007D0128E5C21A2DE4D20AE108F10803C055
:1012A000C12CD12C7601CE0107960E944A1AC701A3
:1012B000B6012C960FB6F894DEBF0FBECDBFDF91FE
:1012C000CF911F910F91FF90EF90DF90CF90BF9043
:1012D000AF909F9008951F93CF93DF93CDB7DEB764
:1012E0002C970FB6F894DEBF0FBECDBF6CEA74E04A
:1012F0008CE393E00E945813CE0107960E941C13C2
:1013000064DD882309F4F3C067EA74E0CE01019636
:101310000E94A61A44E0BE016F5F7F4F82E894E00E
:101320000E949914182FCE0101960E944A1A112387
:1013300009F4DDC060EA74E0CE0101960E94A61AAD
:1013400046E0BE016F5F7F4F82E894E00E949914EF
:10135000182FCE0101960E944A1A112319F061E953
:1013600074E0A7C06CE874E0CE0101960E94A61A52
:1013700044E0BE016F5F7F4F82E894E00E949914C1
:10138000182FCE0101960E944A1A112319F063E822
:1013900074E08FC06AE774E0CE0101960E94A61A3D
:1013A00048E0BE016F5F7F4F82E894E00E9499148D
:1013B000182FCE0101960E944A1A112319F066E7F0
:1013C00074E077C06FE674E0CE0101960E94A61A21
:1013D00046E0BE016F5F7F4F82E894E00E9499145F
:1013E000182FCE0101960E944A1A112319F061E6C6
:1013F00074E05FC06CE574E0CE0101960E94A61A0D
:1014000044E0BE016F5F7F4F82E894E00E94991430
:10141000182FCE0101960E944A1A112319F064E593
:1014200074E047C06BE474E0CE0101960E94A61AF6
:1014300048E0BE016F5F7F4F82E894E00E949914FC
:10144000182FCE0101960E944A1A112319F062E466
:1014500074E02FC06BE374E0CE0101960E94A61ADF
:1014600046E0BE016F5F7F4F82E894E00E949914CE
:10147000182FCE0101960E944A1A112319F064E335
:1014800074E017C06DE274E0CE0101960E94A61AC6
:1014900046E0BE016F5F7F4F82E894E00E9499149E
:1014A000182FCE0101960E944A1A112331F068E1EB
:1014B00074E0CE0107960E94DB19BE01695F7F4F81
:1014C00089ED93E00E943B1C63E074E08CE393E0C1
:1014D0000E943A13BE01695F7F4F8CE393E00E9444
:1014E000EC1361E074E08CE393E00E945813CE01AA
:1014F00007960E944A1A2C960FB6F894DEBF0FBECC
:10150000CDBFDF91CF911F9108951F93CF93DF93AC
:1015100000D000D0CDB7DEB76EEF73E08CE393E080
:101520000E94581352DC6BEF73E0CE0101960E94CB
:10153000A61A42E0BE016F5F7F4F82E894E00E94EE
:101540009914182FCE0101960E944A1A112389F08E
:1015500064EF73E089ED93E00E94581380919B0241
:10156000811102C010926F0061E08AE20E94CB1CE0
:1015700021C06FED73E089ED93E00E94581380E184
:10158000809381001092800084E294EF9093870012
:101590008093860083E1809381008CE294E09093B5
:1015A000700680936F0681E080936F0040E060E0FA
:1015B00080E032DB812F26960FB6F894DEBF0FBE97
:1015C000CDBFDF91CF911F9108951F93CF93DF93EC
:1015D00000D000D0CDB7DEB7182F62ED73E089EDF3
:1015E00093E00E945813A895112361F06AEC73E010
:1015F00089ED93E00E9458136FEB73E08CE393E066
:101600000E945813E2DB6BEB73E0CE0101960E945F
:10161000A61A45E0BE016F5F7F4F82E894E00E940A
:101620009914182FCE0101960E944A1A11112AC04E
:10163000A89560ED77E080E090E00E94F91CA89505
:1016400068EB73E08CE393E00E945813A895BDDB30
:10165000A89565EB73E0CE0101960E94A61A42E0C0
:10166000BE016F5F7F4F82E894E00E949914182FAB
:10167000CE0101960E944A1A111104C0A89580E07B
:10168000A4DF01C0A89526960FB6F894DEBF0FBE62
:10169000CDBFDF91CF911F9108958F929F92AF920E
:1016A000BF92CF92DF92EF92FF921F93CF93DF937F
:1016B00000D000D0CDB7DEB726E040E855E260E0CC
:1016C00070E08CE393E00E9468136DE075E08CE3BA
:1016D00093E0EED77ADB0E94311D6B017C01E2DBE7
:1016E0006E377F45824D9C4508F07AC0C701B60130
:1016F00024E630E040E050E00E944F2769017A0183
:1017000084E6882E912CA12CB12C68E075E0CE01E6
:1017100001960E94A61A44E0BE016F5F7F4F82E8E7
:1017200094E00E949914182FCE0101960E944A1A43
:1017300011112FC0A895B6DB6F377F45824D9C45B0
:1017400008F04EC0CE01019679DABE016F5F7F4F7F
:1017500082E894E00E942219CE0101960E944A1A62
:10176000A8950E94311DA50194010E944F27DA011E
:10177000C9018C199D09AE09BF0987399105A105D9
:10178000B10508F4C2CF6DEF74E089ED93E090D716
:101790001AC069EF74E089ED93E08AD764EF74E0D2
:1017A000CE0101960E94A61A44E0BE016F5F7F4FF2
:1017B00082E894E00E949914F82ECE0101960E94CE
:1017C0004A1AF1100DC06AEE74E08CE393E070D712
:1017D000FCDA65EE74E08CE393E06AD7F6DA10C0C9
:1017E0006EED74E089ED93E063D760EC74E08CE318
:1017F00093E05ED7EADA6FDDE8DA87DE811104C0B4
:1018000081E0E3DEA89549DF26960FB6F894DEBFA7
:101810000FBECDBFDF91CF911F91FF90EF90DF9072
:10182000CF90BF90AF909F908F9008952F923F924E
:101830004F925F926F927F928F929F92AF92BF92E0
:10184000CF92DF92EF92FF920F931F93CF93DF938C
:10185000CDB7DEB7C354D1090FB6F894DEBF0FBEC3
:10186000CDBF082F8E3F09F002C1809188048F3FC1
:1018700009F46BC6809106028F3F01F1E8E8F4E0BD
:101880002CE335E040E080818F3F29F4A6E0B2E010
:1018900020E030E008C018160CF44F5F33962E1786
:1018A0003F0789F7F3CF8D918F3F51F4842F90E05C
:1018B00028173907E9F08FEF809306020FEF14C065
:1018C000082E000C990BFC01EE0FFF1F8E0F9F1FBF
:1018D000FC01E857FB4F8081882369F32F5F3F4F5E
:1018E0002C33310501F70CE3A8E8B4E080E00AC02E
:1018F0000FEF020F4FC0911110C08F5F13968C3302
:1019000009F448C09C919F3FB1F7E02F002E000CD6
:10191000FF0BEA5FFD4F91833DC00F5F40910602D0
:10192000242F042E000C330BF901EE0FFF1F2E0F96
:101930003F1FF901E857FB4F2081291754F4E02F8E
:10194000002E000CFF0BEA5FFD4F408380930602E0
:10195000D4CF002391F2402F002E000C550BBA017A
:101960006B5F7D4FFB01F0802F2D0F2C000C330B94
:10197000F901EE0FFF1F2E0F3F1FF901E857FB4F34
:101980002081FA01EA5FFD4F291714F4F082FB0170
:101990008083B3CF0F3F09F4D8C5A6E0B2E080E062
:1019A00080170CF063C02D91022E000C330BF9014F
:1019B000EE0FFF1F2E0F3F1FF901E857FB4F9081DD
:1019C0002C91022E000C330BF901EE0FFF1F2E0F8E
:1019D0003F1FF901E857FB4F40818F5F941701F3D8
:1019E000292F990F330B241B310947FD33952130E3
:1019F0003105B1F2602F002E000C770BA82FB0E05C
:101A00006A177B079CF1902FAA5FBD4F891760F57D
:101A1000CC90492F50E04A5F5D4FFA01D0802C2DC9
:101A20000C2C000C330B7901EE0CFF1C2E0D3F1D0E
:101A3000F901E857FB4F7F012D2D0D2C000C330BC6
:101A4000F901EE0FFF1FE20FF31F9F0128573B4FD5
:101A50005901F7013081F501208132171CF4FA0198
:101A6000C082DC929150D2CF8F5FC8CF0F5FCE0182
:101A70008796E2D5CE018D96DFD56AE570E0CE017E
:101A800087960E945C196DE276E0CE0187960E94EF
:101A9000DB196CE774E0CE0187960E94C3196BE2F4
:101AA00076E0CE0187960E94EF0366E774E0CE01F0
:101AB00087960E94C31963E176E0CE0187960E9463
:101AC000EF0360918C0270918D0280918E02909153
:101AD0008F021CAA1BAA1EAA1DAA18AE1FAA2AE0C2
:101AE000AE014F5F5F4F0E94BC25BE016F5F7F4F0D
:101AF000CE01C3960E94201ABE016D5C7F4FCE01BD
:101B000087960E94C319CE01C3960E944A1A6CE0C0
:101B100076E0CE0187960E94EF0364E070E0CE018C
:101B20008D960E945C1960918402709185024AE052
:101B3000CE0101960E944F1ABE016F5F7F4FCE010A
:101B40008D960E942219CE0101960E944A1A40E108
:101B5000BE01635D7F4FCE0101960E948E04BE01DF
:101B60006F5F7F4FCE0187960E94C319CE01019609
:101B70000E944A1A65E076E0CE0187960E94EF0344
:101B80000E94EC040E94241C80E090E0EFA1F8A5E4
:101B90002081222329F001963196F8A7EFA3F6CFF2
:101BA000E81BF90BF8A7EFA38AA38ED689ED93E083
:101BB0005ED5AAA1AF5FAAA3B0E062EC71E06A1B98
:101BC0007B0B7EA36DA320E030E007FD27C08FEFE5
:101BD000800F982F8F3F19F43CA32BA344C0E82F0C
:101BE000082E000CFF0BEA5FFD4F4081042E000C15
:101BF000550BFA01EE0FFF1F4E0F5F1FFA01E8575A
:101C0000FB4F4081F4E04F02200D311D1124265F6F
:101C10003F4F6217730738F0082FD7CF3CA32BA391
:101C20000F3F09F59FEFE92F092E000CFF0BEA5F2C
:101C3000FD4F4081042E000C550BFA01EE0FFF1FE3
:101C40004E0F5F1FFA01E857FB4F808146EF5FEFB1
:101C500064E08602401951091124240F351F3CA36A
:101C60002BA301E0090F8BA19CA1019661E070E01C
:101C70008A0F9B1F0E94B22890939E0280939D0220
:101C8000009709F41EC3BE01695D7F4F0E94C3190E
:101C90000E94EC040E94241C802F002E000C990B43
:101CA0009EA38DA3BB24BA948BA19CA1892B09F47C
:101CB00044C10E94EC040E94241C802F002E000CC2
:101CC000990BFC01EA5FFD4F7F0180818F5F0E94CD
:101CD00037056091890270918A0240E1CE01019638
:101CE0000E944F1ABE016F5F7F4FCE018D960E94FA
:101CF0002219CE0101960E944A1A40E1BE01635D9D
:101D00007F4FCE0101960E948E04BE016F5F7F4F10
:101D100080919D0290919E020E94C319CE0101966E
:101D20000E944A1A40E160918702CE0101960E940A
:101D30007A1ABE016F5F7F4FCE018D960E942219E5
:101D4000CE0101960E944A1A48E0BE01635D7F4FB2
:101D5000CE0101960E948E04BE016F5F7F4F80917D
:101D60009D0290919E020E94C319CE0101960E948D
:101D70004A1A40E160918802CE0101960E947A1AC7
:101D8000BE016F5F7F4FCE018D960E942219CE015A
:101D900001960E944A1A48E0BE01635D7F4FCE0162
:101DA00001960E948E04BE016F5F7F4F80919D025D
:101DB00090919E020E94C319CE0101960E944A1A78
:101DC00080918B021CAA1BAA1EAA1DAA18AE1FAACC
:101DD00090E040E1BE016F5F7F4F880F991F0E9426
:101DE000B225BE016F5F7F4FCE01C3960E94201ABD
:101DF000BE016D5C7F4FCE018D960E942219CE01EF
:101E0000C3960E944A1A48E0BE01635D7F4FCE012F
:101E100001960E948E04BE016F5F7F4F80919D02EC
:101E200090919E020E94C319CE0101960E944A1A07
:101E30001AA22AA1F7018081E82F082E000CFF0BBF
:101E400030E0AF01440F551FE40FF51FE857FB4F7B
:101E50004081042E000C550B241735079CF5C90151
:101E6000880F991F0180F281E02DE80FF91F608132
:101E7000718140E1CE0101960E944F1ABE016F5F51
:101E80007F4FCE018D960E942219CE0101960E94AD
:101E90004A1A40E1BE01635D7F4FCE0101960E9468
:101EA0008E04BE016F5F7F4F80919D0290919E02D4
:101EB0000E94C319CE0101960E944A1A8AA18F5F1F
:101EC0008AA3B7CF8AA390E0FC01EE0FFF1F8E0F0D
:101ED0009F1FFC01E857FB4F20818BA19CA10A9713
:101EE000F4E02F028019910911249CA38BA3F2D452
:101EF00089ED93E0BCD30E94EC040E94241CCAA08C
:101F0000D12CC601880F991F8C0D9D1D9C0128574F
:101F10003B4F6901F901818192810E941925F601E7
:101F20001282118289ED93E0A2D30E94EC040E94F8
:101F3000241CF701B0820F5FB7CE63E076E080919A
:101F40009D0290919E020E94EF03FDA1FFAF0E94AF
:101F5000EC040E94241C1AA201E080E1382E93E1D7
:101F6000292E0E94311D24966CAF7DAF8EAF9FAF9E
:101F7000249700939B02309281001092800020E50C
:101F800033EC30938700209386002092810043E851
:101F900054E05093700640936F0600936F00B5DADB
:101FA000882309F435C161E375E08CE393E080D3C5
:101FB000CE01C9960E941E06CE01C3963DD36CE2A7
:101FC00075E0CE0101960E94A61A44E0BE016F5F43
:101FD0007F4FCE01C996ADD4F82ECE0101960E9456
:101FE0004A1AFF20A1F1809142029091430201968A
:101FF00090934302809342026091420270914302A7
:10200000CE01C9960E94DD03FC0180818C32F9F07B
:102010006091420270914302CE01C9960E94DD0395
:10202000FC01F080BE016D5C7F4FCE0101960E94E5
:10203000AE1A6F2DCE01019670D4BC01CE01C396AD
:102040000E94351ACE0101960E944A1ACCCF63E253
:1020500075E089ED93E00ED3CE01C39640D4F82EFF
:10206000682F70E080E090E00E9416264B015C0132
:1020700020E030E0A9010E941026882331F0FAE028
:10208000FF1518F040E060E00BC085EF8F0D8A303F
:1020900010F440E004C024E12F1528F441E061E091
:1020A00081E00E940C0620E030E048EF51E4C501D9
:1020B000B4010E94E52720E030E048EC52E40E94A1
:1020C00075266B017C014B015C019B01AC010E94F8
:1020D0007D28882319F064E772E01AC026013701D1
:1020E000E89477F82FEF3FEF4FE75FE7C301B201C6
:1020F0000E947D28811110C02FEF3FEF4FE75FE76F
:10210000C301B2010E941026181634F468E772E089
:1021100089ED93E09DD26FC02FEF3FEF4FE75FE473
:10212000C701B6010E94792818161CF46CE772E00A
:10213000EFCF2FEF3FEF4FE75FECC701B6010E94F3
:10214000102687FDF3CF20E030E0A901C701B601DA
:102150000E94102687FF0AC06DE289ED93E0D7D771
:1021600046015701B7FAB094B7F8B0942AE037EDBA
:1021700043EA5BE3C501B4010E9481274B015C0186
:102180000E944D286B017C010E9414269B01AC012A
:10219000C501B4010E9480274B015C014AE0C701E0
:1021A000B60131D36EE289ED93E0B1D720E030E0A3
:1021B00040E251E4C501B4010E9475264B015C0167
:1021C0000E944D286B017C01CB0184D3B60180E0D5
:1021D00090E00E9414269B01AC01C501B4010E944D
:1021E000802720E030E040E251E40E9475260E9402
:1021F0004D28CB016FD361E275E089ED93E058D2B1
:10220000CE01C3960E944A1ACE01C9960E944A1A6C
:102210006BE575E08CE393E04BD20E94E5068823E2
:1022200009F44BC065E575E0CE0101960E94A61A3F
:1022300045E0BE016F5F7F4F82E894E07AD3F82ECD
:10224000CE0101960E944A1AFF20B9F16091420224
:10225000709143026D5F7F4F70934302609342021F
:1022600082E894E00E94DD03FC01608189ED93E047
:102270004ED789ED93E0FBD1609142027091430209
:1022800082E894E00E94DD03FC0180818133D9F073
:1022900065E475E089ED93E00BD21DD80E94E50658
:1022A000882309F454C168E375E08CE393E000D21D
:1022B0000E94E506811107C04AC1112309F447C1F4
:1022C00002C01FEF3BC1309281001092800044EDAC
:1022D00050E350938700409386002092810083E86A
:1022E00094E09093700680936F0600936F0092E0E5
:1022F00090939B026EEC75E08CE393E0D9D10E9441
:10230000E506882309F47BC162EC75E08CE393E079
:10231000CFD10E94E506882309F471C1A895609188
:102320009D0270919E0289ED93E00E943B1C60919A
:102330009D0270919E028CE393E00E943B1C0E94E0
:10234000E506882309F45BC162EB75E08CE393E05A
:10235000AFD10E94E506182F882309F450C180915F
:102360009702811115C0309281001092800020E503
:1023700033EC309387002093860082E180938100C4
:102380004FE354E05093700640936F0600936F0044
:10239000809197028823A1F03092810010928000F2
:1023A00080E593EC909387008093860020928100D3
:1023B000E1E6F4E0F0937006E0936F0600936F009F
:1023C0000E94311D24E630E040E050E00E944F279B
:1023D00069017A016CEA75E0CE0101960E94A61AA5
:1023E00045E0BE016F5F7F4F82E894E0A2D2B82E35
:1023F000CE0101960E944A1ABB2009F4D9C0F6E02A
:10240000F0939B026EE975E0CE0101960E94A61A38
:1024100044E0BE016F5F7F4F82E894E08AD2182FBC
:10242000CE0101960E944A1A112309F4E8C066E918
:1024300075E089ED93E03CD16AE875E08CE393E0C8
:1024400037D10E94E506882309F4D9C00E94311DC6
:1024500064E875E0CE0101960E94A61A45E0BE012F
:102460006F5F7F4F82E894E064D2182FCE0101960F
:102470000E944A1A112361F360E875E0CE010196CB
:102480000E94A61A43E0BE016F5F7F4F82E894E08E
:1024900050D2182FCE010196FDD7112309F4AFC0F9
:1024A00064E775E089ED93E003D110926F0061E07D
:1024B0008BE20E94CB1C0E94311D24962CAD3DADB9
:1024C0004EAD5FAD2497621B730B840B950B0E947E
:1024D0004D1C87E080939B026BEE75E089ED93E0E5
:1024E000E7D00E94EC040E94241C00919D021091F0
:1024F0009E020115110529F0C801CCD7C8010E9420
:10250000192510929E0210929D020E94EC040E94D6
:10251000241C3FAD832F330F990B0E94241C109174
:1025200006021F3F09F042C062EE75E089ED93E0BC
:10253000BFD040E060E080E00E940C06CE018D96A6
:10254000A9D7CE018796A6D75CC01FEF5AC06AED07
:1025500075E089ED93E0ACD080919C028F5F809311
:102560009C0210E010929B0268E675E089ED93E012
:102570009FD010926F008BE20E94F00562E874E039
:1025800089ED93E00E943B1C8AA18A3008F0A4CF19
:1025900069EF75E089ED93E06DD08AA190E0019636
:1025A0000E94241C8AA18F5F8AA3DBCC1FADC6CFFB
:1025B000CE0101960E941E06BE016F5F7F4F82E82A
:1025C00094E040D6CE01019665D70E94311D24E6E5
:1025D00030E040E050E00E944F27DA01C9018C1939
:1025E0009D09AE09BF0987399105A105B10508F418
:1025F000F1CE63EA75E089ED93E05AD0B3CF11E0F4
:10260000B1CF812FCD5BDF4F0FB6F894DEBF0FBE89
:10261000CDBFDF91CF911F910F91FF90EF90DF9091
:10262000CF90BF90AF909F908F907F906F905F9072
:102630004F903F902F900895FC01118210821382D9
:1026400012821582148240E050E062E872E0D9C63E
:102650006115710549F0FB0101900020E9F7319700
:10266000AF01461B570BACC480E090E0089560E8D2
:1026700072E0EECFEF92FF920F931F93CF93DF9311
:102680008C017B01C0E0D0E0F701EC0FFD1F6491ED
:10269000662331F0C8013BD5892B11F02196F4CF88
:1026A000CE01DF91CF911F910F91FF90EF90089590
:1026B0000F931F93CF93DF93EC01DCDF8C01CE01EE
:1026C000D6DF800F911FDF91CF911F910F91089559
:1026D000CF92DF92EF92FF921F93CF93DF93EC01A3
:1026E0006A017B01122FE889F98982E08083411514
:1026F000514E61057105B1F060E079E08DE390E045
:10270000A70196010E944F27DA01C9010197A1098B
:10271000B109B695A795979587959C01211580E1FC
:102720003807A8F0E889F989108260E874E88EE13A
:1027300090E0A70196010E944F27DA01C901019795
:10274000A109B109B695A795979587959C01EC8548
:10275000FD853083EE85FF852083188EEC89FD8909
:102760001083EA89FB89808180618083EA89FB8903
:10277000808188608083EA89FB898081806880838A
:10278000EA89FB8980818F7D8083DF91CF911F91C2
:10279000FF90EF90DF90CF90089590E0FC01EE5312
:1027A000F94F2491FC01E458F94F8491882399F062
:1027B00090E0880F991FFC01EE59F94FA591B49153
:1027C000FC01E85BF94F859194918FB7F894EC91F7
:1027D000E22BEC938FBF0895FB014481558160810A
:1027E0007181EEC3CF93DF93EC01FB0144815581EE
:1027F0006081718188D5811102C0CE01CAD5CE0118
:10280000DF91CF9108958F929F92AF92BF920F93D5
:102810001F93CF93DF93CDB7DEB7A1970FB6F89490
:10282000DEBF0FBECDBF19A2423008F44AE08E01D0
:102830000F5D1F4F842E912CA12CB12CA50194016A
:102840000E944F27E62FB901CA0101501109EA3051
:1028500014F4E05D01C0E95CD801EC93232B242B38
:10286000252B61F7B80189ED93E0F2DEA1960FB652
:10287000F894DEBF0FBECDBFDF91CF911F910F91B6
:10288000BF90AF909F908F900895CF92DF92EF927C
:10289000FF92CF93DF936B017C016DE289ED93E0B2
:1028A00036D4EC0166277727CB016C197D098E0998
:1028B0009F094AE0A8DF8C0F9D1FDF91CF91FF9009
:1028C000EF90DF90CF900895682F70E080E090E067
:1028D0004AE099CFBC0180E090E04AE094CFDC016F
:1028E00020E080E0ED91FC9111973081332381F05D
:1028F000222331F0982F990F892F880F880F890F85
:102900003053830F2F5F31961196FC93EE93EACFED
:10291000E21BF109ED93FC930895CF93DF93EC0153
:102920001FD5811102C0CE0134D5CE01DF91CF91E8
:1029300008958F929F92BF92CF92DF92EF92FF9273
:102940000F931F93CF93DF93EC01A8958C819D810A
:10295000892B09F46BC0E881F9818081882309F40F
:1029600065C0B42E7B01C12CD12CE881F981808116
:10297000882309F450C0A89500E0802E912CB40162
:10298000C7010E94DD03FC0180818823F1F0A89536
:10299000E881F9811081B401C7010E94DD03FC01C7
:1029A0008081181306C08881998101969983888354
:1029B0000F5FE881F9811081602F70E0C7010E94EC
:1029C000DD03FC0180811817C1F210E0B801C701D6
:1029D0000E94DD03FC01208188819981211113C0AF
:1029E0004B2D50E0415051094C0D5D1D5093430259
:1029F000409342020C0D1D1D801B910B998388830F
:102A0000A89581E014C00196998388830F5F1F4FBA
:102A1000C00ED11EAACFEC19FD09F983E8838FEF10
:102A20009FEF9093430280934202A89580E0DF914C
:102A3000CF911F910F91FF90EF90DF90CF90BF90BB
:102A40009F908F9008957F928F929F92AF92BF92A6
:102A5000CF92DF92EF92FF920F931F93CF93DF936A
:102A6000CDB7DEB7DA950FB6F894DEBF0FBECDBF97
:102A7000C82E809157058983CA8221E0C216A0F032
:102A800074E07C1518F487E1C8120EC080915805D7
:102A9000909159059B838C8380915A0590915B0599
:102AA0009D838E8386E001C082E08E010F5F1F4F01
:102AB00090E19C1528F0AFE0CA1630F49BEF01C0FE
:102AC0009AEE9C0D923078F42091DC059091DD0512
:102AD000F801E80FF11D908391E0980FF801E90FDC
:102AE000F11D8E5F2083BFE0CB1641F1BC1558F07D
:102AF000E5E0CE16A1F0F6E0CF12B6C02091E005D9
:102B00009091E10510C026E1C21609F48EC077E16C
:102B1000C71609F459C090E1C912A6C055C020914A
:102B2000DE059091DF05F801E80FF11D908391E03B
:102B3000980FF801E90FF11D8E5F95C02091DE0519
:102B40003091DF05F801E80FF11D308342E0480FB6
:102B500091E0980FF801E90FF11D2083B90167702A
:102B60007727A3E036952795AA95E1F7672B19F00B
:102B700091E0920F01C0922FB3E0B80FF801E40F7B
:102B8000F11D90838C5F60E070E0A0E04FEF480F94
:102B90009A1303C08B2F890F67C050E09B013595B6
:102BA0002795400F511F220F331FF901E052FA4FB2
:102BB000A0FD02C0208101C02181FA012083AF5F06
:102BC0006F5F7F4F8F5FE2CF2091DE053091DF0591
:102BD000F801E80FF11D308391E0980FF801E90F3B
:102BE000F11D208392E0980FF801E90FF11D8D5F30
:102BF000922F990F908390E03327E92FF0E0E217AE
:102C0000F30794F5EE0FFF1FE052FA4F5081418118
:102C1000F801E80FF11D408341E0480FF801E40F8F
:102C2000F11D8E5F50839F5FE8CF9091E00520916A
:102C3000E105F801E80FF11D208321E0280FF801DC
:102C4000E20FF11D90832091E2059091E30532E0BF
:102C5000380FF801E30FF11D908393E0980FF8010E
:102C6000E90FF11D8C5F20837801F8012FEF3FEF12
:102C7000D02E9E2F901B9817A0F49191292748E001
:102C800050E0B9017695679520FF06C09B0191E061
:102C9000292790EA392701C09B014150510989F742
:102CA000E8CFF801E80FF11D2083B2E0BB2EB80E8B
:102CB0008F5FF801E80FF11D3083F801EB0DF11D76
:102CC00010828091550590915605DC01ED91FC91A3
:102CD0000284F385E02D1995019699F7E0916B0632
:102CE000F0916C06309709F01995809155059091F7
:102CF00056052E2D2D192B1558F4F70161917F01E2
:102D0000DC01ED91FC910190F081E02D1995EDCF62
:102D1000DC01ED91FC910680F781E02D1995E091A1
:102D20006D06F0916E06309709F019959AD64B0111
:102D30005C01A8E0EA2EF12CD12C809155059091F0
:102D40005605DC01ED91FC910084F185E02D19958B
:102D5000892BA9F0772473947F0C8091550590916D
:102D60005605DC01ED91FC910284F385E02D199567
:102D7000F801EF0DF11D8083EA94F72C07C0E09174
:102D80006906F0916A06309709F01995B5E0FB12D3
:102D900027C09981809157059813ABC0EA818E2F87
:102DA0008F7790E08C159D0509F0A5C0E7FF04C062
:102DB0008B81882379F181C08E2F90E0FC013197BF
:102DC000E731F10568F48827EE58FF4F8F4F0C94D8
:102DD000A428F3E0EF2E04C0EB8002C0E5E0EE2E65
:102DE00040D6DC01CB0188199909AA09BB09813DAC
:102DF0009740A105B10538F480E0EE2031F088233A
:102E000009F49BCF5AC082EEF8CF811156C0F4E08E
:102E1000FF15C8F58FEF9FEF60E0EF2DF0E09F0109
:102E200022503109462F50E0D80142175307BCF415
:102E3000A40FB51F4C91842748E050E0DC01B69503
:102E4000A79580FF06C0CD0171E0872770EA97271C
:102E500001C0CD014150510989F76F5FE3CFA20F47
:102E6000B31F2C9130E0AC0155274217530709F0EE
:102E7000A4C0892F9927EC0FFD1F208130E0821715
:102E8000930709F09AC08A818530B8F58330B8F588
:102E9000813090F05B81652F70E07595679520918A
:102EA000680640E0842F90E0861797070CF453C023
:102EB0002093680650FD6DC080E01092620610926B
:102EC00064061092630610926706D3950FB6F894C5
:102ED000DEBF0FBECDBFDF91CF911F910F91FF904D
:102EE000EF90DF90CF90BF90AF909F908F907F90AA
:102EF000089580EEE2CF81EEE0CF8731E9F66B8175
:102F000070E0759567952091680640E0842F90E009
:102F1000861797071CF020936806CECF4034C0F484
:102F20009C012E5F3F4F220F331F880F991FFC011A
:102F3000EB5AFA4FDE01A20FB31F8C9190E0982F4D
:102F40008827D801A20FB31F2C91822B90878783EB
:102F5000242F4F5FDBCF4034C8F4880F991FFC014A
:102F6000EB5AFA4FA5E0B0E0AC0FBD1FA80FB91F98
:102F70002C9130E0322F2227A4E0B0E0AC0FBD1F2F
:102F8000A80FB91F8C91282B30872783242F4F5FE0
:102F900089CF403468F4880F991FFC01EB5AFA4F2F
:102FA000DE01A80FB91F14968C9190E0908787835B
:102FB00081E0840F809368067FCF83EE7ECF0895F3
:102FC000CF92DF92EF92FF920F931F93CF93DF93F5
:102FD0006C017A018B01C0E0D0E0CE15DF0581F0F5
:102FE000D8016D918D01D601ED91FC910190F08198
:102FF000E02DC6011995892B11F02196EECF7E01A7
:10300000C701DF91CF911F910F91FF90EF90DF905B
:10301000CF90089580E090E00895FC01538D448D99
:10302000252F30E0842F90E0821B930B541710F073
:10303000CF96089501970895FC01918D828D981780
:1030400061F0828DDF01A80FB11D5D968C91928D8C
:103050009F5F9F73928F90E008958FEF9FEF089589
:10306000FC01918D828D981731F0828DE80FF11D52
:10307000858D90E008958FEF9FEF0895FC01918D6D
:10308000228D892F90E0805C9F4F821B91098F7366
:10309000992708958FE992E0F1DF21E0892B09F467
:1030A00020E0822F08958CE393E0E8DF21E0892B74
:1030B00009F420E0822F089589ED93E0DFDF21E01D
:1030C000892B09F420E0822F0895FC01848DDF0113
:1030D000A80FB11DA35ABF4F2C91848D90E001968B
:1030E0008F739927848FA689B7892C93A089B1897A
:1030F0008C91837080648C93938D848D981306C01B
:103100000288F389E02D80818F7D80830895EF927E
:10311000FF920F931F93CF93DF93EC0181E0888F91
:103120009B8D8C8D981305C0E889F989808185FD78
:1031300025C0F62E0B8D10E00F5F1F4F0F73112768
:10314000E02E8C8DE8120BC00FB607FCFACFE88991
:10315000F989808185FFF5CFCE01B7DFF2CF8B8D66
:10316000FE01E80FF11DE35AFF4FF0829FB7F8947C
:103170000B8FEA89FB89808180620AC09FB7F8942F
:10318000EE89FF896083E889F98980818370806492
:1031900080839FBF81E090E0DF91CF911F910F91DD
:1031A000FF90EF900895CF93DF93EC01888D8823F3
:1031B000C1F0EA89FB89808185FD05C0A889B989AC
:1031C0008C9186FD0EC00FB607FCF5CF808185FF80
:1031D000F2CFA889B9898C9185FFEDCFCE0175DF3B
:1031E000E8CFDF91CF91089580E090E0892B19F02E
:1031F00063DF81111BC080E090E0892B41F080E00B
:1032000090E0892B21F00E940000811112C080E023
:1032100090E0892B19F047DF81110EC080E090E02B
:10322000892B79F037DF81110AC008950E940000D0
:10323000E2CF0E940000EBCF0E940000EFCF0C9481
:10324000000008950F931F93CF93DF938C01EB0140
:10325000FC0180819181009739F068817981611545
:103260007105A1F40E94192588819981F801918343
:1032700080838A819B81938382838C819D819583C6
:103280008483198218821B821A820FC0F80142813E
:1032900053812C813D814217530720F30E94C82996
:1032A0008C819D81F801958384831D821C82DF912E
:1032B000CF911F910F9108950F931F93CF93DF9399
:1032C000EC0188819981009729F02A813B8126179A
:1032D000370788F48B016F5F7F4F0E94CC280097DF
:1032E00061F0998388831B830A832C813D81232B82
:1032F00011F4FC01108281E001C080E0DF91CF91E8
:103300001F910F910895EF92FF920F931F93CF9308
:10331000DF936115710511F480E01BC04115510563
:10332000B9F07B01EC018C819D818A01080F191F86
:10333000B801CE01C1DF882379F3288139818C81DE
:103340009D81B701820F931F0E94C8291D830C83A2
:1033500081E0DF91CF911F910F91FF90EF90089541
:10336000CF93DF931F921F92CDB7DEB769831A8286
:1033700041E050E0BE016F5F7F4FC5DF0F900F90BF
:10338000DF91CF910895FB01448155816081718166
:10339000BACFCF93DF93EC0188819981009711F028
:1033A0000E941925198218821D821C821B821A8292
:1033B000DF91CF910895EF92FF920F931F93CF93D8
:1033C000DF93EC018B016115710549F0CB010E947F
:1033D000A9257C01BC01CE016FDF811103C0CE01A4
:1033E000D8DF07C0FD82EC82B801888199810E94F4
:1033F000A225CE01DF91CF911F910F91FF90EF9009
:103400000895EF92FF920F931F93CF93DF93EC01F8
:103410007B018A01BA0150DF811103C0CE01B9DFFF
:1034200007C01D830C83B701888199810E94C82938
:10343000CE01DF91CF911F910F91FF90EF900895F2
:10344000CF93DF93EC016115710551F0FB01019001
:103450000020E9F73197AF01461B570BD2DF01C0BF
:1034600098DFCE01DF91CF910895CF93DF93EC01E8
:10347000FB018617970751F0608171816115710515
:1034800021F044815581BDDF01C083DFCE01DF9192
:10349000CF910895FC01808191810C9419250F939F
:1034A0001F93CF93DF93CDB7DEB761970FB6F89434
:1034B000DEBF0FBECDBF8C01CB01F801118210829F
:1034C000138212821582148250E0BE016F5F7F4F1B
:1034D0000E94DD25BE016F5F7F4FC801B1DF61969D
:1034E0000FB6F894DEBF0FBECDBFDF91CF911F9115
:1034F0000F9108950F931F93CF93DF93CDB7DEB74E
:1035000029970FB6F894DEBF0FBECDBF8C01862F72
:10351000F80111821082138212821582148250E007
:10352000BE016F5F7F4F90E00E94DD25BE016F5F9F
:103530007F4FC80185DF29960FB6F894DEBF0FBE16
:10354000CDBFDF91CF911F910F910895FC011182A2
:10355000108213821282158214822DCFFC011182F7
:10356000108213821282158214827FCF1F920F92D3
:103570000FB60F9211240BB60F922F933F934F93D8
:103580005F936F937F938F939F93AF93BF93EF93CB
:10359000FF938FE992E099DDFF91EF91BF91AF9199
:1035A0009F918F917F916F915F914F913F912F915B
:1035B0000F900BBE0F900FBE0F901F9018951F928B
:1035C0000F920FB60F9211240BB60F922F933F93C9
:1035D0004F935F936F937F938F939F93AF93BF931B
:1035E000EF93FF938FE992E067D1FF91EF91BF9145
:1035F000AF919F918F917F916F915F914F913F918B
:103600002F910F900BBE0F900FBE0F901F9018952B
:103610001F920F920FB60F9211240BB60F922F9399
:103620003F934F935F936F937F938F939F93AF934A
:10363000BF93EF93FF938CE393E047DDFF91EF910E
:10364000BF91AF919F918F917F916F915F914F91BA
:103650003F912F910F900BBE0F900FBE0F901F90B8
:1036600018951F920F920FB60F9211240BB60F925E
:103670002F933F934F935F936F937F938F939F937A
:10368000AF93BF93EF93FF938CE393E015D1FF913A
:10369000EF91BF91AF919F918F917F916F915F91CA
:1036A0004F913F912F910F900BBE0F900FBE0F9037
:1036B0001F9018951F920F920FB60F9211240BB600
:1036C0000F922F933F934F935F936F937F938F93BB
:1036D0009F93AF93BF93EF93FF9389ED93E0F5DC56
:1036E000FF91EF91BF91AF919F918F917F916F91DA
:1036F0005F914F913F912F910F900BBE0F900FBE96
:103700000F901F9018951F920F920FB60F921124D1
:103710000BB60F922F933F934F935F936F937F93CB
:103720008F939F93AF93BF93EF93FF9389ED93E0B4
:10373000C3D0FF91EF91BF91AF919F918F917F91F6
:103740006F915F914F913F912F910F900BBE0F9012
:103750000FBE0F901F9018951F920F920FB60F92E9
:1037600011240BB60F922F933F934F935F936F9358
:103770007F938F939F93AF93BF93EF93FF93E091CA
:103780006F06F09170061995FF91EF91BF91AF917F
:103790009F918F917F916F915F914F913F912F9169
:1037A0000F900BBE0F900FBE0F901F901895CF92E9
:1037B000DF92EF92FF920F931F93CF93DF93EB0172
:1037C0007B0126E0E20EF11C8B016C01C61AD70AC0
:1037D000C601800F911F0E942927F80181938F0154
:1037E000EE15FF05A9F7CE01DF91CF911F910F9143
:1037F000FF90EF90DF90CF9008950C9429273FB76A
:10380000F8948091760690917706A0917806B09111
:10381000790626B5A89B05C02F3F19F00196A11D7A
:10382000B11D3FBFBA2FA92F982F8827820F911D56
:10383000A11DB11DBC01CD0142E0660F771F881F9D
:10384000991F4A95D1F70895CF93DF93BC01990F43
:10385000880B990B97FF02C018D803C04AE00E945A
:103860000314EC0189ED93E00E9437138C0F9D1F28
:10387000DF91CF9108950F931F93CF93DF93EC01C6
:103880000E94EC138C01CE010E943713800F911F10
:10389000DF91CF911F910F910895CF93DF934AE06D
:1038A0000E940314EC0189ED93E00E9437138C0F02
:1038B0009D1FDF91CF910895FC01A089B1898C9162
:1038C000A689B78982FD0FC09C91818D8F5F8F7310
:1038D000228D821749F0218DDF01A20FB11D5D9667
:1038E0009C93818F08958C91089590E0FC0131970D
:1038F000E231F10508F04EC08827E757FF4F8F4FA0
:103900000C94A428809180008F7703C08091800060
:103910008F7D80938000089580918000877FF9CF0C
:1039200084B58F7702C084B58F7D84BD0895809162
:10393000B0008F7703C08091B0008F7D8093B0007E
:103940000895809190008F7707C0809190008F7DBF
:1039500003C080919000877F8093900008958091AC
:10396000A0008F7707C08091A0008F7D03C0809159
:10397000A000877F8093A0000895809120018F7719
:1039800007C0809120018F7D03C080912001877F37
:103990008093200108951F93CF93DF93282F30E069
:1039A000F901E85FF84F8491F901EE53F94FD49192
:1039B000F901E458F94FC491CC23B9F0162F8111C5
:1039C00094DFEC2FF0E0EE0FFF1FE85BF94FA591BD
:1039D000B4919FB7F894111104C08C91D095D8235D
:1039E00002C0EC91DE2BDC939FBFDF91CF911F9142
:1039F00008958F929F92AF92BF92CF92DF92EF92F3
:103A0000FF926B017C01FBDE4B015C01C114D10410
:103A1000E104F104E9F0F3DEDC01CB018819990936
:103A2000AA09BB09883E9340A105B10578F321E0BE
:103A3000C21AD108E108F10888EE880E83E0981ECA
:103A4000A11CB11CC114D104E104F10421F7DECFA3
:103A5000FF90EF90DF90CF90BF90AF909F908F90AE
:103A600008952FB7F8946091720670917306809153
:103A70007406909175062FBF08950F931F93F1DF81
:103A800060934403709345038093460390934703E8
:103A90008CE393E0D1DA97FF1EC0E3DF009144038B
:103AA000109145032091460330914703DC01CB017F
:103AB000801B910BA20BB30B0091400310914103AB
:103AC000209142033091430380179107A207B30767
:103AD000F8F28FEF9FEF1F910F9108951F920F92B1
:103AE0000FB60F9211242F933F938F939F93AF9311
:103AF000BF938091720690917306A0917406B09165
:103B000075063091710623E0230F2D3720F40196BE
:103B1000A11DB11D05C026E8230F0296A11DB11DF0
:103B2000209371068093720690937306A093740697
:103B3000B09375068091760690917706A0917806ED
:103B4000B09179060196A11DB11D809376069093E0
:103B50007706A0937806B0937906BF91AF919F91B5
:103B60008F913F912F910F900FBE0F901F9018953E
:103B7000CF93DF93CDB7DEB76E970FB6F894DEBF65
:103B80000FBECDBF789484B5826084BD84B581605A
:103B900084BD85B5826085BD85B5816085BD809118
:103BA0006E00816080936E00109281008091810090
:103BB0008260809381008091810081608093810088
:103BC000809180008160809380008091B10084604A
:103BD0008093B1008091B00081608093B0008091AB
:103BE0009100826080939100809191008160809328
:103BF0009100809190008160809390008091A1005D
:103C000082608093A1008091A10081608093A100D7
:103C10008091A00081608093A0008091210182604A
:103C20008093210180912101816080932101809105
:103C3000200181608093200180917A0084608093CC
:103C40007A0080917A00826080937A0080917A0075
:103C5000816080937A0080917A00806880937A00F6
:103C60001092C1000FB6F894A89580916000886109
:103C700080936000109260000FBE98E288E10FB65A
:103C8000F894A895809360000FBE909360008CE23A
:103C90000E94CD138DE20E94CD138EE20E94CD13BF
:103CA0008AE20E94CD1361E08AE275DE66E970E087
:103CB00080E090E09EDE8BE20E94CD1361E08BE21B
:103CC0006ADE62E370E080E090E093DE60E08AE22A
:103CD00062DE66E970E080E090E08BDE8FE20E94B9
:103CE000CD1361E08FE257DE62E370E080E090E0A8
:103CF00080DE60E08BE24FDE66E970E080E090E01D
:103D000078DE60E08FE247DE66E970E080E090E018
:103D100070DE61E08AE23FDE6FE070E080E090E01C
:103D200068DE61E08FE237DE6FE070E080E090E017
:103D300060DE61E08BE22FDE6FE070E080E090E01B
:103D400058DE61E08CE227DE6FE070E080E090E01A
:103D500050DE61E08DE21FDE6FE070E080E090E019
:103D600048DE61E08EE217DE60E971E080E090E01D
:103D700040DE60E08AE20FDE60E08FE20CDE60E0B1
:103D80008BE209DE60E08CE206DE60E08DE203DEBD
:103D900060E08EE200DE26E040E05BE460E070E0A0
:103DA00089ED93E00E9468130E94EC044DDD6BE204
:103DB00072E089ED93E00E94581360E072E089EDB3
:103DC00093E00E94581364E070E086E794E074DAB0
:103DD00063E170E08CE794E06FDA60E971E082E81B
:103DE00094E06ADA8EE192E008DD4AE0682FCE01C5
:103DF000019680DB8DE192E000DD4AE0682FCE0184
:103E0000079678DB8CE192E0F8DC4AE0682FCE017F
:103E10000D9670DB8BE192E0F0DC4AE0682FCE017A
:103E2000499668DBBE01675E7F4FCE01439696DB05
:103E300062E471E0CE0143960E941F04BE01635FFD
:103E40007F4F0E94F21360E471E00E941F04BE01E4
:103E5000695F7F4F0E94F2136EE371E00E941F04BE
:103E6000BE016F5F7F4F0E94F213BC018CE794E0AC
:103E7000FCDACE0143960EDBCE0149960BDBCE0178
:103E80000D9608DBCE01079605DBCE01019602DB1D
:103E90006CE774E089ED93E00E94EC1366E371E057
:103EA00089ED93E00E9458138FE192E00E94D404C0
:103EB0004AE0BC01CE010196F2DABE016F5F7F4F8E
:103EC00086E794E0BFD9CE010196E4DA66E774E0B4
:103ED00089ED93E00E94EC1364E471E089ED93E0D6
:103EE0000E94581386E292E00E94D40490938502C7
:103EF000809384020E946A146CE471E089ED93E07F
:103F00000E94581383E292E00E94D4040E946A1433
:103F100063E571E089ED93E00E94581382E292E03C
:103F20006CDC809305028250833618F084E0809325
:103F300005026091050225E0629FB0011124072E61
:103F4000000C880B990B4AE00E9403146AE571E0AB
:103F500089ED93E00E9458138AE292E04EDC809350
:103F600000028150823018F081E08093000280913D
:103F700000020E94641462E671E089ED93E00E9401
:103F800058138BE292E039DC80939102833010F079
:103F900010929102809191020E9464146FE671E088
:103FA00089ED93E00E943A1380919102811103C040
:103FB0006DE671E009C0813019F469E671E004C072
:103FC000823031F46BE671E089ED93E00E94581382
:103FD0008CE292E012DC813019F480E390E010C0B2
:103FE000823011F0853018F080E690E009C083300F
:103FF00019F480EC90E004C0843031F480E891E062
:104000009093040280930302809103029091040232
:1040100024E6AC01249FC001259F900D11240E942D
:104020006A1465E771E089ED93E00E9458138DE210
:1040300092E0E3DB809392028150843118F083E0B8
:1040400080939202809192020E94641461E871E070
:1040500089ED93E00E945813A89565ED71E089ED14
:1040600093E00E9458130E94040588E592E0909323
:1040700002028093010200E080910102909102020D
:104080008B3B53E0950708F069C0A895BE016F5FB0
:104090007F4F8DDB89818F3F09F460C0811102C0A1
:1040A0000F5F52C060ED71E089ED93E00E943A131A
:1040B00089810E9464146EEC71E089ED93E00E94A6
:1040C0003A1369EC71E089ED93E00E943A138A811A
:1040D0000E94641467EC71E089ED93E00E943A134A
:1040E00062EC71E089ED93E00E943A138B810E94AB
:1040F000641460EC71E089ED93E00E943A136DEB7B
:1041000071E089ED93E00E943A138C819D810E94B9
:104110006A146BEB71E089ED93E00E943A1367EB50
:1041200071E089ED93E00E943A138E810E9464143D
:1041300065EB71E089ED93E00E943A1363EB71E067
:1041400089ED93E00E945813809101029091020240
:10415000069690930202809301028ECF61EB71E08C
:1041600089ED93E00E943A13F5E0EF2EF12C68EA16
:1041700071E089ED93E00E943A1381E0E81AF108BA
:10418000B1F789ED93E00E943713A8958091010261
:10419000909102029C012650310930930202209333
:1041A0000102202F30E08E55924066E070E0B8D7D3
:1041B0006F5F7F4F2617370789F560EA71E089ED59
:1041C00093E00E945813002349F167E971E089EDFB
:1041D00093E00E943A1380910102909102020E94A2
:1041E0006A146EE871E089ED93E00E945813E09044
:1041F0000102F0900202C7012CD68F3F19F06FEF39
:10420000C7012FD6809101029091020206979093E8
:104210000202809301020150A895D5CFA89562EFC4
:1042200071E089ED93E00E943A1326E040E855E200
:1042300060E070E08CE393E00E94681388EE93E006
:10424000A0E0B0E08093400390934103A093420329
:10425000B09343036FEE71E08CE393E00E94581338
:10426000CE0101960E941C1308DC97FD05C0682F43
:10427000CE01019675D8F8CFBE016F5F7F4F89EDF3
:1042800093E0F9DACE01019605D981E30E94CD13BE
:104290008091910281110EC08091030290910402DD
:1042A00024E6289FA001299F500D112460E070E0B2
:1042B00026E01FC0813071F48091030290910402C6
:1042C00024E6289FA001299F500D112460E070E092
:1042D00026E30FC0823089F480910302909104029A
:1042E00024E6289FA001299F500D112460E070E072
:1042F00026E28FE992E00E9468138BE394E09093AA
:104300006C0680936B0687E394E090936E0680932F
:104310006D060E944D0BA895A4DB24E630E040E03A
:1043200050E0BDD5209393023093940240939502C0
:104330005093960296DB0E94520720910502E5E019
:104340002E9F900111246901330FEE08FF086C19AC
:104350007D098E099F0960938C0270938D02809372
:104360008E0290938F0299DA64EE71E089ED93E00A
:104370000E9458130E94EC0467DAA895E7E32E2EFA
:10438000E4E03E2EE7E3F7E08491E1EFF6E0F4901D
:10439000EBEAF6E00491002309F4BBC18111A5DA30
:1043A000E02FF0E0EE0FFF1FE85CFD4FA591B49108
:1043B0008C91F82209F4ADC160E073E089ED93E0DF
:1043C0000E945813A8954DDB24E630E040E050E011
:1043D00066D58091930290919402A0919502B0913C
:1043E000960269017A01C81AD90AEA0AFB0AD701BA
:1043F000C601C397A105B10528F30E9452076B01BE
:104400007C01611571058105910509F473C1409026
:104410008C0250908D0260908E0270908F02641911
:104420007509860997098090050225E0829E400162
:10443000112494012A503109032E000C440B550B12
:10444000621773078407950708F454C1092C000C00
:10445000AA08BB08A501940122D5672B682B692BFC
:1044600049F4C0928C02D0928D02E0928E02F092BA
:104470008F020FC0C501B40144D6460E571E681EF8
:10448000791E40928C0250928D0260928E02709240
:104490008F02C701B60101DA80918C0290918D02E2
:1044A000A0918E02B0918F02A7019601281B390BB3
:1044B0004A0B5B0BCA01B901F0D960918C02709173
:1044C0008D0280918E0290918F02E7D968E8E62EE6
:1044D00064E0F62E00E060E08CE25DDAC0909202CB
:1044E00060E08FE258DA0E94EC04AED9DD24D39468
:1044F000D00E8D2D0E9437058130F9F08D2D0E9450
:104500003705882309F496C08D2D0E943705823027
:1045100039F033E0E30EF11C0D2D0C33E1F6E1C070
:10452000802F90E0FC01EE0FFF1F8E0F9F1FFC01FC
:10453000E857FB4F8FEF8083D4C00FEF0C0DF701CE
:104540008181928176D2F701128211828091870255
:10455000809357052FE932E0309356052093550597
:104560001092620610926406109263064BE354E0C8
:1045700050936C0640936B0630926E0620926D0647
:10458000A89580918802833089F480918B0290E015
:104590002091890230918A02309359052093580561
:1045A00090935B0580935A0583E012C0843099F4A0
:1045B00080918B022091890230918A0230935905B3
:1045C0002093580590E090935B0580935A0584E012
:1045D0000E942315182F112381F18CE20E94F0050F
:1045E000123019F466EE72E01DC0133019F46BEC52
:1045F00072E018C0143019F465EB72E013C0113E7C
:1046000019F46CE972E00EC0123E19F46CE872E025
:1046100009C0103E19F463E772E004C0133E31F4A0
:104620006FE572E089ED93E00E945813002311F0CA
:104630000150A6CFF70110826CCF61E08CE2ABD9BC
:1046400067E572E089ED93E00E943A13809186025B
:104650000E94641462E572E089ED93E00E945813B1
:1046600000918B02F701008362E070E0802F90E000
:1046700079D5F7019283818360E0601768F5262F72
:1046800030E0220F331FFC01E20FF31F603440F4CF
:10469000D901AB5ABA4F17964D915C91189702C049
:1046A0004FEF5FEF518340832E5F3F4FDC01A20F3E
:1046B000B31FE1E0E60FE03440F4F0E0EE0FFF1F3F
:1046C000EB5AFA4F2781308502C02FEF3FEF2D9331
:1046D0003C93A8956E5FD1CF89ED93E00E9437138C
:1046E00018CF0E94EC04B0D88EEF0E94160C8F3FBA
:1046F000E1F748CEB6D924E630E040E050E0CFD331
:104700002093930230939402409395025093960223
:1047100059CE61E08FE23FD94FCE1092A2021092A3
:10472000A10248EE53E060E070E04093A302509392
:10473000A4026093A5027093A60286E692E090938D
:10474000A00280939F0225E331E03093AC022093D6
:10475000AB0224E331E03093AE022093AD0220E3BC
:1047600031E03093B0022093AF0221E331E0309387
:10477000B2022093B10222E331E03093B4022093DD
:10478000B30226E331E03093B6022093B5021092D3
:10479000B8021092B9021092BA021092BB021092A3
:1047A0003F0310923E0340934003509341036093B4
:1047B00042037093430390933D0380933C0325EDA4
:1047C00030E0309349032093480324ED30E03093E8
:1047D0004B0320934A0320ED30E030934D032093A8
:1047E0004C0321ED30E030934F0320934E0322ED34
:1047F00030E0309351032093500326ED30E03093A6
:1048000053032093520310925503109256031092B3
:104810005703109258031092DC031092DB0340936D
:10482000DD035093DE036093DF037093E003909306
:10483000DA038093D90385EC90E09093E6038093AC
:10484000E50384EC90E09093E8038093E70380EC29
:1048500090E09093EA038093E90381EC90E09093D9
:10486000EC038093EB0382EC90E09093EE03809353
:10487000ED0386EC90E09093F0038093EF031092A9
:10488000F2031092F3031092F4031092F5031092C6
:104890006A061092690610926C0610926B061092CE
:1048A0006E0610926D0688E1EAE4F2E0ACE3B5E052
:1048B00001900D928A95E1F78EE180935405E8E826
:1048C000F4E08CE395E02FEF208333968E179F075B
:1048D000D9F782E894E00E941C138CE794E00E94D0
:1048E0001C1386E794E00C941C1386E794E00E9466
:1048F0004A1A8CE794E00E944A1A82E894E00C94E9
:104900004A1A0F931F93CF93DF938230910510F4CF
:1049100082E090E0E0917C06F0917D0620E030E0BE
:10492000A0E0B0E0309719F14081518102811381FC
:1049300048175907C8F08417950769F4109731F0A4
:1049400012960C93129713961C9327C000937C0623
:1049500010937D0622C02115310519F04217530727
:1049600018F49A01BD01EF01DF01F801DBCF211539
:104970003105F9F0281B390B2430310580F48A8188
:104980009B816115710521F0FB019383828304C033
:1049900090937D0680937C06FE01329644C0FE0112
:1049A000E20FF31F819391932250310939832883B9
:1049B0003AC020917A0630917B06232B41F4209156
:1049C00046023091470230937B0620937A0620916D
:1049D0004402309145022115310541F42DB73EB70F
:1049E0004091480250914902241B350BE0917A0610
:1049F000F0917B06E217F307A0F42E1B3F0B28175C
:104A0000390778F0AC014E5F5F4F2417350748F047
:104A10004E0F5F1F50937B0640937A0681939193CC
:104A200002C0E0E0F0E0CF01DF91CF911F910F9144
:104A30000895CF93DF93009709F481C0FC0132976A
:104A400013821282A0917C06B0917D06109781F4AA
:104A500020813181820F931F20917A0630917B064D
:104A60002817390751F5F0937B06E0937A0667C063
:104A7000ED0120E030E0CE17DF0740F44A815B8192
:104A80009E0141155105F1F0EA01F5CFD383C283B0
:104A900040815181840F951FC817D90759F4888127
:104AA0009981840F951F0296918380838A819B81CF
:104AB000938382832115310529F4F0937D06E093D9
:104AC0007C063DC0E901FB83EA8349915991C40FFB
:104AD000D51FEC17FD0761F480819181840F951F2C
:104AE0000296E90199838883828193819B838A83DB
:104AF000E0E0F0E012968D919C911397009719F0E9
:104B0000FD01DC01F7CF8D919C9111979D012E5FE6
:104B10003F4F820F931F20917A0630917B06281712
:104B2000390769F4309729F410927D0610927C06BB
:104B300002C013821282B0937B06A0937A06DF91A3
:104B4000CF910895FB01DC0105900D920020E1F763
:104B50000895FC0105900020E9F7809590958E0F4F
:104B60009F1F0895BB274A3031F4992322F4BDE2F8
:104B7000909581959F4F2CC0BB27FA01A62F6217F5
:104B8000710581059105330B30FB66F0AA27660F8E
:104B9000771F881F991FAA1FA21710F0A21B6395E9
:104BA0003850A9F7A05DAA3308F0A95DA19336F7A4
:104BB000B111B1931082CA0123C04532510518F4D6
:104BC000423008F004C0FB011082CB010895BB27DE
:104BD000FB015527AA27880F991FAA1FA41710F0B9
:104BE000A41B83955051B9F7A05DAA3308F0A95DC5
:104BF000A193009779F7B111B1931192CB0100C045
:104C0000DC01FC01672F71917723E1F7329704C033
:104C10007C916D9370836291AE17BF07C8F30895BE
:104C200040D008F481E00895E89409C097FB3EF471
:104C300090958095709561957F4F8F4F9F4F9923E9
:104C4000A9F0F92F96E9BB279395F6958795779567
:104C50006795B795F111F8CFFAF4BB0F11F460FF27
:104C60001BC06F5F7F4F8F4F9F4F16C0882311F07F
:104C700096E911C0772321F09EE8872F762F05C093
:104C8000662371F096E8862F70E060E02AF09A952E
:104C9000660F771F881FDAF7880F9695879597F923
:104CA0000895990F0008550FAA0BE0E8FEEF1616BD
:104CB0001706E807F907C0F012161306E407F50710
:104CC00098F0621B730B840B950B39F40A2661F084
:104CD000232B242B252B21F408950A2609F4A14027
:104CE000A6958FEF811D811D08950BD078C069D0E6
:104CF00028F06ED018F0952309F05AC05FC0112437
:104D0000A2C07ED0A0F3959FD1F3950F50E0551F20
:104D1000629FF001729FBB27F00DB11D639FAA2710
:104D2000F00DB11DAA1F649F6627B00DA11D661F5F
:104D3000829F2227B00DA11D621F739FB00DA11D80
:104D4000621F839FA00D611D221F749F3327A00D3A
:104D5000611D231F849F600D211D822F762F6A2FD6
:104D600011249F5750408AF0E1F088234AF0EE0F5B
:104D7000FF1FBB1F661F771F881F91505040A9F768
:104D80009E3F510570F014C05EC05F3FECF3983E4B
:104D9000DCF3869577956795B795F795E7959F5FCF
:104DA000C1F7FE2B880F911D9695879597F9089569
:104DB00097F99F6780E870E060E008959FEF80ECCE
:104DC000089500240A941616170618060906089571
:104DD00000240A9412161306140605060895092ED7
:104DE0000394000C11F4882352F0BB0F40F4BF2B46
:104DF00011F460FF04C06F5F7F4F8F4F9F4F089586
:104E000057FD9058440F551F59F05F3F71F047957B
:104E1000880F97FB991F61F09F3F79F08795089560
:104E2000121613061406551FF2CF4695F1DF08C07F
:104E3000161617061806991FF1CF8695710561059C
:104E400008940895E894BB2766277727CB0197F944
:104E50000895F999FECF92BD81BDF89A992780B542
:104E60000895262FF999FECF1FBA92BD81BD20BDAE
:104E70000FB6F894FA9AF99A0FBE0196089531D0B8
:104E8000A59F900DB49F900DA49F800D911D11249E
:104E90000895B7FFF4CFF3DF821B930B0895A1E2CF
:104EA0001A2EAA1BBB1BFD010DC0AA1FBB1FEE1FA4
:104EB000FF1FA217B307E407F50720F0A21BB30BEF
:104EC000E40BF50B661F771F881F991F1A9469F76B
:104ED00060957095809590959B01AC01BD01CF01C7
:104EE0000895A29FB001B39FC001A39F700D811DC3
:104EF0001124911DB29F700D811D1124911D0895E3
:104F00005058BB27AA270ED06ACF5BDF30F060DF96
:104F100020F031F49F3F11F41EF450CF0EF4E095D1
:104F2000E7FB46CFE92F6CDF80F3BA176207730700
:104F30008407950718F071F49EF584CF0EF4E09580
:104F40000B2EBA2FA02D0B01B90190010C01CA0143
:104F5000A0011124FF27591B99F0593F50F4503EEE
:104F600068F11A16F040A22F232F342F4427585FE0
:104F7000F3CF469537952795A795F0405395C9F7F8
:104F80007EF41F16BA0B620B730B840BBAF09150B0
:104F9000A1F0FF0FBB1F661F771F881FC2F70EC04F
:104FA000BA0F621F731F841F48F487957795679522
:104FB000B795F7959E3F08F0B3CF9395880F08F00B
:104FC0009927EE0F9795879508950CD008CF00DFAD
:104FD00040F0F7DE30F021F45F3F19F0E9CE5111D7
:104FE00032CFECCE0DDF98F39923C9F35523B1F3FB
:104FF000951B550BBB27AA2762177307840738F048
:105000009F5F5F4F220F331F441FAA1FA9F333D0A6
:105010000E2E3AF0E0E830D091505040E695001C5A
:10502000CAF729D0FE2F27D0660F771F881FBB1F16
:10503000261737074807AB07B0E809F0BB0B802DF0
:10504000BF01FF2793585F4F2AF09E3F510568F03C
:10505000AFCEF9CE5F3FECF3983EDCF386957795C3
:105060006795B795F7959F5FC9F7880F911D96953E
:10507000879597F90895E1E0660F771F881FBB1F9A
:10508000621773078407BA0720F0621B730B840B47
:10509000BA0BEE1F88F7E0950895BADE88F09F57A7
:1050A00090F0B92F9927B751A0F0D1F0660F771F74
:1050B000881F991F1AF0BA95C9F712C0B13081F054
:1050C000C1DEB1E00895BECE672F782F8827B85F84
:1050D00039F0B93FCCF3869577956795B395D9F7B5
:1050E0003EF490958095709561957F4F8F4F9F4FBF
:1050F0000895D7DD08F48FEF0895D3DD880B990B61
:105100000895DB018F939F93BADEBF91AF91A29F69
:10511000800D911DA39F900DB29F900D11240895B5
:10512000AA1BBB1B51E107C0AA1FBB1FA617B707CD
:1051300010F0A61BB70B881F991F5A95A9F78095E9
:105140009095BC01CD010895EE0FFF1F881F8BBF06
:105150000790F691E02D1994C4DEB7FF0895821BE5
:10516000930B08950F931F93CF93DF93869F800136
:10517000879F100D969F100D1124C801C2DBEC0112
:10518000009721F0A80160E070E0FBD0CE01DF9134
:10519000CF911F910F9108956F927F928F929F925E
:1051A000AF92BF92CF92DF92EF92FF920F931F9335
:1051B000CF93DF93009781F4CB01DF91CF911F91C3
:1051C0000F91FF90EF90DF90CF90BF90AF909F90A6
:1051D0008F907F906F9095CBFC01E60FF71F9C019D
:1051E00022503109E217F30708F4A5C0EC01D901F8
:1051F0000D911C91119706171707A8F0053011059E
:1052000008F497C0C80104978617970708F491C05F
:1052100002501109061B170B019311936D937C9398
:10522000CF0107DC86C05B01A01AB10A4C01800ED9
:10523000911EA0917C06B0917D06612C712CE12C11
:10524000F12C109709F446C08D919C911197A815E7
:10525000B905B1F56C0142E0C40ED11CCA14DB04DF
:1052600078F14C018A189B08640142E0C40ED11CFD
:105270001296BC9012971396AC91B5E0CB16D10460
:1052800040F0B282A38391828082D9016D937C9396
:1052900009C00E5F1F4F800F911FF901918380831A
:1052A000EB2DFA2FE114F10431F0D7011396FC93A2
:1052B000EE9312973EC0F0937D06E0937C0639C0D2
:1052C0006816790608F43C017D0112960D90BC9198
:1052D000A02DB7CF80917A0690917B06881699060B
:1052E000E1F466167706C8F4809144029091450275
:1052F000009741F48DB79EB7409148025091490202
:10530000841B950BE817F907B0F4F0937B06E09344
:105310007A06F901718360830CC0CB01F2DA7C015B
:10532000009749F0A801BE0123D0CE0182DBC7015E
:1053300004C0CE0102C080E090E0DF91CF911F91C8
:105340000F91FF90EF90DF90CF90BF90AF909F9024
:105350008F907F906F90089581E090E0F8941FC047
:105360009111089581568A5108F480528558089504
:10537000FB01DC0102C001900D9241505040D8F772
:105380000895DC0101C06D9341505040E0F708954D
:10539000FB01DC0101900D920020E1F7089513E07C
:1053A000C8EAD3E000E005C0802FFE01CDDE2196E3
:1053B000011DC93AD10780E00807B1F7F894FFCF83
:1053C000015802600006FFFFFFFFFFFFFFFFFFFF26
:1053D000FFFFFFFFFFFFFFFFFFFFFFFFFFFFFFFFDD
:1053E000FFFFFFFFFFFFFFFFFFFFFFFFFFFFFFFFCD
:1053F000FFFFFFFFFFFFFFFFFFFFFFFFFFFFFFFFBD
:10540000FFFFFFFF00007E06800000001F003B0042
:105410005A0078009700B500D400F3001101300164
:105420004E01000000008718E0170D18D3183E1831
:105430001C1830186E616E00696E66006F7666002B
:045440000D0A000051
:020000023000CC
:10E000000D9489F10D94B2F10D94B2F10D94B2F129
:10E010000D94B2F10D94B2F10D94B2F10D94B2F1F0
:10E020000D94B2F10D94B2F10D94B2F10D94B2F1E0
:10E030000D94B2F10D94B2F10D94B2F10D94B2F1D0
:10E040000D94B2F10D94B2F10D94B2F10D94B2F1C0
:10E050000D94B2F10D94B2F10D94B2F10D94B2F1B0
:10E060000D94B2F10D94B2F10D94B2F10D94B2F1A0
:10E070000D94B2F10D94B2F10D94B2F10D94B2F190
:10E080000D94B2F10D94B2F10D94B2F10D94B2F180
:10E090000D94B2F10D94B2F10D94B2F10D94B2F170
:10E0A0000D94B2F10D94B2F10D94B2F10D94B2F160
:10E0B0000D94B2F10D94B2F10D94B2F10D94B2F150
:10E0C0000D94B2F10D94B2F10D94B2F10D94B2F140
:10E0D0000D94B2F10D94B2F10D94B2F10D94B2F130
:10E0E0000D94B2F141546D656761323536300041AF
:10E0F000726475696E6F206578706C6F72657220DE
:10E1000073746B3530305632206279204D4C530099
:10E11000426F6F746C6F616465723E004875683F52
:10E1200000436F6D70696C6564206F6E203D200048
:10E130004350552054797065202020203D20005FF9
:10E140005F4156525F415243485F5F3D2000415658
:10E1500052204C696243205665723D20004743437C
:10E160002056657273696F6E203D20004350552024
:10E1700049442020202020203D20004C6F7720663D
:10E18000757365202020203D20004869676820665F
:10E190007573652020203D200045787420667573D6
:10E1A00065202020203D20004C6F636B2066757336
:10E1B000652020203D20004D617220203720323024
:10E1C000313300312E362E3800342E332E350056A2
:10E1D00023202020414444522020206F7020636F70
:10E1E00064652020202020696E73747275637469E1
:10E1F0006F6E2061646472202020496E74657272B3
:10E20000757074006E6F20766563746F7200726A49
:10E210006D702020006A6D70200057686174207056
:10E220006F72743A00506F7274206E6F7420737541
:10E2300070706F72746564004D7573742062652030
:10E2400061206C6574746572002000577269747483
:10E25000696E672045450052656164696E672045B7
:10E26000450045452065727220636E743D00504F35
:10E27000525400303D5A65726F2061646472003FF1
:10E280003D43505520737461747300403D454550C3
:10E29000524F4D207465737400423D426C696E6B41
:10E2A000204C454400453D44756D70204545505215
:10E2B0004F4D00463D44756D7020464C415348001B
:10E2C000483D48656C70004C3D4C69737420492F83
:10E2D0004F20506F72747300513D51756974005234
:10E2E0003D44756D702052414D00563D73686F7707
:10E2F00020696E7465727275707420566563746FF0
:10E30000727300593D506F727420626C696E6B00BD
:10E310002A0011241FBECFEFD1E2DEBFCDBF01E046
:10E320000CBF12E0A0E0B2E0EEE1FDEF03E00BBFB6
:10E3300002C007900D92A030B107D9F712E0A0E01B
:10E34000B2E001C01D92AE30B107E1F70F9460F367
:10E350000D948DFE01E20EBF0FEF0DBF11241FBE05
:10E360000D9460F30D9400F020E030E040ED57E0B4
:10E3700005C0FA013197F1F72F5F3F4F2817390792
:10E38000C0F308959C01260F311DC901A0E0B0E043
:10E390002F5F3F4FABBFFC018791882361F08093D3
:10E3A000C6008091C00086FFFCCF8091C0008064D1
:10E3B0008093C000EACF08958DE08093C6008091DD
:10E3C000C00086FFFCCF8091C00080648093C000B5
:10E3D0008AE08093C6008091C00086FFFCCF8091C8
:10E3E000C00080648093C00008950F94C2F10F9420
:10E3F000DCF10895FC019081992359F09093C600B7
:10E400008091C00086FFFCCF8091C0008064809323
:10E41000C0003196992379F70895282F982F929567
:10E420009F70892F805D8A3308F0895F8093C600D2
:10E430008091C00086FFFCCF8091C00080648093F3
:10E44000C000822F8F70982F905D9A3308F0995FEB
:10E450009093C6008091C00086FFFCCF8091C000E1
:10E4600080648093C00008959C01FB01853691056E
:10E470001CF46330710594F0C90164E670E00F94F8
:10E480002EFE605D7F4F6093C6008091C00086FFC6
:10E49000FCCF8091C00080648093C0002B30310598
:10E4A00014F43297B4F0C90164E670E00F942EFEC4
:10E4B0006AE070E00F942EFE605D7F4F6093C600AF
:10E4C0008091C00086FFFCCF8091C0008064809363
:10E4D000C000C9016AE070E00F942EFEC0968093E0
:10E4E000C6008091C00086FFFCCF8091C000806490
:10E4F0008093C00008951F93182F8EE692EE60E07F
:10E500000F94C2F11093C6008091C00086FFFCCF2B
:10E510008091C00080648093C0000F94DCF11F9153
:10E5200008952F923F924F925F926F927F928F92B7
:10E530009F92AF92BF92CF92DF92EF92FF920F9392
:10E540001F93DF93CF93CDB7DEB762970FB6F894E2
:10E55000DEBF0FBECDBF382E622ECA01DB015C01CB
:10E560006D01772420E2222E2E010894411C511CBB
:10E570008BC081E0A81680E0B80681E0C80680E084
:10E58000D80628F0C601AA27BB270F940DF2BB2797
:10E59000AD2D9C2D8B2D0F940DF28A2D0F940DF225
:10E5A0002092C6008091C00086FFFCCF8091C00001
:10E5B00080648093C0009DE29093C6008091C0006B
:10E5C00086FFFCCF8091C00080648093C0002092C1
:10E5D000C6008091C00086FFFCCF8091C00080649F
:10E5E0008093C00019828601750188249924A1E0D6
:10E5F0003A1651F03A1620F0B2E03B1661F409C029
:10E600000BBFF701779007C0C7010F9477FE782EF4
:10E6100002C0F7017080872D0F940DF22092C60082
:10E620008091C00086FFFCCF8091C0008064809301
:10E63000C000872D8052F401EF70F0708F3520F408
:10E64000E40DF51D708204C0E40DF51D8EE280839B
:10E650000894E11CF11C011D111D0894811C911CE2
:10E6600090E18916910409F0C2CF80E190E0A0E02A
:10E67000B0E0A80EB91ECA1EDB1E198AC2010F9493
:10E68000FAF10F94DCF16A94662009F072CF629679
