:1000000084C30000B3C30000B1C30000AFC300004D
:10001000ADC30000ABC30000A9C30000A7C300002C
:10002000A5C30000A3C30000A1C300009FC300003C
:100030009DC300009BC3000099C3000097C300004C
:1000400095C3000093C3000091C300008FC300005C
:100050000C9449118BC3000089C300000C94071C49
:1000600085C300000C9420110C94F7107FC300008E
:100070007DC300007BC3000079C3000077C300008C
:1000800075C3000073C3000071C300006FC300009C
:100090006DC300006BC3000069C3000067C30000AC
:1000A00065C3000063C3000061C300005FC30000BC
:1000B0005DC300005BC3000059C3000057C30000CC
:1000C00055C3000053C3000051C300000C94CE1070
:1000D0000C94A5104BC300000C947C100C9453108E
:1000E00045C300009E18A118901894189A18D818A3
:1000F000A518A918AF18B318B718BD18C118C51896
:10010000D818CB18CF18D318141B141B141B141B8E
:10011000111B111B181B181B181B181B181B181B55
:10012000181B181B111B111B181B181B181B181B45
:10013000181B161B141B2D2D2D2D2D2D097C007C1D
:10014000007C2020534E6F097C20204944097C20EC
:1001500046756E43097C2041646472097C20504FCF
:100160004C4C53097C002D2D2D2D2D2D097C007C10
:1001700000446220656E6400416C726561647920A0
:1001800064656C657465640052656164696E6720BE
:10019000446F6E65002D2D2D2D2D2D097C007C00CA
:1001A0007C0009007C20200009007C200009007CE4
:1001B0002020200009007C2020200009007C202035
:1001C000200053686F77696E67205461626C653AEE
:1001D00020466F722049442D0030004F4B0041549F
:1001E000005244590041542B43504F57443D300076
:1001F0007273742047534D0047534D204641494C7C
:100200000A4769766520506F776572210047534D24
:10021000204F4B004F4B004154002E004552524F8F
:1002200052004F4B0041542B53415042523D332C0E
:10023000312C2241504E222C22696E7465726E65FB
:1002400074220041542B53415042523D332C312CE7
:1002500022434F4E54595045222C2247505253228C
:1002600000525443204F4B00415426570041542B19
:10027000434C54533D3100545A563A0052544300B3
:100280002B43545A5620744F555400545A563A0032
:1002900041544530003A20220041542B43434C4BFB
:1002A0003F0025005349474E414C3A200053513AF4
:1002B000200041542B4353510041542B5341504291
:1002C000523D312C310041542B53415042523D3369
:1002D0002C312C2241504E222C22696E7465726E94
:1002E00065742200436F6E6E656374696E672047A4
:1002F000505253005042523A200041542B53415027
:1003000042523D322C310055504C4F414420464121
:10031000494C0055504C4F414420444F4E450041FC
:10032000434B00524541443A0041542B48545450E9
:1003300052454144004C494E4B204F4B0032303027
:100340002C0054494D45204F55540054494F4E3AC6
:100350000041542B48545450414354494F4E3D3072
:100360000041542B48545450494E49540041542B99
:10037000485454505445524D003267206661696CB0
:10038000003C2D2D49507634002E002E002E003CCE
:100390002D2D504F5254003C2D2D444944003C2DEE
:1003A0002D434944003C2D2D55287329003C2D2D0B
:1003B000434944004F0045004E003C2D2D50200085
:1003C0003C2D2D4D4F442062617564003C2D2D4D18
:1003D0004F442052455452590020746F20307846C3
:1003E000460053657474696E6720004E6F20646127
:1003F0007461002D2D2D2D2D2D097C007C007C009D
:1004000009007C20200009007C200009007C2020BD
:10041000200009007C2020200009007C20202000F2
:1004200052656164696E67205461626C653A00537D
:100430004554555020444F4E4500415400506C6582
:1004400061736520576169742E2E00462F7720490D
:100450006E6E6F76617465642062793A2053455000
:1004600053204D4F4E49544F52494E4720505654F9
:10047000204C54442E00462F773A20562D302E33F0
:100480003100000020002300260029002C002F004E
:100490003200000100000301060109013D003D009A
:1004A00052656164696E67204D6F646275732E2EAC
:1004B000004D4F444255533A20496E76616C696451
:1004C00020435243004D4F444255533A20496E76E3
:1004D000616C696420536C617665206964004D4FDE
:1004E000444255533A2054696D656F7574004D4F01
:1004F000444255533A20496E76616C6964204675D2
:100500006E6374696F6E004D4F444255533A2053E9
:100510006C617665204661696C757265004D4F446B
:100520004255533A20496C6C6967616C2044617490
:10053000612056616C7565004D4F444255533A2019
:10054000496C6C6967616C2044617461204164642A
:100550002E005748494C45203100414C4C205365F2
:100560006E740044656C6574696E672044617461E3
:10057000005265747279696E6700220073656E645B
:10058000206C656E203D004772702069203D004759
:100590006F696E67206261636B20746F0073656EB4
:1005A00064206C656E203D004772702069203D001C
:1005B00026646174613D00264445563D56002F4136
:1005C00044536D6172742E61736D782F44656D6F45
:1005D000313F44543D003A0041542B48545450504C
:1005E0004152413D2255524C222C22687474703A7B
:1005F0002F2F00092D2D3E0900092D2D3E09000049
:10060000002200250028002B002E003100340002BB
:10061000010000050108010B010000210024002752
:10062000002A002D00300033000101000004010702
:10063000010A010505050507050808080802020268
:10064000020A0A080804040404010101010101016D
:10065000010303030303030303040707070C0C0C44
:100660000C0C0C0C0C02020202060606060606061C
:10067000060B0B0B0B0B0B0B0B01021020200808B9
:1006800010204010204080020102010804020101F4
:1006900002040810204080804020100804020180DD
:1006A0000402018040201008040201080402010134
:1006B000020408102040800102040810204080003D
:1006C000000A0B02090C0D0E0807030401000000CC
:1006D000000000000000000000000000000000001A
:1006E00000000000000000000000001211100000D7
:1006F00000000000000000000000000000000000FA
:100700000000000000003A222E2211241FBECFEF6D
:10071000D1E2DEBFCDBF00E00CBF12E0A0E0B2E04E
:10072000EEEDF0E500E00BBF02C007900D92A4389B
:10073000B107D9F726E0A4E8B2E001C01D92AA37BC
:10074000B207E1F713E0C4E8D3E000E006C0219768
:100750000109802FFE010E943327C338D10780E0B2
:100760000807A9F70E94511C0C945E2849CC90916F
:10077000840281E0892780938402609184028BE265
:100780000C94D91880918402811104C060E08BE23E
:100790000E94D91881E08093840290E190938100B7
:1007A0001092800020E533EC309387002093860080
:1007B00093E19093810024EE33E030939D022093E7
:1007C0009C0280936F00089580918402882321F019
:1007D00061E08BE20E94D9181092840280E180933C
:1007E00081001092800080E593EC909387008093C5
:1007F000860082E18093810082EC93E090939D02D9
:1008000080939C0281E080936F0008959091840210
:1008100081E0892780938402609184028AE20C94AB
:10082000D91860E081E30C94D91861E081E30C945D
:10083000D918EF92FF920F931F93CF93DF938C0100
:100840007B01D42F0E94EF1480E090E0D701ED915E
:10085000FC9111972081222329F001963196ED9386
:10086000FC93F4CFE81BF90BD701ED93FC93C82F51
:10087000D695D6958D1748F4CD1739F069ED71E00E
:10088000C8010E94540DCF5FF7CFB701C8010E9485
:10089000BC0DF801C081D181209751F08881882357
:1008A00039F0082E000C990B0E943F288993F6CF4F
:1008B000C801DF91CF911F910F91FF90EF900895A4
:1008C000FF920F931F93CF93DF93809187048F3F05
:1008D00009F4F4C0809106028F3F99F1E7E8F4E053
:1008E00040E080818F3F29F4A6E0B2E080E090E014
:1008F00009C018160CF44F5F339685E0EB33F80708
:1009000081F7F2CF2D912F3F49F4242F30E0821749
:100910009307D9F08FEF8093060213C0022E000CCC
:10092000330BF901EE0FFF1F2E0F3F1FF901E9579F
:10093000FB4F2081222371F301968C33910511F72F
:100940008CE3A7E8B4E090E009C081504FC061118A
:1009500010C09F5F13969C3309F448C06C916F3FA1
:10096000B1F7E82F082E000CFF0BEA5FFD4F618303
:100970003DC08F5F40910602242F042E000C330BE4
:10098000F901EE0FFF1F2E0F3F1FF901E957FB4F33
:100990002081261754F4E82F082E000CFF0BEA5F85
:1009A000FD4F408390930602D4CF882391F2482FC5
:1009B000082E000C550BEA01CB5FDD4F7881272F05
:1009C000072E000C330BF901EE0FFF1F2E0F3F1FF8
:1009D000F901E957FB4F2081FA01EA5FFD4F261725
:1009E0001CF470839883B5CF9083B3CF8F3F09F405
:1009F00065C0A6E0B2E090E098170CF060C02D91C1
:100A0000022E000C330BF901EE0FFF1F2E0F3F1FBC
:100A1000F901E957FB4F40812C91022E000C330B5A
:100A2000F901EE0FFF1F2E0F3F1FF901E957FB4F92
:100A300050819F5F451701F3242F440F330B251B73
:100A4000310957FD339521303105B1F2082F082EB9
:100A5000000C110BC92FD0E00C171D0784F1482F93
:100A6000CA5FDD4F941740F5F880642F70E06A5F2D
:100A70007D4FFB0150812F2D0F2C000C330BD90122
:100A8000AA0FBB1F2A0F3B1FD901A957BB4F252F08
:100A9000052E000C330BF901EE0FFF1F2E0F3F1F29
:100AA000F901E957FB4F3C91208132171CF4FB01FF
:100AB000F08258834150D6CF9F5FCCCF8FEFDF912C
:100AC000CF911F910F91FF9008950F931F93CF9394
:100AD0008C01A89501960E949A11C82FC8010E9406
:100AE0009A112C2F30E0322F2227A895A901482BEC
:100AF000CA01CF911F910F910895CF93DF931F9259
:100B00001F92CDB7DEB7209176063091770621157A
:100B1000310511F42AE736E0CE010196821B930BD2
:100B20000F900F90DF91CF910895CF93DF93A89509
:100B30006FE671E088ED93E00E940D15C5E0D0E00E
:100B400066E671E088ED93E00E940D152197C1F7EC
:100B500088ED93E00E940A1561E471E088ED93E06E
:100B60000E942B156FE371E088ED93E00E940D1554
:100B7000C5E0D0E066E371E088ED93E00E940D15DA
:100B80002197C1F788ED93E0DF91CF910C940A157E
:100B90001F93CF93DF93182FA89590E0019726E03D
:100BA000289FE001299FD00D1124C85ADD4FD09312
:100BB0000202C0930102CE010E949A11882309F417
:100BC0008BC08F3F09F490C0181386C069E872E0AB
:100BD000CE010E94741162EC71E088ED93E00E94F6
:100BE0000D15812F0E945416A0DF6DEB71E088ED8A
:100BF00093E00E940D15809189020E9443166BEBD1
:100C000071E088ED93E00E940D1566EB71E088EDD0
:100C100093E00E940D1580918A020E94431664EBB6
:100C200071E088ED93E00E940D156FEA71E088EDA8
:100C300093E00E940D1580918B020E9443166DEA8D
:100C400071E088ED93E00E940D156AEA71E088ED8D
:100C500093E00E940D156AE070E080918C02909103
:100C60008D020E94491668EA71E088ED93E00E94C7
:100C70000D1564EA71E088ED93E00E940D158091F6
:100C80008E020E94431662EA71E088ED93E00E94B2
:100C90000D1560EA71E088ED93E00E942B156EE976
:100CA00071E088ED93E00E940D15A895C5E0D0E0B5
:100CB00065E971E088ED93E00E940D152197C1F779
:100CC00088ED93E00E940A1568E871E088ED93E0F2
:100CD0000E942B1581E00FC068E771E088ED93E07A
:100CE0000E942B1580E007C061E771E088ED93E07A
:100CF0000E942B1582E0DF91CF911F910895CF9331
:100D0000DF93D82FC1E06C2F61708D2F0E94D9180E
:100D10008C2F837031F066E970E080E090E00E94F3
:100D20000719CF5FC53079F7DB3211F410928402D6
:100D3000DF91CF910895CF93DF93C82FD62F642FE3
:100D40008CE20E94D9186D2F8DE20E94D9186C2F69
:100D50008EE2DF91CF910C94D918CF92DF92EF926F
:100D6000FF921F93CF93DF9300D000D0CDB7DEB7B3
:100D70000E943F196B017C01A895CE0101960E944B
:100D80002617BE016F5F7F4F81E894E00E94050F38
:100D9000CE0101960E94E70F62E272E0CE01019659
:100DA0000E94431042E0BE016F5F7F4F81E894E0F4
:100DB0000E949C16182FCE0101960E94E70F111178
:100DC0002AC0A8956CE172E0CE0101960E94431002
:100DD00045E0BE016F5F7F4F81E894E00E949C1662
:100DE000182FCE0101960E94E70F111114C00E9426
:100DF0003F19DC01CB018C199D09AE09BF09893B64
:100E00009B40A105B10540F46AE172E088ED93E0F2
:100E10000E940D15B2CF11E0812F26960FB6F894DF
:100E2000DEBF0FBECDBFDF91CF911F91FF90EF903E
:100E3000DF90CF9008951F93CF93DF9300D000D021
:100E4000CDB7DEB726E040E855E260E070E08BE326
:100E500093E00E943B1567E172E08BE393E00E9410
:100E60002B157BDF64E172E0CE0101960E944310F6
:100E700042E0BE016F5F7F4F81E894E00E949C16C4
:100E8000182FCE0101960E94E70F112389F06DE023
:100E900072E088ED93E00E942B158091860281110B
:100EA00002C010926F0061E08AE20E94D91821C04E
:100EB00068EF71E088ED93E00E942B1580E180934C
:100EC00081001092800084E294EF909387008093D9
:100ED000860083E18093810086E094E090939D02F8
:100EE00080939C0281E080936F0040E060E080E0AE
:100EF00022DF812F26960FB6F894DEBF0FBECDBF3E
:100F0000DF91CF911F9108951F93CF93DF9300D06E
:100F100000D0CDB7DEB7182F60EF71E088ED93E019
:100F20000E942B15A895112331F065EE71E08BE33B
:100F300093E00E942B1511DF61EE71E0CE01019666
:100F40000E94431045E0BE016F5F7F4F81E894E04F
:100F50000E949C16182FCE0101960E94E70F1111D6
:100F60002AC0A89560ED77E080E090E00E94071924
:100F7000A8956EED71E08BE393E00E942B15A89588
:100F8000ECDEA8956BED71E0CE0101960E94431056
:100F900042E0BE016F5F7F4F81E894E00E949C16A3
:100FA000182FCE0101960E94E70F111104C0A895D9
:100FB00080E0AADF01C0A89526960FB6F894DEBFA0
:100FC0000FBECDBFDF91CF911F9108954F925F92D9
:100FD0006F927F928F929F92AF92BF92CF92DF9249
:100FE000EF92FF920F931F93CF93DF93CDB7DEB7AE
:100FF00062970FB6F894DEBF0FBECDBF0E943F19B7
:101000006B017C0181E08093860290E190938100E6
:101010001092800020E533EC309387002093860007
:1010200093E19093810027EB33E030939D0220936E
:101030009C0280936F00FFDE882309F49AC062EB64
:1010400072E08BE393E00E942B15CE010D960E9477
:101050002617CE0107960E94EF146DEA72E0CE01CA
:1010600001960E94431044E0BE016F5F7F4FCE01A6
:101070000D960E949C16182FCE010196A8D7112319
:1010800081F1809142029091430201969093430234
:10109000809342026091420270914302CE010D960C
:1010A000F1D4FC0180818C32E1F0609142027091B8
:1010B0004302CE010D96E6D4FC011081BE01695FAA
:1010C0007F4FCE010196E7D7612FCE0101960E9496
:1010D0007E16BC01CE01079665D7CE01019677D763
:1010E000D0CF64EA72E088ED93E00E940D15CE0146
:1010F00007960E946016182F682F70E080E090E03D
:101100000E94B4244B015C0120E030E0A9010E9460
:10111000AE24882329F01B3018F440E060E00AC0B8
:1011200085EF810F8A3010F440E003C0153120F0C4
:1011300041E061E081E0FFDD20E030E048EF51E494
:10114000C501B4010E94832620E030E048EC52E45F
:101150000E94132542E00E946B1762EA72E088ED5C
:1011600093E00E942B15CE01079631D7CE010D9644
:101170002ED76AEF72E08BE393E00E942B15EDDD32
:10118000882309F44CC064EF72E0CE0101967BD74E
:1011900045E0BE016F5F7F4F81E894E00E949C169E
:1011A000182FCE01019613D71123C9F16091420285
:1011B000709143026D5F7F4F7093430260934202D0
:1011C00081E894E05FD4FC01608188ED93E082D5F2
:1011D00088ED93E00E940A156091420270914302EB
:1011E00081E894E04FD4FC0180818133B9F164EE51
:1011F00072E088ED93E00E942B1566EC72E08BE3C1
:1012000093E00E942B15A9DD882349F069EB72E079
:101210008BE393E00E942B15A0DD81111FC069E7CD
:1012200073E088ED93E00E942B15809185028F5F1B
:10123000809385021092860267E073E088ED93E068
:101240000E942B1510926F008BE259DD61E874E06B
:1012500088ED93E00E943C1810E033C110E1109338
:1012600081001092800084ED90E39093870080933A
:10127000860083E18093810087EB93E090939D0249
:1012800080939C0201E000936F0082E080938602CD
:101290006DE673E08BE393E00E942B155EDD8823FF
:1012A00049F261E673E08BE393E00E942B1555DD74
:1012B000882309F4BFCFA89560919A0270919B0290
:1012C00088ED93E00E943C1860919A0270919B0215
:1012D0008BE393E00E943C1840DD882309F4AACFF9
:1012E00061E573E08BE393E00E942B1536DD8823E4
:1012F00009F4A0CF80918402811115C01093810060
:101300001092800080E593EC909387008093860094
:1013100082E18093810082EC93E090939D02809320
:101320009C0200936F00809184028823B9F080E1D1
:10133000809381001092800080E593EC9093870069
:101340008093860083E18093810084EE93E0909304
:101350009D0280939C0281E080936F000E943F1960
:1013600024E630E040E050E00E94ED2549015A01BA
:1013700084E6482E512C612C712C6BE473E0CE0175
:10138000019681D645E0BE016F5F7F4F81E894E012
:101390000E949C16182FCE01019619D6111125C056
:1013A000CE0101960E942617BE016F5F7F4F81E834
:1013B00094E02BD5CE0101960AD60E943F19A301D5
:1013C00092010E94ED25DA01C90188199909AA093B
:1013D000BB0987399105A105B10578F262E473E094
:1013E00088ED93E00E942B1525CF86E0809386023E
:1013F0006DE373E0CE01019646D644E0BE016F5F17
:101400007F4F81E894E00E949C16182FCE01019630
:10141000DED5112309F40ECF65E373E088ED93E088
:101420000E942B1569E273E08BE393E00E942B1579
:1014300094DC882309F4FECE0E943F1963E273E036
:10144000CE01019620D645E0BE016F5F7F4F81E857
:1014500094E00E949C16182FCE010196B8D5112356
:1014600069F36FE173E0CE0101960DD643E0BE0152
:101470006F5F7F4F81E894E00E949C16182FCE0189
:101480000196A5D5112309F4D5CE63E173E088ED6B
:1014900093E00E942B1510926F0061E08BE20E9496
:1014A000D9180E943F196C197D098E099F094AE0DD
:1014B0000E94D81588ED93E00E940A1587E080937A
:1014C0008602812F62960FB6F894DEBF0FBECDBFA5
:1014D000DF91CF911F910F91FF90EF90DF90CF9010
:1014E000BF90AF909F908F907F906F905F904F9044
:1014F00008958F929F92AF92BF92CF92DF92EF9218
:10150000FF920F931F93CF93DF93CDB7DEB72C9746
:101510000FB6F894DEBF0FBECDBF69E972E08BE372
:1015200093E00E942B1519DC811104C0C12CD12C31
:101530007601C9C165E972E0CE010196A4D543E008
:10154000BE016F5F7F4F81E894E00E949C16182FC8
:10155000CE0101963CD5112349F3CE0107960E9496
:10156000EF148091420290914302019690934302BE
:101570008093420266E772E0CE010796FED4609146
:1015800042027091430281E894E07CD2FC018081A8
:1015900060914202709143028F3209F181E894E038
:1015A00071D2FC011081BE01695F7F4FCE010196AF
:1015B00072D5612FCE0101960E947E16BC01CE012C
:1015C0000796F0D4CE01019602D580914202909107
:1015D000430201969093430280934202D0CF6F5F03
:1015E0007F4F7093430260934202CE0107960E94A0
:1015F0006016182F66E772E0CE010796BED46091A0
:1016000042027091430281E894E03CD2FC01808167
:101610008F3229F1609142027091430281E894E097
:1016200031D2FC010081BE01695F7F4FCE0101967E
:1016300032D5602FCE0101960E947E16BC01CE01EC
:101640000796B0D4CE010196C2D480914202909107
:10165000430201969093430280934202D0CFCE0181
:1016600007960E946016082F8091420290914302D3
:101670000196909343028093420266E772E0CE01A6
:1016800007967BD4609142027091430281E894E016
:10169000F9D1FC0180818C3229F160914202709174
:1016A000430281E894E0EED1FC01F080BE01695F65
:1016B0007F4FCE010196EFD46F2DCE0101960E948F
:1016C0007E16BC01CE0107966DD4CE0101967FD463
:1016D000809142029091430201969093430280933D
:1016E0004202D0CFCE0107960E946016882E8091CC
:1016F00042029091430201969093430280934202EA
:1017000066E772E0CE01079638D46091420270918C
:10171000430281E894E0B6D1FC0180818A3329F14B
:10172000609142027091430281E894E0ABD1FC01E8
:10173000F080BE01695F7F4FCE010196ACD46F2D62
:10174000CE0101960E947E16BC01CE0107962AD4D6
:10175000CE0101963CD480914202909143020196C1
:101760009093430280934202D0CFCE0107960E940D
:101770006016982E809142029091430201969093B8
:1017800043028093420266E772E0CE010796F5D3EA
:10179000609142027091430281E894E073D1FC01B0
:1017A00080818A3329F1609142027091430281E87D
:1017B00094E068D1FC01F080BE01695F7F4FCE01EB
:1017C000019669D46F2DCE0101960E947E16BC0150
:1017D000CE010796E7D3CE010196F9D3809142025C
:1017E0009091430201969093430280934202D0CF9E
:1017F000CE0107960E946016E82FA12E012E000C44
:10180000BB08D5015E9620E833E341EE51E00E942B
:10181000E7256B017C01A02FAA0FBB0BA75CBA4F79
:101820000D90BC91A02DA80DB11D87FCBA95C501E6
:10183000809697FD03969595879595958795A80F22
:10184000B91F119720E831E541E050E00E94E725FB
:10185000C60ED71EE81EF91EA92D990CBB0B20E160
:101860003EE00E943B27C60ED71EE81EF91EAE2F93
:10187000EE0FBB0B2CE330E00E943B27DC01CB01D9
:101880008C0D9D1DAE1DBF1D137031F4033024F46B
:1018900080589145A140B1098732F2E19F07F2EDEE
:1018A000AF07FCE5BF0748F06C017D0128E5C21ACF
:1018B0002DE4D20AE108F10803C0C12CD12C760135
:1018C000CE01079684D3C701B6012C960FB6F894C3
:1018D000DEBF0FBECDBFDF91CF911F910F91FF9063
:1018E000EF90DF90CF90BF90AF909F908F90089532
:1018F0008F929F92AF92BF92CF92DF92EF92FF9220
:101900001F93CF93DF9300D000D0CDB7DEB726E092
:1019100040E855E260E070E08BE393E00E943B1505
:1019200060E972E08BE393E00E942B1516DA0E94C7
:101930003F196B017C01DDDD6E377F45824D9C4593
:1019400008F071C0C701B60124E630E040E050E085
:101950000E94ED2569017A0184E6882E912CA12C44
:10196000B12C6BE872E0CE0101968DD344E0BE014C
:101970006F5F7F4F81E894E00E949C16182FCE0184
:10198000019625D3111127C0A895CE0101960E947A
:101990002617BE016F5F7F4F81E894E036D2CE01FB
:1019A000019615D3A8950E943F19A50194010E94A4
:1019B000ED25DA01C9018C199D09AE09BF098739E6
:1019C0009105A105B10568F260E872E088ED93E049
:1019D0000E942B1519C06CE772E088ED93E00E941D
:1019E0002B1567E772E0CE0101964DD344E0BE01AE
:1019F0006F5F7F4F81E894E00E949C16F82ECE0125
:101A00000196E5D2F1100FC06DE672E08BE393E032
:101A10000E942B15A2D968E672E08BE393E00E9446
:101A20002B159BD917C061E672E088ED93E00E9408
:101A30002B1563E472E08BE393E00E942B158DD9A4
:101A400065E272E08BE393E00E942B1586D9F3D90F
:101A5000811104C081E058DAA8954ADF26960FB6B6
:101A6000F894DEBF0FBECDBFDF91CF911F91FF90E5
:101A7000EF90DF90CF90BF90AF909F908F900895A0
:101A80000E943B28FC01248135816217730720F4F2
:101A900080819181009729F410928F028FE892E063
:101AA0000895860F971F0895EF92FF920F931F934B
:101AB000CF93DF936115710511F480E01DC08B0198
:101AC000EC01CB010E9447240097A9F02C813D81B5
:101AD0007C01E20EF31EB701CE01D1D1882369F358
:101AE000288139818C819D81B801820F931F0E94CA
:101AF0004024FD82EC8281E0DF91CF911F910F9114
:101B0000FF90EF900895CF93DF93EC01CDDF81112B
:101B100002C0CE01DBD1CE01DF91CF910895EF92CB
:101B2000FF920F931F93CF93DF936115710511F40B
:101B300080E01BC041155105B9F07B01EC018C819F
:101B40009D818A01080F191FB801CE0198D1882301
:101B500079F3288139818C819D81B701820F931F90
:101B60000E9457281D830C8381E0DF91CF911F9144
:101B70000F91FF90EF900895FB01448155816081A2
:101B80007181CDCF0895CF92DF92EF92FF920F93A4
:101B90001F93CF93DF936C017A018B01C0E0D0E0FB
:101BA000CE15DF0581F0D8016D918D01D601ED9143
:101BB000FC910190F081E02DC6011995892B11F05F
:101BC0002196EECF7E01C701DF91CF911F910F913A
:101BD000FF90EF90DF90CF90089580E090E008951F
:101BE000FC01538D448D252F30E0842F90E0821B23
:101BF000930B541710F0CF96089501970895FC01A8
:101C0000918D828D981761F0828DDF01A80FB11D33
:101C10005D968C91928D9F5F9F73928F90E0089557
:101C20008FEF9FEF0895FC01918D828D981731F011
:101C3000828DE80FF11D858D90E008958FEF9FEF65
:101C40000895FC01918D228D892F90E0805C9F4F3B
:101C5000821B91098F73992708958EE992E0F1DF35
:101C600021E0892B09F420E0822F08958BE393E093
:101C7000E8DF21E0892B09F420E0822F089588ED28
:101C800093E0DFDF21E0892B09F420E0822F089523
:101C9000FC01848DDF01A80FB11DA35ABF4F2C9109
:101CA000848D90E001968F739927848FA689B789D8
:101CB0002C93A089B1898C91837080648C93938DCF
:101CC000848D981306C00288F389E02D80818F7D72
:101CD00080830895EF92FF920F931F93CF93DF932A
:101CE000EC0181E0888F9B8D8C8D981305C0E8896D
:101CF000F989808185FD25C0F62E0B8D10E00F5FE0
:101D00001F4F0F731127E02E8C8DE8120BC00FB6FA
:101D100007FCFACFE889F989808185FFF5CFCE01EC
:101D2000B7DFF2CF8B8DFE01E80FF11DE35AFF4FB5
:101D3000F0829FB7F8940B8FEA89FB8980818062DB
:101D40000AC09FB7F894EE89FF896083E889F98912
:101D500080818370806480839FBF81E090E0DF9109
:101D6000CF911F910F91FF90EF900895CF93DF9344
:101D7000EC01888D8823C1F0EA89FB89808185FD8B
:101D800005C0A889B9898C9186FD0EC00FB607FCE5
:101D9000F5CF808185FFF2CFA889B9898C9185FF25
:101DA000EDCFCE0175DFE8CFDF91CF91089580E0D0
:101DB00090E0892B19F063DF81111BC080E090E077
:101DC000892B41F080E090E0892B21F00E940000F7
:101DD000811112C080E090E0892B19F047DF81115A
:101DE0000EC080E090E0892B79F037DF81110AC0C6
:101DF00008950E940000E2CF0E940000EBCF0E94F5
:101E00000000EFCF0C94000008950F931F93CF9321
:101E1000DF938C01EB01FC0180819181009739F007
:101E20006881798161157105A1F40E94B7238881C9
:101E30009981F801918380838A819B819383828336
:101E40008C819D8195838483198218821B821A82DA
:101E50000FC0F801428153812C813D814217530705
:101E600020F30E9457288C819D81F80195838483FB
:101E70001D821C82DF91CF911F910F9108950F93C6
:101E80001F93CF93DF93EC0188819981009729F00C
:101E90002A813B812617370788F48B016F5F7F4FBC
:101EA0000E945B27009761F0998388831B830A83D4
:101EB0002C813D81232B11F4FC01108281E001C0B3
:101EC00080E0DF91CF911F910F910895CF93DF9321
:101ED000EC0188819981009711F00E94B723198243
:101EE00018821D821C821B821A82DF91CF91089575
:101EF000EF92FF920F931F93CF93DF93EC018B012F
:101F00006115710549F0CB010E9447247C01BC0199
:101F1000CE01B5DF811103C0CE01D8DF07C0FD823D
:101F2000EC82B801888199810E944024CE01DF9122
:101F3000CF911F910F91FF90EF900895EF92FF9234
:101F40000F931F93CF93DF93EC017B018A01BA01BA
:101F500096DF811103C0CE01B9DF07C01D830C835A
:101F6000B701888199810E945728CE01DF91CF91D6
:101F70001F910F91FF90EF900895CF93DF93EC01A5
:101F80006115710551F0FB0101900020E9F73197CF
:101F9000AF01461B570BD2DF01C098DFCE01DF91A6
:101FA000CF910895CF93DF93EC01FB01861797073C
:101FB00051F0608171816115710521F04481558175
:101FC000BDDF01C083DFCE01DF91CF910895FC0119
:101FD000808191810C94B7230F931F93CF93DF934C
:101FE000CDB7DEB761970FB6F894DEBF0FBECDBF99
:101FF0008C01CB01F80111821082138212821582AA
:10200000148250E0BE016F5F7F4F0E947B24BE01AF
:102010006F5F7F4FC801B1DF61960FB6F894DEBFE6
:102020000FBECDBFDF91CF911F910F9108950F93F8
:102030001F93CF93DF93CDB7DEB729970FB6F894F0
:10204000DEBF0FBECDBF8C01862FF801118210823A
:10205000138212821582148250E0BE016F5F7F4F9F
:1020600090E00E947B24BE016F5F7F4FC80185DF37
:1020700029960FB6F894DEBF0FBECDBFDF91CF918A
:102080001F910F910895FC01118210821382128218
:10209000158214822DCFFC011182108213821282CC
:1020A000158214827FCF1F920F920FB60F921124C8
:1020B0000BB60F922F933F934F935F936F937F9342
:1020C0008F939F93AF93BF93EF93FF938EE992E02B
:1020D000DFDDFF91EF91BF91AF919F918F917F9144
:1020E0006F915F914F913F912F910F900BBE0F9089
:1020F0000FBE0F901F9018951F920F920FB60F9260
:1021000011240BB60F922F933F934F935F936F93CE
:102110007F938F939F93AF93BF93EF93FF938EE93A
:1021200092E0D8D7FF91EF91BF91AF919F918F919E
:102130007F916F915F914F913F912F910F900BBEC7
:102140000F900FBE0F901F9018951F920F920FB611
:102150000F9211240BB60F922F933F934F935F93DF
:102160006F937F938F939F93AF93BF93EF93FF935F
:102170008BE393E08DDDFF91EF91BF91AF919F9144
:102180008F917F916F915F914F913F912F910F9020
:102190000BBE0F900FBE0F901F9018951F920F92BD
:1021A0000FB60F9211240BB60F922F933F934F93BC
:1021B0005F936F937F938F939F93AF93BF93EF93AF
:1021C000FF938BE393E086D7FF91EF91BF91AF919F
:1021D0009F918F917F916F915F914F913F912F913F
:1021E0000F900BBE0F900FBE0F901F9018951F926F
:1021F0000F920FB60F9211240BB60F922F933F93AD
:102200004F935F936F937F938F939F93AF93BF93FE
:10221000EF93FF9388ED93E03BDDFF91EF91BF914A
:10222000AF919F918F917F916F915F914F913F916E
:102230002F910F900BBE0F900FBE0F901F9018950F
:102240001F920F920FB60F9211240BB60F922F937D
:102250003F934F935F936F937F938F939F93AF932E
:10226000BF93EF93FF9388ED93E034D7FF91EF9105
:10227000BF91AF919F918F917F916F915F914F919E
:102280003F912F910F900BBE0F900FBE0F901F909C
:1022900018951F920F920FB60F9211240BB60F9242
:1022A0002F933F934F935F936F937F938F939F935E
:1022B000AF93BF93EF93FF93E0919C02F0919D0247
:1022C0001995FF91EF91BF91AF919F918F917F9160
:1022D0006F915F914F913F912F910F900BBE0F9097
:1022E0000FBE0F901F901895CF92DF92EF92FF9242
:1022F0000F931F93CF93DF93EB017B0126E0E20E58
:10230000F11C8B016C01C61AD70AC601800F911F00
:102310000E94C725F80181938F01EE15FF05A9F7EB
:10232000CE01DF91CF911F910F91FF90EF90DF9041
:10233000CF9008950C94C725CF92DF92EF92FF9231
:102340000F931F93CF93DF93CDB7DEB7E8970FB608
:10235000F894DEBF0FBECDBF182F8E3F09F041C0ED
:102360000E946004182F8F3F09F4ECC217FD35C09E
:10237000E12E012E000CFF08612F012E000C770BBF
:10238000880B990B57D469EF75E088ED93E045D33E
:1023900097012A5F3D4F7901D9016C91062E000CFF
:1023A000770B880B990B46D463EF75E088ED93E0CB
:1023B00034D3F7018081082E000C990BFC01EE0F3D
:1023C000FF1F8E0F9F1FFC01E957FB4F8081082ED6
:1023D000000C990B61D61150C9CF0E94600411E026
:1023E000180FCE018796FBD2CE018D96F8D26AE502
:1023F00070E0CE01879643DD68ED75E0CE018796EB
:1024000077DD6BE774E0CE018796B6DB66ED75E0AD
:10241000CE01879649DB65E774E0CE018796ACDB99
:102420006EEB75E0CE0187963FDB63D81CAA1BAA32
:102430001EAA1DAA18AE1FAA2AE0AE014F5F5F4F69
:102440000E945A24BE016F5F7F4FCE01C39695DD77
:10245000BE016D5C7F4FCE0187968EDBCE01C396A9
:10246000B6DD67EB75E0CE0187961EDB64E070E0B9
:10247000CE018D9604DD60918702709188024AE05A
:10248000CE010196A9DDBE016F5F7F4FCE018D9613
:10249000BCDCCE0101969BDD40E1BE01635D7F4F58
:1024A000CE0101960E941904BE016F5F7F4FCE01DD
:1024B000879662DBCE0101968ADD60EB75E0CE0186
:1024C0008796F2DA0E947D05E7D580E090E0EFA1E3
:1024D000F8A52081222329F001963196F8A7EFA3D1
:1024E000F6CFE81BF90BF8A7EFA38AA3DDD38AA1E7
:1024F0008F5F8AA31CA21BA222EC31E0A901481B1A
:1025000051095EA34DA32BA13CA18DA19EA18217D1
:10251000930708F452C017FD50C00FEF010F0F3F93
:1025200009F44BC0C02E002E000CDD08C6018A5FE6
:102530009D4F7C01DC018C918F5F0E94C80520912A
:102540008E028BA19CA10A96B4E02B9F800D911D59
:1025500011249CA38BA368EA75E088ED93E05DD21B
:10256000C6019AD56DE975E088ED93E056D28BA14E
:102570009CA1A2D5102F002331F2F7013197808161
:10258000082E000C990BDC01AA0FBB1F8A0F9B1FA2
:10259000DC01A957BB4FF7018081082E000C990B75
:1025A000FC01EE0FFF1F8E0F9F1FFC01E957FB4F31
:1025B0009C918081981709F4A6CF2BA13CA18DA1F5
:1025C0009EA18217930710F01F3F71F56FE875E029
:1025D00088ED93E040D2E12F012E000CFF0BEA5F63
:1025E000FD4F80818F5F0E94C80520918E028BA1D4
:1025F0009CA10A97F4E02F9F8019910911249CA3B4
:102600008BA31F5F67E875E088ED93E006D2812F0A
:10261000012E000C990B40D56CE775E088ED93E036
:10262000FCD18BA19CA148D58BA19CA101962AA18C
:1026300061E070E0820F911D0E94412790939B0200
:1026400080939A02009709F473C1BE01695D7F4FC0
:1026500093DA0E947D0520D5812F012E000C990B65
:102660009EA38DA30FEF8BA19CA1892B09F41DC103
:10267000A8950E947D0510D5812F012E000C990B85
:102680009C012A5F3D4F6901D9018C918F5F0E94A7
:10269000C80560918C0270918D0240E1CE010196D7
:1026A0009BDCBE016F5F7F4FCE018D96AEDBCE010E
:1026B00001968DDC40E1BE01635D7F4FCE01019646
:1026C0000E941904BE016F5F7F4F80919A02909122
:1026D0009B0252DACE0101967ADC40E160918A02D7
:1026E000CE010196A4DCBE016F5F7F4FCE018D96B7
:1026F0008CDBCE0101966BDC48E0BE01635D7F4F51
:10270000CE0101960E941904BE016F5F7F4F809138
:102710009A0290919B0230DACE01019658DC40E19A
:1027200060918B02CE01019682DCBE016F5F7F4F0C
:10273000CE018D966ADBCE01019649DC48E0BE01F0
:10274000635D7F4FCE0101960E941904BE016F5F49
:102750007F4F80919A0290919B020EDACE010196F2
:1027600036DC80918E021CAA1BAA1EAA1DAA18AED6
:102770001FAA90E040E1BE016F5F7F4F880F991F55
:102780000E945024BE016F5F7F4FCE01C396F5DBE0
:10279000BE016D5C7F4FCE018D9637DBCE01C396B7
:1027A00016DC48E0BE01635D7F4FCE0101960E94BA
:1027B0001904BE016F5F7F4F80919A0290919B0236
:1027C000DBD9CE01019603DC1AA28AA120918E02E8
:1027D000821708F03AC0D601EC910E2E000CFF0BC8
:1027E0009F01220F331FE20FF31FE957FB4F218197
:1027F0009281E22FF92FE80FF11DE80FF11D6081A2
:10280000718140E1CE010196E7DBBE016F5F7F4F32
:10281000CE018D96FADACE010196D9DB40E1BE01F8
:10282000635D7F4FCE0101960E941904BE016F5F68
:102830007F4F80919A0290919B029ED9CE01019682
:10284000C6DB8AA18F5F8AA3C0CFF60180818AA3ED
:102850008BA19CA10A97F4E02F9F80199109112464
:102860009CA38BA329D40E947D0516D4EAA0F12C49
:10287000C701880F991F8E0D9F1D9C0129573B4F43
:102880007901D90111968D919C9112970E94B723DD
:10289000F7011282118288ED93E0BCD00E947D0581
:1028A000FBD3D6010C931F5FDECE6AE775E0809103
:1028B0009A0290919B02F8D8FDA00E947D05ECD36E
:1028C0001AA20E94E607811104C08AA1882309F494
:1028D0003BC063E675E088ED93E0BDD00E947D05C6
:1028E000DBD300919A0210919B020115110529F08A
:1028F000C8016DDBC8010E94B72310929B021092A1
:102900009A020E947D05C8D38F2D0F2C000C990BC5
:10291000C3D3109106021F3F69F46AE575E088EDA4
:1029200093E099D040E060E080E00E949B0603C005
:102930001FEF01C01F2DCE018D9649DBCE0187967A
:1029400046DB0CC01FEF0AC061E775E088ED93E03D
:1029500082D081E08AA30E94E607BBCF812FE89650
:102960000FB6F894DEBF0FBECDBFDF91CF911F91A0
:102970000F91FF90EF90DF90CF9008950F931F93EA
:102980007ED46093430370934403809345039093F4
:1029900046038BE393E033D997FF1EC070D40091B8
:1029A0004303109144032091450330914603DC0119
:1029B000CB01801B910BA20BB30B00913F03109135
:1029C0004003209141033091420380179107A207F1
:1029D000B307F8F28FEF9FEF1F910F910895FC015D
:1029E00011821082138212821582148240E050E01C
:1029F00066E772E0A3CA6115710549F0FB01019019
:102A00000020E9F73197AF01461B570BBCC880E0A7
:102A100090E0089564E772E0EECFEF92FF920F939B
:102A20001F93CF93DF938C017B01C0E0D0E0F701CF
:102A3000EC0FFD1F6491662331F0C8014BD9892B3F
:102A400011F02196F4CFCE01DF91CF911F910F911C
:102A5000FF90EF9008950F931F93CF93DF93EC01B6
:102A6000DCDF8C01CE01D6DF800F911FDF91CF918B
:102A70001F910F910895CF92DF92EF92FF921F93D3
:102A8000CF93DF93EC016A017B01122FE889F9896A
:102A900082E080834115514E61057105B1F060E01F
:102AA00079E08DE390E0A70196010E94ED25DA011F
:102AB000C9010197A109B109B695A7959795879581
:102AC0009C01211580E13807A8F0E889F989108276
:102AD00060E874E88EE190E0A70196010E94ED2580
:102AE000DA01C9010197A109B109B695A795979592
:102AF00087959C01EC85FD853083EE85FF852083DD
:102B0000188EEC89FD891083EA89FB8980818061B8
:102B10008083EA89FB89808188608083EA89FB89D8
:102B2000808180688083EA89FB8980818F7D8083B2
:102B3000DF91CF911F91FF90EF90DF90CF9008959C
:102B400090E0FC01E758F94F2491FC01ED5CF94F4E
:102B50008491882399F090E0880F991FFC01E75E2B
:102B6000F94FA591B491FC01E150FA4F85919491F0
:102B70008FB7F894EC91E22BEC938FBF0895FB0193
:102B800044815581608171810C94C30DCF93DF9393
:102B9000EC01FB0144815581608171810E948F0DA0
:102BA000811102C0CE0192D9CE01DF91CF9108955B
:102BB0008F929F92AF92BF920F931F93CF93DF9309
:102BC000CDB7DEB7A1970FB6F894DEBF0FBECDBF6D
:102BD00019A2423008F44AE08E010F5D1F4F842E87
:102BE000912CA12CB12CA50194010E94ED25E62F7A
:102BF000B901CA0101501109EA3014F4E05D01C0C5
:102C0000E95CD801EC93232B242B252B61F7B80129
:102C100088ED93E0F0DEA1960FB6F894DEBF0FBE0C
:102C2000CDBFDF91CF911F910F91BF90AF909F903B
:102C30008F900895CF92DF92EF92FF92CF93DF9320
:102C400097FF19C06B017C016DE288ED93E042D8DB
:102C5000EC0166277727CB016C197D098E099F0946
:102C60004AE0A6DF8C0F9D1FDF91CF91FF90EF9080
:102C7000DF90CF9008954AE0DF91CF91FF90EF90E1
:102C8000DF90CF9095CF682F70E080E090E04AE031
:102C90008FCFAB01672B21F4682F88ED93E01AC822
:102CA000BC0180E090E084CFCF93DF93ECDFEC01B8
:102CB00088ED93E0AFDE8C0F9D1FDF91CF910895DB
:102CC000DC0120E080E0ED91FC911197308133230D
:102CD00081F0222331F0982F990F892F880F880FC8
:102CE000890F3053830F2F5F31961196FC93EE932B
:102CF000EACFE21BF109ED93FC9308950F931F9324
:102D0000CF93DF931F921F92CDB7DEB78C016983FB
:102D10001A8241E050E0BE016F5F7F4F0E948F0D2D
:102D2000811102C0C801D2D8C8010F900F90DF9165
:102D3000CF911F910F9108958F929F92BF92CF9242
:102D4000DF92EF92FF920F931F93CF93DF93EC01EB
:102D5000A8958C819D81892B09F46BC0E881F9814C
:102D60008081882309F465C0B42E7B01C12CD12C4D
:102D7000E881F9818081882309F450C0A89500E09A
:102D8000802E912CB401C7010E94420DFC0180816C
:102D90008823F1F0A895E881F9811081B401C70179
:102DA0000E94420DFC018081181306C08881998120
:102DB0000196998388830F5FE881F9811081602FE4
:102DC00070E0C7010E94420DFC0180811817C1F21A
:102DD00010E0B801C7010E94420DFC0120818881EA
:102DE0009981211113C04B2D50E0415051094C0DD8
:102DF0005D1D50934302409342020C0D1D1D801B2C
:102E0000910B99838883A89581E014C001969983DA
:102E100088830F5F1F4FC00ED11EAACFEC19FD098A
:102E2000F983E8838FEF9FEF9093430280934202F0
:102E3000A89580E0DF91CF911F910F91FF90EF90C7
:102E4000DF90CF90BF909F908F9008950F931F9326
:102E5000CF93DF931F921F92CDB7DEB78C01BFDDFA
:102E60008DDD97FD0BC089831A8241E050E0BE01E1
:102E70006F5F7F4FC8010E948F0DF2CFC8010F9086
:102E80000F90DF91CF911F910F9108953FB7F89464
:102E90008091720690917306A0917406B0917506A8
:102EA00026B5A89B05C02F3F19F00196A11DB11DA5
:102EB0003FBFBA2FA92F982F8827820F911DA11DE0
:102EC000B11DBC01CD0142E0660F771F881F991F1D
:102ED0004A95D1F708958F929F92AF92BF92CF9269
:102EE000DF92EF92FF920F931F93CF93DF936B01CB
:102EF0007C01142F9B01AC010E941B27882319F031
:102F000067E772E027C046015701E894B7F82FEF52
:102F10003FEF4FE75FE7C501B4010E941B27811116
:102F20000DC02FEF3FEF4FE75FE7C501B4010E94EF
:102F3000AE2418161CF46BE772E00CC02FEF3FEFC5
:102F40004FE75FE4C701B6010E94172718168CF4FB
:102F50006FE772E088ED93E0DF91CF911F910F91C1
:102F6000FF90EF90DF90CF90BF90AF909F908F90A9
:102F700042CD2FEF3FEF4FE75FECC701B6010E9454
:102F8000AE2487FDE5CF20E030E0A901C701B601FE
:102F90000E94AE2487FF0BC06DE288ED93E00E9493
:102FA0006A0EEC01F7FAF094F7F8F09402C0C0E072
:102FB000D0E000E060E070E080E09FE3101741F0B7
:102FC00020E030E040E251E40E9483260F5FF6CF1C
:102FD000A70196010E941F266B017C010E94EB262F
:102FE0004B015C014AE0E4DDC80FD91F1123B1F1A8
:102FF000C501B4010E94B2249B01AC01C701B60116
:103000000E941E266B017C016EE288ED93E00E9417
:103010006A0EC80FD91F20E030E040E251E4C7013A
:10302000B6010E9413254B015C010E94EB266B0147
:103030007C016AE070E0C6012CDEC80FD91FB60122
:1030400080E090E00E94B2249B01AC01C501B40174
:103050000E941E266B017C011150E9F6CE01DF9122
:10306000CF911F910F91FF90EF90DF90CF90BF9085
:10307000AF909F908F9008950F931F93CF93DF93FE
:10308000EC017DDD8C01CE01C5DC800F911FDF914D
:10309000CF911F910F910895CF93DF93BC01990FAA
:1030A000880B990BC7DDEC0188ED93E0B3DC8C0F46
:1030B0009D1FDF91CF910895CF93DF936AE070E079
:1030C000E8DDEC0188ED93E0A5DC8C0F9D1FDF911E
:1030D000CF910895FC01A089B1898C91A689B78907
:1030E00082FD0FC09C91818D8F5F8F73228D82171F
:1030F00049F0218DDF01A20FB11D5D969C93818F58
:1031000008958C91089590E0FC013197E231F1052A
:1031100008F04EC08827EE58FF4F8F4F0C9433278E
:10312000809180008F7703C0809180008F7D809395
:103130008000089580918000877FF9CF84B58F77D4
:1031400002C084B58F7D84BD08958091B0008F77D3
:1031500003C08091B0008F7D8093B000089580916E
:1031600090008F7707C0809190008F7D03C0809181
:103170009000877F8093900008958091A0008F77C2
:1031800007C08091A0008F7D03C08091A000877F41
:103190008093A0000895809120018F7707C08091CF
:1031A00020018F7D03C080912001877F80932001C3
:1031B00008951F93CF93DF93282F30E0F901E15456
:1031C000F94F8491F901E758F94FD491F901ED5C79
:1031D000F94FC491CC23B9F0162F811194DFEC2F55
:1031E000F0E0EE0FFF1FE150FA4FA591B4919FB7A9
:1031F000F894111104C08C91D095D82302C0EC91A1
:10320000DE2BDC939FBFDF91CF911F9108958F92AA
:103210009F92AF92BF92CF92DF92EF92FF926B019B
:103220007C0134DE4B015C01C114D104E104F104E2
:10323000E9F02CDEDC01CB0188199909AA09BB0948
:10324000883E9340A105B10578F321E0C21AD10868
:10325000E108F10888EE880E83E0981EA11CB11CDD
:10326000C114D104E104F10421F7DECFFF90EF9007
:10327000DF90CF90BF90AF909F908F9008952FB721
:10328000F89460916E0670916F068091700690912F
:1032900071062FBF08957F928F929F92AF92BF9237
:1032A000CF92DF92EF92FF920F931F93CF93DF9312
:1032B000CDB7DEB7DA950FB6F894DEBF0FBECDBF3F
:1032C000C82E809155058983CA8221E0C216A0F0DC
:1032D00074E07C1518F487E1C8120EC08091560581
:1032E000909157059B838C83809158059091590547
:1032F0009D838E8386E001C082E08E010F5F1F4FA9
:1033000090E19C1528F0AFE0CA1630F49BEF01C0A5
:103310009AEE9C0D923078F42091DA059091DB05BD
:10332000F801E80FF11D908391E0980FF801E90F83
:10333000F11D8E5F2083BFE0CB1641F1BC1558F024
:10334000E5E0CE16A1F0F6E0CF12B6C02091DE0582
:103350009091DF0510C026E1C21609F48EC077E116
:10336000C71609F459C090E1C912A6C055C02091F2
:10337000DC059091DD05F801E80FF11D908391E0E7
:10338000980FF801E90FF11D8E5F95C02091DC05C3
:103390003091DD05F801E80FF11D308342E0480F60
:1033A00091E0980FF801E90FF11D2083B9016770D2
:1033B0007727A3E036952795AA95E1F7672B19F0B3
:1033C00091E0920F01C0922FB3E0B80FF801E40F23
:1033D000F11D90838C5F60E070E0A0E04FEF480F3C
:1033E0009A1303C08B2F890F67C050E09B0135955E
:1033F0002795400F511F220F331FF901E252FA4F58
:10340000A0FD02C0208101C02181FA012083AF5FAD
:103410006F5F7F4F8F5FE2CF2091DC053091DD053C
:10342000F801E80FF11D308391E0980FF801E90FE2
:10343000F11D208392E0980FF801E90FF11D8D5FD7
:10344000922F990F908390E03327E92FF0E0E21755
:10345000F30794F5EE0FFF1FE252FA4F50814181BE
:10346000F801E80FF11D408341E0480FF801E40F37
:10347000F11D8E5F50839F5FE8CF9091DE05209114
:10348000DF05F801E80FF11D208321E0280FF80186
:10349000E20FF11D90832091E0059091E10532E06B
:1034A000380FF801E30FF11D908393E0980FF801B6
:1034B000E90FF11D8C5F20837801F8012FEF3FEFBA
:1034C000D02E9E2F901B9817A0F49191292748E0A9
:1034D00050E0B9017695679520FF06C09B0191E009
:1034E000292790EA392701C09B014150510989F7EA
:1034F000E8CFF801E80FF11D2083B2E0BB2EB80E33
:103500008F5FF801E80FF11D3083F801EB0DF11D1D
:1035100010828091530590915405DC01ED91FC914E
:103520000284F385E02D1995019699F7E0916906DB
:10353000F0916A06309709F01995809153059091A2
:1035400054052E2D2D192B1558F4F70161917F018B
:10355000DC01ED91FC910190F081E02D1995EDCF0A
:10356000DC01ED91FC910680F781E02D1995E09149
:103570006B06F0916C06309709F0199580DE4B01CF
:103580005C01A8E0EA2EF12CD12C8091530590919A
:103590005405DC01ED91FC910084F185E02D199535
:1035A000892BA9F0772473947F0C80915305909117
:1035B0005405DC01ED91FC910284F385E02D199511
:1035C000F801EF0DF11D8083EA94F72C07C0E0911C
:1035D0006706F0916806309709F01995B5E0FB127F
:1035E00027C09981809155059813ABC0EA818E2F31
:1035F0008F7790E08C159D0509F0A5C0E7FF04C00A
:103600008B81882379F181C08E2F90E0FC01319766
:10361000E731F10568F48827EC57FF4F8F4F0C9482
:103620003327F3E0EF2E04C0EB8002C0E5E0EE2E7E
:1036300026DEDC01CB0188199909AA09BB09813D65
:103640009740A105B10538F480E0EE2031F08823E1
:1036500009F49BCF5AC082EEF8CF811156C0F4E036
:10366000FF15C8F58FEF9FEF60E0EF2DF0E09F01B1
:1036700022503109462F50E0D80142175307BCF4BD
:10368000A40FB51F4C91842748E050E0DC01B695AB
:10369000A79580FF06C0CD0171E0872770EA9727C4
:1036A00001C0CD014150510989F76F5FE3CFA20FEF
:1036B000B31F2C9130E0AC0155274217530709F096
:1036C000A4C0892F9927EC0FFD1F208130E08217BD
:1036D000930709F09AC08A818530B8F58330B8F530
:1036E000813090F05B81652F70E075956795209132
:1036F000660640E0842F90E0861797070CF453C0CD
:103700002093660650FD6DC080E010926006109216
:1037100062061092610610926506D3950FB6F89472
:10372000DEBF0FBECDBFDF91CF911F910F91FF90F4
:10373000EF90DF90CF90BF90AF909F908F907F9051
:10374000089580EEE2CF81EEE0CF8731E9F66B811C
:1037500070E0759567952091660640E0842F90E0B3
:10376000861797071CF020936606CECF4034C0F42E
:103770009C012E5F3F4F220F331F880F991FFC01C2
:10378000ED5AFA4FDE01A20FB31F8C9190E0982FF3
:103790008827D801A20FB31F2C91822B9087878393
:1037A000242F4F5FDBCF4034C8F4880F991FFC01F2
:1037B000ED5AFA4FA5E0B0E0AC0FBD1FA80FB91F3E
:1037C0002C9130E0322F2227A4E0B0E0AC0FBD1FD7
:1037D000A80FB91F8C91282B30872783242F4F5F88
:1037E00089CF403468F4880F991FFC01ED5AFA4FD5
:1037F000DE01A80FB91F14968C9190E09087878303
:1038000081E0840F809366067FCF83EE7ECF1F9288
:103810000F920FB60F9211242F933F938F939F9384
:10382000AF93BF9380916E0690916F06A091700642
:10383000B091710630916D0623E0230F2D3720F4EF
:103840000196A11DB11D05C026E8230F0296A11DFA
:10385000B11D20936D0680936E0690936F06A09322
:103860007006B09371068091720690917306A091D4
:103870007406B09175060196A11DB11D8093720664
:1038800090937306A0937406B0937506BF91AF91A1
:103890009F918F913F912F910F900FBE0F901F908E
:1038A0001895CF93DF93CDB7DEB76E970FB6F89428
:1038B000DEBF0FBECDBF789484B5826084BD84B571
:1038C000816084BD85B5826085BD85B5816085BD1B
:1038D00080916E00816080936E00109281008091D3
:1038E000810082608093810080918100816080935B
:1038F0008100809180008160809380008091B10080
:1039000084608093B1008091B00081608093B000AA
:1039100080919100826080939100809191008160FC
:1039200080939100809190008160809390008091BD
:10393000A10082608093A1008091A10081608093AA
:10394000A1008091A00081608093A000809121015E
:103950008260809321018091210181608093210107
:103960008091200181608093200180917A008460A1
:1039700080937A0080917A00826080937A008091AF
:103980007A00816080937A0080917A0080688093C9
:103990007A001092C1000FB6F894A895809160004B
:1039A000886180936000109260000FBE98E288E109
:1039B0000FB6F894A895809360000FBE90936000B6
:1039C0008CE2BED88DE2BCD88EE2BAD88AE2B8D8F2
:1039D00061E08AE2EEDB66E970E080E090E017DC0F
:1039E0008BE2AED861E08BE2E4DB62E370E080E082
:1039F00090E00DDC60E08AE2DCDB66E970E080E00C
:103A000090E005DC8FE29CD861E08FE2D2DB62E3DC
:103A100070E080E090E0FBDB60E08BE2CADB66E90F
:103A200070E080E090E0F3DB60E08FE2C2DB66E90B
:103A300070E080E090E0EBDB61E08AE2BADB6FE00F
:103A400070E080E090E0E3DB61E08FE2B2DB6FE00A
:103A500070E080E090E0DBDB61E08BE2AADB6FE00E
:103A600070E080E090E0D3DB61E08CE2A2DB6FE00D
:103A700070E080E090E0CBDB61E08DE29ADB6FE00C
:103A800070E080E090E0C3DB61E08EE292DB60E911
:103A900071E080E090E0BBDB60E08AE28ADB60E01E
:103AA0008FE287DB60E08BE284DB60E08CE281DB2D
:103AB00060E08DE27EDB60E08EE27BDB26E040E0D2
:103AC0005BE460E070E088ED93E00E943B150E94AB
:103AD0007D05E2DA66E774E088ED93E00E942B153D
:103AE0006BE474E088ED93E00E942B1564E070E0D5
:103AF00085E794E00E943F0F63E170E08BE794E07C
:103B00000E943F0F60E971E081E894E00E943F0F5E
:103B10008EE192E00E949A114AE0682FCE01019650
:103B20000E9417108DE192E00E949A114AE0682FDE
:103B3000CE0107960E9417108CE192E00E949A1124
:103B40004AE0682FCE010D960E9417108BE192E09B
:103B50000E949A114AE0682FCE0149960E941710E0
:103B6000BE01675E7F4FCE0143960E944B106DE809
:103B700073E0CE0143960E94830DBE01635F7F4FC9
:103B800005D86BE873E00E94830DBE01695F7F4F2B
:103B90000E94C61569E873E00E94830DBE016F5F45
:103BA0007F4F0E94C615BC018BE794E00E94D20FA4
:103BB000CE0143960E94E70FCE0149960E94E70F7F
:103BC000CE010D960E94E70FCE0107960E94E70FE7
:103BD000CE0101960E94E70F6BE774E088ED93E059
:103BE0000E94BF1561E873E088ED93E00E942B15F9
:103BF0008FE192E00E9465054AE0BC01CE0101968A
:103C00000E94EC0FBE016F5F7F4F85E794E00E943A
:103C1000050FCE0101960E94E70F65E774E088ED7D
:103C200093E00E94BF156FE873E088ED93E00E9477
:103C30002B1586E292E00E9465059093880280939E
:103C400087026AE070E025D867E973E088ED93E0C9
:103C50000E942B1583E292E00E9465056AE070E005
:103C600018D86EE973E088ED93E00E942B1582E28C
:103C700092E00E949A118093050282508B3318F0D3
:103C800084E0809305026091050225E0629FB00107
:103C90001124072E000C880B990B0E941A1665EA56
:103CA00073E088ED93E00E942B158AE292E00E9477
:103CB0009A11809300028150823018F081E0809345
:103CC0000002809100020E9443166DEA73E088EDC5
:103CD00093E00E942B158BE292E00E949A11809350
:103CE0009002833010F010929002809190020E9416
:103CF00043166AEB73E088ED93E00E940D15809106
:103D00009002811103C068EB73E009C0813019F49F
:103D100064EB73E004C0823031F466EB73E088ED4D
:103D200093E00E942B158CE292E00E949A11813060
:103D300019F480E390E010C0823011F0853018F063
:103D400080E690E009C0833019F480EC90E004C074
:103D5000843031F480E891E0909304028093030270
:103D600080910302909104026AE070E024E6AC01C5
:103D7000249FC001259F900D11240E94491660ECDC
:103D800073E088ED93E00E942B158DE292E00E9493
:103D90009A11809395028150843118F083E08093CA
:103DA0009502809195020E9443166CEC73E088EDB9
:103DB00093E00E942B15A89560E274E088ED93E0F3
:103DC0000E942B150E94950588E592E090930202CF
:103DD0008093010210E080910102909102028B3BDE
:103DE00053E0950708F06CC0A895BE016F5F7F4F48
:103DF0000E94741189818F3F09F462C0811102C051
:103E00001F5F54C06BE174E088ED93E00E940D15D4
:103E100089810E94431669E174E088ED93E00E9475
:103E20000D1564E174E088ED93E00E940D158A8120
:103E30000E94431662E174E088ED93E00E940D1544
:103E40006DE074E088ED93E00E940D158B810E9477
:103E500043166BE074E088ED93E00E940D1568E076
:103E600074E088ED93E00E940D156AE070E08C81AB
:103E70009D810E94491666E074E088ED93E00E94FF
:103E80000D1562E074E088ED93E00E940D158E81BF
:103E90000E94431660E074E088ED93E00E940D15E7
:103EA0006EEF73E088ED93E00E942B158091010284
:103EB00090910202069690930202809301028BCFAA
:103EC0006CEF73E088ED93E00E940D1525E0C22EA3
:103ED000D12C63EF73E088ED93E00E940D1581E033
:103EE000C81AD108B1F788ED93E00E940A15A89589
:103EF00080910102909102029C0126503109309379
:103F0000020220930102212F30E08E55924066E09C
:103F100070E095D76F5F7F4F2617370799F56BEEE7
:103F200073E088ED93E00E942B15112359F162EEA6
:103F300073E088ED93E00E940D156AE070E08091D7
:103F40000102909102020E94491669ED73E088ED2A
:103F500093E00E942B15C0900102D0900202C6018E
:103F600016D68F3F19F06FEFC60119D68091010266
:103F700090910202069790930202809301021150E1
:103F8000A895D3CFA8956DE374E088ED93E00E94E7
:103F90000D1526E040E855E260E070E08BE393E029
:103FA0000E943B156AE374E08BE393E00E942B15BB
:103FB000CE0101960E942617BE016F5F7F4F88EDEC
:103FC00093E05AD8CE0101960E94E70F81E30E9448
:103FD000A0158091900281110EC0809103029091F2
:103FE000040224E6289FA001299F500D112460E0BF
:103FF00070E026E01FC0813071F48091030290913F
:10400000040224E6289FA001299F500D112460E09E
:1040100070E026E30FC0823089F480910302909112
:10402000040224E6289FA001299F500D112460E07E
:1040300070E026E28EE992E00E943B1585E194E073
:1040400090936A068093690681E194E090936C06F0
:1040500080936B060E94780CA89511D924E630E075
:1040600040E050E0BAD520939602309397024093F7
:1040700098025093990203D96FE274E088ED93E0BF
:104080000E942B150E947D0507D8A89584E6282E4E
:10409000312C412C512C91E1892E94E0992EEEEE99
:1040A000F6E08491E8EAF6E01491E2E6F6E00491A5
:1040B000002309F4CEC1811126D8E02FF0E0EE0FE5
:1040C000FF1FEE57FB4FA591B491EC911E2309F40D
:1040D000C0C162E575E088ED93E00E942B15A895BC
:1040E000CED810910502A201910177D58091960258
:1040F00090919702A0919802B0919902BA01A901FA
:10410000481B590B6A0B7B0BF2E31F9FC001112464
:10411000092E000CAA0BBB0B84179507A607B7073F
:10412000F0F607E814E0E12C60E08CE242D8D09091
:10413000950260E08FE23DD80E947D050E944C18F8
:10414000772473947E0C872D0E94C805813001F17D
:10415000872D0E94C805882309F4A3C0872D0E94DB
:10416000C805823041F00D5F1F4FE72CBCE3AB2E3A
:104170007A10DACF56C18E2D90E0FC01EE0FFF1FB2
:104180008E0F9F1FFC01E957FB4F8FEF808349C1C2
:10419000EE24EA94ED0CF80181819281E8D2F801D5
:1041A0001282118280918A02809355057EE9A72EA2
:1041B00072E0B72EB0925405A0925305109260069B
:1041C0001092620610926106E5E1CE2EE4E0DE2E4A
:1041D000D0926A06C092690690926C0680926B0635
:1041E000A89580918B02833089F480918E0290E0B3
:1041F00020918C0230918D02309357052093560503
:10420000909359058093580583E012C0843091F44F
:1042100080918E0220918C0230918D02309357054F
:104220002093560590E0909359058093580584E0BB
:1042300032D8F82EFF20C1F18CE20E947F0662E0A6
:10424000D62EFD1003C068E375E023C023E0F21210
:1042500003C06DE175E01DC044E0F41203C067E0E7
:1042600075E017C051EEF51203C06EEE74E011C098
:1042700082EEF81203C06EED74E00BC090EEF912FE
:1042800003C065EC74E005C0E3EEFE1206C061EB0E
:1042900074E088ED93E00E942B15EE2011F0EA9473
:1042A0009FCFF80110825FCF61E08CE20E94D918A5
:1042B00060EA74E088ED93E00E940D158091890218
:1042C0000E94541680918A02F801808380918E02A8
:1042D00062E070E090E0D5D5F80192838183E12C13
:1042E00080918E02E81610F0E12C81C0F801A181C6
:1042F000B2812E2D30E06901CC0CDD1CAD014C0DDE
:104300005D1DFFE3FE1538F0C6018D5A9A4FFC0182
:104310008781908502C08FEF9FEFFA0191838083A0
:104320005601F2E0AF0EB11CAA0DBB1DE1E0EE0D8F
:10433000E03440F4F0E0EE0FFF1FED5AFA4F8781B2
:10434000908502C08FEF9FEF8D939C93A8958091ED
:104350008C0290918D0201966AE070E0820F931FAB
:104360000E9449166EE974E088ED93E00E940D15F5
:10437000F80181819281FC01EA0DFB1D4081518190
:1043800060E070E0BA0155274427FC01EC0DFD1DEB
:1043900080819181A0E0B0E05A016B01A82AB92A7E
:1043A000CA2ADB2AC601B501A0929102B0929202FC
:1043B000C0929302D092940240E10E94D8156CE919
:1043C00074E088ED93E00E940D1560919102709168
:1043D0009202809193029091940242E00E946B17A6
:1043E00088ED93E00E940A15E394E39479CF8091DD
:1043F0008E02E81688F4F80191818281E92FF82F66
:10440000EE0DF11DEE0DF11D60E170E080819181F6
:104410000E944916E394EBCF88ED93E00E940A15C1
:10442000A2CE0E943F19A2019101D7D320939602F8
:104430003093970240939802509399020E947D0511
:104440000E944C188EEF0E949C118F3F09F427CEDA
:10445000FACF61E08FE20E94D9183BCE85E794E065
:104460000E94E70F8BE794E00E94E70F81E894E059
:104470000C94E70F1092A1021092A00248EE53E0B4
:1044800060E070E04093A2025093A3026093A40204
:104490007093A50286E692E090939F0280939E021D
:1044A00025E331E03093AB022093AA0224E331E00C
:1044B0003093AD022093AC0220E331E03093AF02A1
:1044C0002093AE0221E331E03093B1022093B00299
:1044D00022E331E03093B3022093B20226E331E0CD
:1044E0003093B5022093B4021092B7021092B80232
:1044F0001092B9021092BA0210923E0310923D033C
:1045000040933F03509340036093410370934203F1
:1045100090933C0380933B0325ED30E030934803B8
:104520002093470324ED30E030934A03209349035E
:1045300020ED30E030934C0320934B0321ED30E02D
:1045400030934E0320934D0322ED30E0309350031F
:1045500020934F0326ED30E0309352032093510314
:104560001092540310925503109256031092570361
:104570001092DB031092DA034093DC035093DD03C7
:104580006093DE037093DF039093D9038093D80385
:1045900085EC90E09093E5038093E40384EC90E055
:1045A0009093E7038093E60380EC90E09093E90317
:1045B0008093E80381EC90E09093EB038093EA030F
:1045C00082EC90E09093ED038093EC0386EC90E016
:1045D0009093EF038093EE031092F1031092F20395
:1045E0001092F3031092F40310926806109267067B
:1045F00010926A061092690610926C0610926B0671
:1046000088E1EAE4F2E0ABE3B5E001900D928A952F
:10461000E1F7E7E8F4E08BE395E02FEF20833396B2
:104620008E179F07D9F781E894E00E94EF148BE77B
:1046300094E00E94EF1485E794E00C94EF140F933C
:104640001F93CF93DF938230910510F482E090E0C6
:10465000E0917806F091790620E030E0A0E0B0E04B
:10466000309719F140815181028113814817590710
:10467000C8F08417950769F4109731F012960C93DF
:10468000129713961C9327C000937806109379060F
:1046900022C02115310519F04217530718F49A0169
:1046A000BD01EF01DF01F801DBCF21153105F9F084
:1046B000281B390B2430310580F48A819B816115D8
:1046C000710521F0FB019383828304C090937906E6
:1046D00080937806FE01329644C0FE01E20FF31F7C
:1046E0008193919322503109398328833AC02091D4
:1046F000760630917706232B41F4209146023091C3
:104700004702309377062093760620914402309139
:1047100045022115310541F42DB73EB740914802BD
:1047200050914902241B350BE0917606F0917706F3
:10473000E217F307A0F42E1B3F0B2817390778F078
:10474000AC014E5F5F4F2417350748F04E0F5F1FD7
:1047500050937706409376068193919302C0E0E0F0
:10476000F0E0CF01DF91CF911F910F910895CF938A
:10477000DF93009709F481C0FC0132971382128203
:10478000A0917806B0917906109781F4208131814B
:10479000820F931F209176063091770628173907EC
:1047A00051F5F0937706E093760667C0ED0120E0BF
:1047B00030E0CE17DF0740F44A815B819E0141154E
:1047C0005105F1F0EA01F5CFD383C28340815181D5
:1047D000840F951FC817D90759F488819981840FD0
:1047E000951F0296918380838A819B819383828324
:1047F0002115310529F4F0937906E09378063DC040
:10480000E901FB83EA8349915991C40FD51FEC1745
:10481000FD0761F480819181840F951F0296E90163
:1048200099838883828193819B838A83E0E0F0E08F
:1048300012968D919C911397009719F0FD01DC0160
:10484000F7CF8D919C9111979D012E5F3F4F820F65
:10485000931F20917606309177062817390769F45F
:10486000309729F4109279061092780602C01382CC
:104870001282B0937706A0937606DF91CF910895C8
:10488000FB01DC0105900D920020E1F70895FC0189
:1048900005900020E9F7809590958E0F9F1F089551
:1048A000BB274A3031F4992322F4BDE290958195DB
:1048B0009F4F2CC0BB27FA01A62F621771058105F7
:1048C0009105330B30FB66F0AA27660F771F881F10
:1048D000991FAA1FA21710F0A21B63953850A9F7C1
:1048E000A05DAA3308F0A95DA19336F7B111B19389
:1048F0001082CA0123C04532510518F4423008F035
:1049000004C0FB011082CB010895BB27FB01552792
:10491000AA27880F991FAA1FA41710F0A41B83951C
:104920005051B9F7A05DAA3308F0A95DA193009793
:1049300079F7B111B1931192CB0100C0DC01FC01F8
:10494000672F71917723E1F7329704C07C916D93C3
:1049500070836291AE17BF07C8F3089540D008F482
:1049600081E00895E89409C097FB3EF49095809506
:10497000709561957F4F8F4F9F4F9923A9F0F92F25
:1049800096E9BB279395F695879577956795B795A3
:10499000F111F8CFFAF4BB0F11F460FF1BC06F5F89
:1049A0007F4F8F4F9F4F16C0882311F096E911C09B
:1049B000772321F09EE8872F762F05C0662371F0BC
:1049C00096E8862F70E060E02AF09A95660F771FD0
:1049D000881FDAF7880F9695879597F90895990FAC
:1049E0000008550FAA0BE0E8FEEF16161706E807B9
:1049F000F907C0F012161306E407F50798F0621BDA
:104A0000730B840B950B39F40A2661F0232B242BAE
:104A1000252B21F408950A2609F4A140A6958FEFCD
:104A2000811D811D08950BD078C069D028F06ED00B
:104A300018F0952309F05AC05FC01124A2C07ED09F
:104A4000A0F3959FD1F3950F50E0551F629FF001A1
:104A5000729FBB27F00DB11D639FAA27F00DB11DFA
:104A6000AA1F649F6627B00DA11D661F829F222783
:104A7000B00DA11D621F739FB00DA11D621F839F0A
:104A8000A00D611D221F749F3327A00D611D231FE0
:104A9000849F600D211D822F762F6A2F11249F572E
:104AA00050408AF0E1F088234AF0EE0FFF1FBB1F51
:104AB000661F771F881F91505040A9F79E3F5105F0
:104AC00070F014C05EC05F3FECF3983EDCF3869557
:104AD00077956795B795F795E7959F5FC1F7FE2B9B
:104AE000880F911D9695879597F9089597F99F6777
:104AF00080E870E060E008959FEF80EC0895002466
:104B00000A941616170618060906089500240A9432
:104B100012161306140605060895092E0394000CB8
:104B200011F4882352F0BB0F40F4BF2B11F460FF47
:104B300004C06F5F7F4F8F4F9F4F089557FD905870
:104B4000440F551F59F05F3F71F04795880F97FB51
:104B5000991F61F09F3F79F087950895121613060B
:104B60001406551FF2CF4695F1DF08C0161617063A
:104B70001806991FF1CF869571056105089408956F
:104B8000E894BB2766277727CB0197F90895F99911
:104B9000FECF92BD81BDF89A992780B50895262F42
:104BA000F999FECF1FBA92BD81BD20BD0FB6F89412
:104BB000FA9AF99A0FBE0196089531D0A59F900DEB
:104BC000B49F900DA49F800D911D11240895B7FFEF
:104BD000F4CFF3DF821B930B0895A1E21A2EAA1BD8
:104BE000BB1BFD010DC0AA1FBB1FEE1FFF1FA2179D
:104BF000B307E407F50720F0A21BB30BE40BF50B9A
:104C0000661F771F881F991F1A9469F76095709522
:104C1000809590959B01AC01BD01CF010895A29FA5
:104C2000B001B39FC001A39F700D811D1124911D80
:104C3000B29F700D811D1124911D08955058BB27FE
:104C4000AA270ED06ACF5BDF30F060DF20F031F4AE
:104C50009F3F11F41EF450CF0EF4E095E7FB46CFD2
:104C6000E92F6CDF80F3BA17620773078407950793
:104C700018F071F49EF584CF0EF4E0950B2EBA2F48
:104C8000A02D0B01B90190010C01CA01A001112452
:104C9000FF27591B99F0593F50F4503E68F11A16FE
:104CA000F040A22F232F342F4427585FF3CF46958F
:104CB00037952795A795F0405395C9F77EF41F16B1
:104CC000BA0B620B730B840BBAF09150A1F0FF0F7B
:104CD000BB1F661F771F881FC2F70EC0BA0F621F67
:104CE000731F841F48F4879577956795B795F79557
:104CF0009E3F08F0B3CF9395880F08F09927EE0FE9
:104D00009795879508950CD008CF00DF40F0F7DE27
:104D100030F021F45F3F19F0E9CE511132CFECCEE3
:104D20000DDF98F39923C9F35523B1F3951B550B68
:104D3000BB27AA2762177307840738F09F5F5F4F6E
:104D4000220F331F441FAA1FA9F333D00E2E3AF0AF
:104D5000E0E830D091505040E695001CCAF729D0C9
:104D6000FE2F27D0660F771F881FBB1F2617370718
:104D70004807AB07B0E809F0BB0B802DBF01FF2748
:104D800093585F4F2AF09E3F510568F0AFCEF9CEA1
:104D90005F3FECF3983EDCF3869577956795B79582
:104DA000F7959F5FC9F7880F911D9695879597F99D
:104DB0000895E1E0660F771F881FBB1F6217730716
:104DC0008407BA0720F0621B730B840BBA0BEE1F2B
:104DD00088F7E0950895BADE88F09F5790F0B92FD4
:104DE0009927B751A0F0D1F0660F771F881F991F40
:104DF0001AF0BA95C9F712C0B13081F0C1DEB1E046
:104E00000895BECE672F782F8827B85F39F0B93F55
:104E1000CCF3869577956795B395D9F73EF4909541
:104E20008095709561957F4F8F4F9F4F0895D7DD87
:104E300008F48FEF0895D3DD880B990B0895AA1B12
:104E4000BB1B51E107C0AA1FBB1FA617B70710F075
:104E5000A61BB70B881F991F5A95A9F780959095A7
:104E6000BC01CD010895EE0FFF1F881F8BBF079077
:104E7000F691E02D1994D3DEB7FF0895821B930BB2
:104E800008950F931F93CF93DF93869F8001879F91
:104E9000100D969F100D1124C801D1DBEC01009775
:104EA00021F0A80160E070E0FBD0CE01DF91CF914E
:104EB0001F910F9108956F927F928F929F92AF9260
:104EC000BF92CF92DF92EF92FF920F931F93CF93F7
:104ED000DF93009781F4CB01DF91CF911F910F9168
:104EE000FF90EF90DF90CF90BF90AF909F908F900A
:104EF0007F906F90A4CBFC01E60FF71F9C0122501E
:104F00003109E217F30708F4A5C0EC01D9010D91AE
:104F10001C91119706171707A8F00530110508F422
:104F200097C0C80104978617970708F491C00250EC
:104F30001109061B170B019311936D937C93CF01FD
:104F400016DC86C05B01A01AB10A4C01800E911ECE
:104F5000A0917806B0917906612C712CE12CF12C8E
:104F6000109709F446C08D919C911197A815B90529
:104F7000B1F56C0142E0C40ED11CCA14DB0478F117
:104F80004C018A189B08640142E0C40ED11C1296A1
:104F9000BC9012971396AC91B5E0CB16D10440F0BB
:104FA000B282A38391828082D9016D937C9309C0E0
:104FB0000E5F1F4F800F911FF90191838083EB2DAE
:104FC000FA2FE114F10431F0D7011396FC93EE931C
:104FD00012973EC0F0937906E093780639C06816C0
:104FE000790608F43C017D0112960D90BC91A02D2C
:104FF000B7CF809176069091770688169906E1F4EE
:1050000066167706C8F48091440290914502009795
:1050100041F48DB79EB74091480250914902841BDC
:10502000950BE817F907B0F4F0937706E09376064E
:10503000F901718360830CC0CB0101DB7C01009717
:1050400049F0A801BE0123D0CE0191DBC70104C005
:10505000CE0102C080E090E0DF91CF911F910F91CF
:10506000FF90EF90DF90CF90BF90AF909F908F9088
:105070007F906F90089581E090E0F8941FC09111A7
:10508000089581568A5108F4805285580895FB018D
:10509000DC0102C001900D9241505040D8F70895B4
:1050A000DC0101C06D9341505040E0F70895FB01D1
:1050B000DC0101900D920020E1F7089513E0C4E8AF
:1050C000D3E000E005C0802FFE01CDDE2196011D5A
:0E50D000C538D10780E00807B1F7F894FFCF8C
:1050DE00015802600006FFFFFFFFFFFFFFFFFFFF0B
:1050EE00FFFFFFFFFFFFFFFFFFFFFFFFFFFFFFFFC2
:1050FE00FFFFFFFFFFFFFFFFFFFFFFFFFFFFFFFFB2
:10510E00FFFFFFFFFFFFFFFFFFFFFFFFFFFFFFFFA1
:10511E00FFFFFFFF00007A06800000001F003B002B
:10512E005A0078009700B500D400F3001101300149
:10513E004E01000000006A0EC30DF00DB60E210EDA
:10514E00FF0D130E0D0A006E616E00696E66006F24
:04515E007666000071
:020000023000CC
:10E000000D9489F10D94B2F10D94B2F10D94B2F129
:10E010000D94B2F10D94B2F10D94B2F10D94B2F1F0
:10E020000D94B2F10D94B2F10D94B2F10D94B2F1E0
:10E030000D94B2F10D94B2F10D94B2F10D94B2F1D0
:10E040000D94B2F10D94B2F10D94B2F10D94B2F1C0
:10E050000D94B2F10D94B2F10D94B2F10D94B2F1B0
:10E060000D94B2F10D94B2F10D94B2F10D94B2F1A0
:10E070000D94B2F10D94B2F10D94B2F10D94B2F190
:10E080000D94B2F10D94B2F10D94B2F10D94B2F180
:10E090000D94B2F10D94B2F10D94B2F10D94B2F170
:10E0A0000D94B2F10D94B2F10D94B2F10D94B2F160
:10E0B0000D94B2F10D94B2F10D94B2F10D94B2F150
:10E0C0000D94B2F10D94B2F10D94B2F10D94B2F140
:10E0D0000D94B2F10D94B2F10D94B2F10D94B2F130
:10E0E0000D94B2F141546D656761323536300041AF
:10E0F000726475696E6F206578706C6F72657220DE
:10E1000073746B3530305632206279204D4C530099
:10E11000426F6F746C6F616465723E004875683F52
:10E1200000436F6D70696C6564206F6E203D200048
:10E130004350552054797065202020203D20005FF9
:10E140005F4156525F415243485F5F3D2000415658
:10E1500052204C696243205665723D20004743437C
:10E160002056657273696F6E203D20004350552024
:10E1700049442020202020203D20004C6F7720663D
:10E18000757365202020203D20004869676820665F
:10E190007573652020203D200045787420667573D6
:10E1A00065202020203D20004C6F636B2066757336
:10E1B000652020203D20004D617220203720323024
:10E1C000313300312E362E3800342E332E350056A2
:10E1D00023202020414444522020206F7020636F70
:10E1E00064652020202020696E73747275637469E1
:10E1F0006F6E2061646472202020496E74657272B3
:10E20000757074006E6F20766563746F7200726A49
:10E210006D702020006A6D70200057686174207056
:10E220006F72743A00506F7274206E6F7420737541
:10E2300070706F72746564004D7573742062652030
:10E2400061206C6574746572002000577269747483
:10E25000696E672045450052656164696E672045B7
:10E26000450045452065727220636E743D00504F35
:10E27000525400303D5A65726F2061646472003FF1
:10E280003D43505520737461747300403D454550C3
:10E29000524F4D207465737400423D426C696E6B41
:10E2A000204C454400453D44756D70204545505215
:10E2B0004F4D00463D44756D7020464C415348001B
:10E2C000483D48656C70004C3D4C69737420492F83
:10E2D0004F20506F72747300513D51756974005234
:10E2E0003D44756D702052414D00563D73686F7707
:10E2F00020696E7465727275707420566563746FF0
:10E30000727300593D506F727420626C696E6B00BD
:10E310002A0011241FBECFEFD1E2DEBFCDBF01E046
:10E320000CBF12E0A0E0B2E0EEE1FDEF03E00BBFB6
:10E3300002C007900D92A030B107D9F712E0A0E01B
:10E34000B2E001C01D92AE30B107E1F70F9460F367
:10E350000D948DFE01E20EBF0FEF0DBF11241FBE05
:10E360000D9460F30D9400F020E030E040ED57E0B4
:10E3700005C0FA013197F1F72F5F3F4F2817390792
:10E38000C0F308959C01260F311DC901A0E0B0E043
:10E390002F5F3F4FABBFFC018791882361F08093D3
:10E3A000C6008091C00086FFFCCF8091C0008064D1
:10E3B0008093C000EACF08958DE08093C6008091DD
:10E3C000C00086FFFCCF8091C00080648093C000B5
:10E3D0008AE08093C6008091C00086FFFCCF8091C8
:10E3E000C00080648093C00008950F94C2F10F9420
:10E3F000DCF10895FC019081992359F09093C600B7
:10E400008091C00086FFFCCF8091C0008064809323
:10E41000C0003196992379F70895282F982F929567
:10E420009F70892F805D8A3308F0895F8093C600D2
:10E430008091C00086FFFCCF8091C00080648093F3
:10E44000C000822F8F70982F905D9A3308F0995FEB
:10E450009093C6008091C00086FFFCCF8091C000E1
:10E4600080648093C00008959C01FB01853691056E
:10E470001CF46330710594F0C90164E670E00F94F8
:10E480002EFE605D7F4F6093C6008091C00086FFC6
:10E49000FCCF8091C00080648093C0002B30310598
:10E4A00014F43297B4F0C90164E670E00F942EFEC4
:10E4B0006AE070E00F942EFE605D7F4F6093C600AF
:10E4C0008091C00086FFFCCF8091C0008064809363
:10E4D000C000C9016AE070E00F942EFEC0968093E0
:10E4E000C6008091C00086FFFCCF8091C000806490
:10E4F0008093C00008951F93182F8EE692EE60E07F
:10E500000F94C2F11093C6008091C00086FFFCCF2B
:10E510008091C00080648093C0000F94DCF11F9153
:10E5200008952F923F924F925F926F927F928F92B7
:10E530009F92AF92BF92CF92DF92EF92FF920F9392
:10E540001F93DF93CF93CDB7DEB762970FB6F894E2
:10E55000DEBF0FBECDBF382E622ECA01DB015C01CB
:10E560006D01772420E2222E2E010894411C511CBB
:10E570008BC081E0A81680E0B80681E0C80680E084
:10E58000D80628F0C601AA27BB270F940DF2BB2797
:10E59000AD2D9C2D8B2D0F940DF28A2D0F940DF225
:10E5A0002092C6008091C00086FFFCCF8091C00001
:10E5B00080648093C0009DE29093C6008091C0006B
:10E5C00086FFFCCF8091C00080648093C0002092C1
:10E5D000C6008091C00086FFFCCF8091C00080649F
:10E5E0008093C00019828601750188249924A1E0D6
:10E5F0003A1651F03A1620F0B2E03B1661F409C029
:10E600000BBFF701779007C0C7010F9477FE782EF4
:10E6100002C0F7017080872D0F940DF22092C60082
:10E620008091C00086FFFCCF8091C0008064809301
:10E63000C000872D8052F401EF70F0708F3520F408
:10E64000E40DF51D708204C0E40DF51D8EE280839B
:10E650000894E11CF11C011D111D0894811C911CE2
:10E6600090E18916910409F0C2CF80E190E0A0E02A
:10E67000B0E0A80EB91ECA1EDB1E198AC2010F9493
:10E68000FAF10F94DCF16A94662009F072CF629679
:10E690000FB6F894DEBF0FBECDBFCF91DF911F91B3
:10E6A0000F91FF90EF90DF90CF90BF90AF909F9031
:10E6B0008F907F906F905F904F903F902F90089534
:10E6C0002F923F924F925F926F927F928F929F9282
:10E6D000AF92BF92CF92DF92EF92FF920F931F9370
:10E6E000DF93CF93CDB7DEB7CD53D1400FB6F894BB
:10E6F000DEBF0FBECDBF01E20EBF0FEF0DBF94B75F
:10E70000F894A89514BE80916000886180936000A1
:10E7100010926000789493FF05C0E0910002F091A0
:10E7200001021995279A2F9A8091C00082608093E8
:10E73000C00080E18093C40088E18093C1000000A4
:10E74000EE24FF24870144E0A42EB12CCC24DD2448
:10E7500024C0C5010197F1F70894E11CF11C011DCB
:10E76000111D21E2E2162EE4F20620E0020720E06D
:10E77000120718F031E0C32ED12CC801B70127ECE5
:10E780003BE140E050E00F9441FE611571058105C9
:10E79000910519F485B1805885B98091C00087FD35
:10E7A00003C0C114D104A9F2A6014F5F5F4FC25E3E
:10E7B000DE4F59834883CE51D140C25EDE4F8881FF
:10E7C0009981CE51D140019711F00D9410FEC05D9A
:10E7D000DE4F19821882C053D14060E0C15DDE4F28
:10E7E0001882CF52D14088249924C35DDE4F19820C
:10E7F0001882CD52D140C05EDE4F188219821A8233
:10E800001B82C052D140CE5CDE4F188219821A8220
:10E810001B82C253D140EE24FF2487010BBFF701B6
:10E8200007911691C45CDE4F19830883CC53D14005
:10E830000D940BFEC25EDE4F28813981CE51D1404E
:10E840002130310509F52091C600C25EDE4F1982E4
:10E850001882CE51D14022C02F5F3F4F4F4F5F4FA4
:10E86000213082E138078AE7480780E0580780F0C6
:10E87000C45CDE4FE881F981CC53D140EF5FFF4F9C
:10E8800019F0EE27FF27099420E030E040E050E047
:10E890008091C00087FFE0CF2091C600C35DDE4FAE
:10E8A00048815981CD52D1404F5F5F4FC35DDE4FEC
:10E8B00059834883CD52D140213209F063C64A3092
:10E8C000510508F05FC60894811C911C53E0851621
:10E8D000910409F059C600E010E018C081E280936D
:10E8E000C6008091C00086FFFCCF8091C00080648C
:10E8F0008093C0002F5F3F4F2931310579F70F9486
:10E90000DCF10F5F1F4F0530110519F020E030E0FA
:10E91000E5CF10920A0210920B0210920C02109294
:10E920000D02109206021092070210920802109235
:10E930000902109202021092030210920402109235
:10E9400005028FEE90EE60E00F94F5F180E191EE1C
:10E9500060E00F94C2F18091C00087FFFCCF9091DE
:10E96000C600903608F09F759032B8F09093C600BC
