:100000000C9461000C947E000C947E000C947E0095
:100010000C947E000C947E000C947E000C947E0068
:100020000C947E000C947E000C947E000C947E0058
:100030000C947E000C940D030C947E000C947E00B6
:100040000C94C3020C947E000C947E000C947E00F1
:100050000C947E000C947E000C947E000C947E0028
:100060000C947E000C947E00000000002400270009
:100070002A0000000000250028002B0000000000DE
:1000800023002600290004040404040404040202DA
:100090000202020203030303030301020408102007
:1000A0004080010204081020010204081020000012
:1000B0000008000201000003040700000000000027
:1000C000000011241FBECFEFD8E0DEBFCDBF11E08E
:1000D000A0E0B1E0ECE8FCE002C005900D92A03396
:1000E000B107D9F721E0A0E3B1E001C01D92A73428
:1000F000B207E1F70E9434030C9444060C9400000C
:10010000833081F028F4813099F08230A9F008958D
:100110008730A9F08830C9F08430B1F48091800034
:100120008F7D03C0809180008F7780938000089539
:1001300084B58F7784BD089584B58F7DFBCF809182
:10014000B0008F778093B00008958091B0008F7DCC
:10015000F9CFCF93DF93282F30E0F901E255FF4F1D
:100160008491F901E656FF4FD491F901EA57FF4F08
:10017000C491CC23A1F081110E948000EC2FF0E00B
:10018000EE0FFF1FE458FF4FA591B491EC91ED23C2
:1001900081E090E009F480E0DF91CF91089580E064
:1001A00090E0FACF1F93CF93DF93282F30E0F9012F
:1001B000E255FF4F8491F901E656FF4FD491F901C2
:1001C000EA57FF4FC491CC23A9F0162F81110E944A
:1001D0008000EC2FF0E0EE0FFF1FEE58FF4FA591CF
:1001E000B4918FB7F894EC91111108C0D095DE232B
:1001F000DC938FBFDF91CF911F910895DE2BF8CF55
:10020000CF93DF9390E0FC01E656FF4F24918A578D
:100210009F4FFC0184918823D1F090E0880F991FB3
:10022000FC01E859FF4FA591B491FC01EE58FF4F36
:10023000C591D491623071F49FB7F8943C91822FAC
:10024000809583238C93E8812E2B28839FBFDF9199
:10025000CF9108958FB7F894EC912E2B2C938FBFEC
:10026000F6CF3FB7F8948091370190913801A09173
:100270003901B0913A0126B5A89B05C02F3F19F06E
:100280000196A11DB11D3FBFBA2FA92F982F882716
:10029000BC01CD01620F711D811D911D42E0660FF1
:1002A000771F881F991F4A95D1F708954F925F9243
:1002B0006F927F92BF92CF92DF92EF92FF920F9355
:1002C0001F93CF93DF936C017B01FB01EE0FFF1FA8
:1002D000E85EFE4FB08061E08B2D0E94D20000E20C
:1002E00011E0D0E0C0E0F601EE0FFF1FEC5FFE4F23
:1002F000C080D180F80180810E5F1F4FB6010C2EA7
:1003000002C0759567950A94E2F7609570956170E3
:1003100077270E94D20022E0E216F10421F460E087
:1003200084E00E94D2002196C830D10519F70E94BE
:1003300031012B013C0185E0C82ED12CE12CF12CA0
:100340000E9431016419750986099709683E734056
:1003500081059105A8F381E0C81AD108E108F108E8
:1003600098EE490E93E0591E611C711CC114D10412
:10037000E104F10429F760E08B2DDF91CF911F910B
:100380000F91FF90EF90DF90CF90BF907F906F9094
:100390005F904F900C94D2008EE00E94A900892BB0
:1003A00039F4809142018F3F19F481E0809342013A
:1003B0008EE00E94A900019771F480914201813082
:1003C00051F41092420122E832E030934001209330
:1003D0003F0180936F008FE00E94A900892B39F4C0
:1003E00080914101811103C081E0809341018FE040
:1003F0000E94A900019719F5209141012130F9F4DB
:1004000010924101109242018091000190910101EE
:10041000A0910201B09103010196A11DB11D80932D
:10042000000190930101A0930201B093030182E8BF
:1004300092E09093400180933F0120936F000895D4
:100440008EE00E94A900892B39F48091420181112C
:1004500003C081E0809342018EE00E94A9000197D1
:1004600089F580914201813069F510924201109224
:1004700041018091000190910101A0910201B09190
:100480000301181619061A061B069CF48091000138
:1004900090910101A0910201B09103010197A1097E
:1004A000B1098093000190930101A0930201B093E0
:1004B000030182E892E09093400180933F0181E044
:1004C00080936F008FE00E94A900892B39F48091FE
:1004D00041018F3F19F481E0809341018FE00E9438
:1004E000A900019771F480914101813051F410927B
:1004F000410122E832E03093400120933F01809394
:100500006F0008958EE00E94A900892B39F4809134
:100510004201811103C081E0809342018EE00E947C
:10052000A900019779F480914201813059F49FEF3D
:10053000909342012CEC31E03093400120933F0135
:1005400080936F008FE00E94A900892B39F480917D
:100550004101811103C081E0809341018FE00E943D
:10056000A900019779F480914101813059F49FEFFE
:100570009093410120E232E03093400120933F010B
:1005800080936F0008951F920F920FB60F9211245F
:100590002F933F938F939F93AF93BF93809133019A
:1005A00090913401A0913501B09136013091320122
:1005B00023E0230F2D3758F50196A11DB11D20937F
:1005C00032018093330190933401A0933501B093AD
:1005D00036018091370190913801A0913901B09195
:1005E0003A010196A11DB11D809337019093380106
:1005F000A0933901B0933A01BF91AF919F918F9130
:100600003F912F910F900FBE0F901F90189526E8E5
:10061000230F0296A11DB11DD2CF1F920F920FB6CC
:100620000F9211242F933F934F935F936F937F9378
:100630008F939F93AF93BF93EF93FF93E0913F010D
:10064000F09140010995FF91EF91BF91AF919F917A
:100650008F917F916F915F914F913F912F910F906B
:100660000FBE0F901F901895789484B5826084BD5A
:1006700084B5816084BD85B5826085BD85B58160A6
:1006800085BD80916E00816080936E001092810024
:1006900080918100826080938100809181008160DF
:1006A00080938100809180008160809380008091A0
:1006B000B10084608093B1008091B000816080932C
:1006C000B00080917A00846080937A0080917A00F3
:1006D000826080937A0080917A00816080937A00B2
:1006E00080917A00806880937A001092C10062E065
:1006F00080E10E94000162E081E10E94000162E06D
:100700008EE00E94000162E08FE00E94000180E123
:10071000809381001092800080E49FE19093870095
:100720008093860081E18093810082E892E090933B
:10073000400180933F0181E080936F00C0E2D1E0EF
:1007400000E311E08881229661E00E9400010C170D
:100750001D07C1F761E08AE00E94000161E08BE0C3
:100760000E94000161E08CE00E94000161E08DE0E8
:100770000E940001992493948AE0A82EB12C90E065
:10078000C92E90E0D92E22E8E22E22E0F22E80E15E
:100790000E94A900892B71F580E10E94A900892B94
:1007A000D9F380E10E94A900019721F510926F0012
:1007B0008091000190910101A0910201B09103018B
:1007C0008093430190934401A0934501B093460167
:1007D0001092000110920101109202011092030187
:1007E0001092420110924101F0924001E0923F01CB
:1007F00090926F0081E10E94A900892B11F581E19F
:100800000E94A900892BD9F381E10E94A9000197D8
:10081000C1F410926F008091430190914401A09126
:100820004501B09146018093000190930101A0938E
:100830000201B0930301F0924001E0923F019092D7
:100840006F0060910001709101018091020190910F
:10085000030140903B0150903C0160903D0170903D
:100860003E010E942305A30192010E94AF0520E0F2
:1008700030E040E251E40E9479040E94EB04EB0175
:10088000209769F463E070E090E080E00E945601F8
:10089000C114D10409F47BCF0E94000078CF6150CD
:1008A00071096930710530F462E070E090E080E039
:1008B0000E94560103E010E01C161D06B4F4CE01A0
:1008C000B5010E941C06B8010E945601BE01DD0F51
:1008D000880B990B0E94230520E030E040E251E4B0
:1008E0000E9479040E94EB04EB010150110920F7EA
:1008F000CFCF0E948D040C9475050E946E0558F0B0
:100900000E94670540F029F45F3F29F00C945E05D2
:1009100051110C94A9050C9464050E94860568F396
:100920009923B1F3552391F3951B550BBB27AA27A8
:1009300062177307840738F09F5F5F4F220F331FE2
:10094000441FAA1FA9F335D00E2E3AF0E0E832D0AA
:1009500091505040E695001CCAF72BD0FE2F29D0AD
:10096000660F771F881FBB1F261737074807AB077F
:10097000B0E809F0BB0B802DBF01FF2793585F4FF4
:100980003AF09E3F510578F00C945E050C94A90551
:100990005F3FE4F3983ED4F3869577956795B795D6
:1009A000F7959F5FC9F7880F911D9695879597F9E1
:1009B0000895E1E0660F771F881FBB1F621773075A
:1009C0008407BA0720F0621B730B840BBA0BEE1F6F
:1009D00088F7E09508950E94F2046894B1110C9490
:1009E000A90508950E948E0588F09F5798F0B92FA9
:1009F0009927B751B0F0E1F0660F771F881F991F54
:100A00001AF0BA95C9F714C0B13091F00E94A80548
:100A1000B1E008950C94A805672F782F8827B85F58
:100A200039F0B93FCCF3869577956795B395D9F7AB
:100A30003EF490958095709561957F4F8F4F9F4FB5
:100A40000895E89409C097FB3EF4909580957095C1
:100A500061957F4F8F4F9F4F9923A9F0F92F96E90A
:100A6000BB279395F695879577956795B795F1117F
:100A7000F8CFFAF4BB0F11F460FF1BC06F5F7F4F1C
:100A80008F4F9F4F16C0882311F096E911C077232E
:100A900021F09EE8872F762F05C0662371F096E837
:100AA000862F70E060E02AF09A95660F771F881F06
:100AB000DAF7880F9695879597F9089597F99F67C4
:100AC00080E870E060E008959FEF80EC08950024D6
:100AD0000A941616170618060906089500240A94A3
:100AE00012161306140605060895092E0394000C29
:100AF00011F4882352F0BB0F40F4BF2B11F460FFB8
:100B000004C06F5F7F4F8F4F9F4F089557FD9058E0
:100B1000440F551F59F05F3F71F04795880F97FBC1
:100B2000991F61F09F3F79F087950895121613067B
:100B30001406551FF2CF4695F1DF08C016161706AA
:100B40001806991FF1CF86957105610508940895DF
:100B5000E894BB2766277727CB0197F908950E9471
:100B6000C2050C9475050E94670538F00E946E0559
:100B700020F0952311F00C945E050C94640511246B
:100B80000C94A9050E94860570F3959FC1F3950FFB
:100B900050E0551F629FF001729FBB27F00DB11D01
:100BA000639FAA27F00DB11DAA1F649F6627B00D91
:100BB000A11D661F829F2227B00DA11D621F739F7A
:100BC000B00DA11D621F839FA00D611D221F749F88
:100BD0003327A00D611D231F849F600D211D822FCF
:100BE000762F6A2F11249F5750409AF0F1F08823F6
:100BF0004AF0EE0FFF1FBB1F661F771F881F915023
:100C00005040A9F79E3F510580F00C945E050C946E
:100C1000A9055F3FE4F3983ED4F3869577956795F1
:100C2000B795F795E7959F5FC1F7FE2B880F911D4C
:100C30009695879597F9089597FB072E16F40094DB
:100C400007D077FD09D00E94300607FC05D03EF49E
:100C5000909581959F4F0895709561957F4F089568
:100C6000AA1BBB1B51E107C0AA1FBB1FA617B707D2
:100C700010F0A61BB70B881F991F5A95A9F78095EE
:0C0C80009095BC01CD010895F894FFCFC1
:100C8C00FA000000FC006000DA00F2006600B6001A
:100C9C003E00E000FE00E6000A000B000C000D0018
:100CAC00040007000800060005000300020009000C
:107E0000112484B714BE81FFF0D085E080938100F7
:107E100082E08093C00088E18093C10086E0809377
:107E2000C20080E18093C4008EE0C9D0259A86E02C
:107E300020E33CEF91E0309385002093840096BBD3
:107E4000B09BFECF1D9AA8958150A9F7CC24DD24C4
:107E500088248394B5E0AB2EA1E19A2EF3E0BF2EE7
:107E6000A2D0813461F49FD0082FAFD0023811F036
:107E7000013811F484E001C083E08DD089C08234E0
:107E800011F484E103C0853419F485E0A6D080C0E4
:107E9000853579F488D0E82EFF2485D0082F10E0AE
:107EA000102F00270E291F29000F111F8ED06801E7
:107EB0006FC0863521F484E090D080E0DECF843638
:107EC00009F040C070D06FD0082F6DD080E0C81688
:107ED00080E7D80618F4F601B7BEE895C0E0D1E017
:107EE00062D089930C17E1F7F0E0CF16F0E7DF06D8
:107EF00018F0F601B7BEE89568D007B600FCFDCFD4
:107F0000A601A0E0B1E02C9130E011968C91119780
:107F100090E0982F8827822B932B1296FA010C0160
:107F200087BEE89511244E5F5F4FF1E0A038BF0790
:107F300051F7F601A7BEE89507B600FCFDCF97BE46
:107F4000E89526C08437B1F42ED02DD0F82E2BD052
:107F50003CD0F601EF2C8F010F5F1F4F84911BD097
:107F6000EA94F801C1F70894C11CD11CFA94CF0C13
:107F7000D11C0EC0853739F428D08EE10CD085E9AC
:107F80000AD08FE07ACF813511F488E018D01DD067
:107F900080E101D065CF982F8091C00085FFFCCF94
:107FA0009093C60008958091C00087FFFCCF809118
:107FB000C00084FD01C0A8958091C6000895E0E648
:107FC000F0E098E1908380830895EDDF803219F02E
:107FD00088E0F5DFFFCF84E1DECF1F93182FE3DFCA
:107FE0001150E9F7F2DF1F91089580E0E8DFEE27F6
:047FF000FF270994CA
:027FFE00040479
:0400000300007E007B
:00000001FF
