:10000000A8C30000D7C30000D5C30000D3C30000BD
:10001000D1C30000CFC30000CDC30000CBC300009C
:10002000C9C30000C7C30000C5C30000C3C30000AC
:10003000C1C30000BFC30000BDC30000BBC30000BC
:10004000B9C30000B7C30000B5C30000B3C30000CC
:100050000C94A01BAFC30000ADC300000C94621D44
:10006000A9C300000C94771B0C944E1BA3C3000083
:10007000A1C300009FC300009DC300009BC30000FC
:1000800099C3000097C3000095C3000093C300000C
:1000900091C300008FC300008DC300008BC300001C
:1000A00089C3000087C3000085C3000083C300002C
:1000B00081C300007FC300007DC300007BC300003C
:1000C00079C3000077C3000075C300000C94251BA2
:1000D0000C94FC1A6FC300000C94D31A0C94AA1A47
:1000E00069C30000F316F316F316F316F016F016B4
:1000F000F716F716F716F716F716F716F716F71698
:10010000F016F016F716F716F716F716F716F51697
:10011000F316841C871C761C7A1C801CBE1C8B1C4E
:100120008F1C951C991C9D1CA31CA71CAB1CBE1CE2
:10013000B11CB51CB91C3C2D2D49507634002E0045
:100140002E002E003C2D2D504F5254003C2D2D449E
:100150004944003C2D2D434944003C2D2D55287326
:1001600029003C2D2D434944004F0045004E003CE2
:100170002D2D5020003C2D2D4D4F44206261756483
:10018000003C2D2D4D4F44205245545259002074AF
:100190006F20307846460053657474696E6720009E
:1001A0004E6F2064617461002D2D2D2D2D2D097C45
:1001B000007C007C0009007C20200009007C2000DD
:1001C00009007C2020200009007C2020200009005C
:1001D0007C2020200052656164696E672054616252
:1001E0006C653A00534554555020444F4E450041EC
:1001F0005400506C6561736520576169742E2E0040
:10020000462F7720496E6E6F76617465642062793F
:100210003A2053455053204D4F4E49544F52494E6A
:100220004720505654204C54442E00462F773A20F5
:10023000562D302E344600000020002300260029D1
:10024000002C002F0032000001000003010601090C
:10025000012E2E4F4B004D6F646275732D004D4F74
:10026000444255533A20496E76616C69642043528A
:1002700043004D4F444255533A20496E76616C69B4
:100280006420536C617665206964004D4F4442558B
:10029000533A2054696D656F7574004D4F44425553
:1002A000533A20496E76616C69642046756E6374BA
:1002B000696F6E004D4F444255533A20536C61763E
:1002C00065204661696C757265004D4F4442555317
:1002D0003A20496C6C6967616C20446174612056F6
:1002E000616C7565004D4F444255533A20496C6C22
:1002F0006967616C2044617461204164642E005719
:1003000048494C4520310074656D70207265616408
:10031000002D2D2D2D2D2D097C007C007C202053BF
:100320004E6F097C20204944097C2046756E4309A4
:100330007C2041646472097C20504F4C4C53097CF2
:10034000002D2D2D2D2D2D097C007C004462206573
:100350006E6400416C72656164792064656C6574DB
:1003600065640052656164696E6720446F6E650064
:100370002D2D2D2D2D2D097C007C007C0009007C6D
:1003800020200009007C200009007C20202000099A
:10039000007C2020200009007C2020200053686F72
:1003A00077696E67205461626C653A20466F7220EF
:1003B00049442D0030004F4B004154005244590035
:1003C00041542B43504F57443D30007273742047C3
:1003D000534D00436865636B696E672047534D005A
:1003E00047534D204641494C0A4769766520506F76
:1003F000776572210047534D204F4B004F4B004112
:100400005400220041542B53415042523D332C3171
:100410002C2241504E222C2200544154412E444F54
:10042000434F4D4F2E494E5445524E455400646F34
:10043000636F6D6F00756E696E6F7200756E696EB9
:100440006F7200736D6172746E65740072656C69B1
:10045000616E63650062736E6C6E65740062736ECC
:100460006C0061697263656C677072732E707200E4
:1004700061697263656C0077777700766F64616697
:100480006F6E6500696E7465726E6574006964658F
:10049000610061697274656C677072732E636F6D51
:1004A0000061697274656C002B4353500041542BFA
:1004B0004353504E3F002E004552524F52004F4B77
:1004C0000041542B53415042523D332C312C224396
:1004D0004F4E54595045222C22475052532200521D
:1004E0005443204F4B00415426570041542B434C5A
:1004F00054533D3100545A563A00525443002B4352
:10050000545A5620744F555400545A563A00415488
:100510004530004C4B3A20220041542B43434C4B76
:100520003F0025005349474E414C3A200053513A71
:10053000200041542B4353510041542B534150420E
:10054000523D312C3100436F6E6E656374696E6786
:100550002047505253005042523A200041542B53EE
:10056000415042523D322C310055504C4F414420B5
:100570004641494C0055504C4F414420444F4E4554
:100580000041434B00524541443A0041542B4854EA
:10059000545052454144004C494E4B204F4B003281
:1005A00030302C0054494D45204F55540054494F8C
:1005B0004E3A0041542B48545450414354494F4EF5
:1005C0003D300041542B48545450494E4954004149
:1005D000542B485454505445524D003267206661A4
:1005E000696C00414C4C2053656E740044656C6529
:1005F00074696E6720446174610052657472796930
:100600006E6700220026646174613D0026444556F1
:100610003D56002F4144536D6172742E61736D78A5
:100620002F44656D6F313F44543D003A0041542BD7
:1006300048545450504152413D2255524C222C2294
:10064000687474703A2F2F000000220025002800E3
:100650002B002E00310034000201000005010801CA
:100660000B0100002100240027002A002D0030008B
:10067000330001010000040107010A010505050519
:10068000070508080808020202020A0A080804040A
:100690000404010101010101010103030303030338
:1006A0000303040707070C0C0C0C0C0C0C0C0202C7
:1006B000020206060606060606060B0B0B0B0B0BC4
:1006C0000B0B010210202008081020401020408051
:1006D0000201020108040201010204081020408006
:1006E0008040201008040201800402018040201094
:1006F00008040201080402010102040810204080DD
:10070000010204081020408000000A0B02090C0DB1
:100710000E080703040100000000000000000000B4
:1007200000000000000000000000000000000000C9
:100730000000000012111000000000000000000086
:100740000000000000000000000000000000662320
:100750004E2411241FBECFEFD1E2DEBFCDBF00E09B
:100760000CBF12E0A0E0B2E0E4E5F3E500E00BBF6F
:1007700002C007900D92A438B107D9F726E0A4E88B
:10078000B2E001C01D92AE37B207E1F713E0C8EA4C
:10079000D3E000E006C021970109802FFE010E94EE
:1007A0006E28C73AD10780E00807A9F70E94AC1D60
:1007B0000C94992925CC0E947629FC01248135814D
:1007C0006217730720F480819181009729F41092B9
:1007D000900280E992E00895860F971F0895EF92A6
:1007E000FF920F931F93CF93DF936115710511F45F
:1007F00080E01EC08B01EC01CB010E948225009796
:10080000B1F02C813D817C01E20EF31EB701CE01D7
:100810000E946319882361F3288139818C819D812D
:10082000B801820F931F0E947B25FD82EC8281E03C
:10083000DF91CF911F910F91FF90EF900895CF938B
:10084000DF93EC01CCDF811103C0CE010E94BD1902
:10085000CE01DF91CF910895CF93DF931F921F9226
:10086000CDB7DEB769831A8241E050E0BE016F5F09
:100870007F4F0E948A190F900F90DF91CF910895BA
:100880009091970281E08927809397026091970267
:100890008AE20C94BF1C60E081E30C94BF1C61E011
:1008A00081E30C94BF1C80919702811104C060E029
:1008B0008BE20E94BF1C81E08093970290E19093AD
:1008C00081001092800020E533EC30938700209364
:1008D000860093E19093810025E734E03093700621
:1008E00020936F0680936F0008958091970288236C
:1008F00021F061E08BE20E94BF1C1092970280E120
:10090000809381001092800080E593EC90938700A3
:100910008093860082E18093810083E594E0909348
:10092000700680936F0681E080936F000895909128
:10093000970281E0892780939702609197028BE26A
:100940000C94BF1CEF92FF920F931F93CF93DF93F2
:100950008C017B01D42F0E94221380E090E0D7010C
:10096000ED91FC9111972081222329F00196319677
:10097000ED93FC93F4CFE81BF90BD701ED93FC93B7
:10098000C82FD695D6958D1740F4CD1731F064EB6E
:1009900073E0C80124DFCF5FF8CFB701C8010E9420
:1009A000B719F801C081D181209751F0888188233F
:1009B00039F0082E000C990B0E947A298993F6CF02
:1009C000C801DF91CF911F910F91FF90EF90089593
:1009D0000F931F93CF938C01A89501960E94F11B52
:1009E000C82FC8010E94F11B2C2F30E0322F222784
:1009F000A895A901482BCA01CF911F910F91089585
:100A0000CF93DF931F921F92CDB7DEB720917A0666
:100A100030917B062115310511F42EE736E0CE0129
:100A20000196821B930B0F900F90DF91CF91089549
:100A3000CF93DF93A8956AE473E089ED93E00E9479
:100A40004013C5E0D0E061E473E089ED93E00E94DB
:100A500040132197C1F789ED93E00E943D136CE1AB
:100A600073E089ED93E00E945E136AE173E089ED23
:100A700093E00E944013C5E0D0E061E173E089EDAE
:100A800093E00E9440132197C1F789ED93E0DF9135
:100A9000CF910C943D131F93CF93DF93182FA895FC
:100AA00090E0019726E0289FE001299FD00D1124B6
:100AB000C85ADD4FD0930202C0930102CE010E94BA
:100AC000F11B882309F48DC08F3F09F492C01813DD
:100AD00088C066E872E0CE010E94CB1B6DE973E02E
:100AE00089ED93E00E944013812F0E946A1489EDE2
:100AF00093E00E943D139CDF68E973E089ED93E089
:100B00000E944013809186020E946A1466E973E095
:100B100089ED93E00E94401361E973E089ED93E071
:100B20000E944013809187020E946A146FE873E06C
:100B300089ED93E00E9440136AE873E089ED93E049
:100B40000E944013809188020E946A1468E873E052
:100B500089ED93E00E94401365E873E089ED93E02E
:100B60000E9440138091890290918A020E94701421
:100B700063E873E089ED93E00E9440136FE773E050
:100B800089ED93E00E94401380918B020E946A14C9
:100B90006DE773E089ED93E00E9440136BE773E02B
:100BA00089ED93E00E945E1369E773E089ED93E0BD
:100BB0000E944013A895C5E0D0E060E773E089ED9E
:100BC00093E00E9440132197C1F789ED93E00E94C2
:100BD0003D1363E673E089ED93E00E945E1381E0CC
:100BE0000FC063E573E089ED93E00E945E1380E03F
:100BF00007C06CE473E089ED93E00E945E1382E02D
:100C0000DF91CF911F910895CF93DF93D82FC1E04B
:100C10006C2F61708D2F0E94BF1C8C2F837031F060
:100C200066E970E080E090E00E94ED1CCF5FC53087
:100C300079F7DB3211F410929702DF91CF9108958A
:100C4000CF93DF93C82FD62F642F8CE20E94BF1C56
:100C50006D2F8DE20E94BF1C6C2F8EE2DF91CF9131
:100C60000C94BF1CCF92DF92EF92FF920F931F93D1
:100C7000CF93DF9300D000D0CDB7DEB78C010E94B8
:100C800022130E94251D6B017C018CE393E00E94DE
:100C9000451818161906ECF00E94251DDC01CB0141
:100CA0008C199D09AE09BF09893C9105A105B105C3
:100CB00060F388C0AFEFFA1631F06FE4C801CCDD05
:100CC0006F2DC801C9DD62E070E080E090E00E9415
:100CD000ED1C8CE393E00E94451818161906B4F534
:100CE000CE0101960E9422130E94311D97FD08C07B
:100CF0008F34910529F0682FCE010196ADDDF4CF38
:100D0000BE016F5F7F4FC8010E94B719CE010196E7
:100D10000E943E1A62E070E080E090E00E94ED1CCC
:100D20008CE393E00E942318F82E8BE4F81205C0A0
:100D30006FE4C80191DD6BE407C092E5F912BACF08
:100D40006FE4C80189DD62E5C80186DDF8018481B0
:100D50009581892B31F00190F081E02D8081811106
:100D60001BC08CE393E00E94451818161906A4F4E2
:100D700067E073E089ED93E00E945E13CE01019677
:100D80007C0170DFE016F10621F0B701C8010E9476
:100D90002919C7010E943E1A62E070E080E090E0ED
:100DA0000E94ED1C8CE393E00E944518181619066A
:100DB0004CF48CE393E00E9423188E3369F76EE3C2
:100DC000C8014ADDC80126960FB6F894DEBF0FBEF3
:100DD000CDBFDF91CF911F910F91FF90EF90DF90EA
:100DE000CF900895CF92DF92EF92FF921F93CF930F
:100DF000DF9300D000D0CDB7DEB70E94251D6B0178
:100E00007C01A895CE0101962DDFBE016F5F7F4F5B
:100E100082E894E00E942919CE0101960E943E1AB0
:100E20006EEB74E0CE0101960E949A1A42E0BE0178
:100E30006F5F7F4F82E894E00E94A014182FCE01CC
:100E400001960E943E1A11112AC0A89568EB74E021
:100E5000CE0101960E949A1A45E0BE016F5F7F4F56
:100E600082E894E00E94A014182FCE0101960E94FF
:100E70003E1A111114C00E94251DDC01CB018C19F2
:100E80009D09AE09BF09893B9B40A105B10540F40E
:100E900066EB74E089ED93E00E944013B3CF11E05C
:100EA000812F26960FB6F894DEBF0FBECDBFDF911F
:100EB000CF911F91FF90EF90DF90CF9008959F9278
:100EC000AF92BF92CF92DF92EF92FF920F931F9358
:100ED000CF93DF93CDB7DEB72C970FB6F894DEBF74
:100EE0000FBECDBF69E175E08CE393E00E945E1315
:100EF00079DF811104C0C12CD12C7601E5C163E1F9
:100F000075E0CE0101960E949A1A45E0BE016F5F1E
:100F10007F4F82E894E00E94A014182FCE01019622
:100F20000E943E1A112339F3CE0107960E94221324
:100F300080914202909143020196909343028093E4
:100F4000420262E872E0CE0107960E94141A609194
:100F500042027091430282E894E02FDCFC01808120
:100F600060914202709143028F3221F182E894E055
:100F700024DCFC011081BE01695F7F4FCE01019628
:100F80000E94A21A612FCE0101960E949314BC0107
:100F9000CE0107960E94291ACE0101960E943E1AA0
:100FA0008091420290914302019690934302809374
:100FB0004202CDCF6F5F7F4F709343026093420236
:100FC000CE0107960E947514182F62E872E0CE01D8
:100FD00007960E94141A609142027091430282E8BF
:100FE00094E0EBDBFC0180818F3241F160914202A1
:100FF0007091430282E894E0E0DBFC010081BE01D5
:10100000695F7F4FCE0101960E94A21A602FCE0128
:1010100001960E949314BC01CE0107960E94291AE2
:10102000CE0101960E943E1A8091420290914302A5
:1010300001969093430280934202CDCFCE01079652
:101040000E947514082F80914202909143020196EC
:10105000909343028093420262E872E0CE010796C9
:101060000E94141A609142027091430282E894E057
:10107000A4DBFC0180818C3241F1609142027091CD
:10108000430282E894E099DBFC01F080BE01695FD5
:101090007F4FCE0101960E94A21A6F2DCE010196BC
:1010A0000E949314BC01CE0107960E94291ACE011A
:1010B00001960E943E1A809142029091430201964D
:1010C0009093430280934202CDCFCE0107960E94B7
:1010D0007514982E8091420290914302019690934C
:1010E00043028093420262E872E0CE0107960E94BA
:1010F000141A609142027091430282E894E05DDB31
:10110000FC0180818A3341F1609142027091430277
:1011100082E894E052DBFC01F080BE01695F7F4F02
:10112000CE0101960E94A21A6F2DCE0101960E9457
:101130009314BC01CE0107960E94291ACE01019694
:101140000E943E1A80914202909143020196909330
:10115000430280934202CDCFCE0107960E947514C0
:10116000A82E8091420290914302019690934302EF
:101170008093420262E872E0CE0107960E94141A40
:10118000609142027091430282E894E016DBFC0118
:1011900080818A3341F1609142027091430282E87A
:1011A00094E00BDBFC01F080BE01695F7F4FCE0154
:1011B00001960E94A21A6F2DCE0101960E949314EF
:1011C000BC01CE0107960E94291ACE0101960E9409
:1011D0003E1A8091420290914302019690934302FD
:1011E00080934202CDCFCE0107960E947514B82E8F
:1011F00080915405E12F012E000CFF0BE80FF11D2B
:1012000087FDFA95DF0120E833E341EE51E00E94CB
:1012100022276B017C01A02FAA0FBB0BA65CBA4F43
:101220000D90BC91A02DA90DB11D97FCBA95CF01D1
:10123000029697FD03969595879595958795A80FA6
:10124000B91F119720E831E541E050E00E942227C4
:10125000C60ED71EE81EF91EAA2DAA0CBB0B20E154
:101260003EE00E947628C60ED71EE81EF91EAB2D62
:10127000BB0CBB0B2CE330E00E947628DC01CB01D9
:101280008C0D9D1DAE1DBF1D137031F4033024F471
:1012900080589145A140B1098732F2E19F07F2EDF4
:1012A000AF07FCE5BF0748F06C017D0128E5C21AD5
:1012B0002DE4D20AE108F10803C0C12CD12C76013B
:1012C000CE0107960E943E1AC701B6012C960FB6B2
:1012D000F894DEBF0FBECDBFDF91CF911F910F916C
:1012E000FF90EF90DF90CF90BF90AF909F900895C8
:1012F0001F93CF93DF93CDB7DEB72C970FB6F8943B
:10130000DEBF0FBECDBF6DEA74E08CE393E00E94B8
:101310005E13CE0107960E94221364DD882309F430
:10132000F3C068EA74E0CE0101960E949A1A44E084
:10133000BE016F5F7F4F82E894E00E94A014182FD7
:10134000CE0101960E943E1A112309F4DDC061EA24
:1013500074E0CE0101960E949A1A46E0BE016F5FCA
:101360007F4F82E894E00E94A014182FCE010196CE
:101370000E943E1A112319F062E974E0A7C06DE8DB
:1013800074E0CE0101960E949A1A44E0BE016F5F9C
:101390007F4F82E894E00E94A014182FCE0101969E
:1013A0000E943E1A112319F064E874E08FC06BE7C5
:1013B00074E0CE0101960E949A1A48E0BE016F5F68
:1013C0007F4F82E894E00E94A014182FCE0101966E
:1013D0000E943E1A112319F067E774E077C060E7B6
:1013E00074E0CE0101960E949A1A46E0BE016F5F3A
:1013F0007F4F82E894E00E94A014182FCE0101963E
:101400000E943E1A112319F062E674E05FC06DE598
:1014100074E0CE0101960E949A1A44E0BE016F5F0B
:101420007F4F82E894E00E94A014182FCE0101960D
:101430000E943E1A112319F065E574E047C06CE480
:1014400074E0CE0101960E949A1A48E0BE016F5FD7
:101450007F4F82E894E00E94A014182FCE010196DD
:101460000E943E1A112319F063E474E02FC06CE36C
:1014700074E0CE0101960E949A1A48E0BE016F5FA7
:101480007F4F82E894E00E94A014182FCE010196AD
:101490000E943E1A112319F065E374E017C06EE252
:1014A00074E0CE0101960E949A1A46E0BE016F5F79
:1014B0007F4F82E894E00E94A014182FCE0101967D
:1014C0000E943E1A112331F069E174E0CE010796C3
:1014D0000E94CF19BE01695F7F4F89ED93E00E94A2
:1014E0002F1C64E074E08CE393E00E944013BE0183
:1014F000695F7F4F8CE393E00E94F21362E074E037
:101500008CE393E00E945E13CE0107960E943E1A80
:101510002C960FB6F894DEBF0FBECDBFDF91CF91F2
:101520001F9108951F93CF93DF9300D000D0CDB7C4
:10153000DEB76FEF73E08CE393E00E945E1352DC42
:101540006CEF73E0CE0101960E949A1A42E0BE0150
:101550006F5F7F4F82E894E00E94A014182FCE01A5
:1015600001960E943E1A112389F065EF73E089ED20
:1015700093E00E945E1380919B02811102C0109241
:101580006F0061E08AE20E94BF1C21C060EE73E040
:1015900089ED93E00E945E1380E1809381001092B8
:1015A000800084E294EF909387008093860083E12B
:1015B0008093810080E494E09093700680936F069E
:1015C00081E080936F0040E060E080E039DB812FB4
:1015D00026960FB6F894DEBF0FBECDBFDF91CF9138
:1015E0001F9108951F93CF93DF9300D000D0CDB704
:1015F000DEB7182F63ED73E089ED93E00E945E1370
:10160000A895112361F06BEC73E089ED93E00E94E3
:101610005E1360EC73E08CE393E00E945E13E2DB08
:101620006CEB73E0CE0101960E949A1A45E0BE0170
:101630006F5F7F4F82E894E00E94A014182FCE01C4
:1016400001960E943E1A11112AC0A89560ED77E01C
:1016500080E090E00E94ED1CA89569EB73E08CE3BC
:1016600093E00E945E13A895BDDBA89566EB73E03E
:10167000CE0101960E949A1A42E0BE016F5F7F4F31
:1016800082E894E00E94A014182FCE0101960E94D7
:101690003E1A111104C0A89580E0A4DF01C0A895EE
:1016A00026960FB6F894DEBF0FBECDBFDF91CF9167
:1016B0001F9108958F929F92AF92BF92CF92DF9227
:1016C000EF92FF921F93CF93DF9300D000D0CDB75E
:1016D000DEB726E040E855E260E070E08CE393E09E
:1016E000FDD76EE075E08CE393E0E8D77BDB0E94EA
:1016F000251D6B017C01E3DB6E377F45824D9C45E8
:1017000008F07AC0C701B60124E630E040E050E0BE
:101710000E94282769017A0184E6882E912CA12C49
:10172000B12C69E075E0CE0101960E949A1A44E05E
:10173000BE016F5F7F4F82E894E00E94A014182FD3
:10174000CE0101960E943E1A11112FC0A895B7DB59
:101750006F377F45824D9C4508F04EC0CE01019603
:1017600081DABE016F5F7F4F82E894E00E94291901
:10177000CE0101960E943E1AA8950E94251DA50142
:1017800094010E942827DA01C9018C199D09AE092C
:10179000BF0987399105A105B10508F4C2CF6EEFE5
:1017A00074E089ED93E08AD71AC06AEF74E089ED9E
:1017B00093E084D765EF74E0CE0101960E949A1AF7
:1017C00044E0BE016F5F7F4F82E894E00E94A01466
:1017D000F82ECE0101960E943E1AF1100DC06BEE5C
:1017E00074E08CE393E06AD7FDDA66EE74E08CE394
:1017F00093E064D7F7DA10C06FED74E089ED93E001
:101800005DD761EC74E08CE393E058D7EBDA70DDE0
:10181000E9DA88DE811104C081E0E4DEA8954ADFC0
:1018200026960FB6F894DEBF0FBECDBFDF91CF91E5
:101830001F91FF90EF90DF90CF90BF90AF909F905F
:101840008F9008954F925F926F927F928F929F92A6
:10185000AF92BF92CF92DF92EF92FF920F931F93BE
:10186000CF93DF93CDB7DEB766970FB6F894DEBFA0
:101870000FBECDBF0E94251D6B8B7C8B8D8B9E8BED
:1018800081E080939B0290E1909381001092800010
:1018900020E533EC309387002093860093E190930A
:1018A000810027E934E03093700620936F0680931F
:1018B0006F0038DE882309F434C162E375E08CE3FD
:1018C00093E0FCD6CE010D96CDD9CE010796BAD6BF
:1018D0006DE275E0CE0101960E949A1A44E0BE01C5
:1018E0006F5F7F4FCE010D960E94A014182FCE017E
:1018F00001960E943E1A1123A1F18091420290911B
:101900004302019690934302809342026091420207
:1019100070914302CE010D960E94DD03FC0180818F
:101920008C32F9F06091420270914302CE010D9623
:101930000E94DD03FC011081BE01695F7F4FCE0173
:1019400001960E94A21A612FCE010196ECD7BC012C
:10195000CE0107960E94291ACE0101960E943E1AD6
:10196000CCCF64E275E089ED93E08AD6CE0107968C
:10197000BCD7182F682F70E080E090E00E94EF2520
:101980006B017C0120E030E0A9010E94E925882359
:1019900029F01B3018F440E060E00AC085EF810FA9
:1019A0008A3010F440E003C0153120F041E061E0DE
:1019B00081E046D920E030E048EF51E4C701B601AC
:1019C0000E94BE2720E030E048EC52E40E944E2600
:1019D0006B017C014B015C019B01AC010E9456280C
:1019E000882319F064E772E01AC026013701E894F1
:1019F00077F82FEF3FEF4FE75FE7C301B2010E9497
:101A00005628811110C02FEF3FEF4FE75FE7C3016A
:101A1000B2010E94E925181634F468E772E089EDF6
:101A200093E01CD671C02FEF3FEF4FE75FE4C70193
:101A3000B6010E94522818161CF46CE772E0EFCF32
:101A40002FEF3FEF4FE75FECC701B6010E94E9259A
:101A500087FDF3CF20E030E0A901C701B6010E9465
:101A6000E92587FF0BC06DE289ED93E00E948E1897
:101A700046015701B7FAB094B7F8B0942AE037EDB1
:101A800043EA5BE3C501B4010E945A274B015C01A4
:101A90000E9426286B017C010E94ED259B01AC0170
:101AA000C501B4010E9459274B015C014AE0C701FE
:101AB000B601AFD66EE289ED93E00E948E1820E069
:101AC00030E040E251E4C501B4010E944E264B01D2
:101AD0005C010E9426286B017C01CB0101D7B60175
:101AE00080E090E00E94ED259B01AC01C501B401AE
:101AF0000E94592720E030E040E251E40E944E2647
:101B00000E942628CB01ECD662E275E089ED93E0D5
:101B1000D5D5CE0107960E943E1ACE010D960E94A1
:101B20003E1A6CE575E08CE393E0C8D55BD9882359
:101B300009F448C066E575E0CE0101960E949A1A44
:101B400045E0BE016F5F7F4F82E894E0F9D6182F21
:101B5000CE0101960E943E1A1123A1F1609142022A
:101B6000709143026D5F7F4F709343026093420216
:101B700082E894E00E94DD03FC01608189ED93E03E
:101B80000E948E1889ED93E078D5609142027091A1
:101B9000430282E894E00E94DD03FC0180818133EE
:101BA00071F166E475E089ED93E088D5A1DB1AD97F
:101BB000882341F069E375E08CE393E07FD512D987
:101BC00081111DC06BED75E089ED93E077D58091B3
:101BD0009C028F5F80939C0210929B0269E675E0E5
:101BE00089ED93E06BD510926F008BE20DD862E81F
:101BF00074E089ED93E00E942F1C10E031C110E1E8
:101C0000109381001092800084ED90E39093870000
:101C10008093860083E18093810087E994E090932C
:101C2000700680936F0601E000936F0082E080935E
:101C30009B026FEC75E08CE393E040D5D3D888230A
:101C400059F263EC75E08CE393E038D5CBD8882368
:101C500009F4C2CFA89560919D0270919E0289ED12
:101C600093E00E942F1C60919D0270919E028CE374
:101C700093E00E942F1CB6D8882309F4ADCF63EB04
:101C800075E08CE393E01AD5ADD8882309F4A4CF8E
:101C900080919702811115C01093810010928000ED
:101CA00080E593EC909387008093860082E1809397
:101CB000810083E594E09093700680936F06009313
:101CC0006F00809197028823B9F080E180938100B2
:101CD0001092800080E593EC9093870080938600BB
:101CE00083E18093810085E794E090937006809370
:101CF0006F0681E080936F000E94251D24E630E08E
:101D000040E050E00E94282769017A0184E6882E8D
:101D1000912CA12CB12C6DEA75E0CE0101960E94A8
:101D20009A1A45E0BE016F5F7F4F82E894E008D6C3
:101D3000182FCE0101960E943E1A111126C0CE0125
:101D400001960E943206BE016F5F7F4F82E894E0E9
:101D50000E942919CE0101960E943E1A0E94251D5B
:101D6000A50194010E942827DA01C9018C199D0957
:101D7000AE09BF0987399105A105B10560F264EA92
:101D800075E089ED93E09AD427CF86E080939B029B
:101D90006FE975E0CE0101960E949A1A44E0BE01F7
:101DA0006F5F7F4F82E894E0CBD5182FCE0101966C
:101DB0000E943E1A112309F40FCF67E975E089EDFF
:101DC00093E07CD46BE875E08CE393E077D40AD899
:101DD000882309F401CF0E94251D65E875E0CE0136
:101DE00001960E949A1A45E0BE016F5F7F4F82E81C
:101DF00094E0A6D5182FCE0101960E943E1A112319
:101E000061F361E875E0CE0101960E949A1A43E001
:101E1000BE016F5F7F4F82E894E092D5182FCE010C
:101E200001960E943E1A112309F4D6CE65E775E0AB
:101E300089ED93E043D410926F0061E08BE20E9441
:101E4000BF1C0E94251D2B893C894D895E89621B20
:101E5000730B840B950B0E94411C87E080939B02BF
:101E6000812F66960FB6F894DEBF0FBECDBFDF910F
:101E7000CF911F910F91FF90EF90DF90CF90BF9087
:101E8000AF909F908F907F906F905F904F9008954C
:101E9000AF92BF92CF92DF92EF92FF920F931F9378
:101EA000CF93DF93CDB7DEB7E8970FB6F894DEBFD8
:101EB0000FBECDBF182F8E3F09F002C1809188045C
:101EC0008F3F09F4A2C3809106028F3F01F1E8E839
:101ED000F4E02CE335E040E080818F3F29F4A6E078
:101EE000B2E020E030E008C018160CF44F5F3396E3
:101EF0002E173F0789F7F3CF8D918F3F51F4842F31
:101F000090E028173907E9F08FEF809306021FEF62
:101F100014C0082E000C990BFC01EE0FFF1F8E0F52
:101F20009F1FFC01E857FB4F8081882369F32F5FD7
:101F30003F4F2C33310501F71CE3A8E8B4E080E003
:101F40000AC01FEF120F4FC0911110C08F5F139680
:101F50008C3309F448C09C919F3FB1F7E12F012ECB
:101F6000000CFF0BEA5FFD4F91833DC01F5F409166
:101F70000602242F042E000C330BF901EE0FFF1F75
:101F80002E0F3F1FF901E857FB4F2081291754F40A
:101F9000E12F012E000CFF0BEA5FFD4F4083809381
:101FA0000602D4CF112391F2412F012E000C550BC4
:101FB000BA016B5F7D4FFB010081202F002E000CCA
:101FC000330BF901EE0FFF1F2E0F3F1FF901E857EA
:101FD000FB4F2081FA01EA5FFD4F291714F40083BB
:101FE000FB018083B3CF1F3F09F40FC3A6E0B2E02B
:101FF00080E081170CF063C02D91022E000C330B92
:10200000F901EE0FFF1F2E0F3F1FF901E857FB4F9D
:1020100090812C91022E000C330BF901EE0FFF1F63
:102020002E0F3F1FF901E857FB4F40818F5F941738
:1020300001F3292F990F330B241B310947FD3395E9
:1020400021303105B1F2612F012E000C770BA82F42
:10205000B0E06A177B079CF1912FAA5FBD4F8917EB
:1020600060F5DC90492F50E04A5F5D4FFA01008136
:102070002D2D0D2C000C330B7901EE0CFF1C2E0DB9
:102080003F1DF901E857FB4F7F01202F002E000C68
:10209000330BF901EE0FFF1F2E0F3F1FF901E85719
:1020A000FB4F5F01F7013081F501208132171CF4ED
:1020B000FA01D0820C939150D2CF8F5FC8CF1F5FAF
:1020C000CE018796BFD2CE018D96BCD26AE570E074
:1020D000CE0187960E9463196DE276E0CE01879665
:1020E0000E94CF196CE774E0CE0187960E94B71961
:1020F0006BE276E0CE0187960E94EF0366E774E01C
:10210000CE0187960E94B71963E176E0CE018796EB
:102110000E94EF0360918C0270918D0280918E027B
:1021200090918F021CAA1BAA1EAA1DAA18AE1FAA54
:102130002AE0AE014F5F5F4F0E949525BE016F5FA1
:102140007F4FCE01C3960E94141ABE016D5C7F4F73
:10215000CE0187960E94B719CE01C3960E943E1AFF
:102160006CE076E0CE0187960E94EF0364E070E0B9
:10217000CE018D960E946319609184027091850250
:102180004AE0CE0101960E94431ABE016F5F7F4F65
:10219000CE018D960E942919CE0101960E943E1A09
:1021A00040E1BE01635D7F4FCE0101960E94A20413
:1021B000BE016F5F7F4FCE0187960E94B719CE0197
:1021C00001960E943E1A65E076E0CE0187960E9455
:1021D000EF030E9400050E94181C80E090E0EFA130
:1021E000F8A52081222329F001963196F8A7EFA3C4
:1021F000F6CFE81BF90BF8A7EFA38AA36BD389ED01
:1022000093E03BD2AAA1AF5FAAA3B0E062EC71E079
:102210006A1B7B0B7EA36DA320E030E017FD26C078
:102220008FEF810F8F3F19F43CA32BA342C0E82FFF
:10223000082E000CFF0BEA5FFD4F4081042E000CBE
:10224000550BFA01EE0FFF1F4E0F5F1FFA01E85703
:10225000FB4F9081F4E09F02200D311D1124265F79
:102260003F4F182F62177307C8F604C03CA32BA377
:102270001F3FF9F4E12F012E000CFF0BEA5FFD4F29
:102280004081042E000C550BFA01EE0FFF1F4E0F7C
:102290005F1FFA01E857FB4F408186EF9FEF54E044
:1022A0004502801991091124280F391F3CA32BA343
:1022B0001F5F8BA19CA1019661E070E08A0F9B1FBC
:1022C0000E947C2890939E0280939D02009709F4BF
:1022D00092C1BE01695D7F4F0E94B7190E9400053F
:1022E0000E94181C812F012E000C990B9EA38DA318
:1022F0000FEF8BA19CA1892B09F436C10E94000528
:102300000E94181C812F012E000C990BFC01EA5F22
:10231000FD4F7F0180818F5F0E944B056091890294
:1023200070918A0240E1CE0101960E94431ABE01DB
:102330006F5F7F4FCE018D968CD7CE0101960E94A4
:102340003E1A40E1BE01635D7F4FCE0101960E94BF
:10235000A204BE016F5F7F4F80919D0290919E020B
:102360000E94B719CE0101960E943E1A40E1609189
:102370008702CE0101960E946E1ABE016F5F7F4FE9
:10238000CE018D9666D7CE0101960E943E1A48E096
:10239000BE01635D7F4FCE0101960E94A204BE0183
:1023A0006F5F7F4F80919D0290919E02E0D7CE019A
:1023B00001960E943E1A40E160918802CE0101968A
:1023C0000E946E1ABE016F5F7F4FCE018D9641D77E
:1023D000CE0101960E943E1A48E0BE01635D7F4F28
:1023E000CE0101960E94A204BE016F5F7F4F8091D3
:1023F0009D0290919E02BBD7CE0101960E943E1A8B
:1024000080918B021CAA1BAA1EAA1DAA18AE1FAA85
:1024100090E040E1BE016F5F7F4F880F991F0E94DF
:102420008B25BE016F5F7F4FCE01C396FDD7BE01E6
:102430006D5C7F4FCE018D960CD7CE01C3960E9466
:102440003E1A48E0BE01635D7F4FCE0101960E94B7
:10245000A204BE016F5F7F4F80919D0290919E020A
:1024600086D7CE0101960E943E1A1AA22AA1F70130
:102470008081E82F082E000CFF0B30E0AF01440FE5
:10248000551FE40FF51FE857FB4F4081042E000C49
:10249000550B241735076CF5220F331F0180F2818D
:1024A000E02DE20FF31F6081718140E1CE010196C2
:1024B000EAD7BE016F5F7F4FCE018D96CAD6CE019F
:1024C0000196DCD740E1BE01635D7F4FCE010196EE
:1024D0000E94A204BE016F5F7F4F80919D02909188
:1024E0009E0245D7CE010196C9D78AA18F5F8AA3E4
:1024F000BDCF8AA390E0FC01EE0FFF1F8E0F9F1F40
:10250000FC01E857FB4F20818BA19CA10A97F4E0C6
:102510002F028019910911249CA38BA3E1D189ED8D
:1025200093E0ABD00E9400050E94181CCAA0D12CD9
:10253000C601880F991F8C0D9D1D9C0128573B4F8C
:102540006901F901818192810E94F224F6011282CF
:10255000118289ED93E091D00E9400050E94181C21
:10256000F70100831F5FC5CE63E076E080919D0296
:1025700090919E020E94EF03FDA00E9400050E9420
:10258000181C1AA25FD9811104C08AA1882309F4FA
:102590003EC06CEE75E089ED93E090D00E9400059E
:1025A0000E94181C00919D0210919E0201151105B8
:1025B00029F0C80163D7C8010E94F22410929E023C
:1025C00010929D020E9400050E94181C8F2D0F2C56
:1025D000000C990B0E94181C109106021F3F69F411
:1025E00063EE75E089ED93E069D040E060E080E063
:1025F0000E94200603C01FEF01C01F2DCE018D9643
:102600003DD7CE0187963AD70BC01FEF09C06AEFBE
:1026100075E089ED93E052D081E08AA313D9B9CF58
:10262000812FE8960FB6F894DEBF0FBECDBFDF91C5
:10263000CF911F910F91FF90EF90DF90CF90BF90BF
:10264000AF900895FC0111821082138212821582CC
:10265000148240E050E062E872E0C7C6611571057F
:1026600049F0FB0101900020E9F73197AF01461BCB
:10267000570BADC480E090E0089560E872E0EECFC3
:10268000EF92FF920F931F93CF93DF938C017B0107
:10269000C0E0D0E0F701EC0FFD1F6491662331F03C
:1026A000C8013CD5892B11F02196F4CFCE01DF91E2
:1026B000CF911F910F91FF90EF9008950F931F936B
:1026C000CF93DF93EC01DCDF8C01CE01D6DF800FEE
:1026D000911FDF91CF911F910F910895CF92DF92BB
:1026E000EF92FF921F93CF93DF93EC016A017B017E
:1026F000122FE889F98982E080834115514E6105E6
:102700007105B1F060E079E08DE390E0A7019601FA
:102710000E942827DA01C9010197A109B109B695DC
:10272000A795979587959C01211580E13807A8F01A
:10273000E889F989108260E874E88EE190E0A701E9
:1027400096010E942827DA01C9010197A109B10960
:10275000B695A795979587959C01EC85FD85308367
:10276000EE85FF852083188EEC89FD891083EA8928
:10277000FB89808180618083EA89FB898081886010
:102780008083EA89FB89808180688083EA89FB896C
:1027900080818F7D8083DF91CF911F91FF90EF909B
:1027A000DF90CF90089590E0FC01EE53F94F249113
:1027B000FC01E458F94F8491882399F090E0880F48
:1027C000991FFC01EE59F94FA591B491FC01E85B0A
:1027D000F94F859194918FB7F894EC91E22BEC939B
:1027E0008FBF0895FB014481558160817181EFC3E2
:1027F000CF93DF93EC01FB014481558160817181AE
:1028000089D5811102C0CE01B8D5CE01DF91CF911B
:1028100008958F929F92AF92BF920F931F93CF9381
:10282000DF93CDB7DEB7A1970FB6F894DEBF0FBE2A
:10283000CDBF19A2423008F44AE08E010F5D1F4F50
:10284000842E912CA12CB12CA50194010E94282743
:10285000E62FB901CA0101501109EA3014F4E05D14
:1028600001C0E95CD801EC93232B242B252B61F7C5
:10287000B80189ED93E0F2DEA1960FB6F894DEBFC1
:102880000FBECDBFDF91CF911F910F91BF90AF9041
:102890009F908F900895CF92DF92EF92FF92CF9307
:1028A000DF936B017C016DE289ED93E037D4EC019D
:1028B00066277727CB016C197D098E099F094AE0AD
:1028C000A8DF8C0F9D1FDF91CF91FF90EF90DF90DD
:1028D000CF900895682F70E080E090E04AE099CFB3
:1028E000BC0180E090E04AE094CFDC0120E080E091
:1028F000ED91FC9111973081332381F0222331F047
:10290000982F990F892F880F880F890F3053830FC5
:102910002F5F31961196FC93EE93EACFE21BF109FB
:10292000ED93FC930895CF93DF93EC010E942C0468
:10293000811102C0CE0121D5CE01DF91CF91089542
:102940008F929F92BF92CF92DF92EF92FF920F935E
:102950001F93CF93DF93EC01A8958C819D81892BE8
:1029600009F46BC0E881F9818081882309F465C08E
:10297000B42E7B01C12CD12CE881F9818081882380
:1029800009F450C0A89500E0802E912CB401C70135
:102990000E94DD03FC0180818823F1F0A895E88185
:1029A000F9811081B401C7010E94DD03FC0180811F
:1029B000181306C0888199810196998388830F5FD7
:1029C000E881F9811081602F70E0C7010E94DD036A
:1029D000FC0180811817C1F210E0B801C7010E9404
:1029E000DD03FC01208188819981211113C04B2DC9
:1029F00050E0415051094C0D5D1D509343024093EE
:102A000042020C0D1D1D801B910B99838883A89594
:102A100081E014C00196998388830F5F1F4FC00E19
:102A2000D11EAACFEC19FD09F983E8838FEF9FEF40
:102A30009093430280934202A89580E0DF91CF916A
:102A40001F910F91FF90EF90DF90CF90BF909F90DC
:102A50008F9008957F928F929F92AF92BF92CF9264
:102A6000DF92EF92FF920F931F93CF93DF93CDB737
:102A7000DEB7DA950FB6F894DEBF0FBECDBFC82E15
:102A8000809157058983CA8221E0C216A0F074E0C4
:102A90007C1518F487E1C8120EC0809158059091FA
:102AA00059059B838C8380915A0590915B059D838A
:102AB0008E8386E001C082E08E010F5F1F4F90E1A0
:102AC0009C1528F0AFE0CA1630F49BEF01C09AEED7
:102AD0009C0D923078F42091DC059091DD05F80191
:102AE000E80FF11D908391E0980FF801E90FF11DB7
:102AF0008E5F2083BFE0CB1641F1BC1558F0E5E0B6
:102B0000CE16A1F0F6E0CF12B6C02091E00590916C
:102B1000E10510C026E1C21609F48EC077E1C716A0
:102B200009F459C090E1C912A6C055C02091DE0534
:102B30009091DF05F801E80FF11D908391E0980F67
:102B4000F801E90FF11D8E5F95C02091DE053091EF
:102B5000DF05F801E80FF11D308342E0480F91E0F6
:102B6000980FF801E90FF11D2083B90167707727ED
:102B7000A3E036952795AA95E1F7672B19F091E028
:102B8000920F01C0922FB3E0B80FF801E40FF11DCE
:102B900090838C5F60E070E0A0E04FEF480F9A13E5
:102BA00003C08B2F890F67C050E09B013595279597
:102BB000400F511F220F331FF901E052FA4FA0FDC1
:102BC00002C0208101C02181FA012083AF5F6F5FC5
:102BD0007F4F8F5FE2CF2091DE053091DF05F80156
:102BE000E80FF11D308391E0980FF801E90FF11D16
:102BF000208392E0980FF801E90FF11D8D5F922F6D
:102C0000990F908390E03327E92FF0E0E217F30764
:102C100094F5EE0FFF1FE052FA4F50814181F80109
:102C2000E80FF11D408341E0480FF801E40FF11D6A
:102C30008E5F50839F5FE8CF9091E0052091E10582
:102C4000F801E80FF11D208321E0280FF801E20FC1
:102C5000F11D90832091E2059091E30532E0380F59
:102C6000F801E30FF11D908393E0980FF801E90F4D
:102C7000F11D8C5F20837801F8012FEF3FEFD02EFC
:102C80009E2F901B9817A0F49191292748E050E0BF
:102C9000B9017695679520FF06C09B0191E0292731
:102CA00090EA392701C09B014150510989F7E8CFCB
:102CB000F801E80FF11D2083B2E0BB2EB80E8F5F44
:102CC000F801E80FF11D3083F801EB0DF11D1082C2
:102CD0008091550590915605DC01ED91FC9102849F
:102CE000F385E02D1995019699F7E0916B06F09127
:102CF0006C06309709F0199580915505909156050D
:102D00002E2D2D192B1558F4F70161917F01DC014F
:102D1000ED91FC910190F081E02D1995EDCFDC0152
:102D2000ED91FC910680F781E02D1995E0916D06FB
:102D3000F0916E06309709F0199587D64B015C012A
:102D4000A8E0EA2EF12CD12C8091550590915605E2
:102D5000DC01ED91FC910084F185E02D1995892B22
:102D6000A9F0772473947F0C8091550590915605B6
:102D7000DC01ED91FC910284F385E02D1995F801B9
:102D8000EF0DF11D8083EA94F72C07C0E0916906EE
:102D9000F0916A06309709F01995B5E0FB1227C04B
:102DA0009981809157059813ABC0EA818E2F8F7758
:102DB00090E08C159D0509F0A5C0E7FF04C08B814C
:102DC000882379F181C08E2F90E0FC013197E731A3
:102DD000F10568F48827EE58FF4F8F4F0C946E284A
:102DE000F3E0EF2E04C0EB8002C0E5E0EE2E2DD61E
:102DF000DC01CB0188199909AA09BB09813D9740DB
:102E0000A105B10538F480E0EE2031F0882309F403
:102E10009BCF5AC082EEF8CF811156C0F4E0FF1567
:102E2000C8F58FEF9FEF60E0EF2DF0E09F0122509B
:102E30003109462F50E0D80142175307BCF4A40FC4
:102E4000B51F4C91842748E050E0DC01B695A7956A
:102E500080FF06C0CD0171E0872770EA972701C087
:102E6000CD014150510989F76F5FE3CFA20FB31F26
:102E70002C9130E0AC0155274217530709F0A4C04C
:102E8000892F9927EC0FFD1F208130E082179307CF
:102E900009F09AC08A818530B8F58330B8F5813061
:102EA00090F05B81652F70E07595679520916806BD
:102EB00040E0842F90E0861797070CF453C02093CE
:102EC000680650FD6DC080E01092620610926406A4
:102ED0001092630610926706D3950FB6F894DEBF82
:102EE0000FBECDBFDF91CF911F910F91FF90EF905B
:102EF000DF90CF90BF90AF909F908F907F9008957C
:102F000080EEE2CF81EEE0CF8731E9F66B8170E0B1
:102F1000759567952091680640E0842F90E08617AC
:102F200097071CF020936806CECF4034C0F49C0174
:102F30002E5F3F4F220F331F880F991FFC01EB5A62
:102F4000FA4FDE01A20FB31F8C9190E0982F8827D3
:102F5000D801A20FB31F2C91822B90878783242F37
:102F60004F5FDBCF4034C8F4880F991FFC01EB5A48
:102F7000FA4FA5E0B0E0AC0FBD1FA80FB91F2C9110
:102F800030E0322F2227A4E0B0E0AC0FBD1FA80F25
:102F9000B91F8C91282B30872783242F4F5F89CF2F
:102FA000403468F4880F991FFC01EB5AFA4FDE0198
:102FB000A80FB91F14968C9190E09087878381E0C9
:102FC000840F809368067FCF83EE7ECF0895CF92E3
:102FD000DF92EF92FF920F931F93CF93DF936C01D9
:102FE0007A018B01C0E0D0E0CE15DF0581F0D80179
:102FF0006D918D01D601ED91FC910190F081E02D54
:10300000C6011995892B11F02196EECF7E01C701DB
:10301000DF91CF911F910F91FF90EF90DF90CF90B4
:10302000089580E090E00895FC01538D448D252F94
:1030300030E0842F90E0821B930B541710F0CF9652
:10304000089501970895FC01918D828D981761F084
:10305000828DDF01A80FB11D5D968C91928D9F5FCF
:103060009F73928F90E008958FEF9FEF0895FC017A
:10307000918D828D981731F0828DE80FF11D858D2D
:1030800090E008958FEF9FEF0895FC01918D228DC0
:10309000892F90E0805C9F4F821B91098F73992745
:1030A00008958FE992E0F1DF21E0892B09F420E017
:1030B000822F08958CE393E0E8DF21E0892B09F467
:1030C00020E0822F089589ED93E0DFDF21E0892B56
:1030D00009F420E0822F0895FC01848DDF01A80F00
:1030E000B11DA35ABF4F2C91848D90E001968F7330
:1030F0009927848FA689B7892C93A089B1898C914F
:10310000837080648C93938D848D981306C002889D
:10311000F389E02D80818F7D80830895EF92FF9267
:103120000F931F93CF93DF93EC0181E0888F9B8DEA
:103130008C8D981305C0E889F989808185FD25C0AB
:10314000F62E0B8D10E00F5F1F4F0F731127E02E2F
:103150008C8DE8120BC00FB607FCFACFE889F9890D
:10316000808185FFF5CFCE01B7DFF2CF8B8DFE01D9
:10317000E80FF11DE35AFF4FF0829FB7F8940B8FD1
:10318000EA89FB89808180620AC09FB7F894EE8942
:10319000FF896083E889F9898081837080648083F6
:1031A0009FBF81E090E0DF91CF911F910F91FF9041
:1031B000EF900895CF93DF93EC01888D8823C1F0C1
:1031C000EA89FB89808185FD05C0A889B9898C9130
:1031D00086FD0EC00FB607FCF5CF808185FFF2CFCC
:1031E000A889B9898C9185FFEDCFCE0175DFE8CF35
:1031F000DF91CF91089580E090E0892B19F063DF93
:1032000081111BC080E090E0892B41F080E090E0CC
:10321000892B21F00E940000811112C080E090E013
:10322000892B19F047DF81110EC080E090E0892BD7
:1032300079F037DF81110AC008950E940000E2CFC3
:103240000E940000EBCF0E940000EFCF0C94000022
:1032500008950F931F93CF93DF938C01EB01FC0133
:1032600080819181009739F06881798161157105BC
:10327000A1F40E94F22488819981F80191838083CE
:103280008A819B81938382838C819D8195838483B2
:10329000198218821B821A820FC0F8014281538161
:1032A0002C813D814217530720F30E9492298C8183
:1032B0009D81F801958384831D821C82DF91CF91CB
:1032C0001F910F9108950F931F93CF93DF93EC01FC
:1032D00088819981009729F02A813B812617370739
:1032E00088F48B016F5F7F4F0E949628009761F0F2
:1032F000998388831B830A832C813D81232B11F4BE
:10330000FC01108281E001C080E0DF91CF911F912C
:103310000F910895EF92FF920F931F93CF93DF9336
:103320006115710511F480E01BC041155105B9F01C
:103330007B01EC018C819D818A01080F191FB80166
:10334000CE01C1DF882379F3288139818C819D8169
:10335000B701820F931F0E9492291D830C8381E085
:10336000DF91CF911F910F91FF90EF900895FB0196
:103370004481558160817181CDCFCF93DF93EC0182
:1033800088819981009711F00E94F2241982188295
:103390001D821C821B821A82DF91CF910895EF92C9
:1033A000FF920F931F93CF93DF93EC018B01611575
:1033B000710549F0CB010E9482257C01BC01CE0140
:1033C00082DF811103C0CE01D8DF07C0FD82EC820D
:1033D000B801888199810E947B25CE01DF91CF9130
:1033E0001F910F91FF90EF900895EF92FF920F932E
:1033F0001F93CF93DF93EC017B018A01BA0163DF56
:10340000811103C0CE01B9DF07C01D830C83B70152
:10341000888199810E949229CE01DF91CF911F91DD
:103420000F91FF90EF900895CF93DF93EC0161151A
:10343000710551F0FB0101900020E9F73197AF01D0
:10344000461B570BD2DF01C098DFCE01DF91CF9131
:103450000895CF93DF93EC01FB018617970751F096
:10346000608171816115710521F044815581BDDF55
:1034700001C083DFCE01DF91CF910895FC018081EF
:1034800091810C94F2240F931F93CF93DF93CDB7C8
:10349000DEB761970FB6F894DEBF0FBECDBF8C01CB
:1034A000CB01F801118210821382128215821482DC
:1034B00050E0BE016F5F7F4F0E94B625BE016F5F77
:1034C0007F4FC801B1DF61960FB6F894DEBF0FBE23
:1034D000CDBFDF91CF911F910F9108950F931F934F
:1034E000CF93DF93CDB7DEB729970FB6F894DEBF41
:1034F0000FBECDBF8C01862FF8011182108213827E
:1035000012821582148250E0BE016F5F7F4F90E0FF
:103510000E94B625BE016F5F7F4FC80185DF2996E7
:103520000FB6F894DEBF0FBECDBFDF91CF911F91D4
:103530000F910895FC01118210821382128215826C
:1035400014822DCFFC011182108213821282158207
:1035500014827FCF1F920F920FB60F9211240BB6D9
:103560000F922F933F934F935F936F937F938F931C
:103570009F93AF93BF93EF93FF938FE992E0ACDDFE
:10358000FF91EF91BF91AF919F918F917F916F913B
:103590005F914F913F912F910F900BBE0F900FBEF7
:1035A0000F901F9018951F920F920FB60F92112433
:1035B0000BB60F922F933F934F935F936F937F932D
:1035C0008F939F93AF93BF93EF93FF938FE992E015
:1035D00067D1FF91EF91BF91AF919F918F917F91B3
:1035E0006F915F914F913F912F910F900BBE0F9074
:1035F0000FBE0F901F9018951F920F920FB60F924B
:1036000011240BB60F922F933F934F935F936F93B9
:103610007F938F939F93AF93BF93EF93FF938CE32D
:1036200093E05ADDFF91EF91BF91AF919F918F9100
:103630007F916F915F914F913F912F910F900BBEB2
:103640000F900FBE0F901F9018951F920F920FB6FC
:103650000F9211240BB60F922F933F934F935F93CA
:103660006F937F938F939F93AF93BF93EF93FF934A
:103670008CE393E015D1FF91EF91BF91AF919F91B2
:103680008F917F916F915F914F913F912F910F900B
:103690000BBE0F900FBE0F901F9018951F920F92A8
:1036A0000FB60F9211240BB60F922F933F934F93A7
:1036B0005F936F937F938F939F93AF93BF93EF939A
:1036C000FF9389ED93E008DDFF91EF91BF91AF91FA
:1036D0009F918F917F916F915F914F913F912F912A
:1036E0000F900BBE0F900FBE0F901F9018951F925A
:1036F0000F920FB60F9211240BB60F922F933F9398
:103700004F935F936F937F938F939F93AF93BF93E9
:10371000EF93FF9389ED93E0C3D0FF91EF91BF91B9
:10372000AF919F918F917F916F915F914F913F9159
:103730002F910F900BBE0F900FBE0F901F901895FA
:103740001F920F920FB60F9211240BB60F922F9368
:103750003F934F935F936F937F938F939F93AF9319
:10376000BF93EF93FF93E0916F06F0917006199568
:10377000FF91EF91BF91AF919F918F917F916F9149
:103780005F914F913F912F910F900BBE0F900FBE05
:103790000F901F901895CF92DF92EF92FF920F93A8
:1037A0001F93CF93DF93EB017B0126E0E20EF11C28
:1037B0008B016C01C61AD70AC601800F911F0E94A7
:1037C0000227F80181938F01EE15FF05A9F7CE01BD
:1037D000DF91CF911F910F91FF90EF90DF90CF90ED
:1037E00008950C9402273FB7F89480917606909143
:1037F0007706A0917806B091790626B5A89B05C0FA
:103800002F3F19F00196A11DB11D3FBFBA2FA92F5F
:10381000982F8827820F911DA11DB11DBC01CD01DC
:1038200042E0660F771F881F991F4A95D1F70895C8
:10383000CF93DF93BC01990F880B990B97FF02C0C0
:103840002AD803C04AE00E940914EC0189ED93E0F4
:103850000E943D138C0F9D1FDF91CF9108950F9310
:103860001F93CF93DF93EC010E94F2138C01CE01E2
:103870000E943D13800F911FDF91CF911F910F91F7
:103880000895CF93DF934AE00E940914EC0189ED7B
:1038900093E00E943D138C0F9D1FDF91CF910895FF
:1038A000FC01A089B1898C91A689B78982FD0FC0DE
:1038B0009C91818D8F5F8F73228D821749F0218DAE
:1038C000DF01A20FB11D5D969C93818F08958C91AD
:1038D000089590E0FC013197E231F10508F04EC007
:1038E0008827E757FF4F8F4F0C946E2880918000F8
:1038F0008F7703C0809180008F7D80938000089532
:1039000080918000877FF9CF84B58F7702C084B51E
:103910008F7D84BD08958091B0008F7703C0809122
:10392000B0008F7D8093B0000895809190008F77D4
:1039300007C0809190008F7D03C080919000877FA9
:103940008093900008958091A0008F7707C08091A8
:10395000A0008F7D03C08091A000877F8093A0008E
:103960000895809120018F7707C0809120018F7D7D
:1039700003C080912001877F8093200108951F93C9
:10398000CF93DF93282F30E0F901E85FF84F84915F
:10399000F901EE53F94FD491F901E458F94FC4916C
:1039A000CC23B9F0162F811194DFEC2FF0E0EE0F4D
:1039B000FF1FE85BF94FA591B4919FB7F8941111DF
:1039C00004C08C91D095D82302C0EC91DE2BDC93FF
:1039D0009FBFDF91CF911F9108958F929F92AF92D9
:1039E000BF92CF92DF92EF92FF926B017C01FBDEE0
:1039F0004B015C01C114D104E104F104E9F0F3DEF0
:103A0000DC01CB0188199909AA09BB09883E9340BA
:103A1000A105B10578F321E0C21AD108E108F10847
:103A200088EE880E83E0981EA11CB11CC114D1043D
:103A3000E104F10421F7DECFFF90EF90DF90CF900B
:103A4000BF90AF909F908F9008952FB7F89460919A
:103A500072067091730680917406909175062FBF5F
:103A600008950F931F93F1DF609344037093450310
:103A700080934603909347038CE393E0E4DA97FF47
:103A80001EC0E3DF009144031091450320914603DB
:103A900030914703DC01CB01801B910BA20BB30BD0
:103AA0000091400310914103209142033091430360
:103AB00080179107A207B307F8F28FEF9FEF1F91CE
:103AC0000F9108951F920F920FB60F9211242F930A
:103AD0003F938F939F93AF93BF9380917206909182
:103AE0007306A0917406B09175063091710623E0BB
:103AF000230F2D3720F40196A11DB11D05C026E826
:103B0000230F0296A11DB11D2093710680937206AA
:103B100090937306A0937406B09375068091760611
:103B200090917706A0917806B09179060196A11D33
:103B3000B11D8093760690937706A0937806B09394
:103B40007906BF91AF919F918F913F912F910F90E7
:103B50000FBE0F901F901895CF93DF93CDB7DEB7B0
:103B60006E970FB6F894DEBF0FBECDBF789484B5C4
:103B7000826084BD84B5816084BD85B5826085BD69
:103B800085B5816085BD80916E00816080936E00F7
:103B900010928100809181008260809381008091E9
:103BA000810081608093810080918000816080939A
:103BB00080008091B10084608093B1008091B0005A
:103BC00081608093B0008091910082608093910029
:103BD000809191008160809391008091900081603C
:103BE000809390008091A10082608093A1008091D9
:103BF000A10081608093A1008091A00081608093EA
:103C0000A000809121018260809321018091210197
:103C10008160809321018091200181608093200147
:103C200080917A00846080937A0080917A0082602B
:103C300080937A0080917A00816080937A008091ED
:103C40007A00806880937A001092C1000FB6F894D1
:103C5000A895809160008861809360001092600058
:103C60000FBE98E288E10FB6F894A89580936000A3
:103C70000FBE909360008CE20E94D3138DE20E94ED
:103C8000D3138EE20E94D3138AE20E94D31361E021
:103C90008AE275DE66E970E080E090E09EDE8BE20D
:103CA0000E94D31361E08BE26ADE62E370E080E0A1
:103CB00090E093DE60E08AE262DE66E970E080E038
:103CC00090E08BDE8FE20E94D31361E08FE257DE3B
:103CD00062E370E080E090E080DE60E08BE24FDE47
:103CE00066E970E080E090E078DE60E08FE247DE39
:103CF00066E970E080E090E070DE61E08AE23FDE3D
:103D00006FE070E080E090E068DE61E08FE237DE37
:103D10006FE070E080E090E060DE61E08BE22FDE3B
:103D20006FE070E080E090E058DE61E08CE227DE3A
:103D30006FE070E080E090E050DE61E08DE21FDE39
:103D40006FE070E080E090E048DE61E08EE217DE38
:103D500060E971E080E090E040DE60E08AE20FDE42
:103D600060E08FE20CDE60E08BE209DE60E08CE276
:103D700006DE60E08DE203DE60E08EE200DE26E03B
:103D800040E05BE460E070E089ED93E00E946E1338
:103D90000E9400054DDD6BE272E089ED93E00E9428
:103DA0005E1360E072E089ED93E00E945E1364E0D0
:103DB00070E086E794E087DA63E170E08CE794E0F6
:103DC00082DA60E971E082E894E07DDA8EE192E0E7
:103DD00008DD4AE0682FCE01019680DB8DE192E09C
:103DE00000DD4AE0682FCE01079678DB8CE192E097
:103DF000F8DC4AE0682FCE010D9670DB8BE192E093
:103E0000F0DC4AE0682FCE01499668DBBE01675EB0
:103E10007F4FCE01439696DB62E471E0CE0143967C
:103E20000E941F04BE01635F7F4F0E94F81360E48D
:103E300071E00E941F04BE01695F7F4F0E94F8136A
:103E40006EE371E00E941F04BE016F5F7F4F0E940E
:103E5000F813BC018CE794E0FCDACE0143960EDB4C
:103E6000CE0149960BDBCE010D9608DBCE010796FD
:103E700005DBCE01019602DB6CE774E089ED93E08F
:103E80000E94F21366E371E089ED93E00E945E13F5
:103E90008FE192E00E94E8044AE0BC01CE01019665
:103EA000F2DABE016F5F7F4F86E794E0D2D9CE0190
:103EB0000196E4DA66E774E089ED93E00E94F2137C
:103EC00064E471E089ED93E00E945E1386E292E083
:103ED0000E94E80490938502809384020E947014EB
:103EE0006CE471E089ED93E00E945E1383E292E05E
:103EF0000E94E8040E94701463E571E089ED93E08C
:103F00000E945E1382E292E06CDC80930502825094
:103F1000833618F084E0809305026091050225E065
:103F2000629FB0011124072E000C880B990B4AE008
:103F30000E9409146AE571E089ED93E00E945E1326
:103F40008AE292E04EDC809300028150823018F0C9
:103F500081E080930002809100020E946A1462E670
:103F600071E089ED93E00E945E138BE292E039DC10
:103F700080939102833010F010929102809191020F
:103F80000E946A146FE671E089ED93E00E9440138D
:103F900080919102811103C06DE671E009C081300A
:103FA00019F469E671E004C0823031F46BE671E027
:103FB00089ED93E00E945E138CE292E012DC813086
:103FC00019F480E390E010C0823011F0853018F0D1
:103FD00080E690E009C0833019F480EC90E004C0E2
:103FE000843031F480E891E09093040280930302DE
:103FF000809103029091040224E6AC01249FC00149
:10400000259F900D11240E94701465E771E089EDE1
:1040100093E00E945E138DE292E0E3DB80939202D4
:104020008150843118F083E0809392028091920253
:104030000E946A1461E871E089ED93E00E945E13CA
:10404000A89565ED71E089ED93E00E945E130E94F2
:10405000180588E592E0909302028093010210E037
:1040600080910102909102028B3B53E0950708F08A
:1040700069C0A895BE016F5F7F4F8DDB89818F3F3F
:1040800009F460C0811102C01F5F52C060ED71E091
:1040900089ED93E00E94401389810E946A146EECBE
:1040A00071E089ED93E00E94401369EC71E089EDC5
:1040B00093E00E9440138A810E946A1467EC71E0C9
:1040C00089ED93E00E94401362EC71E089ED93E08A
:1040D0000E9440138B810E946A1460EC71E089EDAC
:1040E00093E00E9440136DEB71E089ED93E00E9434
:1040F00040138C819D810E9470146BEB71E089EDFF
:1041000093E00E94401367EB71E089ED93E00E9419
:1041100040138E810E946A1465EB71E089ED93E093
:104120000E94401363EB71E089ED93E00E945E13FF
:104130008091010290910202069690930202809370
:1041400001028ECF61EB71E089ED93E00E94401394
:1041500095E0E92EF12C68EA71E089ED93E00E9488
:10416000401381E0E81AF108B1F789ED93E00E946D
:104170003D13A89580910102909102029C01265066
:1041800031093093020220930102212F30E08E5535
:10419000924066E070E08ED76F5F7F4F261737073B
:1041A00089F560EA71E089ED93E00E945E131123C6
:1041B00049F167E971E089ED93E00E944013809135
:1041C0000102909102020E9470146EE871E089ED84
:1041D00093E00E945E13E0900102F0900202C7019A
:1041E00011D68F3F19F06FEFC70114D680910102ED
:1041F000909102020697909302028093010211505F
:10420000A895D5CFA89562EF71E089ED93E00E9463
:10421000401326E040E855E260E070E08CE393E074
:104220000E946E1388EE93E0A0E0B0E0809340031C
:1042300090934103A0934203B09343036FEE71E068
:104240008CE393E00E945E13CE0101960E9422133C
:1042500008DC97FD06C0682FCE0101960E942C0451
:10426000F7CFBE016F5F7F4F89ED93E0F8DACE01A3
:10427000019604D981E30E94D313809191028111A8
:104280000EC0809103029091040224E6289FA001B1
:10429000299F500D112460E070E026E01FC081309E
:1042A00071F4809103029091040224E6289FA001FA
:1042B000299F500D112460E070E026E30FC082308A
:1042C00089F4809103029091040224E6289FA001C2
:1042D000299F500D112460E070E026E28FE992E002
:1042E0000E946E138FE494E090936C0680936B06AB
:1042F0008BE494E090936E0680936D060E945A0BB7
:10430000A895A3DB24E630E040E050E0A1D520935F
:10431000930230939402409395025093960295DB5A
:104320000E945F0720910502A5E02A9F90011124B9
:104330006901330FEE08FF086C197D098E099F098A
:1043400060938C0270938D0280938E0290938F0203
:1043500098DA64EE71E089ED93E00E945E130E94AA
:10436000000566DAA895B4E64B2E512C612C712C11
:104370001FE4A12E14E0B12E8BE4882E84E0982E49
:10438000E7E3F7E08491E1EFF6E0F490EBEAF6E0A2
:104390001491112309F496C181119BDAE12FF0E009
:1043A000EE0FFF1FE95CFD4FA591B4918C91F822AF
:1043B00009F488C16FEF72E089ED93E00E945E130B
:1043C000A89543DBA301920143D58091930290917C
:1043D0009402A0919502B091960269017A01C81ADF
:1043E000D90AEA0AFB0AD701C601C397A105B1059C
:1043F00038F30E945F076B017C01672B682B692BE8
:1044000009F453C180918C0290918D02A0918E028B
:10441000B0918F02A7019601281B390B4A0B5B0B49
:10442000CA01B9012EDA3091050240918C025091F7
:104430008D0260918E0270918F02D701C601841B9C
:10444000950BA60BB70BAC01BD01A5E03A9FC001CF
:1044500011240A97092E000CAA0BBB0B4817590709
:104460006A077B0708F421C1C0928C02D0928D02AA
:10447000E0928E02F0928F0278E8E72E74E0F72E39
:1044800010E060E08CE27BDA2090920260E08FE244
:1044900076DA0E940005CCD933243394310E832D73
:1044A0000E944B05813001F1832D0E944B05811143
:1044B00009C0F7011082B3E0EB0EF11C132D1C3381
:1044C00001F7EAC0832D0E944B058230A1F7812FAE
:1044D00090E0FC01EE0FFF1F8E0F9F1FFC01E857BD
:1044E000FB4F8FEF8083D8C01FEF120DD7011196BD
:1044F0008D919C91129776D2F70112821182809150
:104500008702809357055FE9C52E52E0D52ED092E1
:104510005605C092550510926206109264061092DC
:104520006306B0926C06A0926B0690926E06809223
:104530006D06A89580918802833089F480918B0262
:1045400090E02091890230918A023093590520939E
:10455000580590935B0580935A0583E012C0843020
:1045600099F480918B022091890230918A023093D4
:1045700059052093580590E090935B0580935A0568
:1045800084E00E942A15082F002381F18CE20E940A
:104590000406023019F465EE72E01DC0033019F410
:1045A0006AEC72E018C0043019F464EB72E013C0D6
:1045B000013E19F46BE972E00EC0023E19F46BE89B
:1045C00072E009C0003E19F462E772E004C0033EE5
:1045D00031F46EE572E089ED93E00E945E131123E1
:1045E00011F01150A6CFD7011C9265CF61E08CE28B
:1045F000C6D966E572E089ED93E00E944013809190
:1046000086020E946A1461E572E089ED93E00E94DF
:104610005E1310918B02F701108362E070E0812F2E
:1046200090E06AD5D70112969C938E93119760E023
:10463000611768F5262F30E0220F331FFC01E20FCF
:10464000F31F603440F4D901AB5ABA4F17964D911D
:104650005C91189702C04FEF5FEF518340832E5F4C
:104660003F4FDC01A20FB31FE1E0E60FE03440F45E
:10467000F0E0EE0FFF1FEB5AFA4F2781308502C0A2
:104680002FEF3FEF2D933C93A8956E5FD1CF89ED2F
:1046900093E00E943D130FCF0E940005C9D88EEF12
:1046A0000E94480F8F3FE1F76BCECFD9A301920153
:1046B000CFD320939302309394024093950250936A
:1046C00096027ECE61E08FE25AD974CE1092A20299
:1046D0001092A10248EE53E060E070E04093A30224
:1046E0005093A4026093A5027093A60286E692E01E
:1046F0009093A00280939F0225E331E03093AC02B7
:104700002093AB0224E331E03093AE022093AD025C
:1047100020E331E03093B0022093AF0221E331E097
:104720003093B2022093B10222E331E03093B4021D
:104730002093B30226E331E03093B6022093B50212
:104740001092B8021092B9021092BA021092BB02F3
:1047500010923F0310923E03409340035093410355
:10476000609342037093430390933D0380933C0313
:1047700025ED30E0309349032093480324ED30E0E9
:1047800030934B0320934A0320ED30E030934D03E8
:1047900020934C0321ED30E030934F0320934E03E0
:1047A00022ED30E0309351032093500326ED30E0AA
:1047B00030935303209352031092550310925603E3
:1047C00010925703109258031092DC031092DB03EF
:1047D0004093DD035093DE036093DF037093E003A7
:1047E0009093DA038093D90385EC90E09093E603ED
:1047F0008093E50384EC90E09093E8038093E703D3
:1048000080EC90E09093EA038093E90381EC90E0E0
:104810009093EC038093EB0382EC90E09093EE0393
:104820008093ED0386EC90E09093F0038093EF0388
:104830001092F2031092F3031092F4031092F50316
:1048400010926A061092690610926C0610926B061E
:1048500010926E0610926D0688E1EAE4F2E0ACE395
:10486000B5E001900D928A95E1F78EE180935405B1
:10487000E8E8F4E08CE395E02FEF208333968E1781
:104880009F07D9F782E894E00E9422138CE794E016
:104890000E94221386E794E00C94221386E794E0AA
:1048A0000E943E1A8CE794E00E943E1A82E894E04F
:1048B0000C943E1A0F931F93CF93DF938230910590
:1048C00010F482E090E0E0917C06F0917D0620E01B
:1048D00030E0A0E0B0E0309719F1408151810281D1
:1048E000138148175907C8F08417950769F4109782
:1048F00031F012960C93129713961C9327C00093D5
:104900007C0610937D0622C02115310519F042174F
:10491000530718F49A01BD01EF01DF01F801DBCF65
:1049200021153105F9F0281B390B2430310580F4AD
:104930008A819B816115710521F0FB01938382833C
:1049400004C090937D0680937C06FE01329644C09D
:10495000FE01E20FF31F81939193225031093983B5
:1049600028833AC020917A0630917B06232B41F4AC
:10497000209146023091470230937B0620937A06BD
:1049800020914402309145022115310541F42DB7A3
:104990003EB74091480250914902241B350BE091EB
:1049A0007A06F0917B06E217F307A0F42E1B3F0B6B
:1049B0002817390778F0AC014E5F5F4F2417350791
:1049C00048F04E0F5F1F50937B0640937A06819309
:1049D000919302C0E0E0F0E0CF01DF91CF911F9111
:1049E0000F910895CF93DF93009709F481C0FC01E4
:1049F000329713821282A0917C06B0917D061097A7
:104A000081F420813181820F931F20917A063091A9
:104A10007B062817390751F5F0937B06E0937A0659
:104A200067C0ED0120E030E0CE17DF0740F44A8197
:104A30005B819E0141155105F1F0EA01F5CFD38369
:104A4000C28340815181840F951FC817D90759F43B
:104A500088819981840F951F0296918380838A8132
:104A60009B81938382832115310529F4F0937D0680
:104A7000E0937C063DC0E901FB83EA8349915991AB
:104A8000C40FD51FEC17FD0761F480819181840F5D
:104A9000951F0296E90199838883828193819B8384
:104AA0008A83E0E0F0E012968D919C911397009735
:104AB00019F0FD01DC01F7CF8D919C9111979D01BB
:104AC0002E5F3F4F820F931F20917A0630917B0615
:104AD0002817390769F4309729F410927D0610924F
:104AE0007C0602C013821282B0937B06A0937A06E2
:104AF000DF91CF910895FB01DC0105900D9200201C
:104B0000E1F70895FC0105900020E9F78095909564
:104B10008E0F9F1F0895BB274A3031F4992322F44A
:104B2000BDE2909581959F4F2CC0BB27FA01A62F1F
:104B30006217710581059105330B30FB66F0AA27DA
:104B4000660F771F881F991FAA1FA21710F0A21BBC
:104B500063953850A9F7A05DAA3308F0A95DA19329
:104B600036F7B111B1931082CA0123C04532510505
:104B700018F4423008F004C0FB011082CB01089504
:104B8000BB27FB015527AA27880F991FAA1FA41727
:104B900010F0A41B83955051B9F7A05DAA3308F01B
:104BA000A95DA193009779F7B111B1931192CB014F
:104BB00000C0DC01FC01672F71917723E1F7329788
:104BC00004C07C916D9370836291AE17BF07C8F3E8
:104BD000089540D008F481E00895E89409C097FB57
:104BE0003EF490958095709561957F4F8F4F9F4FC4
:104BF0009923A9F0F92F96E9BB279395F695879508
:104C000077956795B795F111F8CFFAF4BB0F11F4CA
:104C100060FF1BC06F5F7F4F8F4F9F4F16C0882371
:104C200011F096E911C0772321F09EE8872F762FA7
:104C300005C0662371F096E8862F70E060E02AF0E8
:104C40009A95660F771F881FDAF7880F96958795D4
:104C500097F90895990F0008550FAA0BE0E8FEEFA9
:104C600016161706E807F907C0F012161306E40730
:104C7000F50798F0621B730B840B950B39F40A2629
:104C800061F0232B242B252B21F408950A2609F407
:104C9000A140A6958FEF811D811D08950BD078C08E
:104CA00069D028F06ED018F0952309F05AC05FC083
:104CB0001124A2C07ED0A0F3959FD1F3950F50E0B0
:104CC000551F629FF001729FBB27F00DB11D639FBE
:104CD000AA27F00DB11DAA1F649F6627B00DA11D64
:104CE000661F829F2227B00DA11D621F739FB00D0A
:104CF000A11D621F839FA00D611D221F749F33277A
:104D0000A00D611D231F849F600D211D822F762F12
:104D10006A2F11249F5750408AF0E1F088234AF00F
:104D2000EE0FFF1FBB1F661F771F881F915050405B
:104D3000A9F79E3F510570F014C05EC05F3FECF3D1
:104D4000983EDCF3869577956795B795F795E79547
:104D50009F5FC1F7FE2B880F911D9695879597F958
:104D6000089597F99F6780E870E060E008959FEFED
:104D700080EC089500240A941616170618060906F2
:104D8000089500240A9412161306140605060895C1
:104D9000092E0394000C11F4882352F0BB0F40F449
:104DA000BF2B11F460FF04C06F5F7F4F8F4F9F4F89
:104DB000089557FD9058440F551F59F05F3F71F00B
:104DC0004795880F97FB991F61F09F3F79F0879572
:104DD0000895121613061406551FF2CF4695F1DFFB
:104DE00008C0161617061806991FF1CF869571058B
:104DF000610508940895E894BB2766277727CB01BF
:104E000097F90895F999FECF92BD81BDF89A992737
:104E100080B50895262FF999FECF1FBA92BD81BDA6
:104E200020BD0FB6F894FA9AF99A0FBE019608952C
:104E300031D0A59F900DB49F900DA49F800D911D22
:104E400011240895B7FFF4CFF3DF821B930B08956D
:104E5000A1E21A2EAA1BBB1BFD010DC0AA1FBB1F7E
:104E6000EE1FFF1FA217B307E407F50720F0A21BF0
:104E7000B30BE40BF50B661F771F881F991F1A945D
:104E800069F760957095809590959B01AC01BD0187
:104E9000CF010895A29FB001B39FC001A39F700DE1
:104EA000811D1124911DB29F700D811D1124911D32
:104EB00008955058BB27AA270ED06ACF5BDF30F089
:104EC00060DF20F031F49F3F11F41EF450CF0EF458
:104ED000E095E7FB46CFE92F6CDF80F3BA17620756
:104EE00073078407950718F071F49EF584CF0EF4CC
:104EF000E0950B2EBA2FA02D0B01B90190010C01EA
:104F0000CA01A0011124FF27591B99F0593F50F401
:104F1000503E68F11A16F040A22F232F342F442759
:104F2000585FF3CF469537952795A795F040539551
:104F3000C9F77EF41F16BA0B620B730B840BBAF021
:104F40009150A1F0FF0FBB1F661F771F881FC2F78C
:104F50000EC0BA0F621F731F841F48F487957795A0
:104F60006795B795F7959E3F08F0B3CF9395880F57
:104F700008F09927EE0F9795879508950CD008CFE4
:104F800000DF40F0F7DE30F021F45F3F19F0E9CEAA
:104F9000511132CFECCE0DDF98F39923C9F355238D
:104FA000B1F3951B550BBB27AA276217730784071C
:104FB00038F09F5F5F4F220F331F441FAA1FA9F3D2
:104FC00033D00E2E3AF0E0E830D091505040E695C4
:104FD000001CCAF729D0FE2F27D0660F771F881F25
:104FE000BB1F261737074807AB07B0E809F0BB0B14
:104FF000802DBF01FF2793585F4F2AF09E3F510538
:1050000068F0AFCEF9CE5F3FECF3983EDCF38695C7
:1050100077956795B795F7959F5FC9F7880F911DAD
:105020009695879597F90895E1E0660F771F881F99
:10503000BB1F621773078407BA0720F0621B730B4C
:10504000840BBA0BEE1F88F7E0950895BADE88F05E
:105050009F5790F0B92F9927B751A0F0D1F0660F64
:10506000771F881F991F1AF0BA95C9F712C0B1307F
:1050700081F0C1DEB1E00895BECE672F782F88277A
:10508000B85F39F0B93FCCF3869577956795B395BE
:10509000D9F73EF490958095709561957F4F8F4F2D
:1050A0009F4F0895D7DD08F48FEF0895D3DD880B67
:1050B000990B0895AA1BBB1B51E107C0AA1FBB1F78
:1050C000A617B70710F0A61BB70B881F991F5A9594
:1050D000A9F780959095BC01CD010895EE0FFF1FB3
:1050E000881F8BBF0790F691E02D1994D3DEB7FF90
:1050F0000895821B930B08950F931F93CF93DF9313
:10510000869F8001879F100D969F100D1124C80166
:10511000D1DBEC01009721F0A80160E070E0FBD04A
:10512000CE01DF91CF911F910F9108956F927F92E1
:105130008F929F92AF92BF92CF92DF92EF92FF92A7
:105140000F931F93CF93DF93009781F4CB01DF91EF
:10515000CF911F910F91FF90EF90DF90CF90BF9074
:10516000AF909F908F907F906F90A4CBFC01E60F43
:10517000F71F9C0122503109E217F30708F4A5C07C
:10518000EC01D9010D911C91119706171707A8F092
:105190000530110508F497C0C801049786179707D2
:1051A00008F491C002501109061B170B01931193CB
:1051B0006D937C93CF0116DC86C05B01A01AB10A07
:1051C0004C01800E911EA0917C06B0917D06612C51
:1051D000712CE12CF12C109709F446C08D919C9113
:1051E0001197A815B905B1F56C0142E0C40ED11CA8
:1051F000CA14DB0478F14C018A189B08640142E070
:10520000C40ED11C1296BC9012971396AC91B5E0C7
:10521000CB16D10440F0B282A38391828082D9015F
:105220006D937C9309C00E5F1F4F800F911FF90192
:1052300091838083EB2DFA2FE114F10431F0D70133
:105240001396FC93EE9312973EC0F0937D06E09385
:105250007C0639C06816790608F43C017D01129677
:105260000D90BC91A02DB7CF80917A0690917B06CE
:1052700088169906E1F466167706C8F48091440210
:1052800090914502009741F48DB79EB74091480236
:1052900050914902841B950BE817F907B0F4F0937D
:1052A0007B06E0937A06F901718360830CC0CB0121
:1052B00001DB7C01009749F0A801BE0123D0CE019B
:1052C00091DBC70104C0CE0102C080E090E0DF9115
:1052D000CF911F910F91FF90EF90DF90CF90BF90F3
:1052E000AF909F908F907F906F90089581E090E0B5
:1052F000F8941FC09111089581568A5108F4805284
:1053000085580895FB01DC0102C001900D924150C7
:105310005040D8F70895DC0101C06D9341505040D2
:10532000E0F70895FB01DC0101900D920020E1F708
:10533000089513E0C8EAD3E000E005C0802FFE0125
:10534000CDDE2196011DC93AD10780E00807B1F7EB
:04535000F894FFCFFF
:10535400015802600006FFFFFFFFFFFFFFFFFFFF92
:10536400FFFFFFFFFFFFFFFFFFFFFFFFFFFFFFFF49
:10537400FFFFFFFFFFFFFFFFFFFFFFFFFFFFFFFF39
:10538400FFFFFFFFFFFFFFFFFFFFFFFFFFFFFFFF29
:10539400FFFFFFFF00007E06800000001F003B00AF
:1053A4005A0078009700B500D400F30011013001D1
:1053B4004E01000000008E18E7171418DA1845187B
:1053C400231837186E616E00696E66006F7666008A
:0453D4000D0A0000BE
:020000023000CC
:10E000000D9489F10D94B2F10D94B2F10D94B2F129
:10E010000D94B2F10D94B2F10D94B2F10D94B2F1F0
:10E020000D94B2F10D94B2F10D94B2F10D94B2F1E0
:10E030000D94B2F10D94B2F10D94B2F10D94B2F1D0
:10E040000D94B2F10D94B2F10D94B2F10D94B2F1C0
:10E050000D94B2F10D94B2F10D94B2F10D94B2F1B0
:10E060000D94B2F10D94B2F10D94B2F10D94B2F1A0
:10E070000D94B2F10D94B2F10D94B2F10D94B2F190
:10E080000D94B2F10D94B2F10D94B2F10D94B2F180
:10E090000D94B2F10D94B2F10D94B2F10D94B2F170
:10E0A0000D94B2F10D94B2F10D94B2F10D94B2F160
:10E0B0000D94B2F10D94B2F10D94B2F10D94B2F150
:10E0C0000D94B2F10D94B2F10D94B2F10D94B2F140
:10E0D0000D94B2F10D94B2F10D94B2F10D94B2F130
:10E0E0000D94B2F141546D656761323536300041AF
:10E0F000726475696E6F206578706C6F72657220DE
:10E1000073746B3530305632206279204D4C530099
:10E11000426F6F746C6F616465723E004875683F52
:10E1200000436F6D70696C6564206F6E203D200048
:10E130004350552054797065202020203D20005FF9
:10E140005F4156525F415243485F5F3D2000415658
:10E1500052204C696243205665723D20004743437C
:10E160002056657273696F6E203D20004350552024
:10E1700049442020202020203D20004C6F7720663D
:10E18000757365202020203D20004869676820665F
:10E190007573652020203D200045787420667573D6
:10E1A00065202020203D20004C6F636B2066757336
:10E1B000652020203D20004D617220203720323024
:10E1C000313300312E362E3800342E332E350056A2
:10E1D00023202020414444522020206F7020636F70
:10E1E00064652020202020696E73747275637469E1
:10E1F0006F6E2061646472202020496E74657272B3
:10E20000757074006E6F20766563746F7200726A49
:10E210006D702020006A6D70200057686174207056
:10E220006F72743A00506F7274206E6F7420737541
:10E2300070706F72746564004D7573742062652030
:10E2400061206C6574746572002000577269747483
:10E25000696E672045450052656164696E672045B7
:10E26000450045452065727220636E743D00504F35
:10E27000525400303D5A65726F2061646472003FF1
:10E280003D43505520737461747300403D454550C3
:10E29000524F4D207465737400423D426C696E6B41
:10E2A000204C454400453D44756D70204545505215
:10E2B0004F4D00463D44756D7020464C415348001B
:10E2C000483D48656C70004C3D4C69737420492F83
:10E2D0004F20506F72747300513D51756974005234
:10E2E0003D44756D702052414D00563D73686F7707
:10E2F00020696E7465727275707420566563746FF0
:10E30000727300593D506F727420626C696E6B00BD
:10E310002A0011241FBECFEFD1E2DEBFCDBF01E046
:10E320000CBF12E0A0E0B2E0EEE1FDEF03E00BBFB6
:10E3300002C007900D92A030B107D9F712E0A0E01B
:10E34000B2E001C01D92AE30B107E1F70F9460F367
:10E350000D948DFE01E20EBF0FEF0DBF11241FBE05
:10E360000D9460F30D9400F020E030E040ED57E0B4
:10E3700005C0FA013197F1F72F5F3F4F2817390792
:10E38000C0F308959C01260F311DC901A0E0B0E043
:10E390002F5F3F4FABBFFC018791882361F08093D3
:10E3A000C6008091C00086FFFCCF8091C0008064D1
:10E3B0008093C000EACF08958DE08093C6008091DD
:10E3C000C00086FFFCCF8091C00080648093C000B5
:10E3D0008AE08093C6008091C00086FFFCCF8091C8
:10E3E000C00080648093C00008950F94C2F10F9420
:10E3F000DCF10895FC019081992359F09093C600B7
:10E400008091C00086FFFCCF8091C0008064809323
:10E41000C0003196992379F70895282F982F929567
:10E420009F70892F805D8A3308F0895F8093C600D2
:10E430008091C00086FFFCCF8091C00080648093F3
:10E44000C000822F8F70982F905D9A3308F0995FEB
:10E450009093C6008091C00086FFFCCF8091C000E1
:10E4600080648093C00008959C01FB01853691056E
:10E470001CF46330710594F0C90164E670E00F94F8
:10E480002EFE605D7F4F6093C6008091C00086FFC6
:10E49000FCCF8091C00080648093C0002B30310598
:10E4A00014F43297B4F0C90164E670E00F942EFEC4
:10E4B0006AE070E00F942EFE605D7F4F6093C600AF
:10E4C0008091C00086FFFCCF8091C0008064809363
:10E4D000C000C9016AE070E00F942EFEC0968093E0
:10E4E000C6008091C00086FFFCCF8091C000806490
:10E4F0008093C00008951F93182F8EE692EE60E07F
:10E500000F94C2F11093C6008091C00086FFFCCF2B
:10E510008091C00080648093C0000F94DCF11F9153
:10E5200008952F923F924F925F926F927F928F92B7
:10E530009F92AF92BF92CF92DF92EF92FF920F9392
:10E540001F93DF93CF93CDB7DEB762970FB6F894E2
:10E55000DEBF0FBECDBF382E622ECA01DB015C01CB
:10E560006D01772420E2222E2E010894411C511CBB
:10E570008BC081E0A81680E0B80681E0C80680E084
:10E58000D80628F0C601AA27BB270F940DF2BB2797
:10E59000AD2D9C2D8B2D0F940DF28A2D0F940DF225
:10E5A0002092C6008091C00086FFFCCF8091C00001
:10E5B00080648093C0009DE29093C6008091C0006B
:10E5C00086FFFCCF8091C00080648093C0002092C1
:10E5D000C6008091C00086FFFCCF8091C00080649F
:10E5E0008093C00019828601750188249924A1E0D6
:10E5F0003A1651F03A1620F0B2E03B1661F409C029
:10E600000BBFF701779007C0C7010F9477FE782EF4
:10E6100002C0F7017080872D0F940DF22092C60082
:10E620008091C00086FFFCCF8091C0008064809301
:10E63000C000872D8052F401EF70F0708F3520F408
:10E64000E40DF51D708204C0E40DF51D8EE280839B
:10E650000894E11CF11C011D111D0894811C911CE2
:10E6600090E18916910409F0C2CF80E190E0A0E02A
:10E67000B0E0A80EB91ECA1EDB1E198AC2010F9493
:10E68000FAF10F94DCF16A94662009F072CF629679
:10E690000FB6F894DEBF0FBECDBFCF91DF911F91B3
:10E6A0000F91FF90EF90DF90CF90BF90AF909F9031
:10E6B0008F907F906F905F904F903F902F90089534
:10E6C0002F923F924F925F926F927F928F929F9282
:10E6D000AF92BF92CF92DF92EF92FF920F931F9370
:10E6E000DF93CF93CDB7DEB7CD53D1400FB6F894BB
:10E6F000DEBF0FBECDBF01E20EBF0FEF0DBF94B75F
