:1000000063C3000092C3000090C300008EC30000D1
:100010008CC300008AC3000088C3000086C30000B0
:1000200084C3000082C3000080C300007EC30000C0
:100030007CC300007AC3000078C3000076C30000D0
:1000400074C3000072C3000070C300006EC30000E0
:100050000C94AC1B6AC3000068C300000C942C1005
:1000600064C300000C94821B0C94591B5EC30000F7
:100070005CC300005AC3000058C3000056C3000010
:1000800054C3000052C3000050C300004EC3000020
:100090004CC300004AC3000048C3000046C3000030
:1000A00044C3000042C3000040C300003EC3000040
:1000B0003CC300003AC3000038C3000036C3000050
:1000C00034C3000032C3000030C300000C942F1B67
:1000D0000C94061B2AC300000C94DC1A0C94B31A6F
:1000E00024C30000D511D811C711CB11D1110F12A3
:1000F000DC11E011E611EA11EE11F411F811FC1116
:100100000F12021206120A124B144B144B144B140A
:10011000481448144F144F144F144F144F144F14D5
:100120004F144F14481448144F144F144F144F14C5
:100130004F144D144B142D2D2D2D2D2D097C007C8D
:10014000007C2020534E6F097C20204944097C20EC
:1001500046756E43097C2041646472097C20504FCF
:100160004C4C53097C002D2D2D2D2D2D097C007C10
:1001700000446220656E6400416C726561647920A0
:1001800064656C657465640052656164696E6720BE
:10019000446F6E65002D2D2D2D2D2D097C007C00CA
:1001A0007C0009007C20200009007C200009007CE4
:1001B0002020200009007C2020200009007C202035
:1001C000200053686F77696E67205461626C653AEE
:1001D00020466F722049442D0030004F4B0041549F
:1001E000005244590041542B43504F57443D300076
:1001F0007273742047534D0047534D204641494C7C
:100200000A4769766520506F776572210047534D24
:10021000204F4B004F4B004154002E004552524F8F
:1002200052004F4B0041542B53415042523D332C0E
:10023000312C2241504E222C22696E7465726E65FB
:1002400074220041542B53415042523D332C312CE7
:1002500022434F4E54595045222C2247505253228C
:1002600000525443204F4B00415426570041542B19
:10027000434C54533D3100545A563A0052544300B3
:100280002B43545A5620744F555400545A563A0032
:1002900041544530003A20220041542B43434C4BFB
:1002A0003F0025005349474E414C3A200053513AF4
:1002B000200041542B4353510041542B5341504291
:1002C000523D312C310041542B53415042523D3369
:1002D0002C312C2241504E222C22696E7465726E94
:1002E00065742200436F6E6E656374696E672047A4
:1002F000505253005042523A200041542B53415027
:1003000042523D322C310055504C4F414420464121
:10031000494C0055504C4F414420444F4E450041FC
:10032000434B00524541443A0041542B48545450E9
:1003300052454144004C494E4B204F4B0032303027
:100340002C0054494D45204F55540054494F4E3AC6
:100350000041542B48545450414354494F4E3D3072
:100360000041542B48545450494E49540041542B99
:10037000485454505445524D003267206661696CB0
:1003800000414C4C2053656E740044656C65746983
:100390006E672044617461005265747279696E679A
:1003A00000220026646174613D00264445563D5696
:1003B000002F4144536D6172742E61736D782F4428
:1003C000656D6F313F44543D003A0041542B485411
:1003D0005450504152413D2255524C222C226874B7
:1003E00074703A2F2F003C2D2D49507634002E008A
:1003F0002E002E003C2D2D504F5254003C2D2D44EC
:100400004944003C2D2D434944003C2D2D55287373
:1004100029003C2D2D434944004F0045004E003C2F
:100420002D2D5020003C2D2D4D4F442062617564D0
:10043000003C2D2D4D4F44205245545259002074FC
:100440006F20307846460053657474696E672000EB
:100450004E6F2064617461002D2D2D2D2D2D097C92
:10046000007C007C0009007C20200009007C20002A
:1004700009007C2020200009007C202020000900A9
:100480007C2020200052656164696E67205461629F
:100490006C653A00534554555020444F4E45004139
:1004A0005400506C6561736520576169742E2E008D
:1004B000462F7720496E6E6F76617465642062798D
:1004C0003A2053455053204D4F4E49544F52494EB8
:1004D0004720505654204C54442E00462F773A2043
:1004E000562D302E33000000200023002600290066
:1004F0002C002F0032000001000003010601090159
:100500003D003D0052656164696E67204D6F646215
:1005100075732E2E004D4F444255533A20496E7646
:10052000616C696420435243004D4F444255533A35
:1005300020496E76616C696420536C617665206930
:1005400064004D4F444255533A2054696D656F75B0
:1005500074004D4F444255533A20496E76616C69A0
:10056000642046756E6374696F6E004D4F4442554A
:10057000533A20536C617665204661696C757265EB
:10058000004D4F444255533A20496C6C6967616C89
:1005900020446174612056616C7565004D4F444282
:1005A00055533A20496C6C6967616C2044617461F1
:1005B000204164642E005748494C4520310000001A
:1005C0000A0B02090C0D0E080703040100000000CD
:1005D000000000000000000000000000000000001B
:1005E00000000000000000000000121110000000D8
:1005F00000000000000000000000000000000000FB
:100600000000000000002200250028002B002E0022
:100610003100340002010000050108010B01000057
:100620002100240027002A002D00300033000101A2
:100630000000040107010A01050505050705080872
:100640000808020202020A0A08080404040401015C
:100650000101010101010303030303030303040771
:1006600007070C0C0C0C0C0C0C0C02020202060608
:100670000606060606060B0B0B0B0B0B0B0B0102FB
:1006800010202008081020401020408002010201A4
:10069000080402010102040810204080804020105C
:1006A00008040201800402018040201008040201B5
:1006B000080402010102040810204080010204081D
:1006C00010204080E021C52211241FBECFEFD1E2CF
:1006D000DEBFCDBF00E00CBF12E0A0E0B2E0E2E47C
:1006E000F0E500E00BBF02C007900D92A438B107FF
:1006F000D9F726E0A4E8B2E001C01D92AA37B207FC
:10070000E1F713E0C3E6D3E000E006C0219701095A
:10071000802FFE010E94E526C236D10780E008073F
:10072000A9F70E94FF1B0C9410286ACC90918402B8
:1007300081E0892780938402609184028BE20C948B
:10074000101280918402811104C060E08BE20E944B
:10075000101281E08093840290E1909381001092C6
:10076000800020E533EC309387002093860093E1EE
:100770009093810023EC33E0309375062093740648
:1007800080936F00089580918402882321F061E0B6
:100790008BE20E9410121092840280E1809381000B
:1007A0001092800080E593EC909387008093860000
:1007B00082E18093810081EA93E0909375068093B3
:1007C000740681E080936F0008959091840281E027
:1007D000892780938402609184028AE20C9410122B
:1007E00060E081E30C94101261E081E30C9410123C
:1007F000CF93DF93C82FD62F642F8CE20E94101264
:100800006D2F8DE20E9410126C2F8EE2DF91CF913E
:100810000C941012EF92FF920F931F93CF93DF93DC
:100820008C017B01D42F0E946F1580E090E0D701EE
:10083000ED91FC9111972081222329F001963196A8
:10084000ED93FC93F4CFE81BF90BD701ED93FC93E8
:10085000C82FD695D6958D1748F4CD1739F069ED88
:1008600071E0C8010E945819CF5FF7CFB701C801E6
:100870000E94B419F801C081D181209751F088817C
:10088000882339F0082E000C990B0E94F1278993D8
:10089000F6CFC801DF91CF911F910F91FF90EF909C
:1008A00008950F931F93CF938C01A89501960E94F2
:1008B000FD1BC82FC8010E94FD1B2C2F30E0322FDA
:1008C0002227A895A901482BCA01CF911F910F910A
:1008D0000895CF93DF931F921F92CDB7DEB720917B
:1008E0007606309177062115310511F42AE736E0B6
:1008F000CE010196821B930B0F900F90DF91CF9149
:100900000895CF93DF93A8956FE671E08FED93E0A4
:100910000E948D15C5E0D0E066E671E08FED93E0B2
:100920000E948D152197C1F78FED93E00E948A15E3
:1009300061E471E08FED93E00E94AB156FE371E02D
:100940008FED93E00E948D15C5E0D0E066E371E085
:100950008FED93E00E948D152197C1F78FED93E005
:10096000DF91CF910C948A151F93CF93DF93182FAB
:10097000A89590E0019726E0289FE001299FD00DDF
:100980001124C85ADD4FD0933E02C0933D02CE01E0
:100990000E94FD1B882309F48BC08F3F09F490C08F
:1009A000181386C06BE872E0CE010E94D71B62EC80
:1009B00071E08FED93E00E948D15812F0E94C81683
:1009C000A0DF6DEB71E08FED93E00E948D158091BB
:1009D0008B020E94B7166BEB71E08FED93E00E94E3
:1009E0008D1566EB71E08FED93E00E948D1580917F
:1009F0008C020E94B71664EB71E08FED93E00E94C9
:100A00008D156FEA71E08FED93E00E948D15809156
:100A10008D020E94B7166DEA71E08FED93E00E949F
:100A20008D156AEA71E08FED93E00E948D156AE002
:100A300070E080918E0290918F020E94BD1668EA4C
:100A400071E08FED93E00E948D1564EA71E08FED07
:100A500093E00E948D15809190020E94B71662EA81
:100A600071E08FED93E00E948D1560EA71E08FEDEB
:100A700093E00E94AB156EE971E08FED93E00E9468
:100A80008D15A895C5E0D0E065E971E08FED93E0A4
:100A90000E948D152197C1F78FED93E00E948A1572
:100AA00068E871E08FED93E00E94AB1581E00FC024
:100AB00068E771E08FED93E00E94AB1580E007C01E
:100AC00061E771E08FED93E00E94AB1582E0DF916A
:100AD000CF911F910895CF93DF93D82FC1E06C2F52
:100AE00061708D2F0E9410128C2F837031F066E997
:100AF00070E080E090E00E943E12CF5FC53079F751
:100B0000DB3211F410928402DF91CF910895CF92DD
:100B1000DF92EF92FF921F93CF93DF9300D000D02C
:100B2000CDB7DEB70E9476126B017C01A895CE018D
:100B300001960E949517BE016F5F7F4F88E894E091
:100B40000E94F718CE0101960E94471A62E272E0F5
:100B5000CE0101960E94A31A42E0BE016F5F7F4F53
:100B600088E894E00E940F17182FCE0101960E948A
:100B7000471A11112AC0A8956CE172E0CE010196C6
:100B80000E94A31A45E0BE016F5F7F4F88E894E0A2
:100B90000E940F17182FCE0101960E94471A1111BB
:100BA00014C00E947612DC01CB018C199D09AE099C
:100BB000BF09893B9B40A105B10540F46AE172E0A1
:100BC0008FED93E00E948D15B2CF11E0812F269614
:100BD0000FB6F894DEBF0FBECDBFDF91CF911F914E
:100BE000FF90EF90DF90CF9008951F93CF93DF9306
:100BF00000D000D0CDB7DEB726E040E855E260E097
:100C000070E082E493E00E94BB1567E172E082E449
:100C100093E00E94AB157BDF64E172E0CE010196A8
:100C20000E94A31A42E0BE016F5F7F4F88E894E004
:100C30000E940F17182FCE0101960E94471A112308
:100C400089F06DE072E08FED93E00E94AB1580912A
:100C50008602811102C010926F0061E08AE20E9458
:100C6000101221C068EF71E08FED93E00E94AB1588
:100C700080E1809381001092800084E294EF909351
:100C800087008093860083E18093810085EE93E066
:100C9000909375068093740681E080936F0040E026
:100CA00060E080E0A5DD812F26960FB6F894DEBFC8
:100CB0000FBECDBFDF91CF911F9108951F93CF93AA
:100CC000DF9300D000D0CDB7DEB7182F60EF71E012
:100CD0008FED93E00E94AB15A895112331F065EEDE
:100CE00071E082E493E00E94AB1511DF61EE71E0E8
:100CF000CE0101960E94A31A45E0BE016F5F7F4FAF
:100D000088E894E00E940F17182FCE0101960E94E8
:100D1000471A11112AC0A89560ED77E080E090E0B5
:100D20000E943E12A8956EED71E082E493E00E946D
:100D3000AB15A895ECDEA8956BED71E0CE010196A0
:100D40000E94A31A42E0BE016F5F7F4F88E894E0E3
:100D50000E940F17182FCE0101960E94471A1111F9
:100D600004C0A89580E0AADF01C0A89526960FB61A
:100D7000F894DEBF0FBECDBFDF91CF911F910895D4
:100D80004F925F926F927F928F929F92AF92BF929B
:100D9000CF92DF92EF92FF920F931F93CF93DF9347
:100DA000CDB7DEB762970FB6F894DEBF0FBECDBFEA
:100DB0000E9476126B017C0181E08093860290E1B3
:100DC000909381001092800020E533EC30938700EF
:100DD0002093860093E19093810026E933E03093DD
:100DE00075062093740680936F00FFDE882309F454
:100DF000A2C062EB72E082E493E00E94AB15CE01E8
:100E00000D960E949517CE0107960E946F156DEA08
:100E100072E0CE0101960E94A31A44E0BE016F5F0A
:100E20007F4FCE010D960E940F17182FCE0101960D
:100E30000E94471A1123A9F1809142029091430226
:100E40000196909343028093420260914202709116
:100E50004302CE010D960E947610FC0180818C32F7
:100E600001F16091420270914302CE010D960E9401
:100E70007610FC011081BE01695F7F4FCE010196A3
:100E80000E94AB1A612FCE0101960E94F216BC019E
:100E9000CE0107960E94321ACE0101960E94471A8F
:100EA000CBCF64EA72E08FED93E00E948D15CE0106
:100EB00007960E94D416182F682F70E080E090E00B
:100EC0000E9466244B015C0120E030E0A9010E94F1
:100ED0006024882329F01B3018F440E060E00AC049
:100EE00085EF810F8A3010F440E003C0153120F007
:100EF00041E061E081E07CDC20E030E048EF51E45B
:100F0000C501B4010E94352620E030E048EC52E4EF
:100F10000E94C52442E00E94AD1062EA72E08FEDAB
:100F200093E00E94AB15CE0107960E94471ACE01AE
:100F30000D960E94471A6AEF72E082E493E00E94E5
:100F4000AB15E5DD882309F451C064EF72E0CE01F2
:100F500001960E94A31A45E0BE016F5F7F4F88E8AB
:100F600094E00E940F17182FCE0101960E94471A95
:100F70001123E1F160914202709143026D5F7F4F56
:100F8000709343026093420288E894E00E947610D6
:100F9000FC0160818FED93E00E945C188FED93E07F
:100FA0000E948A15609142027091430288E894E0A1
:100FB0000E947610FC0180818133B9F164EE72E009
:100FC0008FED93E00E94AB1566EC72E082E493E053
:100FD0000E94AB159CDD882349F069EB72E082E446
:100FE00093E00E94AB1593DD81111FC069E773E0A8
:100FF0008FED93E00E94AB15809185028F5F809307
:1010000085021092860267E073E08FED93E00E9404
:10101000AB1510926F008BE25EDD68E874E08FED37
:1010200093E00E947C1110E03DC110E1109381001B
:101030001092800084ED90E3909387008093860067
:1010400083E18093810086E993E090937506809315
:10105000740601E000936F0082E0809386026DE6E3
:1010600073E082E493E00E94AB1551DD882349F2DE
:1010700061E673E082E493E00E94AB1548DD8823CB
:1010800009F4BFCFA89560918702709188028FED17
:1010900093E00E947C11609187027091880282E443
:1010A00093E00E947C1133DD882309F4AACF61E527
:1010B00073E082E493E00E94AB1529DD882309F4F4
:1010C000A0CF80918402811115C0109381001092ED
:1010D000800080E593EC909387008093860082E106
:1010E0008093810081EA93E0909375068093740663
:1010F00000936F00809184028823B9F080E180938F
:1011000081001092800080E593EC9093870080939B
:10111000860083E18093810083EC93E090937506D1
:101120008093740681E080936F000E94761224E61B
:1011300030E040E050E00E949F2549015A0184E6DA
:10114000482E512C612C712C6BE473E0CE0101967A
:101150000E94A31A45E0BE016F5F7F4F88E894E0CC
:101160000E940F17182FCE0101960E94471A1111E5
:1011700027C0CE0101960E949517BE016F5F7F4F79
:1011800088E894E00E94F718CE0101960E94471A61
:101190000E947612A30192010E949F25DA01C901E3
:1011A00088199909AA09BB0987399105A105B105D3
:1011B00058F262E473E08FED93E00E94AB1521CF0B
:1011C00086E0809386026DE373E0CE0101960E9473
:1011D000A31A44E0BE016F5F7F4F88E894E00E944D
:1011E0000F17182FCE0101960E94471A112309F4F8
:1011F00008CF65E373E08FED93E00E94AB1569E2E1
:1012000073E082E493E00E94AB1581DC882309F44B
:10121000F8CE0E94761263E273E0CE0101960E943E
:10122000A31A45E0BE016F5F7F4F88E894E00E94FB
:101230000F17182FCE0101960E94471A112359F358
:101240006FE173E0CE0101960E94A31A43E0BE0154
:101250006F5F7F4F88E894E00E940F17182FCE0130
:1012600001960E94471A112309F4CBCE63E173E083
:101270008FED93E00E94AB1510926F0061E08BE25E
:101280000E9410120E9476126C197D098E099F0926
:101290004AE00E9456168FED93E00E948A1587E07F
:1012A00080938602812F62960FB6F894DEBF0FBE40
:1012B000CDBFDF91CF911F910F91FF90EF90DF9005
:1012C000CF90BF90AF909F908F907F906F905F90E6
:1012D0004F9008958F929F92AF92BF92CF92DF92DC
:1012E000EF92FF920F931F93CF93DF93CDB7DEB7AB
:1012F0002C970FB6F894DEBF0FBECDBF69E972E040
:1013000082E493E00E94AB1502DC811104C0C12C81
:10131000D12C7601E0C165E972E0CE0101960E9410
:10132000A31A43E0BE016F5F7F4F88E894E00E94FC
:101330000F17182FCE0101960E94471A112339F377
:10134000CE0107960E946F15809142029091430250
:101350000196909343028093420262E872E0CE01CC
:1013600007960E941D1A609142027091430288E81C
:1013700094E0BCD6FC0180816091420270914302EE
:101380008F3221F188E894E0B1D6FC011081BE01D2
:10139000695F7F4FCE0101960E94AB1A612FCE018B
:1013A00001960E94F216BC01CE0107960E94321AE5
:1013B000CE0101960E94471A809142029091430209
:1013C00001969093430280934202CDCF6F5F7F4F8F
:1013D0007093430260934202CE0107960E94D41696
:1013E000182F62E872E0CE0107960E941D1A6091E4
:1013F00042027091430288E894E078D6FC01808133
:101400008F3241F1609142027091430288E894E08A
:101410006DD6FC010081BE01695F7F4FCE01019650
:101420000E94AB1A602FCE0101960E94F216BC01F9
:10143000CE0107960E94321ACE0101960E94471AE9
:1014400080914202909143020196909343028093CF
:101450004202CDCFCE0107960E94D416082F80916C
:10146000420290914302019690934302809342027C
:1014700062E872E0CE0107960E941D1A6091420256
:101480007091430288E894E031D6FC0180818C326F
:1014900041F1609142027091430288E894E026D6BF
:1014A000FC01F080BE01695F7F4FCE0101960E9472
:1014B000AB1A6F2DCE0101960E94F216BC01CE012F
:1014C00007960E94321ACE0101960E94471A809117
:1014D000420290914302019690934302809342020C
:1014E000CDCFCE0107960E94D416882E809142025D
:1014F000909143020196909343028093420262E8E6
:1015000072E0CE0107960E941D1A6091420270910E
:10151000430288E894E0EAD5FC0180818A3341F1F6
:10152000609142027091430288E894E0DFD5FC01AB
:10153000F080BE01695F7F4FCE0101960E94AB1A19
:101540006F2DCE0101960E94F216BC01CE010796C6
:101550000E94321ACE0101960E94471A80914202DF
:101560009091430201969093430280934202CDCF23
:10157000CE0107960E94D416982E80914202909137
:1015800043020196909343028093420262E872E024
:10159000CE0107960E941D1A60914202709143028B
:1015A00088E894E0A3D5FC0180818A3341F1609101
:1015B00042027091430288E894E098D5FC01F080E3
:1015C000BE01695F7F4FCE0101960E94AB1A6F2D5D
:1015D000CE0101960E94F216BC01CE0107960E9430
:1015E000321ACE0101960E94471A809142029091D0
:1015F000430201969093430280934202CDCFCE01E5
:1016000007960E94D416E82FA12E012E000CBB08CD
:10161000D5015E9620E833E341EE51E00E94992522
:101620006B017C01A02FAA0FBB0BA05CBA4F0D90E1
:10163000BC91A02DA80DB11D87FCBA95C50180965F
:1016400097FD03969595879595958795A80FB91F52
:10165000119720E831E541E050E00E949925C60E3F
:10166000D71EE81EF91EA92D990CBB0B20E13EE008
:101670000E94ED26C60ED71EE81EF91EAE2FEE0FF5
:10168000BB0B2CE330E00E94ED26DC01CB018C0D7E
:101690009D1DAE1DBF1D137031F4033024F480581E
:1016A0009145A140B1098732F2E19F07F2EDAF0702
:1016B000FCE5BF0748F06C017D0128E5C21A2DE466
:1016C000D20AE108F10803C0C12CD12C7601CE0169
:1016D00007960E94471AC701B6012C960FB6F894D8
:1016E000DEBF0FBECDBFDF91CF911F910F91FF9055
:1016F000EF90DF90CF90BF90AF909F908F90089524
:101700008F929F92AF92BF92CF92DF92EF92FF9211
:101710001F93CF93DF9300D000D0CDB7DEB726E084
:1017200040E855E260E070E082E493E00E94BB157F
:1017300060E972E082E493E00E94AB15E8D9D6D666
:101740006B017C01C7DD6E377F45824D9C4508F0FB
:1017500076C0C701B60124E630E040E050E00E94C8
:101760009F2569017A0184E6882E912CA12CB12C49
:101770006BE872E0CE0101960E94A31A44E0BE011C
:101780006F5F7F4F88E894E00E940F17182FCE01FB
:1017900001960E94471A111128C0A895CE01019602
:1017A0000E949517BE016F5F7F4F88E894E00E940A
:1017B000F718CE0101960E94471AA89597D6A50161
:1017C00094010E949F25DA01C9018C199D09AE0977
:1017D000BF0987399105A105B10550F260E872E0B3
:1017E0008FED93E00E94AB151BC06CE772E08FEDAC
:1017F00093E00E94AB1567E772E0CE0101960E946C
:10180000A31A44E0BE016F5F7F4F88E894E00E9416
:101810000F17F82ECE0101960E94471AF1100FC043
:101820006DE672E082E493E00E94AB1570D968E641
:1018300072E082E493E00E94AB1569D917C061E6BB
:1018400072E08FED93E00E94AB1563E472E082E4F6
:1018500093E00E94AB155BD965E272E082E493E00D
:101860000E94AB1554D9C1D9811104C081E026DA98
:10187000A89546DF26960FB6F894DEBF0FBECDBF03
:10188000DF91CF911F91FF90EF90DF90CF90BF90AD
:10189000AF909F908F900895AF92BF92CF92DF92BA
:1018A000EF92FF920F931F93CF93DF93CDB7DEB7E5
:1018B000E8970FB6F894DEBF0FBECDBF182F8E3F4E
:1018C00009F002C180918E048F3F09F4A5C3809175
:1018D00000028F3F01F1EEE8F4E022E435E040E061
:1018E00080818F3F29F4A0E0B2E020E030E008C022
:1018F00018160CF44F5F33962E173F0789F7F3CF76
:101900008D918F3F51F4842F90E028173907E9F02B
:101910008FEF809300021FEF14C0082E000C990B6C
:10192000FC01EE0FFF1F8E0F9F1FFC01E257FB4FC4
:101930008081882369F32F5F3F4F2C33310501F7F6
:101940001CE3AEE8B4E080E00AC01FEF120F4FC006
:10195000911110C08F5F13968C3309F448C09C918D
:101960009F3FB1F7E12F012E000CFF0BE050FE4F1F
:1019700091833DC01F5F40910002242F042E000C74
:10198000330BF901EE0FFF1F2E0F3F1FF901E25736
:10199000FB4F2081291754F4E12F012E000CFF0B7F
:1019A000E050FE4F408380930002D4CF112391F288
:1019B000412F012E000C550BBA0161507E4FFB01E7
:1019C0000081202F002E000C330BF901EE0FFF1FBA
:1019D0002E0F3F1FF901E257FB4F2081FA01E05023
:1019E000FE4F291714F40083FB018083B3CF1F3F00
:1019F00009F412C3A0E0B2E080E081170CF063C0EC
:101A00002D91022E000C330BF901EE0FFF1F2E0F4C
:101A10003F1FF901E257FB4F90812C91022E000CE1
:101A2000330BF901EE0FFF1F2E0F3F1FF901E25795
:101A3000FB4F40818F5F941701F3292F990F330BD0
:101A4000241B310947FD339521303105B1F2612F57
:101A5000012E000C770BA82FB0E06A177B079CF1D2
:101A6000912FA050BE4F891760F5DC90492F50E0B0
:101A700040505E4FFA0100812D2D0D2C000C330BD0
:101A80007901EE0CFF1C2E0D3F1DF901E257FB4FB3
:101A90007F01202F002E000C330BF901EE0FFF1FEA
:101AA0002E0F3F1FF901E257FB4F5F01F701308115
:101AB000F501208132171CF4FA01D0820C93915069
:101AC000D2CF8F5FC8CF1F5FCE0187960E946F1560
:101AD000CE018D960E946F156AE570E0CE01879663
:101AE0000E9431196BEC73E0CE0187960E94D819E1
:101AF00062E874E0CE0187960E94B41969EC73E045
:101B0000CE0187960E9458196CE774E0CE01879643
:101B10000E94B41961EB73E0CE0187960E945819B8
:101B2000D9DB1CAA1BAA1EAA1DAA18AE1FAA2AE04E
:101B3000AE014F5F5F4F0E940C24BE016F5F7F4F6D
:101B4000CE01C3960E941D1ABE016D5C7F4FCE016F
:101B500087960E94B419CE01C3960E94471A6AEA7A
:101B600073E0CE0187960E94581964E070E0CE01C0
:101B70008D960E9431196091890270918A024AE023
:101B8000CE0101960E944C1ABE016F5F7F4FCE01BD
:101B90008D960E94F718CE0101960E94471A40E1E7
:101BA000BE01635D7F4FCE0101960E940A04BE0113
:101BB0006F5F7F4FCE0187960E94B419CE010196C8
:101BC0000E94471A63EA73E0CE0187960E94581973
:101BD0000E946904A1D380E090E0EFA1F8A52081E4
:101BE000222329F001963196F8A7EFA3F6CFE81B40
:101BF000F90BF8A7EFA38AA30E94C816AAA1AF5FAA
:101C0000AAA3B0E062EC71E06A1B7B0B7EA36DA31C
:101C100020E030E017FD26C08FEF810F8F3F19F4D1
:101C20003CA32BA342C0E82F082E000CFF0BE05072
:101C3000FE4F4081042E000C550BFA01EE0FFF1FE2
:101C40004E0F5F1FFA01E257FB4F9081F4E09F02B5
:101C5000200D311D1124265F3F4F182F6217730787
:101C6000C8F604C03CA32BA31F3FF9F4E12F012EBB
:101C7000000CFF0BE050FE4F4081042E000C550B72
:101C8000FA01EE0FFF1F4E0F5F1FFA01E257FB4FE5
:101C9000408186EF9FEF54E045028019910911249D
:101CA000280F391F3CA32BA31F5F8BA19CA101967A
:101CB00061E070E08A0F9B1F0E94F32690938802D8
:101CC00080938702009709F49BC1BE01695D7F4F35
:101CD0000E94B4190E9469041FD3812F012E000CA9
:101CE000990B9EA38DA30FEF8BA19CA1892B09F4C7
:101CF00042C10E94690410D3812F012E000C990B60
:101D0000FC01E050FE4F7F0180818F5F0E94B40490
:101D100060918E0270918F0240E1CE0101960E9487
:101D20004C1ABE016F5F7F4FCE018D960E94F7184F
:101D3000CE0101960E94471A40E1BE01635D7F4FCC
:101D4000CE0101960E940A04BE016F5F7F4F809111
:101D50008702909188020E94B419CE0101960E94D8
:101D6000471A40E160918C02CE0101960E94771AD9
:101D7000BE016F5F7F4FCE018D960E94F718CE0196
:101D800001960E94471A48E0BE01635D7F4FCE0175
:101D900001960E940A04BE016F5F7F4F8091870207
:101DA000909188020E94B419CE0101960E94471AB0
:101DB00040E160918D02CE0101960E94771ABE012A
:101DC0006F5F7F4FCE018D960E94F718CE0101966E
:101DD0000E94471A48E0BE01635D7F4FCE01019625
:101DE0000E940A04BE016F5F7F4F8091870290912D
:101DF00088020E94B419CE0101960E94471A809170
:101E000090021CAA1BAA1EAA1DAA18AE1FAA90E027
:101E100040E1BE016F5F7F4F880F991F0E9402242F
:101E2000BE016F5F7F4FCE01C3960E941D1ABE0197
:101E30006D5C7F4FCE018D960E94F718CE01C39640
:101E40000E94471A48E0BE01635D7F4FCE010196B4
:101E50000E940A04BE016F5F7F4F809187029091BC
:101E600088020E94B419CE0101960E94471A1AA254
:101E70002AA1F7018081E82F082E000CFF0B30E02B
:101E8000AF01440F551FE40FF51FE257FB4F408190
:101E9000042E000C550B2417350794F5220F331F21
:101EA0000180F281E02DE20FF31F6081718140E13A
:101EB000CE0101960E944C1ABE016F5F7F4FCE018A
:101EC0008D960E94F718CE0101960E94471A40E1B4
:101ED000BE01635D7F4FCE0101960E940A04BE01E0
:101EE0006F5F7F4F80918702909188020E94B419A2
:101EF000CE0101960E94471A8AA18F5F8AA3B8CFAC
:101F00008AA390E0FC01EE0FFF1F8E0F9F1FFC01C4
:101F1000E257FB4F20818BA19CA10A97F4E02F028E
:101F20008019910911249CA38BA36AE070E025D746
:101F30008FED93E0EFD50E946904EED1CAA0D12CB9
:101F4000C601880F991F8C0D9D1D9C0122573B4F88
:101F50006901F901818192810E946923F60112824F
:101F600011828FED93E0D6D50E946904D5D1F70197
:101F700000831F5FB9CE61EA73E080918702909180
:101F800088020E945819FDA00E946904C5D11AA2B6
:101F90000E94C006811104C08AA1882309F43EC0B2
:101FA0006AE873E08FED93E0D6D50E946904B4D15E
:101FB00000918702109188020115110531F0C801C6
:101FC0000E94471AC8010E94692310928802109249
:101FD00087020E946904A0D18F2D0F2C000C990B51
:101FE0009BD1109100021F3F69F461E873E08FED0F
:101FF00093E0B1D540E060E080E00E94F80303C0C8
:102000001FEF01C01F2DCE018D960E94471ACE01F1
:1020100087960E94471A0CC01FEF0AC068E973E058
:102020008FED93E098D581E08AA30E94C006B8CFD7
:10203000812FE8960FB6F894DEBF0FBECDBFDF91BB
:10204000CF911F910F91FF90EF90DF90CF90BF90B5
:10205000AF9008950E94ED271F920F920FB60F9236
:1020600011242F933F938F939F93AF93BF938091AE
:102070009D0290919E02A0919F02B091A00230918A
:102080009C0223E0230F2D3720F40196A11DB11DE2
:1020900005C026E8230F0296A11DB11D20939C02C6
:1020A00080939D0290939E02A0939F02B093A00202
:1020B0008091A1029091A202A091A302B091A402EA
:1020C0000196A11DB11D8093A1029093A202A0933D
:1020D000A302B093A402BF91AF919F918F913F91C2
:1020E0002F910F900FBE0F901F901895FC01248127
:1020F00035816217730720F480819181009729F45C
:102100001092910281E992E00895860F971F089539
:102110003FB7F8948091A1029091A202A091A302EE
:10212000B091A40226B5A89B05C02F3F19F00196D7
:10213000A11DB11D3FBFBA2FA92F982F8827820F4D
:10214000911DA11DB11DBC01CD0142E0660F771F9D
:10215000881F991F4A95D1F708958F929F92AF9249
:10216000BF92CF92DF92EF92FF920F931F93CF9384
:10217000DF936B017C01142F9B01AC010E94CD26E3
:10218000882319F064E772E027C046015701E894FC
:10219000B7F82FEF3FEF4FE75FE7C501B4010E94AB
:1021A000CD2681110DC02FEF3FEF4FE75FE7C5014F
:1021B000B4010E94602418161CF468E772E00CC099
:1021C0002FEF3FEF4FE75FE4C701B6010E94C9263A
:1021D00018168CF46CE772E08FED93E0DF91CF91ED
:1021E0001F910F91FF90EF90DF90CF90BF90AF9035
:1021F0009F908F9080C42FEF3FEF4FE75FECC701B8
:10220000B6010E94602487FDE5CF20E030E0A901FF
:10221000C701B6010E94602487FF0AC06DE28FEDFE
:1022200093E04AD7EC01F7FAF094F7F8F09402C083
:10223000C0E0D0E000E060E070E080E09FE31017D5
:1022400041F020E030E040E251E40E9435260F5F8B
:10225000F6CFA70196010E94D1256B017C010E9457
:102260009D264B015C014AE021D5C80FD91F1123DF
:10227000A9F1C501B4010E9464249B01AC01C7010E
:10228000B6010E94D0256B017C016EE28FED93E0D8
:1022900013D7C80FD91F20E030E040E251E4C70156
:1022A000B6010E94C5244B015C010E949D266B0172
:1022B0007C016AE070E0C60160D5C80FD91FB60185
:1022C00080E090E00E9464249B01AC01C501B40150
:1022D0000E94D0256B017C011150E9F6CE01DF91FF
:1022E000CF911F910F91FF90EF90DF90CF90BF9013
:1022F000AF909F908F9008950F931F93CF93DF938C
:10230000EC01BDD48C01CE0105D4800F911FDF916B
:10231000CF911F910F910895CF93DF93BC01990F37
:10232000880B990B97FF02C003D502C04AE0BED4C8
:10233000EC018FED93E0EED38C0F9D1FDF91CF91D9
:102340000895FC01A089B1898C91A689B78982FD85
:102350000FC09C91818D8F5F8F73228D821749F002
:10236000218DDF01A20FB11D5D969C93818F089591
:102370008C91089590E0FC013197E231F10508F06D
:102380004EC08827EE58FF4F8F4F0C94E526809162
:1023900080008F7703C0809180008F7D80938000C4
:1023A000089580918000877FF9CF84B58F7702C030
:1023B00084B58F7D84BD08958091B0008F7703C070
:1023C0008091B0008F7D8093B0000895809190003F
:1023D0008F7707C0809190008F7D03C0809190001F
:1023E000877F8093900008958091A0008F7707C029
:1023F0008091A0008F7D03C08091A000877F809393
:10240000A0000895809120018F7707C0809120015E
:102410008F7D03C080912001877F809320010895E4
:102420001F93CF93DF93282F30E0F901E254FA4F46
:102430008491F901E258F94FD491F901E85CF94F20
:10244000C491CC23B9F0162F811194DFEC2FF0E06A
:10245000EE0FFF1FEC5FF94FA591B4919FB7F89471
:10246000111104C08C91D095D82302C0EC91DE2BC1
:10247000DC939FBFDF91CF911F9108958F929F9220
:10248000AF92BF92CF92DF92EF92FF926B017C01ED
:102490003FDE4B015C01C114D104E104F104E9F019
:1024A00037DEDC01CB0188199909AA09BB09883EEE
:1024B0009340A105B10578F321E0C21AD108E108E3
:1024C000F10888EE880E83E0981EA11CB11CC1148F
:1024D000D104E104F10421F7DECFFF90EF90DF900B
:1024E000CF90BF90AF909F908F9008952FB7F894A2
:1024F00060919D0270919E0280919F029091A00236
:102500002FBF08957F928F929F92AF92BF92CF92EA
:10251000DF92EF92FF920F931F93CF93DF93CDB78C
:10252000DEB7DA950FB6F894DEBF0FBECDBFC82E6A
:1025300080915C058983CA8221E0C216A0F074E014
:102540007C1518F487E1C8120EC080915D0590914A
:102550005E059B838C8380915F05909160059D83D0
:102560008E8386E001C082E08E010F5F1F4F90E1F5
:102570009C1528F0AFE0CA1630F49BEF01C09AEE2C
:102580009C0D923078F42091E1059091E205F801DC
:10259000E80FF11D908391E0980FF801E90FF11D0C
:1025A0008E5F2083BFE0CB1641F1BC1558F0E5E00B
:1025B000CE16A1F0F6E0CF12B6C02091E5059091BD
:1025C000E60510C026E1C21609F48EC077E1C716F1
:1025D00009F459C090E1C912A6C055C02091E30585
:1025E0009091E405F801E80FF11D908391E0980FB8
:1025F000F801E90FF11D8E5F95C02091E305309140
:10260000E405F801E80FF11D308342E0480F91E046
:10261000980FF801E90FF11D2083B9016770772742
:10262000A3E036952795AA95E1F7672B19F091E07D
:10263000920F01C0922FB3E0B80FF801E40FF11D23
:1026400090838C5F60E070E0A0E04FEF480F9A133A
:1026500003C08B2F890F67C050E09B0135952795EC
:10266000400F511F220F331FF901EB51FA4FA0FD0C
:1026700002C0208101C02181FA012083AF5F6F5F1A
:102680007F4F8F5FE2CF2091E3053091E405F801A1
:10269000E80FF11D308391E0980FF801E90FF11D6B
:1026A000208392E0980FF801E90FF11D8D5F922FC2
:1026B000990F908390E03327E92FF0E0E217F307BA
:1026C00094F5EE0FFF1FEB51FA4F50814181F80155
:1026D000E80FF11D408341E0480FF801E40FF11DC0
:1026E0008E5F50839F5FE8CF9091E5052091E605CE
:1026F000F801E80FF11D208321E0280FF801E20F17
:10270000F11D90832091E7059091E80532E0380FA4
:10271000F801E30FF11D908393E0980FF801E90FA2
:10272000F11D8C5F20837801F8012FEF3FEFD02E51
:102730009E2F901B9817A0F49191292748E050E014
:10274000B9017695679520FF06C09B0191E0292786
:1027500090EA392701C09B014150510989F7E8CF20
:10276000F801E80FF11D2083B2E0BB2EB80E8F5F99
:10277000F801E80FF11D3083F801EB0DF11D108217
:1027800080915A0590915B05DC01ED91FC910284EA
:10279000F385E02D1995019699F7E0917006F09177
:1027A0007106309709F0199580915A0590915B0553
:1027B0002E2D2D192B1558F4F70161917F01DC01A5
:1027C000ED91FC910190F081E02D1995EDCFDC01A8
:1027D000ED91FC910680F781E02D1995E09172064C
:1027E000F0917306309709F0199580DE4B015C017A
:1027F000A8E0EA2EF12CD12C80915A0590915B052E
:10280000DC01ED91FC910084F185E02D1995892B77
:10281000A9F0772473947F0C80915A0590915B0501
:10282000DC01ED91FC910284F385E02D1995F8010E
:10283000EF0DF11D8083EA94F72C07C0E0916E063E
:10284000F0916F06309709F01995B5E0FB1227C09B
:10285000998180915C059813ABC0EA818E2F8F77A8
:1028600090E08C159D0509F0A5C0E7FF04C08B81A1
:10287000882379F181C08E2F90E0FC013197E731F8
:10288000F10568F48827EC57FF4F8F4F0C94E5262D
:10289000F3E0EF2E04C0EB8002C0E5E0EE2E26DE72
:1028A000DC01CB0188199909AA09BB09813D974030
:1028B000A105B10538F480E0EE2031F0882309F459
:1028C0009BCF5AC082EEF8CF811156C0F4E0FF15BD
:1028D000C8F58FEF9FEF60E0EF2DF0E09F012250F1
:1028E0003109462F50E0D80142175307BCF4A40F1A
:1028F000B51F4C91842748E050E0DC01B695A795C0
:1029000080FF06C0CD0171E0872770EA972701C0DC
:10291000CD014150510989F76F5FE3CFA20FB31F7B
:102920002C9130E0AC0155274217530709F0A4C0A1
:10293000892F9927EC0FFD1F208130E08217930724
:1029400009F09AC08A818530B8F58330B8F58130B6
:1029500090F05B81652F70E07595679520916D060D
:1029600040E0842F90E0861797070CF453C0209323
:102970006D0650FD6DC080E01092670610926906EA
:102980001092680610926C06D3950FB6F894DEBFCD
:102990000FBECDBFDF91CF911F910F91FF90EF90B0
:1029A000DF90CF90BF90AF909F908F907F900895D1
:1029B00080EEE2CF81EEE0CF8731E9F66B8170E007
:1029C0007595679520916D0640E0842F90E08617FD
:1029D00097071CF020936D06CECF4034C0F49C01C5
:1029E0002E5F3F4F220F331F880F991FFC01E65ABD
:1029F000FA4FDE01A20FB31F8C9190E0982F882729
:102A0000D801A20FB31F2C91822B90878783242F8C
:102A10004F5FDBCF4034C8F4880F991FFC01E65AA2
:102A2000FA4FA5E0B0E0AC0FBD1FA80FB91F2C9165
:102A300030E0322F2227A4E0B0E0AC0FBD1FA80F7A
:102A4000B91F8C91282B30872783242F4F5F89CF84
:102A5000403468F4880F991FFC01E65AFA4FDE01F2
:102A6000A80FB91F14968C9190E09087878381E01E
:102A7000840F80936D067FCF83EE7ECF0F931F93DD
:102A800035DD60934A0370934B0380934C0390931E
:102A90004D0382E493E0A5D297FF1EC027DD00918D
:102AA0004A0310914B0320914C0330914D03DC01FC
:102AB000CB01801B910BA20BB30B0091460310912D
:102AC0004703209148033091490380179107A207DB
:102AD000B307F8F28FEF9FEF1F910F910895FC015C
:102AE00011821082138212821582148240E050E01B
:102AF00062E872E083C46115710549F0FB01019041
:102B00000020E9F73197AF01461B570B2EC280E03A
:102B100090E0089560E872E0EECFEF92FF920F939D
:102B20001F93CF93DF938C017B01C0E0D0E0F701CE
:102B3000EC0FFD1F6491662331F0C801BDD2892BD3
:102B400011F02196F4CFCE01DF91CF911F910F911B
:102B5000FF90EF9008950F931F93CF93DF93EC01B5
:102B6000DCDF8C01CE01D6DF800F911FDF91CF918A
:102B70001F910F910895CF92DF92EF92FF921F93D2
:102B8000CF93DF93EC016A017B01122FE889F98969
:102B900082E080834115514E61057105B1F060E01E
:102BA00079E08DE390E0A70196010E949F25DA016C
:102BB000C9010197A109B109B695A7959795879580
:102BC0009C01211580E13807A8F0E889F989108275
:102BD00060E874E88EE190E0A70196010E949F25CD
:102BE000DA01C9010197A109B109B695A795979591
:102BF00087959C01EC85FD853083EE85FF852083DC
:102C0000188EEC89FD891083EA89FB8980818061B7
:102C10008083EA89FB89808188608083EA89FB89D7
:102C2000808180688083EA89FB8980818F7D8083B1
:102C3000DF91CF911F91FF90EF90DF90CF9008959B
:102C400090E0FC01E258F94F2491FC01E85CF94F57
:102C50008491882399F090E0880F991FFC01E25E2F
:102C6000F94FA591B491FC01EC5FF94F85919491D6
:102C70008FB7F894EC91E22BEC938FBF0895FB0192
:102C8000448155816081718170C1CF93DF93EC01E4
:102C9000FB01448155816081718139D3811102C06A
:102CA000CE0168D3CE01DF91CF9108958F929F928C
:102CB000AF92BF920F931F93CF93DF93CDB7DEB741
:102CC000A1970FB6F894DEBF0FBECDBF19A2423058
:102CD00008F44AE08E010F5D1F4F842E912CA12C29
:102CE000B12CA50194010E949F25E62FB901CA01CC
:102CF00001501109EA3014F4E05D01C0E95CD8012B
:102D0000EC93232B242B252B61F7B8018FED93E057
:102D1000F2DEA1960FB6F894DEBF0FBECDBFDF91F5
:102D2000CF911F910F91BF90AF909F908F9008957A
:102D3000CF92DF92EF92FF92CF93DF936B017C01F2
:102D40006DE28FED93E0B8D1EC0166277727CB01D8
:102D50006C197D098E099F094AE0A8DF8C0F9D1F21
:102D6000DF91CF91FF90EF90DF90CF900895682F83
:102D700070E080E090E04AE099CFAB01672B21F44E
:102D8000682F8FED93E098C1BC0180E090E08ECF7A
:102D9000CF93DF93ECDFEC018FED93E0BBDE8C0F84
:102DA0009D1FDF91CF910895DC0120E080E0ED913F
:102DB000FC9111973081332381F0222331F0982F39
:102DC000990F892F880F880F890F3053830F2F5F3A
:102DD00031961196FC93EE93EACFE21BF109ED9345
:102DE000FC9308950F931F93CF93DF931F921F922D
:102DF000CDB7DEB78C0169831A8241E050E0BE0195
:102E00006F5F7F4F84D2811102C0C801B3D2C80165
:102E10000F900F90DF91CF911F910F9108958F9296
:102E20009F92BF92CF92DF92EF92FF920F931F93E8
:102E3000CF93DF93EC01A8958C819D81892B09F4B8
:102E400067C0E881F9818081882309F461C0B42ECC
:102E50007B01C12CD12CE881F9818081882309F480
:102E60004CC0A89500E0802E912CB401C7013ED93A
:102E7000FC0180818823E1F0A895E881F981108127
:102E8000B401C70133D9FC018081181306C08881C1
:102E900099810196998388830F5FE881F981108178
:102EA000602F70E0C70122D9FC0180811817D9F288
:102EB00010E0B801C7011AD9FC01208188819981ED
:102EC000211113C04B2D50E0415051094C0D5D1D97
:102ED00050934302409342020C0D1D1D801B910B29
:102EE00099838883A89581E014C00196998388838B
:102EF0000F5F1F4FC00ED11EAECFEC19FD09F98335
:102F0000E8838FEF9FEF9093430280934202A8954E
:102F100080E0DF91CF911F910F91FF90EF90DF90B4
:102F2000CF90BF909F908F9008950F931F93CF9352
:102F3000DF931F921F92CDB7DEB78C01D0DD9EDDEF
:102F400097FD0AC089831A8241E050E0BE016F5F9D
:102F50007F4FC801DCD1F3CFC8010F900F90DF91F4
:102F6000CF911F910F9108950895CF92DF92EF9224
:102F7000FF920F931F93CF93DF936C017A018B0124
:102F8000C0E0D0E0CE15DF0581F0D8016D918D0154
:102F9000D601ED91FC910190F081E02DC6011995CB
:102FA000892B11F02196EECF7E01C701DF91CF91E1
:102FB0001F910F91FF90EF90DF90CF90089580E0E8
:102FC00090E00895FC01538D448D252F30E0842F2F
:102FD00090E0821B930B541710F0CF960895019741
:102FE0000895FC01918D828D981761F0828DDF012B
:102FF000A80FB11D5D968C91928D9F5F9F73928FEC
:1030000090E008958FEF9FEF0895FC01918D828DE0
:10301000981731F0828DE80FF11D858D90E00895AD
:103020008FEF9FEF0895FC01918D228D892F90E005
:10303000805C9F4F821B91098F739927089585EAC1
:1030400092E0F1DF21E0892B09F420E0822F08953E
:1030500082E493E0E8DF21E0892B09F420E0822F6D
:1030600008958FED93E0DFDF21E0892B09F420E064
:10307000822F0895FC01848DDF01A80FB11DA35A92
:10308000BF4F2C91848D90E001968F739927848F88
:10309000A689B7892C93A089B1898C9183708064AB
:1030A0008C93938D848D981306C00288F389E02D4C
:1030B00080818F7D80830895EF92FF920F931F93FD
:1030C000CF93DF93EC0181E0888F9B8D8C8D9813DB
:1030D00005C0E889F989808185FD25C0F62E0B8D14
:1030E00010E00F5F1F4F0F731127E02E8C8DE81239
:1030F0000BC00FB607FCFACFE889F989808185FFFC
:10310000F5CFCE01B7DFF2CF8B8DFE01E80FF11DB9
:10311000E35AFF4FF0829FB7F8940B8FEA89FB893F
:10312000808180620AC09FB7F894EE89FF8960832E
:10313000E889F98980818370806480839FBF81E002
:1031400090E0DF91CF911F910F91FF90EF90089544
:10315000CF93DF93EC01888D8823C1F0EA89FB8946
:10316000808185FD05C0A889B9898C9186FD0EC036
:103170000FB607FCF5CF808185FFF2CFA889B9890A
:103180008C9185FFEDCFCE0175DFE8CFDF91CF9138
:10319000089580E090E0892B19F063DF81111BC056
:1031A00080E090E0892B41F080E090E0892B21F0D5
:1031B0000E940000811112C080E090E0892B19F07C
:1031C00047DF81110EC080E090E0892B79F037DF76
:1031D00081110AC008950E940000E2CF0E94000001
:1031E000EBCF0E940000EFCF0C94000008950F93E6
:1031F0001F93CF93DF938C01EB01FC0180819181C0
:10320000009739F06881798161157105A1F40E94F8
:10321000692388819981F801918380838A819B81C8
:10322000938382838C819D81958384831982188204
:103230001B821A820FC0F801428153812C813D818B
:103240004217530720F30E9409288C819D81F801C1
:10325000958384831D821C82DF91CF911F910F91F2
:1032600008950F931F93CF93DF93EC018881998189
:10327000009729F02A813B812617370788F48B01B4
:103280006F5F7F4F0E940D27009761F099838883BD
:103290001B830A832C813D81232B11F4FC011082B6
:1032A00081E001C080E0DF91CF911F910F910895DF
:1032B000EF92FF920F931F93CF93DF9361157105E8
:1032C00011F480E01DC08B01EC01CB010E94F923B9
:1032D0000097A9F02C813D817C01E20EF31EB7011D
:1032E000CE01BFDF882369F3288139818C819D81DC
:1032F000B801820F931F0E94F223FD82EC8281E0CD
:10330000DF91CF911F910F91FF90EF900895EF9271
:10331000FF920F931F93CF93DF936115710511F403
:1033200080E01BC041155105B9F07B01EC018C8197
:103330009D818A01080F191FB801CE0192DF8823F1
:1033400079F3288139818C819D81B701820F931F88
:103350000E9409281D830C8381E0DF91CF911F918A
:103360000F91FF90EF900895FB014481558160819A
:103370007181CDCFCF93DF93EC0188819981009744
:1033800011F00E946923198218821D821C821B82FF
:103390001A82DF91CF910895CF93DF93EC0188DFFC
:1033A000811102C0CE01E6DFCE01DF91CF910895F9
:1033B000EF92FF920F931F93CF93DF93EC018B015A
:1033C0006115710549F0CB010E94F9237C01BC0114
:1033D000CE0147DF811103C0CE01CCDF07C0FD82E3
:1033E000EC82B801888199810E94F223CE01DF919D
:1033F000CF911F910F91FF90EF900895EF92FF9260
:103400000F931F93CF93DF93EC017B018A01BA01E5
:1034100028DF811103C0CE01ADDF07C01D830C83FF
:10342000B701888199810E940928CE01DF91CF914F
:103430001F910F91FF90EF900895CF93DF93EC01D0
:103440006115710551F0FB0101900020E9F73197FA
:10345000AF01461B570BD2DF01C08CDFCE01DF91DD
:10346000CF910895CF93DF93EC01FB018617970767
:1034700051F0608171816115710521F044815581A0
:10348000BDDF01C077DFCE01DF91CF910895FC0150
:10349000808191810C9469230F931F93CF93DF93C5
:1034A000CDB7DEB761970FB6F894DEBF0FBECDBFC4
:1034B0008C01CB01F80111821082138212821582D5
:1034C000148250E0BE016F5F7F4F0E942D24BE0129
:1034D0006F5F7F4FC801B1DF61960FB6F894DEBF12
:1034E0000FBECDBFDF91CF911F910F9108950F9324
:1034F0001F93CF93DF93CDB7DEB729970FB6F8941C
:10350000DEBF0FBECDBF8C01862FF8011182108265
:10351000138212821582148250E0BE016F5F7F4FCA
:1035200090E00E942D24BE016F5F7F4FC80185DFB0
:1035300029960FB6F894DEBF0FBECDBFDF91CF91B5
:103540001F910F910895FC01118210821382128243
:10355000158214822DCFFC011182108213821282F7
:10356000158214827FCF1F920F920FB60F921124F3
:103570000BB60F922F933F934F935F936F937F936D
:103580008F939F93AF93BF93EF93FF9385EA92E05E
:1035900071DDFF91EF91BF91AF919F918F917F91DD
:1035A0006F915F914F913F912F910F900BBE0F90B4
:1035B0000FBE0F901F9018951F920F920FB60F928B
:1035C00011240BB60F922F933F934F935F936F93FA
:1035D0007F938F939F93AF93BF93EF93FF9385EA6E
:1035E00092E00E94A111FF91EF91BF91AF919F9145
:1035F0008F917F916F915F914F913F912F910F909C
:103600000BBE0F900FBE0F901F9018951F920F9238
:103610000FB60F9211240BB60F922F933F934F9337
:103620005F936F937F938F939F93AF93BF93EF932A
:10363000FF9382E493E01EDDFF91EF91BF91AF9184
:103640009F918F917F916F915F914F913F912F91BA
:103650000F900BBE0F900FBE0F901F9018951F92EA
:103660000F920FB60F9211240BB60F922F933F9328
:103670004F935F936F937F938F939F93AF93BF937A
:10368000EF93FF9382E493E00E94A111FF91EF91E9
:10369000BF91AF919F918F917F916F915F914F916A
:1036A0003F912F910F900BBE0F900FBE0F901F9068
:1036B00018951F920F920FB60F9211240BB60F920E
:1036C0002F933F934F935F936F937F938F939F932A
:1036D000AF93BF93EF93FF938FED93E0CBDCFF911C
:1036E000EF91BF91AF919F918F917F916F915F917A
:1036F0004F913F912F910F900BBE0F900FBE0F90E7
:103700001F9018951F920F920FB60F9211240BB6AF
:103710000F922F933F934F935F936F937F938F936A
:103720009F93AF93BF93EF93FF938FED93E00E942E
:10373000A111FF91EF91BF91AF919F918F917F91D7
:103740006F915F914F913F912F910F900BBE0F9012
:103750000FBE0F901F9018951F920F920FB60F92E9
:1037600011240BB60F922F933F934F935F936F9358
:103770007F938F939F93AF93BF93EF93FF93E091CA
:103780007406F09175061995FF91EF91BF91AF9175
:103790009F918F917F916F915F914F913F912F9169
:1037A0000F900BBE0F900FBE0F901F901895CF92E9
:1037B000DF92EF92FF920F931F93CF93DF93EB0172
:1037C0007B0126E0E20EF11C8B016C01C61AD70AC0
:1037D000C601800F911F0E947925F80181938F0106
:1037E000EE15FF05A9F7CE01DF91CF911F910F9143
:1037F000FF90EF90DF90CF9008950C947925CF93B0
:10380000DF93CDB7DEB76E970FB6F894DEBF0FBE6D
:10381000CDBF789484B5826084BD84B5816084BD59
:1038200085B5826085BD85B5816085BD80916E005E
:10383000816080936E00109281008091810082608F
:1038400080938100809181008160809381008091CC
:1038500080008160809380008091B10084608093BB
:10386000B1008091B00081608093B00080919100A0
:10387000826080939100809191008160809391009B
:10388000809190008160809390008091A10082607F
:103890008093A1008091A10081608093A10080911C
:1038A000A00081608093A0008091210182608093BC
:1038B000210180912101816080932101809120016B
:1038C00081608093200180917A00846080937A00E7
:1038D00080917A00826080937A0080917A00816082
:1038E00080937A0080917A00806880937A001092A9
:1038F000C1000FB6F894A89580916000886180930C
:103900006000109260000FBE98E288E10FB6F89454
:10391000A895809360000FBE909360008CE290D9D0
:103920008DE28ED98EE28CD98AE28AD961E08AE270
:103930000E94101266E970E080E090E00E943E1262
:103940008BE27ED961E08BE20E94101262E370E0AC
:1039500080E090E00E943E1260E08AE20E94101235
:1039600066E970E080E090E00E943E128FE268D944
:1039700061E08FE20E94101262E370E080E090E06C
:103980000E943E1260E08BE20E94101266E970E035
:1039900080E090E00E943E1260E08FE20E941012F0
:1039A00066E970E080E090E00E943E1261E08AE209
:1039B0000E9410126FE070E080E090E00E943E12E2
:1039C00061E08FE20E9410126FE070E080E090E012
:1039D0000E943E1261E08BE20E9410126FE070E0E4
:1039E00080E090E00E943E1261E08CE20E941012A2
:1039F0006FE070E080E090E00E943E1261E08DE2B6
:103A00000E9410126FE070E080E090E00E943E1291
:103A100061E08EE20E94101260E971E080E090E0C7
:103A20000E943E1260E08AE20E94101260E08FE283
:103A30000E94101260E08BE20E94101260E08CE2A3
:103A40000E94101260E08DE20E94101260E08EE28F
:103A50000E94101226E040E05BE460E070E08FED31
:103A600093E089D80E9469040E948C116BED74E088
:103A70008FED93E070D860EB74E08FED93E06BD83E
:103A800064E070E08CE794E0ECDB63E170E082E8F6
:103A900094E0E7DB60E971E088E894E0E2DB8EE146
:103AA00092E0ABDE4AE0682FCE01019620DD8DE189
:103AB00092E0A3DE4AE0682FCE01079618DD8CE184
:103AC00092E09BDE4AE0682FCE010D9610DD8BE17F
:103AD00092E093DE4AE0682FCE01499608DDBE01F0
:103AE000675E7F4FCE01439636DD62EF73E0CE0115
:103AF000439652DCBE01635F7F4FC7D860EF73E02F
:103B00004BDCBE01695F7F4FC0D86EEE73E044DCD2
:103B1000BE016F5F7F4FB9D8BC0182E894E0A2DCA0
:103B2000CE014396B4DCCE014996B1DCCE010D96B0
:103B3000AEDCCE010796ABDCCE010196A8DC62E8D4
:103B400074E08FED93E09BD866EE73E08FED93E029
:103B500002D88FE192E00E9451044AE0BC01CE01FC
:103B600001969ADCBE016F5F7F4F8CE794E03FDBEC
:103B7000CE0101968CDC6CE774E08FED93E07FD88A
:103B800064EF73E08FED93E00E94AB1586E292E064
:103B90000E94510490938A02809389026AE070E047
:103BA000ECD86CEF73E08FED93E00E94AB1583E2ED
:103BB00092E00E9451046AE070E0DFD863E074E0B4
:103BC0008FED93E00E94AB1582E292E016DE8093C7
:103BD000410282508B3318F084E08093410260915F
:103BE000410225E0629FB0011124072E000C880BD2
:103BF000990B4AE05BD86AE074E08FED93E00E9495
:103C0000AB158AE292E0F9DD80933C02815082306C
:103C100018F081E080933C0280913C02A8D862E1D8
:103C200074E08FED93E00E94AB158BE292E0E5DD4E
:103C300080939202833010F010929202809192024F
:103C400096D86FE174E08FED93E00E948D1580911E
:103C50009202811103C06DE174E009C0813019F452
:103C600069E174E004C0823031F46BE174E08FEDFF
:103C700093E00E94AB158CE292E0BFDD813019F435
:103C800080E390E010C0823011F0853018F080E6BB
:103C900090E009C0833019F480EC90E004C08430D7
:103CA00031F480E891E09093400280933F0280914C
:103CB0003F02909140026AE070E024E6AC01249F4C
:103CC000C001259F900D112458D865E274E08FED56
:103CD00093E00E94AB158DE292E08FDD8093970216
:103CE0008150843118F083E080939702809197028D
:103CF0003ED861E374E08FED93E00E94AB15A89588
:103D000065E874E08FED93E00E94AB150E9481049A
:103D100088E592E090933E0280933D0210E080910E
:103D20003D0290913E028B3B53E0950708F06AC03C
:103D3000A895BE016F5F7F4F3ADD89818F3F09F4FF
:103D400061C0811102C01F5F53C060E874E08FED55
:103D500093E00E948D1589810AD86EE774E08FED9B
:103D600093E00E948D1569E774E08FED93E00E9467
:103D70008D158A810E94B71667E774E08FED93E096
:103D80000E948D1562E774E08FED93E00E948D151F
:103D90008B810E94B71660E774E08FED93E00E947C
:103DA0008D156DE674E08FED93E00E948D156AE04D
:103DB00070E08C819D810E94BD166BE674E08FEDF2
:103DC00093E00E948D1567E674E08FED93E00E940A
:103DD0008D158E810E94B71665E674E08FED93E035
:103DE0000E948D1563E674E08FED93E00E94AB15A1
:103DF00080913D0290913E02069690933E02809300
:103E00003D028DCF61E674E08FED93E00E948D1549
:103E100025E0C22ED12C68E574E08FED93E00E947E
:103E20008D1581E0C81AD108B1F78FED93E00E949B
:103E30008A15A89580913D0290913E029C012650E2
:103E4000310930933E0220933D02212F30E08E5500
:103E5000924066E070E0A5D76F5F7F4F2617370767
:103E600099F560E574E08FED93E00E94AB151123A6
:103E700059F167E474E08FED93E00E948D156AE0DC
:103E800070E080913D0290913E020E94BD166EE36B
:103E900074E08FED93E00E94AB15C0903D02D0908E
:103EA0003E02C60126D68F3F19F06FEFC60129D614
:103EB00080913D0290913E02069790933E0280933E
:103EC0003D021150A895D3CFA89562EA74E08FED1A
:103ED00093E00E948D1526E040E855E260E070E036
:103EE00082E493E00E94BB156FE974E082E493E002
:103EF0000E94AB15CE01019618D8BE016F5F7F4FAF
:103F00008FED93E00E947C11CE010196C0DA81E32F
:103F10000E9420168091920281110EC080913F0272
:103F20009091400224E6289FA001299F500D112462
:103F300060E070E026E01FC0813071F480913F02A4
:103F40009091400224E6289FA001299F500D112442
:103F500060E070E026E30FC0823089F480913F0278
:103F60009091400224E6289FA001299F500D112422
:103F700060E070E026E285EA92E00E94BB1584EFE3
:103F800093E0909371068093700680EF93E0909396
:103F90007306809372060E94800BA8950E94761289
:103FA00024E630E040E050E0CAD5209398023093F8
:103FB000990240939A0250939B020E94761264E900
:103FC00074E08FED93E00E94AB150E9469040E949B
:103FD0008C11A89584E6282E312C412C512C90EF81
:103FE000892E93E0992EEDEEF5E08491EDEAF6E06E
:103FF0001491E7E6F6E00491002309F4DCC1811195
:104000000E94BA11E02FF0E0EE0FFF1FEA51FB4FC4
:10401000A591B491EC911E2309F4CDC166EB75E036
:104020008FED93E00E94AB15A8950E947612109137
:104030004102A201910183D5809198029091990249
:10404000A0919A02B0919B02BA01A901481B590B99
:104050006A0B7B0BF2E31F9FC0011124092E000C99
:10406000AA0BBB0B84179507A607B707E8F60EE85F
:1040700014E0E12C60E08CE20E941012D0909702D4
:1040800060E08FE20E9410120E9469040E948C116D
:10409000772473947E0C872D0E94B404813001F143
:1040A000872D0E94B404882309F4A6C0872D0E949E
:1040B000B404823041F00D5F1F4FE72CBCE3AB2E00
:1040C0007A10D8CF60C18E2D90E0FC01EE0FFF1F5B
:1040D0008E0F9F1FFC01E257FB4F8FEF808353C170
:1040E000EE24EA94ED0CF80181819281F2D2D8019C
:1040F00012961C921E92119780918C0280935C05FF
:10410000E5EAF2E0F0935B05E0935A05109267064A
:104110001092690610926806F4EFAF2EF3E0BF2EFE
:10412000B0927106A0927006909273068092720609
:10413000A89580918D02833089F48091900290E05F
:1041400020918E0230918F0230935E0520935D05A1
:104150009093600580935F0583E012C0843099F4EA
:104160008091900220918E0230918F0230935E05F3
:1041700020935D0590E09093600580935F0584E057
:104180000E948212F82EFF20D1F18CE20E946B0572
:10419000E2E0BE2EFB1003C06CE975E025C073E0C1
:1041A000C72EFC1003C061E875E01EC064E0D62E87
:1041B000FD1003C06BE675E017C021EEF21203C0DC
:1041C00062E575E011C042EEF41203C062E475E0EE
:1041D0000BC050EEF51203C069E275E005C083EE36
:1041E000F81206C065E175E08FED93E00E94AB1513
:1041F000EE2011F0EA949CCFD8011C925CCF61E0D4
:104200008CE20E94101264E075E08FED93E00E9452
:104210008D1580918B020E94C81680919002F80142
:10422000808362E070E090E0DED5D80112969C9326
:104230008E931197E12C80919002E81610F0E12CFA
:1042400083C0F801A181B2812E2D30E06901CC0C30
:10425000DD1CAD014C0D5D1DFFE3FE1538F0C60100
:10426000865A9A4FFC018781908502C08FEF9FEF9D
:10427000FA01918380835601F2E0AF0EB11CAA0DC2
:10428000BB1DE1E0EE0DE03440F4F0E0EE0FFF1F67
:10429000E65AFA4F8781908502C08FEF9FEF8D938A
:1042A0009C93A89580918E0290918F0201966AE06E
:1042B00070E0820F931F0E94BD1662E075E08FEDE3
:1042C00093E00E948D15D80111968D919C911297C3
:1042D000FC01EA0DFB1D4081518160E070E0BA01F4
:1042E00055274427FC01EC0DFD1D80819181A0E044
:1042F000B0E05A016B01A82AB92ACA2ADB2AC601F2
:10430000B501A0929302B0929402C0929502D0920D
:10431000960240E10E94561660E075E08FED93E052
:104320000E948D1560919302709194028091950284
:104330009091960242E00E94AD108FED93E00E94B2
:104340008A15E394E39477CF8E2D90E0D8012C91D9
:10435000022E000C330B8217930784F4880F991FE9
:104360001196ED91FC911297E80FF91F60E170E052
:10437000808191810E94BD16E394E6CF8FED93E09A
:104380000E948A1598CE0E947612A2019101D7D37D
:10439000209398023093990240939A0250939B0283
:1043A0000E9469040E948C118EEF0E944C0C8F3F7A
:1043B00009F419CEFACF61E08FE20E9410122ECEDE
:1043C0001092A8021092A70248EE53E060E070E05D
:1043D0004093A9025093AA026093AB027093AC027F
:1043E00086E692E09093A6028093A50225E331E051
:1043F0003093B2022093B10224E331E03093B4024F
:104400002093B30220E331E03093B6022093B5024B
:1044100021E331E03093B8022093B70222E331E088
:104420003093BA022093B90226E331E03093BC0204
:104430002093BB021092BE021092BF021092C002E3
:104440001092C10210924503109244034093460318
:104450005093470360934803709349039093430339
:104460008093420325ED30E030934F0320934E03B9
:1044700024ED30E0309351032093500320ED30E0E1
:10448000309353032093520321ED30E030935503D2
:104490002093540322ED30E03093570320935603CA
:1044A00026ED30E0309359032093580310925B03BC
:1044B00010925C0310925D0310925E031092E2036F
:1044C0001092E1034093E3035093E4036093E50308
:1044D0007093E6039093E0038093DF0385EC90E014
:1044E0009093EC038093EB0384EC90E09093EE03C5
:1044F0008093ED0380EC90E09093F0038093EF03C2
:1045000081EC90E09093F2038093F10382EC90E0D1
:104510009093F4038093F30386EC90E09093F6037A
:104520008093F5031092F8031092F9031092FA03A6
:104530001092FB0310926F0610926E061092710695
:1045400010927006109273061092720688E1EAE4E7
:10455000F2E0A2E4B5E001900D928A95E1F7EEE871
:10456000F4E082E495E02FEF208333968E179F07C7
:10457000D9F788E894E00E946F1582E894E00E94E1
:104580006F158CE794E00C946F158CE794E00E9413
:10459000471A82E894E00E94471A88E894E00C9455
:1045A000471A0F931F93CF93DF938230910510F436
:1045B00082E090E0E0917806F091790620E030E02A
:1045C000A0E0B0E0309719F1408151810281138160
:1045D00048175907C8F08417950769F4109731F008
:1045E00012960C93129713961C9327C0009378068B
:1045F0001093790622C02115310519F0421753078F
:1046000018F49A01BD01EF01DF01F801DBCF21159C
:104610003105F9F0281B390B2430310580F48A81EB
:104620009B816115710521F0FB019383828304C096
:104630009093790680937806FE01329644C0FE017D
:10464000E20FF31F8193919322503109398328831C
:104650003AC02091760630917706232B41F42091C1
:1046600046023091470230937706209376062091D8
:104670004402309145022115310541F42DB73EB772
:104680004091480250914902241B350BE091760677
:10469000F0917706E217F307A0F42E1B3F0B2817C3
:1046A000390778F0AC014E5F5F4F2417350748F0AB
:1046B0004E0F5F1F50937706409376068193919338
:1046C00002C0E0E0F0E0CF01DF91CF911F910F91A8
:1046D0000895CF93DF93009709F481C0FC013297CE
:1046E00013821282A0917806B0917906109781F416
:1046F00020813181820F931F2091760630917706B9
:104700002817390751F5F0937706E093760667C0CE
:10471000ED0120E030E0CE17DF0740F44A815B81F5
:104720009E0141155105F1F0EA01F5CFD383C28313
:1047300040815181840F951FC817D90759F488818A
:104740009981840F951F0296918380838A819B8132
:10475000938382832115310529F4F0937906E09340
:1047600078063DC0E901FB83EA8349915991C40F62
:10477000D51FEC17FD0761F480819181840F951F8F
:104780000296E90199838883828193819B838A833E
:10479000E0E0F0E012968D919C911397009719F04C
:1047A000FD01DC01F7CF8D919C9111979D012E5F4A
:1047B0003F4F820F931F209176063091770628177E
:1047C000390769F4309729F4109279061092780627
:1047D00002C013821282B0937706A0937606DF910F
:1047E000CF910895FB01DC0105900D920020E1F7C7
:1047F0000895FC0105900020E9F7809590958E0FB3
:104800009F1F0895BB274A3031F4992322F4BDE25B
:10481000909581959F4F2CC0BB27FA01A62F621758
:10482000710581059105330B30FB66F0AA27660FF1
:10483000771F881F991FAA1FA21710F0A21B63954C
:104840003850A9F7A05DAA3308F0A95DA19336F707
:10485000B111B1931082CA0123C04532510518F439
:10486000423008F004C0FB011082CB010895BB2741
:10487000FB015527AA27880F991FAA1FA41710F01C
:10488000A41B83955051B9F7A05DAA3308F0A95D28
:10489000A193009779F7B111B1931192CB0100C0A8
:1048A000DC01FC01672F71917723E1F7329704C097
:1048B0007C916D9370836291AE17BF07C8F3089522
:1048C00040D008F481E00895E89409C097FB3EF4D5
:1048D00090958095709561957F4F8F4F9F4F99234D
:1048E000A9F0F92F96E9BB279395F69587957795CB
:1048F0006795B795F111F8CFFAF4BB0F11F460FF8B
:104900001BC06F5F7F4F8F4F9F4F16C0882311F0E2
:1049100096E911C0772321F09EE8872F762F05C0F6
:10492000662371F096E8862F70E060E02AF09A9591
:10493000660F771F881FDAF7880F9695879597F986
:104940000895990F0008550FAA0BE0E8FEEF161620
:104950001706E807F907C0F012161306E407F50773
:1049600098F0621B730B840B950B39F40A2661F0E7
:10497000232B242B252B21F408950A2609F4A1408A
:10498000A6958FEF811D811D08950BD078C069D049
:1049900028F06ED018F0952309F05AC05FC011249A
:1049A000A2C07ED0A0F3959FD1F3950F50E0551F84
:1049B000629FF001729FBB27F00DB11D639FAA2774
:1049C000F00DB11DAA1F649F6627B00DA11D661FC3
:1049D000829F2227B00DA11D621F739FB00DA11DE4
:1049E000621F839FA00D611D221F749F3327A00D9E
:1049F000611D231F849F600D211D822F762F6A2F3A
:104A000011249F5750408AF0E1F088234AF0EE0FBE
:104A1000FF1FBB1F661F771F881F91505040A9F7CB
:104A20009E3F510570F014C05EC05F3FECF3983EAE
:104A3000DCF3869577956795B795F795E7959F5F32
:104A4000C1F7FE2B880F911D9695879597F90895CC
:104A500097F99F6780E870E060E008959FEF80EC31
:104A6000089500240A9416161706180609060895D4
:104A700000240A9412161306140605060895092E3A
:104A80000394000C11F4882352F0BB0F40F4BF2BA9
:104A900011F460FF04C06F5F7F4F8F4F9F4F0895E9
:104AA00057FD9058440F551F59F05F3F71F04795DF
:104AB000880F97FB991F61F09F3F79F087950895C4
:104AC000121613061406551FF2CF4695F1DF08C0E3
:104AD000161617061806991FF1CF86957105610500
:104AE00008940895E894BB2766277727CB0197F9A8
:104AF0000895F999FECF92BD81BDF89A992780B5A6
:104B00000895262FF999FECF1FBA92BD81BD20BD11
:104B10000FB6F894FA9AF99A0FBE0196089531D01B
:104B2000A59F900DB49F900DA49F800D911D112401
:104B30000895B7FFF4CFF3DF821B930B0895A1E232
:104B40001A2EAA1BBB1BFD010DC0AA1FBB1FEE1F07
:104B5000FF1FA217B307E407F50720F0A21BB30B52
:104B6000E40BF50B661F771F881F991F1A9469F7CE
:104B700060957095809590959B01AC01BD01CF012A
:104B80000895A29FB001B39FC001A39F700D811D26
:104B90001124911DB29F700D811D1124911D089546
:104BA0005058BB27AA270ED06ACF5BDF30F060DFFA
:104BB00020F031F49F3F11F41EF450CF0EF4E09535
:104BC000E7FB46CFE92F6CDF80F3BA176207730764
:104BD0008407950718F071F49EF584CF0EF4E095E4
:104BE0000B2EBA2FA02D0B01B90190010C01CA01A7
:104BF000A0011124FF27591B99F0593F50F4503E52
:104C000068F11A16F040A22F232F342F4427585F43
:104C1000F3CF469537952795A795F0405395C9F75B
:104C20007EF41F16BA0B620B730B840BBAF0915013
:104C3000A1F0FF0FBB1F661F771F881FC2F70EC0B2
:104C4000BA0F621F731F841F48F487957795679585
:104C5000B795F7959E3F08F0B3CF9395880F08F06E
:104C60009927EE0F9795879508950CD008CF00DF10
:104C700040F0F7DE30F021F45F3F19F0E9CE51113A
:104C800032CFECCE0DDF98F39923C9F35523B1F35E
:104C9000951B550BBB27AA2762177307840738F0AB
:104CA0009F5F5F4F220F331F441FAA1FA9F333D00A
:104CB0000E2E3AF0E0E830D091505040E695001CBE
:104CC000CAF729D0FE2F27D0660F771F881FBB1F7A
:104CD000261737074807AB07B0E809F0BB0B802D54
:104CE000BF01FF2793585F4F2AF09E3F510568F0A0
:104CF000AFCEF9CE5F3FECF3983EDCF38695779527
:104D00006795B795F7959F5FC9F7880F911D9695A1
:104D1000879597F90895E1E0660F771F881FBB1FFD
:104D2000621773078407BA0720F0621B730B840BAA
:104D3000BA0BEE1F88F7E0950895BADE88F09F570A
:104D400090F0B92F9927B751A0F0D1F0660F771FD7
:104D5000881F991F1AF0BA95C9F712C0B13081F0B7
:104D6000C1DEB1E00895BECE672F782F8827B85FE7
:104D700039F0B93FCCF3869577956795B395D9F718
:104D80003EF490958095709561957F4F8F4F9F4F22
:104D90000895D7DD08F48FEF0895D3DD880B990BC4
:104DA0000895AA1BBB1B51E107C0AA1FBB1FA61772
:104DB000B70710F0A61BB70B881F991F5A95A9F7C4
:104DC00080959095BC01CD010895EE0FFF1F881FBF
:104DD0008BBF0790F691E02D1994D3DEB7FF0895AD
:104DE000821B930B08950F931F93CF93DF93869F9E
:104DF0008001879F100D969F100D1124C801D1DBF3
:104E0000EC01009721F0A80160E070E0FBD0CE013A
:104E1000DF91CF911F910F9108956F927F928F92A2
:104E20009F92AF92BF92CF92DF92EF92FF920F9339
:104E30001F93CF93DF93009781F4CB01DF91CF9144
:104E40001F910F91FF90EF90DF90CF90BF90AF90A8
:104E50009F908F907F906F90A4CBFC01E60FF71F7F
:104E60009C0122503109E217F30708F4A5C0EC01B8
:104E7000D9010D911C91119706171707A8F005305D
:104E8000110508F497C0C80104978617970708F41E
:104E900091C002501109061B170B019311936D93DA
:104EA0007C93CF0116DC86C05B01A01AB10A4C01CD
:104EB000800E911EA0917806B0917906612C712C1C
:104EC000E12CF12C109709F446C08D919C9111971B
:104ED000A815B905B1F56C0142E0C40ED11CCA1485
:104EE000DB0478F14C018A189B08640142E0C40E8F
:104EF000D11C1296BC9012971396AC91B5E0CB16CC
:104F0000D10440F0B282A38391828082D9016D9353
:104F10007C9309C00E5F1F4F800F911FF901918391
:104F20008083EB2DFA2FE114F10431F0D7011396B1
:104F3000FC93EE9312973EC0F0937906E0937806C7
:104F400039C06816790608F43C017D0112960D906F
:104F5000BC91A02DB7CF80917606909177068816E8
:104F60009906E1F466167706C8F4809144029091A0
:104F70004502009741F48DB79EB740914802509189
:104F80004902841B950BE817F907B0F4F0937706F4
:104F9000E0937606F901718360830CC0CB0101DBDD
:104FA0007C01009749F0A801BE0123D0CE0191DB1E
:104FB000C70104C0CE0102C080E090E0DF91CF9134
:104FC0001F910F91FF90EF90DF90CF90BF90AF9027
:104FD0009F908F907F906F90089581E090E0F8947B
:104FE0001FC09111089581568A5108F48052855846
:104FF0000895FB01DC0102C001900D924150504028
:10500000D8F70895DC0101C06D9341505040E0F79E
:105010000895FB01DC0101900D920020E1F7089555
:1050200013E0C3E6D3E000E005C0802FFE01CDDE33
:105030002196011DC436D10780E00807B1F7F89426
:02504000FFCFA0
:10504200FFFFFFFFFFFFFFFFFFFFFFFFFFFFFFFF6E
:10505200FFFFFFFFFFFFFFFFFFFFFFFFFFFFFFFF5E
:10506200FFFFFFFFFFFFFFFFFFFFFFFFFFFFFFFF4E
:10507200FFFFFFFFFFFFFFFFFFFFFFFF015802607F
:105082000006FFFF00007A06800000001F003B00C0
:105092005A0078009700B500D400F30011013001E6
:1050A2004E01000000005C18B517E217A81813188B
:1050B200F11705186E616E00696E66006F76660004
:0450C2000D0A0000D3
:020000023000CC
:10E000000D9489F10D94B2F10D94B2F10D94B2F129
:10E010000D94B2F10D94B2F10D94B2F10D94B2F1F0
:10E020000D94B2F10D94B2F10D94B2F10D94B2F1E0
:10E030000D94B2F10D94B2F10D94B2F10D94B2F1D0
:10E040000D94B2F10D94B2F10D94B2F10D94B2F1C0
:10E050000D94B2F10D94B2F10D94B2F10D94B2F1B0
:10E060000D94B2F10D94B2F10D94B2F10D94B2F1A0
:10E070000D94B2F10D94B2F10D94B2F10D94B2F190
:10E080000D94B2F10D94B2F10D94B2F10D94B2F180
:10E090000D94B2F10D94B2F10D94B2F10D94B2F170
:10E0A0000D94B2F10D94B2F10D94B2F10D94B2F160
:10E0B0000D94B2F10D94B2F10D94B2F10D94B2F150
:10E0C0000D94B2F10D94B2F10D94B2F10D94B2F140
:10E0D0000D94B2F10D94B2F10D94B2F10D94B2F130
:10E0E0000D94B2F141546D656761323536300041AF
:10E0F000726475696E6F206578706C6F72657220DE
:10E1000073746B3530305632206279204D4C530099
:10E11000426F6F746C6F616465723E004875683F52
:10E1200000436F6D70696C6564206F6E203D200048
:10E130004350552054797065202020203D20005FF9
:10E140005F4156525F415243485F5F3D2000415658
:10E1500052204C696243205665723D20004743437C
:10E160002056657273696F6E203D20004350552024
:10E1700049442020202020203D20004C6F7720663D
:10E18000757365202020203D20004869676820665F
:10E190007573652020203D200045787420667573D6
:10E1A00065202020203D20004C6F636B2066757336
:10E1B000652020203D20004D617220203720323024
:10E1C000313300312E362E3800342E332E350056A2
:10E1D00023202020414444522020206F7020636F70
:10E1E00064652020202020696E73747275637469E1
:10E1F0006F6E2061646472202020496E74657272B3
:10E20000757074006E6F20766563746F7200726A49
:10E210006D702020006A6D70200057686174207056
:10E220006F72743A00506F7274206E6F7420737541
:10E2300070706F72746564004D7573742062652030
:10E2400061206C6574746572002000577269747483
:10E25000696E672045450052656164696E672045B7
:10E26000450045452065727220636E743D00504F35
:10E27000525400303D5A65726F2061646472003FF1
:10E280003D43505520737461747300403D454550C3
:10E29000524F4D207465737400423D426C696E6B41
:10E2A000204C454400453D44756D70204545505215
:10E2B0004F4D00463D44756D7020464C415348001B
:10E2C000483D48656C70004C3D4C69737420492F83
:10E2D0004F20506F72747300513D51756974005234
:10E2E0003D44756D702052414D00563D73686F7707
:10E2F00020696E7465727275707420566563746FF0
:10E30000727300593D506F727420626C696E6B00BD
:10E310002A0011241FBECFEFD1E2DEBFCDBF01E046
:10E320000CBF12E0A0E0B2E0EEE1FDEF03E00BBFB6
:10E3300002C007900D92A030B107D9F712E0A0E01B
:10E34000B2E001C01D92AE30B107E1F70F9460F367
:10E350000D948DFE01E20EBF0FEF0DBF11241FBE05
:10E360000D9460F30D9400F020E030E040ED57E0B4
:10E3700005C0FA013197F1F72F5F3F4F2817390792
:10E38000C0F308959C01260F311DC901A0E0B0E043
:10E390002F5F3F4FABBFFC018791882361F08093D3
:10E3A000C6008091C00086FFFCCF8091C0008064D1
:10E3B0008093C000EACF08958DE08093C6008091DD
:10E3C000C00086FFFCCF8091C00080648093C000B5
:10E3D0008AE08093C6008091C00086FFFCCF8091C8
:10E3E000C00080648093C00008950F94C2F10F9420
:10E3F000DCF10895FC019081992359F09093C600B7
:10E400008091C00086FFFCCF8091C0008064809323
:10E41000C0003196992379F70895282F982F929567
:10E420009F70892F805D8A3308F0895F8093C600D2
:10E430008091C00086FFFCCF8091C00080648093F3
:10E44000C000822F8F70982F905D9A3308F0995FEB
:10E450009093C6008091C00086FFFCCF8091C000E1
:10E4600080648093C00008959C01FB01853691056E
:10E470001CF46330710594F0C90164E670E00F94F8
:10E480002EFE605D7F4F6093C6008091C00086FFC6
:10E49000FCCF8091C00080648093C0002B30310598
:10E4A00014F43297B4F0C90164E670E00F942EFEC4
:10E4B0006AE070E00F942EFE605D7F4F6093C600AF
:10E4C0008091C00086FFFCCF8091C0008064809363
:10E4D000C000C9016AE070E00F942EFEC0968093E0
:10E4E000C6008091C00086FFFCCF8091C000806490
:10E4F0008093C00008951F93182F8EE692EE60E07F
:10E500000F94C2F11093C6008091C00086FFFCCF2B
:10E510008091C00080648093C0000F94DCF11F9153
:10E5200008952F923F924F925F926F927F928F92B7
:10E530009F92AF92BF92CF92DF92EF92FF920F9392
:10E540001F93DF93CF93CDB7DEB762970FB6F894E2
:10E55000DEBF0FBECDBF382E622ECA01DB015C01CB
:10E560006D01772420E2222E2E010894411C511CBB
:10E570008BC081E0A81680E0B80681E0C80680E084
:10E58000D80628F0C601AA27BB270F940DF2BB2797
:10E59000AD2D9C2D8B2D0F940DF28A2D0F940DF225
:10E5A0002092C6008091C00086FFFCCF8091C00001
:10E5B00080648093C0009DE29093C6008091C0006B
:10E5C00086FFFCCF8091C00080648093C0002092C1
:10E5D000C6008091C00086FFFCCF8091C00080649F
:10E5E0008093C00019828601750188249924A1E0D6
:10E5F0003A1651F03A1620F0B2E03B1661F409C029
:10E600000BBFF701779007C0C7010F9477FE782EF4
:10E6100002C0F7017080872D0F940DF22092C60082
:10E620008091C00086FFFCCF8091C0008064809301
:10E63000C000872D8052F401EF70F0708F3520F408
:10E64000E40DF51D708204C0E40DF51D8EE280839B
:10E650000894E11CF11C011D111D0894811C911CE2
:10E6600090E18916910409F0C2CF80E190E0A0E02A
:10E67000B0E0A80EB91ECA1EDB1E198AC2010F9493
:10E68000FAF10F94DCF16A94662009F072CF629679
:10E690000FB6F894DEBF0FBECDBFCF91DF911F91B3
:10E6A0000F91FF90EF90DF90CF90BF90AF909F9031
:10E6B0008F907F906F905F904F903F902F90089534
:10E6C0002F923F924F925F926F927F928F929F9282
:10E6D000AF92BF92CF92DF92EF92FF920F931F9370
:10E6E000DF93CF93CDB7DEB7CD53D1400FB6F894BB
:10E6F000DEBF0FBECDBF01E20EBF0FEF0DBF94B75F
:10E70000F894A89514BE80916000886180936000A1
:10E7100010926000789493FF05C0E0910002F091A0
:10E7200001021995279A2F9A8091C00082608093E8
:10E73000C00080E18093C40088E18093C1000000A4
:10E74000EE24FF24870144E0A42EB12CCC24DD2448
:10E7500024C0C5010197F1F70894E11CF11C011DCB
:10E76000111D21E2E2162EE4F20620E0020720E06D
:10E77000120718F031E0C32ED12CC801B70127ECE5
:10E780003BE140E050E00F9441FE611571058105C9
:10E79000910519F485B1805885B98091C00087FD35
:10E7A00003C0C114D104A9F2A6014F5F5F4FC25E3E
:10E7B000DE4F59834883CE51D140C25EDE4F8881FF
:10E7C0009981CE51D140019711F00D9410FEC05D9A
:10E7D000DE4F19821882C053D14060E0C15DDE4F28
:10E7E0001882CF52D14088249924C35DDE4F19820C
:10E7F0001882CD52D140C05EDE4F188219821A8233
:10E800001B82C052D140CE5CDE4F188219821A8220
:10E810001B82C253D140EE24FF2487010BBFF701B6
:10E8200007911691C45CDE4F19830883CC53D14005
:10E830000D940BFEC25EDE4F28813981CE51D1404E
:10E840002130310509F52091C600C25EDE4F1982E4
:10E850001882CE51D14022C02F5F3F4F4F4F5F4FA4
:10E86000213082E138078AE7480780E0580780F0C6
:10E87000C45CDE4FE881F981CC53D140EF5FFF4F9C
:10E8800019F0EE27FF27099420E030E040E050E047
:10E890008091C00087FFE0CF2091C600C35DDE4FAE
:10E8A00048815981CD52D1404F5F5F4FC35DDE4FEC
:10E8B00059834883CD52D140213209F063C64A3092
:10E8C000510508F05FC60894811C911C53E0851621
:10E8D000910409F059C600E010E018C081E280936D
:10E8E000C6008091C00086FFFCCF8091C00080648C
:10E8F0008093C0002F5F3F4F2931310579F70F9486
:10E90000DCF10F5F1F4F0530110519F020E030E0FA
:10E91000E5CF10920A0210920B0210920C02109294
:10E920000D02109206021092070210920802109235
:10E930000902109202021092030210920402109235
:10E9400005028FEE90EE60E00F94F5F180E191EE1C
:10E9500060E00F94C2F18091C00087FFFCCF9091DE
:10E96000C600903608F09F759032B8F09093C600BC
:10E970008091C00086FFFCCF8091C00080648093AE
:10E98000C000A0E2A093C6008091C00086FFFCCF2B
:10E990008091C00080648093C000983409F4D7C18E
:10E9A0009934B8F4923409F459C1933458F490333B
:10E9B00019F1903308F4E3C59F33A1F1903409F0C5
:10E9C000DEC5BDC0953409F470C1963409F0D7C5D1
:10E9D00098C1923509F42BC2933538F49C3409F46C
:10E9E000F5C1913509F0CBC518C2963509F445C279
:10E9F000993509F0C4C567C483E792EE62E00F94CD
:10EA0000F5F110920602109207021092080210927D
