:100000000C941D010C9445010C9445010C940310B3
:100010000C9403100C9403100C9445010C944501AE
:100020000C9445010C9445010C9445010C94450138
:100030000C9445010C947B100C9445010C944501E3
:100040000C94B90F0C9445010C94870F0C94610F1C
:100050000C9445010C9445010C9445010C94450108
:100060000C9445010C944501466C7573680041661B
:10007000746572200000000000240027002A00415F
:10008000542B435351002C00200025004F4B0046B9
:1000900041494C004E2F7720004F4B003000305824
:1000A000003078004F4B004F4B0052656164696E21
:1000B000672E2E000044204F4B00414343455054CF
:1000C0003A00000D002B4349505153454E443A002D
:1000D00041542B4349505153454E443F0053454EE4
:1000E000443A00416C6572743A20412053454355AF
:1000F00052495459204252454143482048415320D7
:100100004245454E204445544543544544204259B8
:10011000204445564943452D310041542B434D471A
:10012000533D223935363035363635393922003EA1
:100130000041542B434D47463D31004F4B00494E43
:1001400043555253494F4E2044455445435445442A
:100150000053494D204E6F74205265616479004E02
:100160004F5420490047534D20446576696365200C
:100170005265616479000043616C6C205200534900
:100180004D20526561647900524541445900005246
:100190004541445900002B4350494E3A20004877CE
:1001A0002072657365740041542B435245473F00EC
:1001B00041542B4353504E3F004154004F4B0000DD
:1001C000000D002E2E0062757379004552524F5279
:1001D000002E2E0062757379004552524F52004531
:1001E00052524F52000000000800020100000304B8
:1001F00007000000000000000000000000230026AF
:1002000000290000000000250028002B0004040441
:1002100004040404040202020202020303030303AF
:10022000030102040810204080010204081020018C
:10023000020408102000A210081611241FBECFEFE0
:10024000D8E0DEBFCDBF11E0A0E0B1E0E4E7F1E32C
:1002500002C005900D92AE32B107D9F722E0AEE2AE
:10026000B1E001C01D92A834B207E1F711E0CCE182
:10027000D1E004C02197FE010E94DA17CB31D107EB
:10028000C9F70E9453110C94AD180C940000FC01A6
:10029000248135816217730720F480819181009752
:1002A00029F41092790189E791E00895860F971F4C
:1002B00008950895AF92BF92CF92DF92EF92FF928E
:1002C0000F931F93CF93DF936C017B018B01040F7E
:1002D000151FEB015E01AE18BF08C017D10759F01A
:1002E0006991D601ED91FC910190F081E02DC6015C
:1002F0000995892B79F7C501DF91CF911F910F9156
:10030000FF90EF90DF90CF90BF90AF900895FC01E9
:10031000538D448D252F30E0842F90E0821B930B6A
:10032000541710F0CF96089501970895FC01918D10
:10033000828D981761F0A28DAE0FBF2FB11D5D9613
:100340008C91928D9F5F9F73928F90E008958FEFB5
:100350009FEF0895FC01918D828D981731F0828D69
:10036000E80FF11D858D90E008958FEF9FEF0895C0
:10037000FC01918D228D892F90E0805C9F4F821B24
:1003800091098F739927089584E891E00E94B8013C
:1003900021E0892B09F420E0822F089580E090E08D
:1003A000892B29F00E94C40181110C94000008954A
:1003B000FC01A48DA80FB92FB11DA35ABF4F2C91DA
:1003C000848D90E001968F739927848FA689B789D1
:1003D0002C93A089B1898C91837080648C93938DC8
:1003E000848D981306C00288F389E02D80818F7D6B
:1003F00080830895EF92FF920F931F93CF93DF9323
:10040000EC0181E0888F9B8D8C8D98131AC0E88950
:10041000F989808185FF15C09FB7F894EE89FF891F
:100420006083E889F98980818370806480839FBFBD
:1004300081E090E0DF91CF911F910F91FF90EF90BD
:100440000895F62E0B8D10E00F5F1F4F0F731127CD
:10045000E02E8C8D8E110CC00FB607FCFACFE88908
:10046000F989808185FFF5CFCE010E94D801F1CFB7
:10047000EB8DEC0FFD2FF11DE35AFF4FF0829FB77C
:10048000F8940B8FEA89FB8980818062CFCF0F932C
:100490001F93CF93DF938C01D0E0C0E0F801EC0F05
:1004A000FD1F6491662341F084E891E00E94FA0107
:1004B000892B11F02196F2CFCE01DF91CF911F91C0
:1004C0000F910895CF93DF93EC01888D8823B9F0C5
:1004D000AA89BB89E889F9898C9185FD03C080814F
:1004E00086FD0DC00FB607FCF7CF8C9185FFF2CFCC
:1004F000808185FFEDCFCE010E94D801E9CFDF9149
:10050000CF910895833081F028F4813099F08230C2
:10051000A9F008958730A9F08830C9F08430B1F48B
:10052000809180008F7D03C0809180008F778093C1
:100530008000089584B58F7784BD089584B58F7D3C
:10054000FBCF8091B0008F778093B00008958091A9
:10055000B0008F7DF9CFCF93DF93E7EEF1E0849188
:10056000E3E2F2E0D491EFE0F2E0C491CC23A1F019
:1005700081110E948202EC2FF0E0EE0FFF1FE75086
:10058000FE4FA591B491EC91ED2381E090E009F448
:1005900080E0DF91CF91089580E090E0FACF1F9343
:1005A000CF93DF93282F30E0F901EB51FE4F849178
:1005B000F901EF5DFD4FD491F901E35FFD4FC49167
:1005C000CC23A9F0162F81110E948202EC2FF0E0BB
:1005D000EE0FFF1FED5FFD4FA591B4918FB7F8941B
:1005E000EC91111108C0D095DE23DC938FBFDF9111
:1005F000CF911F910895DE2BF8CFCF93DF9390E03A
:10060000FC01EF5DFD4F2491835F9D4FFC018491C0
:100610008823C9F090E0880F991FFC01EB58FF4F29
:10062000A591B491FC01ED5FFD4FC591D49161118D
:100630000DC09FB7F8948C91209582238C9388816C
:10064000282328839FBFDF91CF910895623051F412
:100650009FB7F8943C91822F809583238C93E881F7
:100660002E2BEFCF8FB7F894EC912E2B2C938FBFBE
:10067000EACF3FB7F8948091750190917601A091EF
:100680007701B091780126B5A89B05C02F3F19F0DE
:100690000196A11DB11D3FBFBA2FA92F982F882702
:1006A000BC01CD01620F711D811D911D43E0660FDC
:1006B000771F881F991F4A95D1F708958F929F92AF
:1006C000AF92BF92CF92DF92EF92FF924B015C010B
:1006D0000E9439036B017C010E9439036C197D096A
:1006E0008E099F09683E734081059105A8F321E0BA
:1006F000821A9108A108B10888EEC80E83E0D81EBE
:10070000E11CF11C81149104A104B10429F7FF90AC
:10071000EF90DF90CF90BF90AF909F908F90089513
:100720002FB7F894609171017091720180917301FB
:10073000909174012FBF08950F931F930E9490030F
:1007400060938C0170938D0180938E0190938F0143
:1007500084E891E00E94960197FF1DC00E949003DB
:1007600000918C0110918D0120918E0130918F01AB
:10077000601B710B820B930B009188011091890112
:1007800020918A0130918B016017710782079307CE
:10079000F8F28FEF9FEF1F910F910895DC0190E029
:1007A00080E0ED91FC9111972081222331F0019698
:1007B00031961196FC93EE93F4CFE81BF90BED9371
:1007C000FC930895DC018D919C91DC01ED91FC91ED
:1007D0000190F081E02D099420917C0130917D0100
:1007E0002817390771F490917A0180917B0198174D
:1007F00041F0E0917A01F0E0E05DFE4F808190E011
:1008000008958FEF9FEF08950895EF92FF920F9351
:100810001F93CF93DF93DC015C96ED90FC905D9786
:10082000E114F10479F481E090E013969C938E93A7
:10083000129790E080E0DF91CF911F910F91FF9090
:10084000EF9008955196ED91FC91529750968C91AE
:100850005097982F90950FB75E962C915E97122F18
:10086000127021FD6095F8942081112319F1282B35
:100870002083E7012197F1F728E0462F50E03081EF
:1008800060FF1AC0382B3083E7012197F1F7BA01D6
:1008900075956795215089F7112381F0808189230F
:1008A00080830FBF5C968D919C910197F1F781E059
:1008B00090E0C1CF2923DCCF3923E5CF9081892B6C
:1008C000EFCF20917C0130917D012817390771F419
:1008D00080917B0120917A0190E0805C9F4F821B88
:1008E000910960E470E00E94A417089590E080E010
:1008F000089520917C0130917D0128173907B9F4C2
:1009000090917A0180917B01981789F0E0917A01AA
:10091000F0E0E05DFE4F808120917A0130E02F5FB2
:100920003F4F2F73332720937A0190E008958FEF84
:100930009FEF089590E080E0089580912E019091BE
:100940002F018436910520F060E083E00E94CF0201
:100950000E94AB02019749F480912E0190912F01E2
:10096000019690932F0180932E010E94AB02892B58
:1009700041F461E083E00E94CF0210922F011092B7
:100980002E010895DC0114962D913C91159781E07C
:10099000232B31F0ED91FC9181E09081911180E069
:1009A00091E089270895DF92EF92FF920F931F93B2
:1009B000CF93DF93EC018B017A01D22E8C819D8144
:1009C000892B09F496C0E881F9818081882309F494
:1009D00090C0DB0114968D919C911597892B09F499
:1009E00088C0ED91FC918081882309F482C0CE01FA
:1009F0000E94C204882309F46FC0E114F10421F4B9
:100A0000C8010E94CE037C0190E080E0E881F9817A
:100A10002081222309F462C030E020E0D801ED916A
:100A2000FC9111974081442309F1E881F9815081BB
:100A300045130DC03196F983E8834D915C91119770
:100A40004F5F5F4F4D935C932F5F3F4FE7CF66271C
:100A50007727621B730BE60FF71FF983E883F80112
:100A600040815181460F571F51834083D801ED913A
:100A7000FC9111974081411127C0DA94E894F7F86E
:100A8000442755274E195F09DD2039F0E40FF51F83
:100A9000ED93FC93820F931FB9CF8E0D9F1D28817C
:100AA0003981281B390B39832883ED91FC911197EB
:100AB000E40FF51FED93FC93DF91CF911F910F9100
:100AC000FF90EF90DF900895288139812F5F3F4F8D
:100AD0003983288301969ACF90E080E0288139817C
:100AE000281B390B398328838F2D880F880B982F6B
:100AF000E3CF80E090E0E0CFEF92FF921F93CF939F
:100B0000DF93EC017B01142F8C819D81892B11F4E3
:100B10008FEF5BC0E881F98180818823C9F3CB0125
:100B20000E94C20430E020E08823C9F1212F50E068
:100B300040E0B701CE010E94D3049C0188819981D5
:100B4000820F931F998388832115310509F3E8816A
:100B5000F98180818D3229F43196F983E8832F5F02
:100B60003F4FE881F981808180538A3038F5319692
:100B7000F983E8832F5F3F4F4AE0E881F981908154
:100B800090539A30E0F4849F900D1124892F319670
:100B9000F983E8832F5F3F4FF0CF1150C1F2E88116
:100BA000F981808190ED980F9A30A8F0882309F19F
:100BB0002F5F3F4F3196F983E883F1CF8FEF488164
:100BC0005981421B530B59834883DF91CF911F9169
:100BD000FF90EF900895113001F3E881F981808151
:100BE00080538A30D0F62F5F3F4F3196F983E883E8
:100BF000F4CFE21BF30BF983E8838ACF41E00C9436
:100C00007C0550E021E00C94D304EF92FF920F9307
:100C10001F93CF93DF938C01EB01CB010E94C204A1
:100C2000882339F18C819D81892B19F1E881F98123
:100C300080818823F1F0F12CE12CE881F981608139
:100C4000D8018D919C91662381F0DC01ED91FC919E
:100C50000190F081E02D0995888199810196998311
:100C60008883BFEFEB1AFB0AE8CFEE19FF09F9837F
:100C7000E883F80180819181DC01ED91FC91019084
:100C8000F081E02D6DE00995F80180819181DC0112
:100C9000ED91FC910190F081E02D6AE0DF91CF9120
:100CA0001F910F91FF90EF900994FB01019000209C
:100CB000E9F73197AF01461B570BDC01ED91FC9131
:100CC0000280F381E02D0994CF93DF930E944702C5
:100CD000EC016AE271E084E891E00E9455068C0F15
:100CE0009D1FDF91CF910895CF92DF92EF92FF92F7
:100CF000CF93DF93EC0160FF04C088E690E00E9490
:100D000064060E9490036B017C010E9490036C19A1
:100D10007D098E099F09623071058105910560F496
:100D200088819981DC01ED91FC910084F185E02DB1
:100D30000995181619064CF70E9490036B017C0167
:100D400088819981DC01ED91FC910084F185E02D91
:100D500009951816190664F588819981DC01ED91D1
:100D6000FC910284F385E02D09950E9490036C1993
:100D70007D098E099F09623071058105910560F436
:100D800088819981DC01ED91FC910084F185E02D51
:100D90000995181619064CF788819981DC01ED91A7
:100DA000FC910084F185E02D09951816190644F28E
:100DB000DF91CF91FF90EF90DF90CF9008958F92C9
:100DC0009F92AF92BF920F931F93CF93DF93CDB7B4
:100DD000DEB7A1970FB6F894DEBF0FBECDBF19A244
:100DE000423008F44AE08E010F5D1F4F842E912C93
:100DF000B12CA12CA50194010E94B817E62FB901CE
:100E0000CA01EA3004F5E05DD801EE938D01232B91
:100E1000242B252B79F790E080E0109729F0BD0175
:100E200084E891E00E945506A1960FB6F894DEBFC3
:100E30000FBECDBFDF91CF911F910F91BF90AF90AB
:100E40009F908F900895E95CDFCFCF92DF92EF9271
:100E5000FF92CF93DF936B017C016DE284E891E018
:100E60000E94FA01EC0166277727CB016C197D09F6
:100E70008E099F094AE00E94DF068C0F9D1FDF91BB
:100E8000CF91FF90EF90DF90CF900895CF93DF93B5
:100E9000BC01990F880B990B97FF0EC00E94250784
:100EA000EC016AE271E084E891E00E9455068C0F43
:100EB0009D1FDF91CF9108954AE00E94DF06F0CF99
:100EC0000F931F93CF93DF93EC01FB014481558176
:100ED00060817181E881F9810280F381E02D0995BB
:100EE0008C016AE271E0CE010E945506800F911FCD
:100EF000DF91CF911F910F910895BC018091210244
:100F0000909122020C9460070F931F93CF93DF936D
:100F10008C01EB01FC01808191810097E1F06881F7
:100F2000798161157105A9F0428153812C813D8140
:100F30004217530770F00E94A6188C819D81F8011A
:100F4000958384831D821C82DF91CF911F910F9125
:100F500008950E94C01688819981F8019183808349
:100F60008A819B81938382838C819D8195838483F5
:100F7000198218821B821A82E5CFCF93DF93EC018E
:100F800088819981009711F00E94C01619821882F9
:100F90001D821C821B821A82DF91CF910895FC0171
:100FA000808191810C94C0160F931F93CF93DF9390
:100FB000EC0188819981009759F02A813B8126179D
:100FC000370730F081E0DF91CF911F910F910895A5
:100FD0008B016F5F7F4F0E94E017009759F0998354
:100FE00088831B830A832C813D81232B59F7FC01C5
:100FF0001082E8CF80E0E7CFCF93DF93EC01198236
:1010000018821B821A821D821C8270E060E00E949E
:10101000D407811105C0CE01DF91CF910C94BD079B
:101020001D821C826CE271E088819981DF91CF91F1
:101030000C94A618CF93DF93EC0170E060E00E945F
:10104000D407811105C0CE01DF91CF910C94BD076B
:101050001D821C826CE271E088819981DF91CF91C1
:101060000C94A618EF92FF920F931F93CF93DF93E8
:10107000FB01E080F180E114F10441F480E0DF91B4
:10108000CF911F910F91FF90EF90089504811581EA
:1010900001151105B1F0EC018C819D81080F191F1C
:1010A000B801CE010E94D407882341F328813981F9
:1010B0008C819D81B701820F931F0E94A6181D830A
:1010C0000C8381E0DCCFEF92FF920F931F93CF93BD
:1010D000DF9300D0CDB7DEB78C0169831A82FC01A3
:1010E000E480F580FFEFEF1AFF0AB7010E94D407F2
:1010F000882381F0F8012081318184819581BE01AE
:101100006F5F7F4F820F931F0E94A618F801F58230
:10111000E48281E00F900F90DF91CF911F910F91AA
:10112000FF90EF9008952F923F924F925F926F92AF
:101130007F928F929F92AF92BF92CF92DF92EF9267
:10114000FF920F93CF93DF93CDB7DEB728970FB6FB
:10115000F894DEBF0FBECDBF4C017A8369835C83F8
:101160004B832D830E9490032AE030E040E050E062
:101170000E94B81729013A016A015901C4010E946D
:10118000FC07A981BA818D919C91DC01ED91FC91C4
:101190000084F185E02D0995181619060CF08DC014
:1011A000BD81B150BF83F12CE12C8AE0482E512C37
:1011B000612C712C2B2E312CEB2F0E2E000CFF0BE3
:1011C000FE83ED830E949003A30192010E94B81751
:1011D0002A193B094C095D092330310541055105A8
:1011E00008F07DC0A981BA818D919C91DC01ED91BF
:1011F000FC910084F185E02D09951816190614F765
:10120000E981FA8180819181DC01ED91FC9100847A
:10121000F185E02D0995181619060CF092C0E981A8
:10122000FA8180819181DC01ED91FC910284F3854A
:10123000E02D0995682FC4010E946308E214F304AD
:1012400008F472C0BF81B887B12CA12C6701ED8171
:10125000FE81CE1ADF0AF885F7FD66C0B6016A0D79
:101260007B1DC4010E944701AB81BC81ED91FC91C3
:10127000DC019C91808198134BC0BFEFAB1ABB0A75
:101280002885211155C001FF0EC0802F81708D83EC
:1012900000FF04C08EE690E00E9447026D818981C4
:1012A0009A810E947406AB81BC818D919C911197AB
:1012B000821993098D939C9312C00E9490032AE097
:1012C00030E040E050E00E94B81724193509460983
:1012D00057092B3031054105510508F452CFC4019F
:1012E00028960FB6F894DEBF0FBECDBFDF91CF9129
:1012F0000F91FF90EF90DF90CF90BF90AF909F90B5
:101300008F907F906F905F904F903F902F900895B7
:10131000C101B8858B1B9109B7FD9395E81BF90BAB
:10132000AB81BC81ED93FC93EFEFEE1AFE0A68CF20
:101330003196AB81BC81ED93FC93B885B150B887F1
:101340008ACF0E949003A30192010E94B81759010D
:101350006A0138CF0F93CF93DF93EC01AB0102E02A
:1013600023E061E272E00E949308CE01DF91CF9109
:101370000F910895EF92FF920F931F93CF93DF93F6
:10138000EC018B01198218821B821A821D821C8239
:10139000CB010E9450177C01BC01CE010E94D407F2
:1013A000811109C0CE01DF91CF911F910F91FF9064
:1013B000EF900C94BD07FD82EC82B8018881998181
:1013C000DF91CF911F910F91FF90EF900C944917EF
:1013D0002F923F924F925F926F927F928F929F9245
:1013E000AF92BF92CF92DF92EF92FF920F931F9333
:1013F000CF93DF93CDB7DEB76C970FB6F894DEBF0F
:101400000FBECDBF6C014B011A013901102FC7016E
:10141000D90114962D913C911597232B29F0ED912C
:10142000FC91208121111DC0C6010E94FC07C6014C
:101430006C960FB6F894DEBF0FBECDBFDF91CF9193
:101440001F910F91FF90EF90DF90CF90BF90AF90E2
:101450009F908F907F906F905F904F903F902F90D4
:10146000089565E070E00E9490177C8B6B8BCE0135
:101470000D960E94FC070E94900325E030E040E0BA
:1014800050E00E94B817298F3A8F4B8F5C8FC301B1
:101490000E94CE032C01E02EF12C04FF04C060E07A
:1014A000C4010E947406C1010E94C204882321F075
:1014B000B101C4010E94050684E0F594E7948A9581
:1014C000E1F7BE2DB270BF8B488E0B2F242DA301E8
:1014D000B401FE0131967F01CF010E949308B7014C
:1014E000CE010D960E948407C7010E94CF075524A4
:1014F0001170A12EBE2C1F2DAB89BC89CD01B0E08F
:10150000A0E08B8B9C8BAD8BBE8B21E0A201B30145
:10151000CE010D960E94D304892B09F0AEC0A89588
:10152000AA20F1F06FED71E08B2D912F0E94BA0986
:1015300045E06B2D712FCE010D960E9401067C01B6
:101540008B2D912F0E94CF07EF2851F069ED71E0AC
:10155000C6010E94BA09CE010D960E94CF0767CF3F
:101560000E94900325E030E040E050E00E94B81770
:10157000898D9A8DAB8DBC8D281B390B4A0B5B0B6B
:101580008B899C89AD89BE8982179307A407B5070B
:1015900098F4D60111961C921E9213961C921E92DC
:1015A000129715961C921E921497BE01635F7F4F8F
:1015B000C6010E948407CFCFC1010E94C2048823C4
:1015C000D1F164ED71E08B2D912F0E94BA0944E0B6
:1015D0006B2D712FCE010D960E94010600E0892B24
:1015E00001F561ED71E0CE0107960E94BA0942E073
:1015F000BE01695F7F4FCE010D960E940106892BC7
:1016000059F421E050E040E0B101CE010D960E9476
:10161000D30401E0892B09F000E0CE0107960E9477
:10162000CF078B2D912F0E94CF07002311F1B1011D
:10163000C4010E9405060F89288DA301B4018B2DDA
:10164000912F0E94930821E050E040E06B2D712F14
:10165000CE010D960E94D304892B31F46B2D712F8E
:10166000CE010D960E9432088B2D912F0E94CF073C
:101670004CCFC1010E941A08DECFF6011182108200
:10168000138212821582148290CFEF92FF920F93F1
:101690001F93CF93DF93EC017801022F9A01AB01E6
:1016A00061E272E00E94E809CE01DF91CF911F91C3
:1016B0000F91FF90EF900895EF92FF920F93CF93C9
:1016C000DF93EC019A0188E8E82E83E1F82E01E12E
:1016D000AB0161E272E0CE010E94E809CE01DF9128
:1016E000CF910F91FF90EF9008952F923F924F92DC
:1016F0005F926F927F928F929F92AF92BF92CF92A2
:10170000DF92EF92FF920F931F93CF93DF93CDB7AA
:10171000DEB76D970FB6F894DEBF0FBECDBFDA010E
:101720001496ED91FC911597EF2B29F0ED91FC911A
:10173000308131111DC0122F110F110B812F6D96A9
:101740000FB6F894DEBF0FBECDBFDF91CF911F91D2
:101750000F91FF90EF90DF90CF90BF90AF909F9050
:101760008F907F906F905F904F903F902F90089553
:10177000F801122F3A011B014C01CF0165E070E026
:101780000E9490172B01CE010D960E94FC070E942B
:10179000900325E030E040E050E00E94B8172C8B29
:1017A0003D8B4E8B5F8BC3010E94CE035C01E12E0B
:1017B000F12C14FF04C060E0C4010E947406C10152
:1017C0000E94C204882321F0B101C4010E940506D1
:1017D00084E0F594E7948A95E1F7BE2DB270EB2E84
:1017E000AB8A0B2F2A2DA301B401CE0101966C0107
:1017F0000E949308B601CE010D960E948407C6018F
:101800000E94CF07D501BB27B98FA88FBC2CFD2C18
:10181000C201B0E0A0E08A8F9B8FAC8FBD8F21E02A
:10182000488D598DB301CE010D960E94D304892BAA
:1018300009F0A9C0A8956BEC71E08B2D9F2D0E943B
:10184000BA0945E06B2D7F2DCE010D960E94010651
:101850006C018B2D9F2D0E94CF07CD2831F0117088
:10186000CE010D960E94CF0769CF0E94900325E01C
:1018700030E040E050E00E94B8178C899D89AE8925
:10188000BF89281B390B4A0B5B0B8A8D9B8DAC8D56
:10189000BD8D82179307A407B50708F472C0C10174
:1018A0000E94C2048823D1F166EC71E0CE01079654
:1018B0000E94BA0944E0BE01695F7F4FCE010D96D8
:1018C0000E94010600E0892BF9F463EC71E08B2D96
:1018D0009F2D0E94BA0942E06B2D7F2DCE010D96FF
:1018E0000E940106892B59F421E050E040E0B1014B
:1018F000CE010D960E94D30401E0892B09F000E08F
:101900008B2D9F2D0E94CF07CE0107960E94CF07F7
:10191000002399F1B101C4010E9405060E2D2B8907
:10192000A301B4018B2D9F2D0E9493086B2D7F2D59
:10193000CE010D960E9484078B2D9F2D0E94CF070C
:101940002B89A301B4018B2D9F2D0E94930821E0C8
:1019500050E040E06B2D7F2DCE010D960E94D30408
:10196000892B31F46B2D7F2DCE010D960E9432080C
:101970008B2D9F2D0E94CF0752CFC1010E941A08C4
:10198000CDCF10E06DCF11E06BCF0F931F930E946E
:10199000750B1F910F910895BF92CF92DF92EF9236
:1019A000FF920F931F93CF93DF93CDB7DEB762976C
:1019B0000FB6F894DEBF0FBECDBF7C016B01B42E15
:1019C000DC0114968D919C911597892BA1F0ED91D6
:1019D000FC918081882379F010E0D701ED91FC9192
:1019E000119780818B3209F45BC0811154C0E11BD7
:1019F000F109ED93FC9304EF11E021E1AE01495FA1
:101A00005F4FB70181E292E00E94750B182FCE0163
:101A100007960E94CF07112309F481C061EC71E0A1
:101A2000CE0107960E94BA0960EC71E0CE010D96D6
:101A30000E94BA0904EF11E021E2AE01495F5F4F55
:101A4000BE01635F7F4FCE0101960E94450B4B2D77
:101A5000B601CE0101960E947C05182FCE01019699
:101A60000E94CF07CE010D960E94CF07CE010796A8
:101A70000E94CF07812F62960FB6F894DEBF0FBE8B
:101A8000CDBFDF91CF911F910F91FF90EF90DF902D
:101A9000CF90BF9008953196ED93FC931F5F9DCF3B
:101AA000CE0101960E94FC07D701ED91FC91608167
:101AB000CE0101960E946308F70180819181019611
:101AC000918380831F5F0190F081E02D60818FEB17
:101AD000860F8A3168F36AE3CE0101960E9463089B
:101AE00060E2CE0101960E946308D7018D919C911E
:101AF0001197811B91098D939C9318861F821A86DA
:101B000019861C861B86BE016F5F7F4FCE0107962C
:101B10000E948407CE0101960E94CF076CCF1FEF71
:101B2000A9CF0F931F93CF93DF9300D000D000D0A5
:101B3000CDB7DEB78C016FEB71E0CE0101960E944C
:101B4000BA0970E060E0CE0101960E94D40742E03D
:101B5000BE016F5F7F4FC8010E94CC0C182FCE01D1
:101B600001960E94CF07812F26960FB6F894DEBF0C
:101B70000FBECDBFDF91CF911F910F910895DF92DE
:101B8000EF92FF920F931F93CF93DF9300D000D07B
:101B900000D0CDB7DEB77C01D62E8A016CEB71E0A8
:101BA000CE0101960E94BA092D2DAE014F5F5F4F05
:101BB000B70181E292E00E94750B182FCE010196C9
:101BC0000E94CF07812F26960FB6F894DEBF0FBE76
:101BD000CDBFDF91CF911F910F91FF90EF90DF90DC
:101BE00008951F93CF93DF9300D000D000D0CDB7DE
:101BF000DEB769EB71E0CE0101960E94BA0944EFAD
:101C000051E061E3CE0101960E94BF0D182FCE0175
:101C100001960E94CF0781E0111101C080E0269655
:101C20000FB6F894DEBF0FBECDBFDF91CF911F91ED
:101C300008950F931F93CF93DF9300D000D000D06F
:101C4000CDB7DEB7182F0E94F10D882321F1133094
:101C500049F560EB71E0CE0101960E94BA094CEDA6
:101C600055E060EBCE0101960E94BF0D082FCE011A
:101C700001960E94CF0710160CF011E08FEF812320
:101C800026960FB6F894DEBF0FBECDBFDF91CF9181
:101C90001F910F910895133011F410E0EFCF10E071
:101CA0008EEFEDCF67EA71E0CE0101960E94BA098E
:101CB000CE0101960E94910D182FCE0101960E942F
:101CC000CF0710FD02C011E0EBCF15E0E9CF0F9375
:101CD0001F93CF93DF93CDB7DEB768970FB6F89415
:101CE000DEBF0FBECDBFA895CE0143960E94FC0774
:101CF0008EE991E00E94640661E082E10E94FD02AB
:101D000060E082E10E94CF0261E070E080E090E05C
:101D10000E945E0362E082E10E94FD026AE070E0E0
:101D200080E090E00E945E03A895A89566E971E0C6
:101D3000CE0101960E94BA0965E971E0CE010796CD
:101D40000E94BA0900E117E221E0AE014F5F5F4F48
:101D5000BE01695F7F4F81E292E00E94C50C182F9F
:101D6000CE0107960E94CF07CE0101960E94CF07B1
:101D7000111115C00E94F10D811102C00E94670E61
:101D8000CE0143960E94CF0768960FB6F894DEBF47
:101D90000FBECDBFDF91CF911F910F9108956FE8D6
:101DA00071E0CE0107960E94BA096EE871E0CE019B
:101DB0000D960E94BA0904E610E021E2AE01495FE7
:101DC0005F4FBE01635F7F4FCE0101960E94450BBE
:101DD000BE016F5F7F4FCE0143960E948407CE0104
:101DE00001960E94CF07CE010D960E94CF07CE012B
:101DF00007960E94CF0768E871E0CE0101960E9425
:101E0000BA0945E0BE016F5F7F4FCE0143960E9445
:101E100001068C01CE0101960E94CF07012B71F1C2
:101E20008EE791E00E94640667E771E0CE010196BB
:101E30000E94BA0966E771E0CE0107960E94BA09CE
:101E400000E117E221E2AE014F5F5F4FBE01695F23
:101E50007F4F81E292E00E94C50C182FCE010796B9
:101E60000E94CF07CE0101960E94CF07112309F4EB
:101E700085CF85E691E00E94640682CF6FE571E030
:101E8000CE0101960E94BA0945E0BE016F5F7F4F07
:101E9000CE0143960E9401068C01CE0101960E945C
:101EA000CF07012B09F46CCF81E591E00E94640615
:101EB00065CF83E00E94190E833011F00C94670EF9
:101EC00008951F920F920FB60F9211242F933F93F4
:101ED0004F935F936F937F938F939F93AF93BF9332
:101EE000EF93FF9384E891E00E94D801FF91EF9176
:101EF000BF91AF919F918F917F916F915F914F9122
:101F00003F912F910F900FBE0F901F9018951F9229
:101F10000F920FB60F9211242F938F939F93EF93ED
:101F2000FF93E0919401F09195018081E0919A01F5
:101F3000F0919B0182FD1BC0908180919D018F5F7C
:101F40008F7320919E01821741F0E0919D01F0E096
:101F5000EC57FE4F958F80939D01FF91EF919F91DC
:101F60008F912F910F900FBE0F901F901895808129
:101F7000F4CF1F920F920FB60F9211242F933F931D
:101F80008F939F93AF93BF93809171019091720152
:101F9000A0917301B09174013091700126E0230F7C
:101FA0002D3758F50296A11DB11D20937001809325
:101FB000710190937201A0937301B09374018091A9
:101FC000750190917601A0917701B0917801019609
:101FD000A11DB11D8093750190937601A0937701A7
:101FE000B0937801BF91AF919F918F913F912F91C5
:101FF0000F900FBE0F901F90189529E8230F03969E
:10200000A11DB11DD2CF1F920F920FB60F921124B6
:102010002F933F934F935F936F937F938F939F93F0
:10202000AF93BF93EF93FF93E0917C01F0917D011B
:10203000309749F0A685B7858585968D91FF14C0A8
:102040009C918923A1F4FF91EF91BF91AF919F9152
:102050008F917F916F915F914F913F912F910F9051
:102060000FBE0F901F9018959C91892361F7A3894B
:10207000B4899C918589809589238C9386899789D9
:102080000197F1F7608D718DA685B785558538E08C
:1020900020E0CB010197F1F7822F90E0959587958D
:1020A000282F4C91452309F02068315091F7868DF7
:1020B00081FD209580917B0190E001968F73992797
:1020C00030917A01381799F0A0917B01B0E0A05DC2
:1020D000BE4F2C9380937B01828D938D0197F1F7F6
:1020E000A389B4898C919589892B8C93ACCF868DEB
:1020F0008160868FF1CF1F920F920FB60F9211243D
:102100002F933F934F935F936F937F938F939F93FF
:10211000AF93BF93EF93FF93E0917E01F0917F0126
:102120000995FF91EF91BF91AF919F918F917F9111
:102130006F915F914F913F912F910F900FBE0F9034
:102140001F901895109287011092860188EE93E0F7
:10215000A0E0B0E08093880190938901A0938A0168
:10216000B0938B012AE031E0309385012093840104
:1021700025EC30E0309391012093900124EC30E085
:10218000309393012093920120EC30E0309395013D
:102190002093940121EC30E0309397012093960135
:1021A00022EC30E0309399012093980126EC30E046
:1021B00030939B0120939A0110929D0110929E01F1
:1021C00010929F011092A0011092280210922702F3
:1021D0008093290290932A02A0932B02B0932C02A1
:1021E0008CE191E0909326028093250210923C02AC
:1021F00010923B0210923E0210923D021092400259
:1022000010923F02109242021092410260914302EA
:102210006E7F6D7F609343026695617081E06827F1
:1022200081E10E94CF0261E081E10E94FD02E2E3D0
:10223000F2E0E491E0933502EEE1F2E0E491F0E0C7
:10224000EE0FFF1FED5FFD4F859194919093370244
:102250008093360260E080E10E94FD02809143029B
:1022600081FD04C061E080E10E94CF0280E18093A3
:102270003102E1E3F2E0E491E0933202EDE1F2E0D9
:10228000E491F0E0EE0FFF1FE750FE4F859194912F
:10229000909334028093330285E292E0909322027D
:1022A000809321020895CF93DF93CDB7DEB76E9769
:1022B0000FB6F894DEBF0FBECDBF789484B58260B0
:1022C00084BD84B5816084BD85B5826085BD85B5DA
:1022D000816085BD80916E00816080936E00109258
:1022E00081008091810082608093810080918100D3
:1022F0008160809381008091800081608093800064
:102300008091B10084608093B1008091B0008160C1
:102310008093B00080917A00846080937A008091ED
:102320007A00826080937A0080917A008E7F809319
:102330007A0080917A00806880937A001092C100C0
:1023400060E082E00E94FD0261E083E00E94FD0205
:1023500061E083E00E94CF0280E1809381001092CF
:10236000800080E593EC909387008093860082E163
:10237000809381008DE994E090937F0180937E01AA
:1023800081E080936F00E0919401F091950182E0EB
:102390008083E0919001F09191011082E09192018F
:1023A000F091930188E0808310929C01E091980164
:1023B000F091990186E08083E0919601F091970178
:1023C000808180618083E0919601F0919701808106
:1023D00088608083E0919601F09197018081806808
:1023E0008083E0919601F091970180818F7D8083B9
:1023F0001092400210923F0210923E0210923D0253
:1024000010923C0210923B0285E690E090934202CB
:102410008093410290913102963108F047C021E249
:1024200030E030933C0220933B0223E630E03093CF
:102430003E0220933D0222E430E03093400220939C
:102440003F022091680084E0983048F031E09E30EF
:1024500008F430E081E001C0880F3A95EAF7822B5A
:10246000809368002DE630E0983050F02BE630E0A5
:102470009E3030F02CE630E0963110F030E020E075
:102480003093390220933802292F30E0983008F039
:1024900024C181E001C0880F9A95EAF780933A023F
:1024A00080914102909142020197F1F780913F02A1
:1024B00090914002892B49F1E0917C01F0917D01DE
:1024C00022E0E532F20709F1309739F0A389B489A7
:1024D0009C918589809589238C93809143028E7F7E
:1024E0008093430210927B0110927A0185E292E080
:1024F00090937D0180937C01E0913802F091390244
:10250000808190913A02892B808388EC90E0A0E052
:10251000B0E08093880190938901A0938A01B093E1
:102520008B010E94590F84E990E00E94470284E0E9
:102530000E94190E8111DEC08FE890E00E946406AF
:1025400068E870E0CE0143960E94BA0966E870E040
:10255000CE0107960E94BA096FE770E0CE0101969E
:102560000E94BA0904EF11E021E3AE01495F5F4F19
:10257000BE016F5F7F4FCE010D960E94450BBE01DD
:102580006D5E7F4FCE010D960E94FE05182FCE0185
:102590000D960E94CF07CE0101960E94CF07CE0173
:1025A00007960E94CF07CE0143960E94CF071F3F98
:1025B00009F4A3C010320CF0A0C0A4E61A02C001B6
:1025C00011246FE170E00E94A417062E000C770B17
:1025D000880B990B97FF93C00E9425078AE890E02B
:1025E0000E9464060E9490032AE030E040E050E040
:1025F0000E94B8172093800130938101409382019B
:10260000509383012AE0422E512C612C712C30E032
:10261000C32E30E0D32E4DE9A42E44E0B42E0E9408
:10262000590F8091210290912202DC01ED91FC91E1
:102630000084F185E02D099518161906A4F58AEA9B
:1026400090E00E94640667EA70E0CE0101960E9465
:10265000BA09BE016F5F7F4FCE0107960E94AA099B
:10266000CE0101960E94CF0764EA70E0CE01019688
:102670000E94BA0940E0BE016F5F7F4FCE0107960E
:102680000E9401060E944607CE0101960E94CF07D4
:10269000BE01695F7F4F84E891E00E946007CE0130
:1026A00007960E94CF0784E891E00E94B8011816AF
:1026B00019060CF01EC1CE010D960E94FC07CE013A
:1026C00001960E94FC070E949C0397FD1CC0682F86
:1026D000CE0101960E946308F6CF9E3040F4285048
:1026E000310981E001C0880F2A95EAF7D7CE2E5034
:1026F0003109F7CF8CE890E021CF6FE766CF4AE051
:102700000E94DF066BCFBE016F5F7F4FCE010D963B
:102710000E948407CE0101960E94CF0761EA70E013
:10272000CE0101960E94BA0942E0BE016F5F7F4F61
:10273000CE010D960E94010611E0892BB1F46EE9DD
:1027400070E0CE0107960E94BA0942E0BE01695FBF
:102750007F4FCE010D960E94010611E0892B09F4EE
:1027600010E0CE0107960E94CF07CE0101960E948D
:10277000CF07112309F4F8C16CE970E0CE0101968E
:102780000E94BA0941E0BE016F5F7F4FCE010D96F6
:102790000E940106082FCE0101960E94CF0792E009
:1027A000E92EE00EF12CB701CE010D960E944701F3
:1027B000FC018081803338F5B701CE010D960E946F
:1027C0004701DC018C91813408F062C0B701CE0171
:1027D0000D960E944701DC018C91813608F46BC094
:1027E000B701CE010D960E944701DC018C9187361E
:1027F00008F061C0B701CE010D960E944701FC01AF
:102800008081875511C0B701CE010D960E94470106
:10281000FC0180818A3380F6B701CE010D960E94BB
:102820004701FC0180818053F82EF29480EFF8225A
:102830000D5F10E0B801CE010D960E944701DC014A
:102840008C918033D0F5B801CE010D960E944701DE
:10285000FC018081813408F074C1B801CE010D966D
:102860000E944701FC0180818136D0F1B801CE0180
:102870000D960E944701FC018081873688F5B801DA
:10288000CE010D960E944701DC018C91875527C02F
:10289000B701CE010D960E944701DC018C9187346F
:1028A00008F094CFB701CE010D960E944701FC01BC
:1028B00080818753B9CF80E0B7CFB801CE010D96A4
:1028C0000E944701DC018C918A3308F0BCCFB8012B
:1028D000CE010D960E944701DC018C918053F82AAD
:1028E0006F2D81E292E00E94E203CE010D960E94DC
:1028F000CF070E94AB02019709F06CC10E949003C0
:10290000A30192010E94B8178091800190918101EA
:10291000A0918201B0918301281B390B4A0B5B0BFC
:10292000283E33404105510520F310926F006BE3C0
:1029300071E0CE0101960E94BA0961E371E0CE0117
:1029400007960E94BA0904E610E021E3AE014F5F4A
:102950005F4FBE01695F7F4F81E292E00E94C50C2C
:10296000CE0107960E94CF07CE0101960E94CF07A5
:102970006FE271E0CE0101960E94BA096AE171E04E
:10298000CE0107960E94BA0908EC10E021E3AE01DF
:102990004F5F5F4FBE01695F7F4F81E292E00E940F
:1029A000C50C182FCE0107960E94CF07CE010196C5
:1029B0000E94CF07112309F4AAC063EE70E0CE0194
:1029C00001960E94BA09CE0101960E947D07CE01B0
:1029D00001960E94CF076AE181E292E00E94E20341
:1029E000CE0149960E94FC076DED70E0CE0107967E
:1029F0000E94BA0960ED70E0CE0101960E94BA090A
:102A000004EF11E021E0AE01495F5F4FBE016F5F4F
:102A10007F4FCE010D960E94450BBE01635F7F4F35
:102A2000CE0149960E948407CE010D960E94CF07E1
:102A3000CE0101960E94CF07CE0107960E94CF07D4
:102A400065EC70E0CE0101960E94BA094AE0BE0131
:102A50006F5F7F4FCE0149960E9401068C01CE0127
:102A600001960E94CF07012B09F44DC063EC70E082
:102A7000CE010D960E94BA0962EC70E0CE01079675
:102A80000E94BA0904EF11E021E0AE01435F5F4FFD
:102A9000BE01695F7F4FCE0143960E94450B64EBF8
:102AA00070E0CE0101960E94BA0941E0BE016F5F5D
:102AB0007F4FCE0143960E947C05182FCE010196D0
:102AC0000E94CF07CE0143960E94CF07CE01079602
:102AD0000E94CF07CE010D960E94CF07113009F05A
:102AE00071C06AEB70E0CE0101960E94BA0947E01E
:102AF000BE016F5F7F4FCE0149960E940106CE0155
:102B000001960E94CF07CE0149960E94CF07B0924E
:102B10007F01A0927E0181E080936F008EE391E0BF
:102B20000E9464060E949003A30192010E94B817BC
:102B3000209380013093810140938201509383015F
:102B4000D8CEB801CE010D960E944701FC018081CC
:102B5000873408F082CEB801CE010D960E9447015D
:102B6000DC018C918753BBCEBE01635F7F4F84E84D
:102B700091E00E94600769E970E0CE0107960E942B
:102B8000BA09AE01495F5F4FBE01635F7F4FCE015F
:102B900001960E945C0BBE016F5F7F4FCE010D96C8
:102BA0000E948407CE0101960E94CF07CE010796AE
:102BB0000E94CF07BE01635F7F4F84E891E00E94CF
:102BC000600793CE65EB70E0CE0101960E94BA09D2
:102BD00044E08ECF0E94AB02892B71F40E949003D7
:102BE000A30192010E94B8172093800130938101C4
:102BF0004093820150938301C114D10409F40FCD95
:102C00000E94C401882309F40ACD0E94000007CD68
:102C10008CE191E0909326028093250280917C01C3
:102C200090917D018552924071F4E0913802F091CB
:102C30003902908180913A02809589238083109295
:102C40007D0110927C0108950F931F93CF93DF9322
:102C50008230910510F482E090E0E0914602F0911C
:102C6000470230E020E0B0E0A0E0309799F4211571
:102C7000310509F44AC0281B390B24303105D8F539
:102C80008A819B816115710589F1FB0193838283A0
:102C9000FE0111C0408151810281138148175907FB
:102CA000E0F04817590799F4109761F012960C93C9
:102CB000129713961C933296CF01DF91CF911F91FB
:102CC0000F9108950093460210934702F4CF211507
:102CD000310551F04217530738F0A901DB019A0181
:102CE000BD01DF01F801C1CFEF01F9CF9093470299
:102CF00080934602CDCFFE01E20FF31F81939193A3
:102D00002250310939832883D7CF20914402309152
:102D10004502232B41F420910201309103013093AD
:102D200045022093440220910001309101012115B8
:102D3000310541F42DB73EB7409104015091050192
:102D4000241B350BE0914402F0914502E217F30792
:102D5000A0F42E1B3F0B2817390778F0AC014E5F0B
:102D60005F4F2417350748F04E0F5F1F5093450201
:102D700040934402819391939FCFF0E0E0E09CCF99
:102D8000CF93DF930097E9F0FC0132971382128210
:102D9000A0914602B0914702ED0130E020E010978B
:102DA000A1F420813181820F931F20914402309140
:102DB00045022817390709F061C0F0934502E093F6
:102DC0004402DF91CF910895EA01CE17DF07E8F5BD
:102DD0004A815B819E0141155105B1F7E901FB83F1
:102DE000EA8349915991C40FD51FEC17FD0761F48F
:102DF000808191810296840F951FE90199838883D0
:102E0000828193819B838A83F0E0E0E012968D912A
:102E10009C9113970097B9F52D913C911197CD0195
:102E20000296820F931F2091440230914502281789
:102E3000390739F6309751F5109247021092460241
:102E4000B0934502A0934402BCCFD383C283408198
:102E50005181840F951FC817D90761F44E5F5F4FEA
:102E600088819981480F591F518340838A819B81B2
:102E7000938382832115310509F0B0CFF093470287
:102E8000E09346029ECFFD01DC01C0CF1382128287
:102E9000D7CFFB01DC0105900D920020E1F70895EA
:102EA000FC0105900020E9F7809590958E0F9F1FFB
:102EB00008952F923F924F925F926F927F928F92DE
:102EC0009F92AF92BF92CF92DF92EF92FF920F93B9
:102ED0001F93CF93DF93CDB7DEB7CA1BDB0B0FB6C3
:102EE000F894DEBF0FBECDBF09942A883988488880
:102EF0005F846E847D848C849B84AA84B984C88416
:102F0000DF80EE80FD800C811B81AA81B981CE0F0C
:102F1000D11D0FB6F894DEBF0FBECDBFED010895F1
:102F2000AA1BBB1B51E107C0AA1FBB1FA617B707EF
:102F300010F0A61BB70B881F991F5A95A9F780950B
:102F40009095BC01CD01089597FB072E16F40094CF
:102F500007D077FD09D00E94901707FC05D03EF4FA
:102F6000909581959F4F0895709561957F4F089535
:102F7000A1E21A2EAA1BBB1BFD010DC0AA1FBB1F7D
:102F8000EE1FFF1FA217B307E407F50720F0A21BEF
:102F9000B30BE40BF50B661F771F881F991F1A945C
:102FA00069F760957095809590959B01AC01BD0186
:102FB000CF010895EE0FFF1F0590F491E02D0994C5
:102FC000B0E0A0E0E6EEF7E10C945B178C0100970F
:102FD00051F4CB010E9424168C01C801CDB7DEB795
:102FE000E0E10C947717FC01E60FF71F9C012250DB
:102FF0003109E217F30708F49DC0D901CD91DC91A6
:103000001197C617D70798F0C530D10530F3CE0118
:1030100004978617970708F3C61BD70B2297C1930F
:10302000D1936D937C93CF010E94C016D6CF5B01E4
:10303000AC1ABD0A4C018C0E9D1EA0914602B091A7
:103040004702512C412CF12CE12C109731F5809145
:103050004402909145028815990509F05CC0461616
:10306000570608F058C08091000190910101009727
:1030700041F48DB79EB74091040150910501841B26
:10308000950BE817F90708F055C0F0934502E09357
:103090004402F90171836083A0CF8D919C911197B7
:1030A00012966C90129713967C901397A815B905F9
:1030B00059F56C0142E0C40ED11CCA14DB0420F1A6
:1030C000AC014A195B09DA011296159780F0628209
:1030D000738251834083D9016D937C93E114F10491
:1030E00071F0D7011396FC93EE93129776CF229648
:1030F0008C0F9D1FF90191838083F301EFCFF09333
:103100004702E093460269CF4816590608F42C019D
:103110007D01D3019ACFCB010E9424167C01009738
:1031200049F0AE01B8010E949D18C8010E94C01666
:10313000870153CF10E000E050CFFB01DC0102C05B
:1031400001900D9241505040D8F70895FB01DC01E9
:1031500001900D920020E1F7089511E0CCE1D1E05B
:1031600004C0FE010E94DA172196CD31D107C9F7BC
:04317000F894FFCF01
:1031740000004802800000000000FA015A018701A3
:103184006202B8019601AA010000000005045A0178
:0E3194009A04040461047904EC030D0A00009F
:00000001FF
