:06097300494E4449410019
:0E094000E4FFFE0FBF00010EBE4EF8BF20F513
:01094E002286
:100919007F0112094F7F3812094F7F0612094F7F55
:040929000E02094F62
:0C094F008FA0C2B0C2B1120940D2B12288
:0C095B008FA0D2B0C2B1120940D2B1226C
:040880008F828E8352
:1008840085830A85820B7B017A00D3E5829409E58E
:1008940083940040207C007D0AAF82AE8312082B33
:1008A4008E838F827C007D0AAF03AE02120819AAE0
:1008B40006AB0780D5D3E50B9400E50A94004032DB
:1008C400AE0AAF0BAD03AC0212082BEF2430FF12BB
:1008D400095BAE0AAF0BAD03AC0212082B8C0A8D78
:1008E4000B7C007D0AAF03AE0212082BAA06AB07ED
:0208F40080C3BF
:0108F60022DF
:10092D00120800FF600C12095B740129F9E43AFA10
:03093D0080EE2227
:1008F700E4F5A01209197F8012094F7BFF7A097965
:100907007312092D7FC012094F7FD27E041208800F
:0209170080FE60
:030000000209678B
:0C096700787FE4F6D8FD75810B0208F7DC
:10080000BB010689828A83E0225002E722BBFE02F6
:09081000E32289828A83E4932229
:10081900EF8DF0A4A8F0CF8CF0A428CE8DF0A42EF3
:02082900FE22AD
:10082B00BC000BBE0029EF8DF084FFADF022E4CCB1
:10083B00F875F008EF2FFFEE33FEEC33FCEE9DEC7A
:10084B00984005FCEE9DFE0FD5F0E9E4CEFD22EDC0
:10085B00F8F5F0EE8420D21CFEADF075F008EF2F0A
:10086B00FFED33FD4007985006D5F0F222C398FDFB
:05087B000FD5F0EA2298
:00000001FF
