:100000000C947B000C94A3000C94A3000C941A068F
:100010000C941A060C941A060C94A3000C94DA01A2
:100020000C94A3000C94A3000C94A3000C94A300C4
:100030000C94A3000C94A3000C94A3000C94A300B4
:100040000C94D0050C94A3000C9466040C9440040A
:100050000C94A3000C94A3000C94A3000C94A30094
:100060000C94A3000C94A300084AD73B3BCE016E2E
:1000700084BCBFFDC12F3D6C74319ABD56833DDAFF
:100080003D00C77F11BED9E4BB4C3E916BAAAABE0E
:10009000000000803F0000000000240027002A002C
:1000A0000000000800020100000304070000000037
:1000B000000000000200000000250028002B0000C6
:1000C00000000023002600290004040404040404A2
:1000D00004020202020202030303030303010204F7
:1000E00008102040800102040810200102040810BA
:1000F0002000A00D960D11241FBECFEFD8E0DEBF6B
:10010000CDBF12E0A0E0B1E0ECE1FDE202C005905D
:100110000D92AE36B107D9F725E0AEE6B2E001C0E8
:100120001D92A03AB207E1F710E0CAE7D0E004C0A0
:100130002197FE010E94950EC937D107C9F70E9489
:100140001B080C9481160C940000FC01248135815D
:100150006217730720F480819181009729F410922F
:10016000720282E792E00895860F971F089590919A
:100170000001981324C0E4EBF0E0E4919FEF90932A
:100180000001E130B9F098F0E230C9F490917000CC
:100190009D7F9093700091E09093B0009091B1009A
:1001A000987F94609093B1001092B30008C01092B1
:1001B0006E0005C090916F009D7F90936F0060E08E
:1001C0000C9498040E9464120F931F93CF93DF93B3
:1001D000EC0188819981009729F02A813B812617BB
:1001E000370788F48B016F5F7F4F0E949A11009749
:1001F00061F0998388831B830A832C813D81232BA3
:1002000011F4FC01108281E001C080E0DF91CF9108
:100210001F910F910895CF93DF93EC01888199810D
:10022000009711F00E940211198218821D821C820F
:100230001B821A82DF91CF910895FC018081918108
:100240000C940211EF92FF920F931F93CF93DF93C1
:10025000FC01248135816115710511F480E019C01C
:1002600041155105A9F07B01EC018A01020F131F12
:10027000B8010E94E400882389F3288139818C81A8
:100280009D81B701820F931F0E9472121D830C8300
:1002900081E0DF91CF911F910F91FF90EF90089532
:1002A000CF93DF93EC016115710561F0FB010190C3
:1002B0000020E9F73197AF01461B570B0E9422013E
:1002C000811103C0CE010E940B01CE01DF91CF91BD
:1002D0000895EF92FF920F931F93CF93DF93CDB7C3
:1002E000DEB728970FB6F894DEBF0FBECDBF7C01F6
:1002F000CB014AE08E010F5F1F4FB8010E941A1513
:10030000F80101900020E9F73197AF01401B510B34
:10031000B801C7010E94220128960FB6F894DEBFEB
:100320000FBECDBFDF91CF911F910F91FF90EF9046
:100330000895EF92FF920F931F93CF93DF93EC01F9
:100340007B018A01BA010E94E400811104C0CE0140
:100350000E940B0107C01D830C83B701888199811E
:100360000E947212CE01DF91CF911F910F91FF90E9
:10037000EF900895CF93DF93EC01FB018617970769
:1003800061F0608171816115710529F044815581A9
:100390000E94990102C00E940B01CE01DF91CF9112
:1003A0000895FC0111821082138212821582148238
:1003B0000C94BA011F920F920FB60F9211242F9333
:1003C0003F934F935F936F937F938F939F93AF93DD
:1003D000BF93EF93FF938091CA049091CB04A091B7
:1003E000CC04B091CD04892B8A2B8B2B51F18091B9
:1003F000C704E091C804F091C904908189278083E3
:100400008091CA049091CB04A091CC04B091CD040A
:10041000181619061A061B06C4F48091CA04909196
:10042000CB04A091CC04B091CD040197A109B109EE
:100430008093CA049093CB04A093CC04B093CD04D2
:1004400004C0809100010E94B700FF91EF91BF911D
:10045000AF919F918F917F916F915F914F913F915C
:100460002F910F900FBE0F901F901895CF92DF9293
:10047000EF92FF920F931F93CF93DF936C017A015A
:100480008B01C0E0D0E0CE15DF0589F0D8016D9179
:100490008D01D601ED91FC910190F081E02DC60116
:1004A0000995892B11F47E0102C02196ECCFC7017A
:1004B000DF91CF911F910F91FF90EF90DF90CF9040
:1004C0000895FC01918D828D981761F0828DDF0176
:1004D000A80FB11D5D968C91928D9F5F9F73928F37
:1004E00090E008958FEF9FEF0895FC01918D828D2C
:1004F000981731F0828DE80FF11D858D90E00895F9
:100500008FEF9FEF0895FC01918D228D892F90E050
:10051000805C9F4F821B91098F739927089582ED0C
:1005200094E00E94830221E0892B09F420E0822FCD
:100530000895FC01848DDF01A80FB11DA35ABF4FA0
:100540002C91848D90E001968F739927848FA689D2
:10055000B7892C93A089B1898C9180648C93938DF9
:10056000848D981306C00288F389E02D80818F7DE9
:1005700080830895EF92FF920F931F93CF93DF93A1
:10058000EC0181E0888F9B8D8C8D981305C0E889E4
:10059000F989808185FD24C0F62E0B8D10E00F5F58
:1005A0001F4F0F731127E02E8C8DE8120CC00FB671
:1005B00007FCFACFE889F989808185FFF5CFCE0164
:1005C0000E949902F1CF8B8DFE01E80FF11DE35AD5
:1005D000FF4FF0820B8FEA89FB898081806207C020
:1005E000EE89FF896083E889F9898081806480834E
:1005F00081E090E0DF91CF911F910F91FF90EF90FC
:100600000895CF93DF93EC01888D8823C9F0EA89A0
:10061000FB89808185FD05C0A889B9898C9186FDFB
:100620000FC00FB607FCF5CF808185FFF2CFA889F8
:10063000B9898C9185FFEDCFCE010E949902E7CF59
:10064000DF91CF91089580E090E0892B29F00E94FE
:100650008F0281110C94000008953FB7F8948091A7
:10066000C3049091C404A091C504B091C60426B5FA
:10067000A89B05C02F3F19F00196A11DB11D3FBFDA
:10068000BA2FA92F982F8827820F911DA11DB11D68
:10069000BC01CD0142E0660F771F881F991F4A9564
:1006A000D1F708952091700230917102281739070F
:1006B00071F490916E0280916F02981741F0E09171
:1006C0006E02F0E0EE57FB4F808190E008958FEFCF
:1006D0009FEF089508951F93CF93DF93DC015C96FD
:1006E0002D913C915D972115310539F481E090E021
:1006F00013969C938E9312973DC05196ED91FC9169
:10070000529750969C915097892F80951FB75E966F
:100710004C915E9741FB772770F941FD6095F89405
:100720004081772311F0492B01C048234083E90120
:100730002197F1F748E0508160FF02C0592B01C0BA
:1007400058235083E9012197F1F76695415099F7B5
:10075000772321F090818923808303C08081982BA7
:1007600090831FBF5C968D919C915D970197F1F7E7
:1007700021E030E0C901DF91CF911F9108952091D0
:100780007002309171022817390771F480916F025D
:1007900020916E0290E0805C9F4F821B910960E483
:1007A00070E00E944B0E089580E090E00895209143
:1007B00070023091710228173907B9F490916E02D6
:1007C00080916F02981789F0E0916E02F0E0EE5789
:1007D000FB4F808120916E0230E02F5F3F4F2F73DF
:1007E000332720936E0290E008958FEF9FEF0895D6
:1007F0006115710579F0FB0101900020E9F731974F
:10080000AF01461B570BDC01ED91FC910280F38197
:10081000E02D099480E090E008950F931F93CF930B
:10082000DF93EC010E94F8038C0164E572E0CE01D5
:100830000E94F803800F911FDF91CF911F910F91BC
:1008400008950F931F93CF93DF93EC01E881F98113
:10085000DB0114964D915C9115976D917C9102800E
:10086000F381E02D09958C0164E572E0CE010E94D0
:10087000F803800F911FDF91CF911F910F91089581
:100880001F920F920FB60F9211242F933F934F9305
:100890005F936F937F938F939F93AF93BF93EF93E8
:1008A000FF9382ED94E00E949902FF91EF91BF9136
:1008B000AF919F918F917F916F915F914F913F91F8
:1008C0002F910F900FBE0F901F9018951F920F92AF
:1008D0000FB60F9211242F938F939F93EF93FF9353
:1008E000E091E204F091E3048081E091E804F0916A
:1008F000E90482FD12C090818091EB048F5F8F73B9
:100900002091EC04821751F0E091EB04F0E0EE52FC
:10091000FB4F958F8093EB0401C08081FF91EF9195
:100920009F918F912F910F900FBE0F901F90189550
:1009300090E0FC01E056FF4F3491FC01E352FF4F81
:100940002491FC01E753FF4FE491EE2309F43BC0EF
:10095000332339F1333091F038F43130A9F03230AB
:1009600001F584B58F7D12C0373091F03830A1F099
:100970003430B9F4809180008F7D03C08091800075
:100980008F77809380000DC084B58F7784BD09C0B8
:100990008091B0008F7703C08091B0008F7D8093ED
:1009A000B000F0E0EE0FFF1FEB54FF4FA591B491A4
:1009B0008FB7F894EC91611103C020952E2301C0EC
:1009C0002E2B2C938FBF0895CF93DF9390E0FC01E3
:1009D000E352FF4F2491FC01E753FF4F849188239A
:1009E00061F190E0880F991FFC01EA56FF4FC59115
:1009F000D491FC01EB54FF4FA591B491611109C052
:100A00009FB7F8948881209582238883EC912E23C8
:100A10000BC0623061F49FB7F8943881822F8095C3
:100A200083238883EC912E2B2C939FBF06C08FB716
:100A3000F894E8812E2B28838FBFDF91CF91089502
:100A40001F93CF93DF93182FEB0161E00E94E40422
:100A5000209711F460E004C0CF3FD10539F461E084
:100A6000812FDF91CF911F910C949804E12FF0E03A
:100A7000E056FF4FE491E330F9F048F4E130B9F08B
:100A8000E230A1F584B5806284BDC8BD34C0E730D2
:100A9000E9F0E83019F1E43049F580918000806296
:100AA00080938000D0938B00C0938A0024C084B5CB
:100AB000806884BDC7BD1FC080918000806880931E
:100AC0008000D0938900C093880015C08091B00049
:100AD00080688093B000C093B3000DC08091B000D7
:100AE00080628093B000C093B40005C0C038D105C7
:100AF0000CF0B5CFAFCFDF91CF911F9108958E301D
:100B000008F08E508770806480937C0080917A001A
:100B1000806480937A0080917A0086FDFCCF80917A
:100B200078002091790090E0922B08958F929F9207
:100B3000AF92BF92CF92DF92EF92FF926B017C0156
:100B40000E942D034B015C01C114D104E104F104A6
:100B5000F1F00E942D03DC01CB0188199909AA0943
:100B6000BB09883E9340A105B10570F321E0C21A8C
:100B7000D108E108F10888EE880E83E0981EA11CD8
:100B8000B11CC114D104E104F10419F7DDCFFF90C9
:100B9000EF90DF90CF90BF90AF909F908F9008958F
:100BA0001F920F920FB60F9211242F933F938F93A2
:100BB0009F93AF93BF938091CE049091CF04A09167
:100BC000D004B091D1043091C20423E0230F2D371B
:100BD00020F40196A11DB11D05C026E8230F029641
:100BE000A11DB11D2093C2048093CE049093CF0425
:100BF000A093D004B093D1048091C3049091C40415
:100C0000A091C504B091C6040196A11DB11D8093A9
:100C1000C3049093C404A093C504B093C604BF91C9
:100C2000AF919F918F913F912F910F900FBE0F9099
:100C30001F9018951F920F920FB60F9211242F93A9
:100C40003F934F935F936F937F938F939F93AF9354
:100C5000BF93EF93FF93E0917002F0917102309790
:100C600009F451C0968DA685B785858591FF04C08E
:100C70009C91892329F447C09C91892309F043C0A2
:100C8000A389B4899C918589809589238C938689D1
:100C900097890197F1F7608D718DA685B785558588
:100CA00038E020E0CB010197F1F7822F90E0959595
:100CB0008795282F4C91452309F02068315091F7F2
:100CC000868D81FD209580916F0290E001968F7353
:100CD000992730916E02381749F0A0916F02B0E069
:100CE000AE57BB4F2C9380936F0203C0868D8160FB
:100CF000868F828D938D0197F1F7A389B4899C919A
:100D00008589892B8C93FF91EF91BF91AF919F9132
:100D10008F917F916F915F914F913F912F910F90A4
:100D20000FBE0F901F901895E0917002F091710224
:100D3000E817F90769F4A389B4899C91858980959E
:100D400089238C93109271021092700281E00895B1
:100D500080E0089560E070E085E00E94200560E09A
:100D600070E086E00E94200560E070E089E00E946B
:100D7000200560E070E08AE00C9420052FB7F8941D
:100D80008091CE049091CF04A091D004B091D10471
:100D90002FBF8093770590937805A0937905B09342
:100DA0007A05E0916F05F09170050680F781E02DDE
:100DB0008FE695E0099597FF26C02FB7F8948091AC
:100DC000CE049091CF04A091D004B091D1042FBF54
:100DD00040917705509178056091790570917A0579
:100DE000841B950BA60BB70B4091730550917405AE
:100DF000609175057091760584179507A607B7076A
:100E000080F28FEF9FEF08950F931F93CF93DF939F
:100E100000D0CDB7DEB78C01FC01118210821382A5
:100E200012821582148240E050E068E771E00E946F
:100E300099010E94BE0697FD0BC089831A8241E08A
:100E400050E0BE016F5F7F4FC8010E942201F1CFC9
:100E5000C8010F900F90DF91CF911F910F910895CE
:100E6000CF9390910001981721F09F3F09F0E1C0C6
:100E700004C0E4EBF0E0C4917FC080930001E4EB98
:100E8000F0E0E491EF3F09F4D4C0E13031F1E23019
:100E900009F44AC0E1116FC014BC15BC94B592604E
:100EA00094BD95B5916095BD282F30E0F901E753C9
:100EB000FF4FE491F0E0EE0FFF1FEB54FF4F459121
:100EC00054915093930540939205F901E352FF4FDB
:100ED000E491E0939105C0E051C01092800010921F
:100EE00081009091810098609093810090918100A1
:100EF000916090938100282F30E0F901E753FF4F74
:100F0000E491F0E0EE0FFF1FEB54FF4F4591549139
:100F10005093900540938F05F901E352FF4FE49100
:100F2000E0938E05C1E02AC01092B0001092B1008B
:100F30009091B00092609093B0009091B100916058
:100F40009093B100282F30E0F901E753FF4FE4916F
:100F5000F0E0EE0FFF1FEB54FF4F4591549150937B
:100F6000C9044093C804F901E352FF4FE491E093B0
:100F7000C704C2E003C0CE2FC7FD5BC061E00E9482
:100F8000E404CC2309F43FC0C230A9F1C130E9F434
:100F900080918100887F8160809381008FE99FE04C
:100FA00090938900809388008FEF9FEFDC018093FE
:100FB000940590939505A0939605B093970580911D
:100FC0006F00826080936F0034C0C23091F58FE96A
:100FD0008093B3008FEF9FEFDC018093CA0490935E
:100FE000CB04A093CC04B093CD04809170008260B8
:100FF000809370001EC08091B100887F83608093D1
:10100000B1008CE7E5CF85B5887F836085BD8DE332
:1010100087BD8FEF9FEFDC01809398059093990532
:10102000A0939A05B0939B0580916E008260809397
:101030006E00CF910895CF93DF93CDB7DEB7A7971A
:101040000FB6F894DEBF0FBECDBF789484B5826032
:1010500084BD84B5816084BD85B5826085BD85B55C
:10106000816085BD80916E00816080936E001092DA
:101070008100809181008260809381008091810055
:1010800081608093810080918000816080938000E6
:101090008091B10084608093B1008091B000816044
:1010A0008093B00080917A00846080937A00809170
:1010B0007A00826080937A0080917A0081608093C8
:1010C0007A0080917A00806880937A001092C10043
:1010D00010928A0510928905109288051092870552
:1010E00010928605109285058DE991E090938C050C
:1010F00080938B0590917B05963108F057C02DEBBE
:1011000030E030938605209385052BE931E030935C
:101110008805209387052CE231E030938A052093DF
:10112000890520916800983050F031E09E3008F435
:1011300030E081E001C0880F3A95EAF701C084E011
:10114000822B80936800983038F09E3040F09631C2
:1011500048F020E030E008C02DE630E005C02BE686
:1011600030E002C02CE630E0309383052093820506
:10117000983030F481E001C0880F9A95EAF70EC0EC
:10118000292F30E09E3018F42850310902C02E502B
:10119000310981E001C0880F2A95EAF78093840520
:1011A00080918B0590918C050197F1F780918905CD
:1011B00090918A05892B21F18091700290917102A2
:1011C00025E08F369207E1F0009711F00E94940617
:1011D00080918D058E7F80938D0510926F02109205
:1011E0006E028FE695E09093710280937002E09119
:1011F0008205F0918305908180918405892B8083FD
:10120000E091E204F091E30482E08083E091DE0467
:10121000F091DF041082E091E004F091E1048FECA2
:1012200080831092EA04E091E604F091E70486E0FE
:101230008083E091E404F091E50480818061808303
:10124000E091E404F091E504808188608083E0917E
:10125000E404F091E504808180688083E091E404F7
:10126000F091E50480818F7D808360E08EE00E94B4
:10127000E40460E08FE00E94E40461E085E00E9405
:10128000E40461E086E00E94E40461E089E00E94F9
:10129000E40461E08AE00E94E40461E08CE00E94E2
:1012A000E40461E08DE00E94E4040E94AA0667E283
:1012B00071E082ED94E00E940D0468EE73E080E03E
:1012C00090E00E9496058EE00E947F0590937A043C
:1012D000809379048FE00E947F0590937804809337
:1012E000770469E571E082ED94E00E940D0480913D
:1012F00078048F93809177048F9380917A048F93F1
:10130000809179048F9384E691E09F938F9383E794
:1013100092E09F938F930E94791263E772E082EDCF
:1013200094E00E940D0469E771E08FE695E00E9469
:101330000D04CE0101960E940407BE016F5F7F4F2E
:1013400082ED94E00E942104CE0101960E941D01CD
:1013500060E871E08FE695E00E940D04CE010196F1
:101360000E940407BE016F5F7F4F82ED94E00E94F0
:101370002104CE0101960E941D010FB6F894DEBF34
:101380000FBECDBF63E871E08FE695E00E940D04CB
:10139000CE0101960E940407BE016F5F7F4F82ED70
:1013A00094E00E942104CE0101960E941D016CE888
:1013B00071E08FE695E00E940D04CE0101960E9437
:1013C0000407BE016F5F7F4F82ED94E00E9421040D
:1013D000CE0101960E941D0168E971E08FE695E05B
:1013E0000E940D04CE0101960E940407BE016F5FAA
:1013F0007F4F82ED94E00E942104CE0101960E946D
:101400001D018FE695E00E94BF03892B69F46EE20F
:1014100072E082ED94E00E94F8036AE070E080E000
:1014200090E00E949605EDCF64E670E080E090E0E9
:101430000E94960566EB71E08FE695E00E940D0430
:10144000CE0101960E940407BE016F5F7F4F82EDBF
:1014500094E00E942104CE0101960E941D0162ECDD
:1014600071E08FE695E00E940D04CE0182960E9405
:101470000407BE016E5D7F4F82ED94E00E9421045F
:1014800004E210E07801F1E0EF1AF108B701CE01B3
:1014900082960E94A500FC018081882309F472C015
:1014A00065EE71E082ED94E00E940D04B701CE017B
:1014B00082960E94A500FC018081813409F04CC015
:1014C000B801CE0182960E94A500FC0180818C3477
:1014D00009F042C0B8016F5F7F4FCE0182960E9433
:1014E000A500FC0180818235B9F581E080937B0401
:1014F00060EF71E082ED94E00E940D0461E08DE008
:101500000E94980464E670E080E090E00E949605F6
:1015100060E08DE00E94980468EC70E080E090E06C
:101520000E94960561E08DE00E94980464E670E0F8
:1015300080E090E00E94960560E08DE00E949804B3
:10154000CE0182960E941D010CE210E08AE0882EF6
:10155000912CA12CB12CFFC1B701CE0182960E9423
:10156000A500FC0180818F3451F4B801CE01829630
:101570000E94A500FC0180818B3409F4B6CF0F5F77
:101580001F4F80CF6FE072E082ED94E00E940D0467
:1015900061E08DE00E94980468EE73E080E090E0E6
:1015A0000E94960560E08DE00E94980410927B04F2
:1015B000CE0182960E941D01E5CEBE016E5D7F4F79
:1015C00082ED94E00E9421044BE050E06EE372E073
:1015D000CE0182960E949901B701CE0182960E94A7
:1015E0006901BE016E5D7F4F8FE695E00E94210488
:1015F00041E050E068E372E0CE0182960E949901DA
:101600006091800470918104CE0182960E946901EC
:10161000BE016E5D7F4FCE0101960E94D1016AE34B
:1016200072E0CE0101960E945001BC01CE0182966B
:101630000E94BA01CE0101960E941D0160917E04B4
:1016400070917F04CE0182960E946901BE016E5D99
:101650007F4FCE0101960E94D10161E871E0CE0179
:1016600001960E945001BC01CE0182960E94BA01EF
:10167000CE0101960E941D0160917504709176045F
:10168000CE0182960E946901BE016E5D7F4FCE0140
:1016900001960E94D1016CE372E0CE0101960E9496
:1016A0005001BC01CE0182960E94BA01CE01019682
:1016B0000E941D01BE016E5D7F4F8FE695E00E9486
:1016C0002104CE0101960E940407BE016F5F7F4F87
:1016D00082ED94E00E942104CE0101960E941D013A
:1016E000CE0182960E941D01609180047091810458
:1016F00061507109072E000C880B990B0E9451153F
:101700006B017C0180917E0490917F040197BC0164
:10171000990F880B990B0E9451152B013C01A701D1
:101720009601C701B6010E948C156B017C01A301D3
:101730009201C301B2010E948C159B01AC01C7014B
:10174000B6010E949C0E0E9414100E94A90F709373
:101750007D0460937C046AE472E082ED94E00E9470
:10176000F803C0907C04D0907D040D2C000CEE0892
:10177000FF08F7FEC5C1E091D204F091D3040190B7
:10178000F081E02D6DE282ED94E009952227332768
:10179000A9012C193D094E095F0919A2CE018196B4
:1017A0007C01CA01B901A50194010E945F0E605D30
:1017B000F70162937F01211531054105510589F734
:1017C000B70182ED94E00E94F80364E572E082EDD7
:1017D00094E00E94F80380917C0490917D040D9721
:1017E0000CF05AC067E572E082ED94E00E94F803C5
:1017F00064E572E082ED94E00E94F80361E08CE021
:101800000E9498040E94AA068DE00E94300764E6B8
:1018100070E080E090E00E9496058DE00E94B700A5
:1018200064E670E080E090E00E9496058DE00E9402
:10183000300764E670E080E090E00E9496058DE05D
:101840000E94B70064E670E080E090E00E94960598
:101850008DE00E94300764E670E080E090E00E9436
:1018600096058DE00E94B70064E670E080E090E0AD
:101870000E9496058DE00E94300764E670E080E0EB
:1018800090E00E9496058DE00E94B70064E670E04B
:1018900080E090E00E94960580917C0490917D0408
:1018A0000D970CF450C063E672E082ED94E00E9464
:1018B000F80364E572E082ED94E00E94F80364EBC3
:1018C00070E085E00E94200560E070E086E00E9404
:1018D000200564EB70E089E00E94200560E070E084
:1018E0008AE00E94200564EB70E085E00E942005FC
:1018F00060E070E086E00E94200560E070E089E032
:101900000E94200560E070E08AE00E94200560E00F
:1019100070E085E00E94200560E070E086E00E94B3
:10192000200564EB70E089E00E94200560E070E033
:101930008AE00E94200560E08CE00E94980460E04C
:101940008DE00E94980464E670E080E090E00E94E0
:1019500096050E94230360E372E082ED94E00E940A
:101960000D0480917B04882309F4BECE8EE00E9492
:101970007F052091790430917A04821B930B7C01BE
:10198000FFEFEF1AFF0AF0928104E09280048FE0EB
:101990000E947F052091770430917804821B930B7D
:1019A000BC016F5F7F4F70937F0460937E04072EAE
:1019B000000C880B990B0E9451152B013C01B701BB
:1019C0000F2C000C880B990B0E9451159B01AC0148
:1019D000C301B2010E94370F0E94080F26E437E1CD
:1019E00045E652E40E948C1520E030E048EC52E4D9
:1019F0000E948C150E94A90F9B0177FF04C022272B
:101A00003327261B370B30937604209375041093ED
:101A10007404009373041BA21AA21DA21CA21FA28D
:101A20001EA241E050E068E372E0CE0182960E947F
:101A30009901B701CE0182960E946901BE016E5DD7
:101A40007F4FCE0101960E94D1016AE372E0CE0180
:101A500001960E945001BC01CE0182960E94BA01FB
:101A6000CE0101960E941D0160917E0470917F0459
:101A7000CE0182960E946901BE016E5D7F4FCE014C
:101A800001960E94D10161E871E0CE0101960E94A9
:101A90005001BC01CE0182960E94BA01CE0101968E
:101AA0000E941D016091750470917604CE018296AA
:101AB0000E946901BE016E5D7F4FCE0101960E94BA
:101AC000D1016CE372E0CE0101960E945001BC018D
:101AD000CE0182960E94BA01CE0101960E941D019C
:101AE000E12CF12CB701CE0182960E94A500FC01E9
:101AF0008081882309F461CD2FEFE21AF20AF2CF38
:101B0000A701960119A2CE0181967C01CA01B901F3
:101B1000A50194010E945F0E605DF70162937F0151
:101B2000211531054105510589F74ACE8BE191E038
:101B30009093700580936F058FE695E00C94940662
:101B40001092D5041092D40488EE93E0A0E0B0E0A7
:101B50008093D6049093D704A093D804B093D9046B
:101B60002BE031E03093D3042093D20425EC30E015
:101B70003093DF042093DE0424EC30E03093E10462
:101B80002093E00420EC30E03093E3042093E2045F
:101B900021EC30E03093E5042093E40422EC30E0C3
:101BA0003093E7042093E60426EC30E03093E90418
:101BB0002093E8041092EB041092EC041092ED04D0
:101BC0001092EE04109272051092710580937305C5
:101BD00090937405A0937505B09376058BE191E021
:101BE0009093700580936F0510928605109285057D
:101BF000109288051092870510928A051092890527
:101C000010928C0510928B0560918D056E7F6D7F13
:101C100060938D056695617081E0682788E00E9479
:101C2000980461E088E00E94E404E5EEF0E0E491CD
:101C3000E0937F05E1EDF0E0E491F0E0EE0FFF1FAF
:101C4000EB54FF4F8591949190938105809380058B
:101C500060E087E00E94E40480918D0581FD04C06E
:101C600061E087E00E94980487E080937B05E4EEC2
:101C7000F0E0E491E0937C05E0EDF0E0E491F0E049
:101C8000EE0FFF1FE154FF4F8591949190937E05D5
:101C900080937D05089597FB072E16F4009407D0D6
:101CA00077FD09D00E94810E07FC05D03EF4909587
:101CB00081959F4F0895709561957F4F0895A1E29A
:101CC0001A2EAA1BBB1BFD010DC0AA1FBB1FEE1FB6
:101CD000FF1FA217B307E407F50720F0A21BB30B01
:101CE000E40BF50B661F771F881F991F1A9469F77D
:101CF00060957095809590959B01AC01BD01CF01D9
:101D00000895AA1BBB1B51E107C0AA1FBB1FA61742
:101D1000B70710F0A61BB70B881F991F5A95A9F794
:101D200080959095BC01CD010895EE0FFF1F0590A1
:101D3000F491E02D09945058BB27AA270E94B30EB6
:101D40000C9410160E94021638F00E94091620F01A
:101D500039F49F3F19F426F40C94FF150EF4E09526
:101D6000E7FB0C94F915E92F0E94211658F3BA17D6
:101D7000620773078407950720F079F4A6F50C94A1
:101D800043160EF4E0950B2EBA2FA02D0B01B901CE
:101D900090010C01CA01A0011124FF27591B99F0E1
:101DA000593F50F4503E68F11A16F040A22F232FED
:101DB000342F4427585FF3CF469537952795A7953D
:101DC000F0405395C9F77EF41F16BA0B620B730BE4
:101DD000840BBAF09150A1F0FF0FBB1F661F771F55
:101DE000881FC2F70EC0BA0F621F731F841F48F40A
:101DF000879577956795B795F7959E3F08F0B0CF93
:101E00009395880F08F09927EE0F97958795089579
:101E1000DF93DD27B92FBF7740E85FE3161617067B
:101E200048075B0718F4D92F0E9406109F938F93E1
:101E30007F936F930E945410E8E6F0E00E94DF0F5A
:101E40000E9410162F913F914F915F910E949F1514
:101E5000DD2351F09058A2EA2AED3FE049EC5FE320
:101E6000D0785D270E94B30EDF910C9410160E946B
:101E70004B0F0C9410160E94091658F00E9402167F
:101E800040F029F45F3F29F00C94F91551110C949E
:101E900044160C94FF150E94211668F39923B1F3A0
:101EA000552391F3951B550BBB27AA276217730780
:101EB000840738F09F5F5F4F220F331F441FAA1F14
:101EC000A9F335D00E2E3AF0E0E832D091505040D0
:101ED000E695001CCAF72BD0FE2F29D0660F771F7E
:101EE000881FBB1F261737074807AB07B0E809F064
:101EF000BB0B802DBF01FF2793585F4F3AF09E3FE9
:101F0000510578F00C94F9150C9444165F3FE4F3F6
:101F1000983ED4F3869577956795B795F7959F5F2B
:101F2000C9F7880F911D9695879597F90895E1E077
:101F3000660F771F881FBB1F621773078407BA07D6
:101F400020F0621B730B840BBA0BEE1F88F7E09531
:101F500008950E94B00F6894B1110C94441608952E
:101F60000E94291688F09F5798F0B92F9927B751EA
:101F7000B0F0E1F0660F771F881F991F1AF0BA952D
:101F8000C9F714C0B13091F00E944316B1E0089532
:101F90000C944316672F782F8827B85F39F0B93F24
:101FA000CCF3869577956795B395D9F73EF49095E0
:101FB0008095709561957F4F8F4F9F4F0895DF9368
:101FC000CF931F930F93FF92EF92DF927B018C01CF
:101FD000689406C0DA2EEF010E949F15FE01E89476
:101FE000A5912591359145915591A6F3EF010E9458
:101FF000B30EFE019701A801DA9469F7DF90EF9024
:10200000FF900F911F91CF91DF9108959B01AC013B
:1020100060E070E080E89FE30C94370F19F416F449
:102020000C94FF150C9458100E942916B8F39923AC
:10203000C9F3B6F39F57550B87FF0E946610002423
:10204000A0E640EA900180585695979528F4805C68
:10205000660F771F881F20F026173707480730F4D0
:10206000621B730B840B202931294A2BA6951794E8
:102070000794202531254A2758F7660F771F881FB8
:1020800020F026173707480730F4620B730B840BD8
:10209000200D311D411DA09581F7B901842F915864
:1020A000880F9695879508959B01AC010C948C152B
:1020B0009F3F31F0915020F4879577956795B795BC
:1020C000880F911D9695879597F9089591505040E6
:1020D000660F771F881FD2F70895CF93DF93823062
:1020E000910510F482E090E0E0919E05F0919F054B
:1020F00020E030E0C0E0D0E0309711F14081518124
:1021000048175907C0F04817590761F48281938135
:10211000209719F09B838A832BC090939F0580930F
:102120009E0526C02115310519F04217530718F4F2
:102130009A01BE01DF01EF010280F381E02DDCCFC7
:102140002115310509F1281B390B2430310590F494
:1021500012968D919C9113976115710521F0FB01E9
:102160009383828304C090939F0580939E05FD0115
:10217000329644C0FD01E20FF31F819391932250E8
:1021800031092D933C933AC020919C0530919D05D7
:10219000232B41F4209103013091040130939D05DC
:1021A00020939C05209101013091020121153105F8
:1021B00041F42DB73EB74091050150910601241B13
:1021C000350BE0919C05F0919D05E217F307A0F413
:1021D0002E1B3F0B2817390778F0AC014E5F5F4F7D
:1021E0002417350748F04E0F5F1F50939D0540930D
:1021F0009C058193919302C0E0E0F0E0CF01DF9174
:10220000CF9108950F931F93CF93DF93009709F415
:102210008CC0FC0132971382128200919E051091AE
:102220009F050115110581F420813181820F931FD3
:1022300020919C0530919D052817390779F5F09379
:102240009D05E0939C0571C0D80140E050E0AE17B9
:10225000BF0750F412962D913C911397AD012115B3
:10226000310509F1D901F3CF9D01DA0133832283CE
:1022700060817181860F971F8217930769F4EC01C3
:1022800028813981260F371F2E5F3F4F31832083EE
:102290008A819B8193838283452B29F4F0939F0548
:1022A000E0939E0542C01396FC93EE931297ED01C6
:1022B000499159919E01240F351FE217F30771F4DC
:1022C00080819181840F951F029611969C938E9325
:1022D0008281938113969C938E931297E0E0F0E0B5
:1022E000D80112968D919C911397009719F0F801DF
:1022F0008C01F6CF8D919C9198012E5F3F4F820FFC
:10230000931F20919C0530919D052817390769F48A
:10231000309729F410929F0510929E0502C01382F7
:10232000128210939D0500939C05DF91CF911F9120
:102330000F910895A0E0B0E0E0EAF1E10C944E16B0
:10234000EC01009721F4CB010E946D10B8C0FC0194
:10235000E60FF71F9C0122503109E217F30708F43A
:10236000ACC0D9010D911C91119706171707B0F059
:102370000530110508F49FC0C80104978617970718
:1023800008F499C002501109061B170B0193119311
:102390006D937C93CF010E9402118DC05B01A01A46
:1023A000B10A4C01800E911EA0919E05B0919F052F
:1023B00040E050E0E12CF12C109709F44AC0A81538
:1023C000B905D1F56D907C901197630182E0C80E3C
:1023D000D11CCA14DB0480F1A3014A195B096A010C
:1023E00082E0C80ED11C1296BC9012971396AC9145
:1023F000B5E0CB16D10440F0B282A3835183408371
:10240000D9016D937C930AC00E5F1F4FC301800FEB
:10241000911FF90191838083EB2DFA2FE114F104D0
:1024200031F0D7011396FC93EE93129744C0F093CA
:102430009F05E0939E053FC08D919C911197481791
:10244000590708F4AC017D0112960D90BC91A02DA6
:10245000B3CF80919C0590919D0588159905E1F475
:1024600046175707C8F48091010190910201009727
:1024700041F48DB79EB74091050150910601841B30
:10248000950BE817F907C8F4F0939D05E0939C05B8
:10249000F901718360830FC0CB010E946D107C0134
:1024A000009759F0A801BE010E946912CE010E9456
:1024B0000211C70104C0CE0102C080E090E0CDB798
:1024C000DEB7EEE00C946A1681E090E0F8940C948C
:1024D0008116FB01DC0102C001900D924150504079
:1024E000D8F70895FB01DC0101900D920020E1F77F
:1024F0000895AEE0B0E0EFE7F2E10C9458160D89D4
:102500001E8986E08C831A8309838FEF9FE79E8361
:102510008D83AE01475E5F4F6F89788DCE01019646
:102520000E949C122F813885F801E20FF31F108260
:102530002E96E4E00C947416ACE0B0E0E2EAF2E12E
:102540000C944A167C016B018A01FC0117821682E9
:10255000838181FFBDC1CE0101964C01F7019381BA
:10256000F60193FD859193FF81916F01882309F412
:10257000ABC1853239F493FD859193FF81916F0151
:10258000853229F4B70190E00E948414E7CF512CE2
:10259000312C20E02032A0F48B3269F030F480320C
:1025A00059F0833269F420612CC08D3239F08033C8
:1025B00039F4216026C02260246023C0286021C035
:1025C00027FD27C030ED380F3A3078F426FF06C0DB
:1025D000FAE05F9E300D1124532E13C08AE0389E1E
:1025E000300D1124332E20620CC08E3221F426FDD2
:1025F0006BC1206406C08C3611F4206802C0883696
:1026000041F4F60193FD859193FF81916F01811152
:10261000C1CF982F9F7D9554933028F40C5F1F4FA6
:10262000FFE3F9830DC0833631F0833771F08335D2
:1026300009F05BC022C0F801808189830E5F1F4FC3
:1026400044244394512C540115C03801F2E06F0E1C
:10265000711CF801A080B18026FF03C0652D70E0D9
:1026600002C06FEF7FEFC5012C870E9479142C0107
:1026700083012C852F77222E17C03801F2E06F0ED0
:10268000711CF801A080B18026FF03C0652D70E0A9
:1026900002C06FEF7FEFC5012C870E946E142C01E2
:1026A0002C852068222E830123FC1BC0832D90E003
:1026B00048165906B0F4B70180E290E00E948414F5
:1026C0003A94F4CFF50127FC859127FE81915F01B3
:1026D000B70190E00E94841431103A94F1E04F1A4F
:1026E00051084114510471F7E5C0843611F0893660
:1026F00039F5F80127FF07C06081718182819381DC
:102700000C5F1F4F08C060817181072E000C880B81
:10271000990B0E5F1F4F2F76722E97FF09C0909571
:102720008095709561957F4F8F4F9F4F2068722ED7
:102730002AE030E0A4010E94BC14A82EA81844C0CE
:10274000853729F42F7EB22E2AE030E025C0F22F03
:10275000F97FBF2E8F36C1F018F4883579F0B4C0F8
:10276000803719F0883721F0AFC02F2F2061B22EAB
:10277000B4FE0DC08B2D8460B82E09C024FF0AC0A2
:102780009F2F9660B92E06C028E030E005C020E1FA
:1027900030E002C020E132E0F801B7FE07C06081FE
:1027A0007181828193810C5F1F4F06C060817181AE
:1027B00080E090E00E5F1F4FA4010E94BC14A82E81
:1027C000A818FB2DFF777F2E76FE0BC0372D3E7F9E
:1027D000A51450F474FE0AC072FC08C0372D3E7E6A
:1027E00005C0BA2C372D03C0BA2C01C0B52C34FF5C
:1027F0000DC0FE01EA0DF11D8081803311F4397E98
:1028000009C032FF06C0B394B39404C0832F867806
:1028100009F0B39433FD13C030FF06C05A2CB31433
:1028200018F4530C5B18B32CB31468F4B70180E2AE
:1028300090E03C870E948414B3943C85F5CFB31498
:1028400010F43B1801C0312C34FF12C0B70180E3F3
:1028500090E03C870E9484143C8532FF17C031FD14
:1028600003C088E790E002C088E590E0B7010CC0A3
:10287000832F867859F031FF02C08BE201C080E2DD
:1028800037FD8DE2B70190E00E948414A51438F45E
:10289000B70180E390E00E9484145A94F7CFAA9481
:1028A000F401EA0DF11D8081B70190E00E948414CB
:1028B000A110F5CF332009F451CEB70180E290E0AA
:1028C0000E9484143A94F6CFF7018681978102C062
:1028D0008FEF9FEF2C96E2E10C946616FC010590B9
:1028E000615070400110D8F7809590958E0F9F1F12
:1028F0000895FC016150704001900110D8F7809557
:1029000090958E0F9F1F08950F931F93CF93DF9382
:10291000FB01238121FD03C08FEF9FEF28C022FF21
:1029200016C046815781248135814217530744F4EC
:10293000A081B1819D012F5F3F4F318320838C9314
:10294000268137812F5F3F4F3783268310C0EB01ED
:10295000092F182F0084F185E02D0995892BE1F6C8
:102960008E819F8101969F838E83812F902FDF918F
:10297000CF911F910F910895FA01AA27283051F1A4
:10298000203181F1E8946F936E7F6E5F7F4F8F4FA0
:102990009F4FAF4FB1E03ED0B4E03CD0670F781FFF
:1029A000891F9A1FA11D680F791F8A1F911DA11DE4
:1029B0006A0F711D811D911DA11D20D009F468941D
:1029C0003F912AE0269F11243019305D3193DEF6C5
:1029D000CF010895462F4770405D4193B3E00FD07B
:1029E000C9F7F6CF462F4F70405D4A3318F0495D66
:1029F00031FD4052419302D0A9F7EACFB4E0A69549
:102A00009795879577956795BA95C9F7009761056A
:102A1000710508959B01AC010A2E069457954795C0
:102A200037952795BA95C9F7620F731F841F951FB5
:102A3000A01D0895BB274A3031F4992322F4BDE24A
:102A4000909581959F4F0C942615BB27FB01552728
:102A5000AA27880F991FAA1FA41710F0A41B8395FB
:102A60005051B9F7A05DAA3308F0A95DA193009772
:102A700079F7B111B1931192CB010C943F15DC01A0
:102A8000FC01672F71917723E1F7329704C07C91A5
:102A90006D9370836291AE17BF07C8F30895E894F1
:102AA00009C097FB3EF490958095709561957F4F96
:102AB0008F4F9F4F9923A9F0F92F96E9BB27939544
:102AC000F695879577956795B795F111F8CFFAF454
:102AD000BB0F11F460FF1BC06F5F7F4F8F4F9F4F85
:102AE00016C0882311F096E911C0772321F09EE8E3
:102AF000872F762F05C0662371F096E8862F70E049
:102B000060E02AF09A95660F771F881FDAF7880F22
:102B10009695879597F908950E949F150C94101625
:102B20000E94021638F00E94091620F0952311F039
:102B30000C94F9150C94FF1511240C9444160E9462
:102B4000211670F3959FC1F3950F50E0551F629FBA
:102B5000F001729FBB27F00DB11D639FAA27F00DF6
:102B6000B11DAA1F649F6627B00DA11D661F829F1D
:102B70002227B00DA11D621F739FB00DA11D621F02
:102B8000839FA00D611D221F749F3327A00D611D1F
:102B9000231F849F600D211D822F762F6A2F112401
:102BA0009F5750409AF0F1F088234AF0EE0FFF1F34
:102BB000BB1F661F771F881F91505040A9F79E3F8B
:102BC000510580F00C94F9150C9444165F3FE4F322
:102BD000983ED4F3869577956795B795F795E795E1
:102BE0009F5FC1F7FE2B880F911D9695879597F9EA
:102BF000089597F99F6780E870E060E008959FEF7F
:102C000080EC089500240A94161617061806090683
:102C1000089500240A941216130614060506089552
:102C2000092E0394000C11F4882352F0BB0F40F4DA
:102C3000BF2B11F460FF04C06F5F7F4F8F4F9F4F1A
:102C4000089557FD9058440F551F59F05F3F71F09C
:102C50004795880F97FB991F61F09F3F79F0879503
:102C60000895121613061406551FF2CF4695F1DF8C
:102C700008C0161617061806991FF1CF869571051C
:102C8000610508940895E894BB2766277727CB0150
:102C900097F908952F923F924F925F926F927F9291
:102CA0008F929F92AF92BF92CF92DF92EF92FF925C
:102CB0000F931F93CF93DF93CDB7DEB7CA1BDB0B08
:102CC0000FB6F894DEBF0FBECDBF09942A883988AD
:102CD00048885F846E847D848C849B84AA84B984B4
:102CE000C884DF80EE80FD800C811B81AA81B981C0
:102CF000CE0FD11D0FB6F894DEBF0FBECDBFED01D4
:102D0000089510E0CAE7D0E004C0FE010E94950ECD
:0C2D10002196CB37D107C9F7F894FFCF0C
:102D1C00FF0000A005800000000000BA023602830C
:102D2C0002610275020103000000006B033602BF52
:102D3C0003D70352036A0343616C6C69627261745A
:102D4C00696E6720686F6C6420697420666F7220EE
:102D5C00612062656570206F722032207365636F2D
:102D6C006E642E2E2E2E2E2E0043616C69627261C3
:102D7C007465640009583D20256409090909205926
:102D8C003D202564090909090041542B5253540074
:102D9C0041540041542B43575141500041542B4353
:102DAC00574D4F44453D310041542B43574A4150F8
:102DBC003D2244455649434531222C22313233348D
:102DCC0035363738220041542B4349504D55583D28
:102DDC00300041542B43495053544152543D2255D9
:102DEC004450222C223139322E3136382E342E31A9
:102DFC00222C353300436F6E6E656374696E670009
:102E0C00436F6E6E6563746564204E4F5720574553
:102E1C002043414E2053454E442044415441006EC2
:102E2C006F7420636F6E6E65637465637465642084
:102E3C005245545259494E47202E2E2E2E2E2E00DE
:102E4C0073656E64696E6700580059004500415403
:102E5C002B43495053454E443D0064697374616E75
:102E6C0063653D000D0A00090920554E5341464546
:0E2E7C000909000909205341464509090000D3
:107800000C94343C0C94513C0C94513C0C94513CE1
:107810000C94513C0C94513C0C94513C0C94513CB4
:107820000C94513C0C94513C0C94513C0C94513CA4
:107830000C94513C0C94513C0C94513C0C94513C94
:107840000C94513C0C94513C0C94513C0C94513C84
:107850000C94513C0C94513C0C94513C0C94513C74
:107860000C94513C0C94513C11241FBECFEFD8E036
:10787000DEBFCDBF11E0A0E0B1E0ECE9FFE702C060
:1078800005900D92A230B107D9F712E0A2E0B1E065
:1078900001C01D92AD30B107E1F70E942D3D0C945F
:1078A000CC3F0C94003C982F959595959595959582
:1078B000905D8F708A307CF0282F295A8091C0000B
:1078C00085FFFCCF9093C6008091C00085FFFCCF60
:1078D0002093C6000895282F205DF0CF982F809127
:1078E000C00085FFFCCF9093C6000895EF92FF92F1
:1078F0000F931F93EE24FF2487018091C00087FD22
:1079000017C00894E11CF11C011D111D81E4E8164B
:1079100082E4F8068FE0080780E0180770F3E09132
:107920000401F091050109958091C00087FFE9CF1E
:107930008091C6001F910F91FF90EF9008950E94D3
:10794000763C982F8091C00085FFFCCF9093C600B5
:1079500091362CF490330CF09053892F089597555D
:10796000892F08951F930E949F3C182F0E949F3CCF
:107970001295107F810F1F9108951F93182F882350
:1079800021F00E94763C1150E1F71F9108951F935A
:10799000182F0E94763C803249F0809103018F5F5E
:1079A000809303018530C1F01F9108958091C0003C
:1079B00085FFFCCF84E18093C6008091C00085FFE5
:1079C000FCCF1093C6008091C00085FFFCCF80E102
:1079D0008093C6001F910895E0910401F091050184
:1079E00009951F9108950E94763C803241F0809164
:1079F00003018F5F80930301853081F008958091AA
:107A0000C00085FFFCCF84E18093C6008091C00058
:107A100085FFFCCF80E18093C6000895E0910401CA
:107A2000F09105010995089540E951E08823A1F0FE
:107A30002D9A28EE33E0FA013197F1F721503040CA
:107A4000D1F72D9828EE33E0FA013197F1F7215064
:107A50003040D1F7815061F708953F924F925F9285
:107A60006F927F928F929F92AF92BF92CF92DF924E
:107A7000EF92FF920F931F93CF93DF93000080E16B
:107A80008093C4001092C50088E18093C10086E015
:107A90008093C2005098589A259A81E00E94143D24
:107AA00024E1F22E9EE1E92E85E9D82E0FE0C02ECA
:107AB00010E1B12EAA24A394B1E49B2EA6E58A2E50
:107AC000F2E57F2EE0E26E2E79E4572E63E5462E36
:107AD00050E5352E0E94763C8033B1F18133B9F107
:107AE000803409F46FC0813409F476C0823409F41B
:107AF00085C0853409F488C0803531F1823521F1A3
:107B0000813511F1853509F485C0863509F48DC0BC
:107B1000843609F496C0843709F403C1853709F423
:107B200072C1863709F466C0809103018F5F80932C
:107B30000301853079F6E0910401F0910501099582
:107B40000E94763C803351F60E94F33CC3CF0E94E2
:107B5000763C803249F78091C00085FFFCCFF092DF
:107B6000C6008091C00085FFFCCF9092C600809136
:107B7000C00085FFFCCF8092C6008091C00085FFC9
:107B8000FCCF7092C6008091C00085FFFCCF609250
:107B9000C6008091C00085FFFCCF5092C600809146
:107BA000C00085FFFCCF4092C6008091C00085FFD9
:107BB000FCCF3092C6008091C00085FFFCCFB09210
:107BC000C60088CF0E94763C863808F4BDCF0E945C
:107BD000763C0E94F33C7ECF0E94763C803809F4CC
:107BE0009CC0813809F40BC1823809F43CC1883942
:107BF00009F48FC080E00E94C73C6CCF84E10E94F2
:107C0000BD3C0E94F33C66CF85E00E94BD3C0E94D3
:107C1000F33C60CF0E94763C809306010E94763C44
:107C2000809307010E94F33C55CF0E94763C80333D
:107C300009F41DC183E00E94BD3C80E00E94C73C66
:107C400049CF0E94763C809309020E94763C809343
:107C5000080280910C028E7F80930C020E94763C79
:107C6000853409F415C18091080290910902892B8D
:107C700089F000E010E00E94763CF801E85FFE4FDA
:107C800080830F5F1F4F80910802909109020817AF
:107C9000190788F30E94763C803209F045CF809125
:107CA0000C0280FF01C16091060170910701660F0F
:107CB000771F7093070160930601A0910802B091AD
:107CC00009021097C9F0E8E0F1E09B01AD014E0F09
:107CD0005F1FF999FECF32BD21BD819180BDFA9A17
:107CE000F99A2F5F3F4FE417F50799F76A0F7B1F4B
:107CF00070930701609306018091C00085FFFCCF5F
:107D0000F092C6008091C00085FFFCCFB092C60003
:107D1000E1CE83E00E94C73CDDCE82E00E94C73CFA
:107D2000D9CE0E94763C809309020E94763C8093D3
:107D300008028091060190910701880F991F909386
:107D40000701809306010E94763C853409F4A6C0A1
:107D500080910C028E7F80930C020E94763C8032D0
:107D600009F0B8CE8091C00085FFFCCFF092C6002C
:107D7000609108027091090261157105B9F140E046
:107D800050E080910C02A82FA170B82FB27011C0E2
:107D9000BB2309F45CC0E0910601F0910701319624
:107DA000F0930701E09306014F5F5F4F46175707B7
:107DB000E8F4AA2369F3F999FECF209106013091E6
:107DC000070132BD21BDF89A90B58091C00085FFB2
:107DD000FCCF9093C6002F5F3F4F30930701209355
:107DE00006014F5F5F4F4617570718F38091C00099
:107DF00085FDE5CE8091C00085FFF8CFE0CE81E023
:107E00000E94C73C67CE0E94763C803209F08CCE3F
:107E10008091C00085FFFCCFF092C6008091C00029
:107E200085FFFCCFE092C6008091C00085FFFCCFAB
:107E3000D092C6008091C00085FFFCCFC092C600E2
:107E40008091C00085FFFCCFB092C60043CEE09188
:107E50000601F091070194918091C00085FFFCCF4D
:107E60009093C6009CCF80E10E94C73C33CE0E9415
:107E7000763C0E94763C182F0E94763C112309F430
:107E800083C0113009F484C08FE00E94C73C22CE29
:107E900080910C02816080930C02E5CE80910C02EF
:107EA000816080930C0259CF809107018823880F4D
:107EB000880B8A2180930B02809106019091070123
:107EC000880F991F90930701809306018091080203
:107ED00080FF09C080910802909109020196909359
:107EE000090280930802F894F999FECF1127E091D6
:107EF0000601F0910701C8E0D1E08091080290915D
:107F00000902103091F40091570001700130D9F34B
:107F100003E000935700E89500915700017001308D
:107F2000D9F301E100935700E89509901990009169
:107F3000570001700130D9F301E000935700E89534
:107F40001395103498F011270091570001700130FB
:107F5000D9F305E000935700E895009157000170B0
:107F60000130D9F301E100935700E895329602976A
:107F700009F0C7CF103011F00296E5CF112480919F
:107F8000C00085FFB9CEBCCE8EE10E94C73CA2CD19
:0C7F900085E90E94C73C9ECDF894FFCF0D
:027F9C00800063
:040000030000780081
:00000001FF
