:100000004CC300007BC3000079C3000077C300002D
:1000100075C3000073C3000071C300006FC300000C
:100020006DC300006BC3000069C3000067C300001C
:1000300065C3000063C3000061C300005FC300002C
:100040005DC300005BC3000059C3000057C300003C
:100050000C94C21853C3000051C300000C94760DD9
:100060004DC300000C9498180C946F1847C30000FF
:1000700045C3000043C3000041C300003FC300006C
:100080003DC300003BC3000039C3000037C300007C
:1000900035C3000033C3000031C300002FC300008C
:1000A0002DC300002BC3000029C3000027C300009C
:1000B00025C3000023C3000021C300001FC30000AC
:1000C0001DC300001BC3000019C300000C94451899
:1000D0000C941C1813C300000C94F2170C94C9174D
:1000E0000DC300002E0F310F200F240F2A0F680FB1
:1000F000350F390F3F0F430F470F4D0F510F550F5E
:10010000680F5B0F5F0F630FA411A411A411A4115A
:10011000A111A111A811A811A811A811A811A81125
:10012000A811A811A111A111A811A811A811A81115
:10013000A811A611A4112D2D2D2D2D2D097C007C8B
:10014000007C2020534E6F097C20204944097C20EC
:1001500046756E43097C2041646472097C20504FCF
:100160004C4C53097C002D2D2D2D2D2D097C007C10
:1001700000446220656E6400416C726561647920A0
:1001800064656C657465640052656164696E6720BE
:10019000446F6E65002D2D2D2D2D2D097C007C00CA
:1001A0007C0009007C20200009007C200009007CE4
:1001B0002020200009007C2020200009007C202035
:1001C000200053686F77696E67205461626C653AEE
:1001D00020466F722049442D0030004F4B0041549F
:1001E000005244590041542B43504F57443D300076
:1001F0007273742047534D0047534D204641494C7C
:100200000A4769766520506F776572210047534D24
:10021000204F4B004F4B004154002E004552524F8F
:1002200052004F4B0041542B53415042523D332C0E
:10023000312C2241504E222C22696E7465726E65FB
:1002400074220041542B53415042523D332C312CE7
:1002500022434F4E54595045222C2247505253228C
:1002600000415445300025005349474E414C3A2047
:100270000053513A200041542B4353510041542B19
:1002800053415042523D312C310041542B53415087
:1002900042523D332C312C2241504E222C22696E89
:1002A0007465726E65742200436F6E6E6563746967
:1002B0006E672047505253005042523A200041543A
:1002C0002B53415042523D322C310041542B53416B
:1002D0005042523D322C310055504C4F4144204643
:1002E00041494C0055504C4F414420444F4E45002D
:1002F00041434B00524541443A0041542B48545429
:100300005052454144004C494E4B204F4B00323037
:10031000302C0054494D45204F55540054494F4E00
:100320003A0041542B48545450414354494F4E3D98
:10033000300041542B48545450494E4954004154C4
:100340002B485454505445524D0032672066616921
:100350006C00414C4C2053656E740044656C6574B0
:10036000696E672044617461005265747279696EC8
:100370006700220026444154413D003F44543D3033
:10038000264445563D56002F4144536D6172742EEC
:1003900061736D782F44656D6F31003A0041542BC5
:1003A00048545450504152413D2255524C222C2227
:1003B000687474703A2F2F003C2D2D49507634000C
:1003C0002E002E002E003C2D2D504F5254003C2D5F
:1003D0002D444944003C2D2D434944003C2D2D55CE
:1003E000287329003C2D2D434944004F0045004E01
:1003F000003C2D2D5020003C2D2D4D4F442062619E
:100400007564003C2D2D4D4F4420524554525900E7
:1004100020746F20307846460053657474696E67A7
:1004200020004E6F2064617461002D2D2D2D2D2D27
:10043000097C007C007C0009007C20200009007CF5
:10044000200009007C2020200009007C20202000C2
:1004500009007C2020200052656164696E67205489
:1004600061626C653A00534554555020444F4E45E7
:1004700000415400506C6561736520576169742EAA
:100480002E00462F7720496E6E6F7661746564206A
:1004900062793A2053455053204D4F4E49544F52A4
:1004A000494E4720505654204C54442E00462F7736
:1004B0003A20562D302E3200000020002300260066
:1004C00029002C002F00320000010000030106016A
:1004D00009013D003D0052656164696E67204D6F02
:1004E000646275732E2E004D4F444255533A204995
:1004F0006E76616C696420435243004D4F4442550F
:10050000533A20496E76616C696420536C6176655C
:10051000206964004D4F444255533A2054696D653B
:100520006F7574004D4F444255533A20496E7661C1
:100530006C69642046756E6374696F6E004D4F443C
:100540004255533A20536C617665204661696C755B
:100550007265004D4F444255533A20496C6C6967AF
:10056000616C20446174612056616C7565004D4F6B
:10057000444255533A20496C6C6967616C20446170
:100580007461204164642E005748494C4520310075
:1005900000000A0B02090C0D0E08070304010000FD
:1005A000000000000000000000000000000000004B
:1005B0000000000000000000000000001211100008
:1005C000000000000000000000000000000000002B
:1005D00000000000000000002200250028002B0081
:1005E0002E003100340002010000050108010B015A
:1005F00000002100240027002A002D0030003300D5
:1006000001010000040107010A01050505050705B0
:1006100008080808020202020A0A0808040404047E
:1006200001010101010101010303030303030303AA
:10063000040707070C0C0C0C0C0C0C0C0202020239
:1006400006060606060606060B0B0B0B0B0B0B0B22
:1006500001021020200808102040102040800201D4
:1006600002010804020101020408102040808040B9
:1006700020100804020180040201804020100804B8
:100680000201080402010102040810204080010256
:10069000040810204080EC1ECF1F11241FBECFEF96
:1006A000D1E2DEBFCDBF00E00CBF12E0A0E0B2E0BF
:1006B000EAEBF9E400E00BBF02C007900D92A2360E
:1006C000B107D9F726E0A2E6B2E001C01D92A4323C
:1006D000B207E1F713E0CCE4D3E000E006C02197D5
:1006E0000109802FFE010E94AF23CB34D10780E0A7
:1006F0000807A9F70E9415190C94CC2481CCEF921D
:10070000FF920F931F93CF93DF938C017B01D42F24
:100710000E94C81280E090E0D701ED91FC91119702
:100720002081222329F001963196ED93FC93F4CF9A
:10073000E81BF90BD701ED93FC93C82FD695D695FE
:100740008D1748F4CD1739F069ED71E0C8010E94AA
:100750007616CF5FF7CFB701C8010E94D216C80145
:10076000DF91CF911F910F91FF90EF90089590919D
:10077000620281E0892780936202609162028BE2CB
:100780000C94690F80916202811104C060E08BE2D9
:100790000E94690F81E08093620290E19093810052
:1007A0001092800020E533EC309387002093860080
:1007B00093E19093810024EE33E030931F06209361
:1007C0001E0680936F00089580916202882321F0B5
:1007D00061E08BE20E94690F1092620280E18093D7
:1007E00081001092800080E593EC909387008093C5
:1007F000860082E18093810082EC93E090931F0653
:1008000080931E0681E080936F00089590916202AC
:1008100081E0892780936202609162028AE20C94EF
:10082000690F60E081E30C94690F61E081E30C944F
:10083000690FCF93DF93C82FD62F642F8CE20E94CD
:10084000690F6D2F8DE20E94690F6C2F8EE2DF9190
:10085000CF910C94690F0F931F93CF938C01A895A0
:1008600001960E941319C82FC8010E9413192C2F3A
:1008700030E0322F2227A895A901482BCA01CF9139
:100880001F910F910895CF93DF931F921F92CDB7C1
:10089000DEB720912006309121062115310511F493
:1008A00024E236E0CE010196821B930B0F900F904D
:1008B000DF91CF910895CF93DF93A8956FE671E014
:1008C0008DEB93E00E94E612C5E0D0E066E671E0B1
:1008D0008DEB93E00E94E6122197C1F78DEB93E038
:1008E0000E94E31261E471E08DEB93E00E94041337
:1008F0006FE371E08DEB93E00E94E612C5E0D0E07B
:1009000066E371E08DEB93E00E94E6122197C1F758
:100910008DEB93E0DF91CF910C94E3121F93CF9373
:10092000DF93182FA89590E0019726E0289FE0011B
:10093000299FD00D1124C85ADD4FD0933402C093A3
:100940003302CE010E941319882309F48BC08F3F14
:1009500009F490C0181386C069E672E0CE010E94C7
:10096000ED1862EC71E08DEB93E00E94E612812FAE
:100970000E942114A0DF6DEB71E08DEB93E00E94EB
:10098000E612809169020E9410146BEB71E08DEB0E
:1009900093E00E94E61266EB71E08DEB93E00E941B
:1009A000E61280916A020E94101464EB71E08DEBF4
:1009B00093E00E94E6126FEA71E08DEB93E00E94F3
:1009C000E61280916B020E9410146DEA71E08DEBCB
:1009D00093E00E94E6126AEA71E08DEB93E00E94D8
:1009E000E6126AE070E080916C0290916D020E94C4
:1009F000161468EA71E08DEB93E00E94E61264EA57
:100A000071E08DEB93E00E94E61280916E020E94ED
:100A1000101462EA71E08DEB93E00E94E61260EA46
:100A200071E08DEB93E00E9404136EE971E08DEBB1
:100A300093E00E94E612A895C5E0D0E065E971E078
:100A40008DEB93E00E94E6122197C1F78DEB93E0C6
:100A50000E94E31268E871E08DEB93E00E940413BA
:100A600081E00FC068E771E08DEB93E00E94041312
:100A700080E007C061E771E08DEB93E00E94041312
:100A800082E0DF91CF911F910895CF93DF93D82F0C
:100A9000C1E06C2F61708D2F0E94690F8C2F8370C5
:100AA00031F066E970E080E090E00E94970FCF5F40
:100AB000C53079F7DB3211F410926202DF91CF91E9
:100AC0000895CF92DF92EF92FF921F93CF93DF931F
:100AD00000D000D0CDB7DEB70E94CF0F6B017C01F4
:100AE000A895CE0101960E94B314BE016F5F7F4F9F
:100AF00088E694E00E941516CE0101960E946517C3
:100B000062E272E0CE0101960E94C11742E0BE018E
:100B10006F5F7F4F88E694E00E942D14182FCE015E
:100B200001960E94651711112AC0A8956CE172E028
:100B3000CE0101960E94C11745E0BE016F5F7F4F55
:100B400088E694E00E942D14182FCE0101960E9491
:100B50006517111114C00E94CF0FDC01CB018C1955
:100B60009D09AE09BF09893B9B40A105B10540F431
:100B70006AE172E08DEB93E00E94E612B2CF11E0E1
:100B8000812F26960FB6F894DEBF0FBECDBFDF9142
:100B9000CF911F91FF90EF90DF90CF9008951F931A
:100BA000CF93DF9300D000D0CDB7DEB726E040E88A
:100BB00055E260E070E080E293E00E94141367E188
:100BC00072E080E293E00E9404137BDF64E172E054
:100BD000CE0101960E94C11742E0BE016F5F7F4FB8
:100BE00088E694E00E942D14182FCE0101960E94F1
:100BF0006517112389F06DE072E08DEB93E00E94A0
:100C0000041380916402811102C010926F0061E0B0
:100C10008AE20E94690F21C068EF71E08DEB93E0DA
:100C20000E94041380E1809381001092800084E28E
:100C300094EF909387008093860083E180938100F6
:100C400086E094E090931F0680931E0681E08093D7
:100C50006F0040E060E080E0ECDD812F26960FB66B
:100C6000F894DEBF0FBECDBFDF91CF911F910895E5
:100C70001F93CF93DF9300D000D0CDB7DEB7182FEE
:100C800060EF71E08DEB93E00E940413A8951123AF
:100C900031F065EE71E080E293E00E94041311DF11
:100CA00061EE71E0CE0101960E94C11745E0BE01E0
:100CB0006F5F7F4F88E694E00E942D14182FCE01BD
:100CC00001960E94651711112AC0A89560ED77E082
:100CD00080E090E00E94970FA8956EED71E080E2B1
:100CE00093E00E940413A895ECDEA8956BED71E0EB
:100CF000CE0101960E94C11742E0BE016F5F7F4F97
:100D000088E694E00E942D14182FCE0101960E94CF
:100D10006517111104C0A89580E0AADF01C0A8954D
:100D200026960FB6F894DEBF0FBECDBFDF91CF91F0
:100D30001F91089526E040E855E260E070E080E20F
:100D400093E00E94141361E672E080E293E00E9457
:100D50000413B7DE63E472E080E293E00E940413C0
:100D6000B0DE65E272E080E293E00E940413A9DE47
:100D700016DF811105C081E07BDFA895DBDFA89538
:100D800008954F925F926F927F928F929F92AF924F
:100D9000BF92CF92DF92EF92FF920F931F93CF9368
:100DA000DF93CDB7DEB764970FB6F894DEBF0FBE02
:100DB000CDBF0E94CF0F4B015C0181E080936402A4
:100DC00090E1909381001092800020E533EC309305
:100DD00087002093860093E19093810027EB33E016
:100DE00030931F0620931E0680936F00D8DE882361
:100DF00009F4F1C066E772E080E293E00E94041318
:100E0000CE010D960E94B314CE0107960E94C8121F
:100E100061E772E0CE0101960E94C11744E0BE0175
:100E20006F5F7F4FCE010D960E942D14182FCE01BB
:100E300001960E946517112309F447C0809138027A
:100E40009091390201969093390280933802609113
:100E5000380270913902CE010D9692D6FC01808144
:100E60008C3299F16091380270913902CE010D9661
:100E700087D6FC0110811A8219821C821B821E8275
:100E80001D82BE01695F7F4FCE0101960E945017FF
:100E90001B8B1C8A41E050E0BE016D5E7F4FCE018E
:100EA00001960E94A516811104C0CE0101960E94F0
:100EB000D816BE016F5F7F4FCE0107960E94501774
:100EC000CE0101960E946517B9CF68E672E08DEBFE
:100ED00093E00E94E61280E060E0EF81F885908167
:100EE000992371F0882329F0660F262F220F220FF5
:100EF000620F9053690F8F5F3196F887EF83EDCFC4
:100F0000E81BF109F887EF8370E080E090E00E9431
:100F10004F2120E030E048EF51E40E94FF2220E022
:100F200030E048EC52E40E94AE216B017C0120E0ED
:100F300030E0A9010E944921882369F02CEE31E5B7
:100F400045E052E4C701B6010E94492118161CF081
:100F500040E060E02CC02CEE31E545E052E4C701F2
:100F6000B6010E949323181664F42CEE31E545E88F
:100F700052E4C701B6010E944921181614F040E05E
:100F800015C02CEE31E545E852E4C701B6010E94D8
:100F90009323181674F420E030E040EA52E4C701CD
:100FA000B6010E944921181624F041E061E081E079
:100FB00040DC42E0C701B6011AD666E672E08DEB6E
:100FC00093E00E940413CE0107960E946517CE019C
:100FD0000D960E9465176BEC72E08DEB93E00E941A
:100FE00004136EEB72E080E293E00E94041369DD6B
:100FF000882309F454C068EB72E0CE0101960E9488
:10100000C11745E0BE016F5F7F4F88E694E00E9404
:101010002D14182FCE0101960E946517112309F493
:101020003EC060913802709139026D5F7F4F7093BE
:1010300039026093380288E694E0A2D5FC018081F1
:10104000A5D6609138027091390288E694E098D56F
:10105000FC018081813309F440C0609138027091B5
:10106000390288E694E08CD5FC0180818FD668EA4D
:1010700072E08DEB93E00E9404136AE872E080E274
:1010800093E00E9404131DDD882349F06DE772E0B0
:1010900080E293E00E94041314DD81111EC06AE413
:1010A00073E08DEB93E00E940413809163028F5FE5
:1010B000809363021092640268ED72E08DEB93E01E
:1010C0000E94041310926F008BE2DFDC68E674E08C
:1010D0008DEB93E06AD6F12C11C110E110938100E1
:1010E0001092800084ED90E39093870080938600B7
:1010F00083E18093810087EB93E090931F068093B8
:101100001E0601E000936F0082E0809364026EE3AC
:1011100073E080E293E00E940413D3DC882351F251
:1011200062E373E080E293E00E940413CADC882348
:1011300009F4C0CFA89560916502709166028DEBAD
:1011400093E033D6609165027091660280E293E08D
:101150002CD6B7DC882309F4ADCF62E273E080E2DD
:1011600093E00E940413ADDC882309F4F0C0809161
:101170006202811115C0109381001092800080E5F9
:1011800093EC909387008093860082E180938100A6
:1011900082EC93E090931F0680931E0600936F00ED
:1011A000809162028823B9F080E1809381001092DF
:1011B000800080E593EC909387008093860083E124
:1011C0008093810084EE93E090931F0680931E0627
:1011D00081E080936F00E3D624E630E040E050E009
:1011E0000E94782269017A0184E6482E512C612CF4
:1011F000712C6CE173E0CE0101960E94C11745E0AD
:10120000BE016F5F7F4F88E694E00E942D14182F77
:10121000CE0101960E946517112309F471C086E082
:10122000809364026EE073E0CE0101960E94C117C4
:1012300044E0BE016F5F7F4F88E694E00E942D146A
:10124000182FCE0101960E946517112309F432CFA1
:1012500066E073E08DEB93E00E9404136AEF72E0A6
:1012600080E293E00E9404132CDC882309F422CF4F
:1012700096D664EF72E0CE0101960E94C11745E058
:10128000BE016F5F7F4F88E694E00E942D14182FF7
:10129000CE0101960E946517112359F360EF72E0A9
:1012A000CE0101960E94C11743E0BE016F5F7F4FE0
:1012B00088E694E00E942D14F82ECE0101960E943B
:1012C0006517FF2009F4F6CE64EE72E08DEB93E033
:1012D0000E94041310926F0061E08BE2FAD55FD692
:1012E000681979098A099B094AE00E94AF138DEBBE
:1012F00093E00E94E31287E0809364028F2D27C061
:10130000CE0101960E94B314BE016F5F7F4F88E645
:1013100094E00E941516CE0101960E9465173FD6F3
:10132000A30192010E947822DA01C9018C199D095A
:10133000AE09BF0987399105A105B10508F459CF58
:1013400063E173E08DEB93E00E940413B3CE6496E7
:101350000FB6F894DEBF0FBECDBFDF91CF911F91C6
:101360000F91FF90EF90DF90CF90BF90AF909F9044
:101370008F907F906F905F904F900895AF92BF9243
:10138000CF92DF92EF92FF920F931F93CF93DF9351
:10139000CDB7DEB7A9970FB6F894DEBF0FBECDBFAD
:1013A000182F8E3F09F002C180916E048F3F09F41F
:1013B0007EC3809100028F3F01F1EEE6F4E024E06D
:1013C00035E040E080818F3F29F4A0E0B2E020E0EA
:1013D00030E008C018160CF44F5F33962E173F0705
:1013E00089F7F3CF8D918F3F51F4842F90E0281728
:1013F0003907E9F08FEF809300021FEF14C0082E29
:10140000000C990BFC01EE0FFF1F8E0F9F1FFC01BC
:10141000E259FB4F8081882369F32F5F3F4F2233CE
:10142000310501F712E3AEE6B4E080E00AC01FEF39
:10143000120F4FC0911110C08F5F1396823309F4C1
:1014400048C09C919F3FB1F7E12F012E000CFF0B8C
:10145000E050FE4F91833DC01F5F40910002242F5A
:10146000042E000C330BF901EE0FFF1F2E0F3F1F50
:10147000F901E259FB4F2081291754F4E12F012E85
:10148000000CFF0BE050FE4F408380930002D4CF4E
:10149000112391F2412F012E000C550BBA0161501E
:1014A0007E4FFB010081202F002E000C330BF90131
:1014B000EE0FFF1F2E0F3F1FF901E259FB4F208156
:1014C000FA01E050FE4F291714F40083FB018083DA
:1014D000B3CF1F3F09F4EBC2A0E0B2E080E0811778
:1014E0000CF063C02D91022E000C330BF901EE0FAE
:1014F000FF1F2E0F3F1FF901E259FB4F90812C91E6
:10150000022E000C330BF901EE0FFF1F2E0F3F1FB1
:10151000F901E259FB4F40818F5F941701F3292FA6
:10152000990F330B241B310947FD339521303105C9
:10153000B1F2612F012E000C770BA82FB0E06A17D3
:101540007B079CF1912FA050BE4F891760F5DC906E
:10155000492F50E040505E4FFA0100812D2D0D2C97
:10156000000C330B7901EE0CFF1C2E0D3F1DF90111
:10157000E259FB4F7F01202F002E000C330BF901A5
:10158000EE0FFF1F2E0F3F1FF901E259FB4F5F01C6
:10159000F7013081F501208132171CF4FA01D08265
:1015A0000C939150D2CF8F5FC8CF1F5FCE0148966A
:1015B000EFD7CE014E96ECD76AE570E0CE014896A3
:1015C0000E944F166DE973E0CE0148960E94F61610
:1015D00062E674E0CE0148960E94D2166BE973E091
:1015E000CE0148960E9476166CE574E0CE014896CE
:1015F0000E94D21667E873E0CE0148960E947616E4
:101600006BE773E0CE0148960E94761664E070E0C6
:10161000CE014E960E944F1660916702709168024B
:1016200040E1CE0101960E946A17BE016F5F7F4FB5
:10163000CE014E960E941516CE0101960E946517A6
:1016400040E1BE01625E7F4FCE01019658D8BE01D7
:101650006F5F7F4FCE0148960E94D216CE01019651
:101660000E94651764E773E0CE0148960E947616E3
:101670000AD9ABD380E090E0E88DF98D2081222358
:1016800029F001963196F98FE88FF6CFE81BF90B18
:10169000F98FE88F8B8B0E942114AB89AF5FAB8BE6
:1016A000B0E062EC71E06A1B7B0B7F8B6E8B20E0FD
:1016B00030E017FD26C08FEF810F8F3F19F43D8B6F
:1016C0002C8B42C0E82F082E000CFF0BE050FE4F81
:1016D0004081042E000C550BFA01EE0FFF1F4E0F38
:1016E0005F1FFA01E259FB4F9081F4E09F02200D49
:1016F000311D1124265F3F4F182F62177307C8F65C
:1017000004C03D8B2C8B1F3FF9F4E12F012E000C00
:10171000FF0BE050FE4F4081042E000C550BFA01E8
:10172000EE0FFF1F4E0F5F1FFA01E259FB4F408182
:1017300086EF9FEF54E04502801991091124280F8C
:10174000391F3D8B2C8B1F5F8C899D89019661E031
:1017500070E08A0F9B1F0E94B723909366028093CC
:101760006502009709F497C1BE01685E7F4F0E9431
:10177000D21689D82AD3812F012E000C990B9F8B6A
:101780008E8B0FEF8C899D89892B09F440C17BD802
:101790001CD3812F012E000C990BFC01E050FE4F51
:1017A0007F0180818F5FBAD860916C0270916D0269
:1017B00040E1CE0101960E946A17BE016F5F7F4F24
:1017C000CE014E960E941516CE0101960E94651715
:1017D00040E1BE01625E7F4FCE0101960E947F0311
:1017E000BE016F5F7F4F80916502909166020E94FB
:1017F000D216CE0101960E94651740E160916A02FF
:10180000CE0101960E949517BE016F5F7F4FCE01FA
:101810004E960E941516CE0101960E94651748E06B
:10182000BE01625E7F4FCE0101960E947F03BE0122
:101830006F5F7F4F80916502909166020E94D21681
:10184000CE0101960E94651740E160916B02CE01C6
:1018500001960E949517BE016F5F7F4FCE014E9695
:101860000E941516CE0101960E94651748E0BE0140
:10187000625E7F4FCE0101960E947F03BE016F5FC3
:101880007F4F80916502909166020E94D216CE0130
:1018900001960E94651780916E021DA21CA21FA2D4
:1018A0001EA219A618A690E040E1BE016F5F7F4F0F
:1018B000880F991F0E940C21BE016F5F7F4FCE01E0
:1018C00084960E943B17BE016C5D7F4FCE014E9601
:1018D0000E941516CE0184960E94651748E0BE014D
:1018E000625E7F4FCE0101960E947F03BE016F5F53
:1018F0007F4F80916502909166020E94D216CE01C0
:1019000001960E9465171B8A2B89F7018081E82FB9
:10191000082E000CFF0B30E0AF01440F551FE40F01
:10192000F51FE259FB4F4081042E000C550B241784
:10193000350794F5220F331F0180F281E02DE20F6D
:10194000F31F6081718140E1CE0101960E946A1708
:10195000BE016F5F7F4FCE014E960E941516CE01DD
:1019600001960E94651740E1BE01625E7F4FCE0185
:1019700001960E947F03BE016F5F7F4F80916502D9
:10198000909166020E94D216CE0101960E946517C0
:101990008B898F5F8B8BB8CF8B8B90E0FC01EE0F28
:1019A000FF1F8E0F9F1FFC01E259FB4F20818C8986
:1019B0009D890A97F4E02F028019910911249D8BCB
:1019C0008C8B6AE070E032D78DEB93E0FCD50E94FF
:1019D0004304FBD1CB88D12CC601880F991F8C0DF5
:1019E0009D1D9C0122593B4F6901F9018181928122
:1019F0000E947320F601128211828DEB93E0E3D5F1
:101A00000E944304E2D1F70100831F5FBBCE62E76F
:101A100073E080916502909166020E947616FE88BE
:101A20000E944304D2D11B8AACD9811104C08B8996
:101A3000882309F43EC06BE573E08DEB93E0E4D5B9
:101A40000E944304C2D10091650210916602011503
:101A5000110531F0C8010E946517C8010E9473206A
:101A600010926602109265020E944304AED18F2D3F
:101A70000F2C000C990BA9D1109100021F3F69F4A3
:101A800062E573E08DEB93E0BFD540E060E080E07D
:101A90000E94190403C01FEF01C01F2DCE014E96F6
:101AA0000E946517CE0148960E9465170BC01FEF74
:101AB00009C069E673E08DEB93E0A6D581E08B8BDE
:101AC00060D9B9CF812FA9960FB6F894DEBF0FBEAB
:101AD000CDBFDF91CF911F910F91FF90EF90DF90DD
:101AE000CF90BF90AF9008950E94B1241F920F92A3
:101AF0000FB60F9211242F933F938F939F93AF9321
:101B0000BF9380917B0290917C02A0917D02B09165
:101B10007E0230917A0223E0230F2D3720F40196C4
:101B2000A11DB11D05C026E8230F0296A11DB11D00
:101B300020937A0280937B0290937C02A0937D0293
:101B4000B0937E0280917F0290918002A0918102E9
:101B5000B09182020196A11DB11D80937F029093E6
:101B60008002A0938102B0938202BF91AF919F91B6
:101B70008F913F912F910F900FBE0F901F9018954E
:101B8000FC01248135816217730720F480819181E3
:101B9000009729F410926F028FE692E00895860F65
:101BA000971F08953FB7F89480917F02909180022B
:101BB000A0918102B091820226B5A89B05C02F3F5B
:101BC00019F00196A11DB11D3FBFBA2FA92F982F63
:101BD0008827820F911DA11DB11DBC01CD0142E0DE
:101BE000660F771F881F991F4A95D1F708958F9226
:101BF0009F92AF92BF92CF92DF92EF92FF920F939C
:101C00001F93CF93DF936B017C01142F9B01AC01D9
:101C10000E949723882319F062E572E027C04601ED
:101C20005701E894B7F82FEF3FEF4FE75FE7C501A3
:101C3000B4010E94972381110DC02FEF3FEF4FE7B2
:101C40005FE7C501B4010E94492118161CF466E53E
:101C500072E00CC02FEF3FEF4FE75FE4C701B60122
:101C60000E94932318168CF46AE572E08DEB93E0E2
:101C7000DF91CF911F910F91FF90EF90DF90CF9068
:101C8000BF90AF909F908F908FC42FEF3FEF4FE7A3
:101C90005FECC701B6010E94492187FDE5CF20E036
:101CA00030E0A901C701B6010E94492187FF0AC09F
:101CB0006DE28DEB93E01ED7EC01F7FAF094F7F8A4
:101CC000F09402C0C0E0D0E000E060E070E080E0AE
:101CD0009FE3101741F020E030E040E251E40E9421
:101CE000FF220F5FF6CFA70196010E949B226B0196
:101CF0007C010E9467234B015C014AE030D5C80F8C
:101D0000D91F1123A9F1C501B4010E944D219B01E6
:101D1000AC01C701B6010E949A226B017C016EE200
:101D20008DEB93E0E7D6C80FD91F20E030E040E20A
:101D300051E4C701B6010E94AE214B015C010E9433
:101D400067236B017C016AE070E0C6016FD5C80FA4
:101D5000D91FB60180E090E00E944D219B01AC01AB
:101D6000C501B4010E949A226B017C011150E9F671
:101D7000CE01DF91CF911F910F91FF90EF90DF90F7
:101D8000CF90BF90AF909F908F900895CF93DF93A7
:101D9000682F8DEB93E0AED6EC018DEB93E013D47E
:101DA0008C0F9D1FDF91CF9108950F931F93CF93B9
:101DB000DF93EC01BDD48C01CE0105D4800F911FBF
:101DC000DF91CF911F910F910895CF93DF93BC01C5
:101DD000990F880B990B97FF02C003D502C04AE008
:101DE000BED4EC018DEB93E0EED38C0F9D1FDF9101
:101DF000CF910895FC01A089B1898C91A689B789FA
:101E000082FD0FC09C91818D8F5F8F73228D821711
:101E100049F0218DDF01A20FB11D5D969C93818F4A
:101E200008958C91089590E0FC013197E231F1051D
:101E300008F04EC08827EE58FF4F8F4F0C94AF2309
:101E4000809180008F7703C0809180008F7D809388
:101E50008000089580918000877FF9CF84B58F77C7
:101E600002C084B58F7D84BD08958091B0008F77C6
:101E700003C08091B0008F7D8093B0000895809161
:101E800090008F7707C0809190008F7D03C0809174
:101E90009000877F8093900008958091A0008F77B5
:101EA00007C08091A0008F7D03C08091A000877F34
:101EB0008093A0000895809120018F7707C08091C2
:101EC00020018F7D03C080912001877F80932001B6
:101ED00008951F93CF93DF93282F30E0F901E05747
:101EE000FA4F8491F901E05BF94FD491F901E65F73
:101EF000F94FC491CC23B9F0162F811194DFEC2F48
:101F0000F0E0EE0FFF1FEA52FA4FA591B4919FB790
:101F1000F894111104C08C91D095D82302C0EC9193
:101F2000DE2BDC939FBFDF91CF911F9108958F929D
:101F30009F92AF92BF92CF92DF92EF92FF926B018E
:101F40007C0130DE4B015C01C114D104E104F104D9
:101F5000E9F028DEDC01CB0188199909AA09BB093F
:101F6000883E9340A105B10578F321E0C21AD1085B
:101F7000E108F10888EE880E83E0981EA11CB11CD0
:101F8000C114D104E104F10421F7DECFFF90EF90FA
:101F9000DF90CF90BF90AF909F908F9008952FB714
:101FA000F89460917B0270917C0280917D02909107
:101FB0007E022FBF08957F928F929F92AF92BF9221
:101FC000CF92DF92EF92FF920F931F93CF93DF9305
:101FD000CDB7DEB7DA950FB6F894DEBF0FBECDBF32
:101FE000C82E809106058983CA8221E0C216A0F01E
:101FF00074E07C1518F487E1C8120EC080910705C3
:10200000909108059B838C838091090590910A0526
:102010009D838E8386E001C082E08E010F5F1F4F9B
:1020200090E19C1528F0AFE0CA1630F49BEF01C098
:102030009AEE9C0D923078F420918B0590918C054E
:10204000F801E80FF11D908391E0980FF801E90F76
:10205000F11D8E5F2083BFE0CB1641F1BC1558F017
:10206000E5E0CE16A1F0F6E0CF12B6C020918F05C4
:102070009091900510C026E1C21609F48EC077E158
:10208000C71609F459C090E1C912A6C055C02091E5
:102090008D0590918E05F801E80FF11D908391E078
:1020A000980FF801E90FF11D8E5F95C020918D0505
:1020B00030918E05F801E80FF11D308342E0480FA2
:1020C00091E0980FF801E90FF11D2083B9016770C5
:1020D0007727A3E036952795AA95E1F7672B19F0A6
:1020E00091E0920F01C0922FB3E0B80FF801E40F16
:1020F000F11D90838C5F60E070E0A0E04FEF480F2F
:102100009A1303C08B2F890F67C050E09B01359550
:102110002795400F511F220F331FF901E157FA4F46
:10212000A0FD02C0208101C02181FA012083AF5FA0
:102130006F5F7F4F8F5FE2CF20918D0530918E05CD
:10214000F801E80FF11D308391E0980FF801E90FD5
:10215000F11D208392E0980FF801E90FF11D8D5FCA
:10216000922F990F908390E03327E92FF0E0E21748
:10217000F30794F5EE0FFF1FE157FA4F50814181AD
:10218000F801E80FF11D408341E0480FF801E40F2A
:10219000F11D8E5F50839F5FE8CF90918F05209156
:1021A0009005F801E80FF11D208321E0280FF801C8
:1021B000E20FF11D9083209191059091920532E0FC
:1021C000380FF801E30FF11D908393E0980FF801A9
:1021D000E90FF11D8C5F20837801F8012FEF3FEFAD
:1021E000D02E9E2F901B9817A0F49191292748E09C
:1021F00050E0B9017695679520FF06C09B0191E0FC
:10220000292790EA392701C09B014150510989F7DC
:10221000E8CFF801E80FF11D2083B2E0BB2EB80E25
:102220008F5FF801E80FF11D3083F801EB0DF11D10
:1022300010828091040590910505DC01ED91FC91DF
:102240000284F385E02D1995019699F7E0911A061D
:10225000F0911B06309709F0199580910405909133
:1022600005052E2D2D192B1558F4F70161917F01CD
:10227000DC01ED91FC910190F081E02D1995EDCFFD
:10228000DC01ED91FC910680F781E02D1995E0913C
:102290001C06F0911D06309709F0199580DE4B0160
:1022A0005C01A8E0EA2EF12CD12C809104059091DC
:1022B0000505DC01ED91FC910084F185E02D199577
:1022C000892BA9F0772473947F0C80910405909159
:1022D0000505DC01ED91FC910284F385E02D199553
:1022E000F801EF0DF11D8083EA94F72C07C0E0910F
:1022F0001806F0911906309709F01995B5E0FB1210
:1023000027C09981809106059813ABC0EA818E2F72
:102310008F7790E08C159D0509F0A5C0E7FF04C0FC
:102320008B81882379F181C08E2F90E0FC01319759
:10233000E731F10568F48827EC57FF4F8F4F0C9475
:10234000AF23F3E0EF2E04C0EB8002C0E5E0EE2EF9
:1023500026DEDC01CB0188199909AA09BB09813D58
:102360009740A105B10538F480E0EE2031F08823D4
:1023700009F49BCF5AC082EEF8CF811156C0F4E029
:10238000FF15C8F58FEF9FEF60E0EF2DF0E09F01A4
:1023900022503109462F50E0D80142175307BCF4B0
:1023A000A40FB51F4C91842748E050E0DC01B6959E
:1023B000A79580FF06C0CD0171E0872770EA9727B7
:1023C00001C0CD014150510989F76F5FE3CFA20FE2
:1023D000B31F2C9130E0AC0155274217530709F089
:1023E000A4C0892F9927EC0FFD1F208130E08217B0
:1023F000930709F09AC08A818530B8F58330B8F523
:10240000813090F05B81652F70E075956795209124
:10241000170640E0842F90E0861797070CF453C00E
:102420002093170650FD6DC080E0109211061092A7
:1024300013061092120610921606D3950FB6F89452
:10244000DEBF0FBECDBFDF91CF911F910F91FF90E7
:10245000EF90DF90CF90BF90AF909F908F907F9044
:10246000089580EEE2CF81EEE0CF8731E9F66B810F
:1024700070E0759567952091170640E0842F90E0F5
:10248000861797071CF020931706CECF4034C0F470
:102490009C012E5F3F4F220F331F880F991FFC01B5
:1024A000EC5FFA4FDE01A20FB31F8C9190E0982FE2
:1024B0008827D801A20FB31F2C91822B9087878386
:1024C000242F4F5FDBCF4034C8F4880F991FFC01E5
:1024D000EC5FFA4FA5E0B0E0AC0FBD1FA80FB91F2D
:1024E0002C9130E0322F2227A4E0B0E0AC0FBD1FCA
:1024F000A80FB91F8C91282B30872783242F4F5F7B
:1025000089CF403468F4880F991FFC01EC5FFA4FC3
:10251000DE01A80FB91F14968C9190E090878783F5
:1025200081E0840F809317067FCF83EE7ECF0F93D9
:102530001F9335DD609328037093290380932A034A
:1025400090932B0380E293E06AD297FF1EC027DDB1
:10255000009128031091290320912A0330912B0325
:10256000DC01CB01801B910BA20BB30B0091240368
:10257000109125032091260330912703801791079E
:10258000A207B307F8F28FEF9FEF1F910F91089505
:10259000FC0111821082138212821582148240E0A3
:1025A00050E060E672E048C46115710549F0FB0136
:1025B00001900020E9F73197AF01461B570BF3C19B
:1025C00080E090E008956EE572E0EECFEF92FF922A
:1025D0000F931F93CF93DF938C017B01C0E0D0E07A
:1025E000F701EC0FFD1F6491662331F0C80182D220
:1025F000892B11F02196F4CFCE01DF91CF911F915D
:102600000F91FF90EF9008950F931F93CF93DF9357
:10261000EC01DCDF8C01CE01D6DF800F911FDF9152
:10262000CF911F910F910895CF92DF92EF92FF9279
:102630001F93CF93DF93EC016A017B01122FE8898E
:10264000F98982E080834115514E61057105B1F031
:1026500060E079E08DE390E0A70196010E94782286
:10266000DA01C9010197A109B109B695A795979516
:1026700087959C01211580E13807A8F0E889F98940
:10268000108260E874E88EE190E0A70196010E9454
:102690007822DA01C9010197A109B109B695A79578
:1026A000979587959C01EC85FD853083EE85FF85A8
:1026B0002083188EEC89FD891083EA89FB8980814B
:1026C00080618083EA89FB89808188608083EA89D0
:1026D000FB89808180688083EA89FB8980818F7D86
:1026E0008083DF91CF911F91FF90EF90DF90CF908B
:1026F000089590E0FC01E05BF94F2491FC01E65F56
:10270000F94F8491882399F090E0880F991FFC017C
:10271000E051FA4FA591B491FC01EA52FA4F85912C
:1027200094918FB7F894EC91E22BEC938FBF0895BE
:10273000FB01448155816081718135C1CF93DF9365
:10274000EC01FB014481558160817181FED28111D0
:1027500002C0CE012DD3CE01DF91CF9108958F928B
:102760009F92AF92BF920F931F93CF93DF93CDB7FA
:10277000DEB7A1970FB6F894DEBF0FBECDBF19A28A
:10278000423008F44AE08E010F5D1F4F842E912CD9
:10279000A12CB12CA50194010E947822E62FB90149
:1027A000CA0101501109EA3014F4E05D01C0E95C8E
:1027B000D801EC93232B242B252B61F7B8018DEB4B
:1027C00093E0F2DEA1960FB6F894DEBF0FBECDBF48
:1027D000DF91CF911F910F91BF90AF909F908F90FD
:1027E0000895CF92DF92EF92FF92CF93DF936B0128
:1027F0007C016DE28DEB93E07DD1EC0166277727BC
:10280000CB016C197D098E099F094AE0A8DF8C0F66
:102810009D1FDF91CF91FF90EF90DF90CF900895B3
:10282000682F70E080E090E04AE099CFAB01672B21
:1028300021F4682F8DEB93E05DC1BC0180E090E056
:102840008ECFCF93DF93ECDFEC018DEB93E0BBDE1B
:102850008C0F9D1FDF91CF9108958F929F92BF9211
:10286000CF92DF92EF92FF920F931F93CF93DF935C
:10287000EC01A8958C819D81892B09F467C0E881C2
:10288000F9818081882309F461C0B42E7B01C12CB9
:10289000D12CE881F9818081882309F44CC0A89566
:1028A00000E0802E912CB401C7016AD9FC0180811F
:1028B0008823E1F0A895E881F9811081B401C7016E
:1028C0005FD9FC018081181306C088819981019627
:1028D000998388830F5FE881F9811081602F70E010
:1028E000C7014ED9FC0180811817D9F210E0B80158
:1028F000C70146D9FC01208188819981211113C02B
:102900004B2D50E0415051094C0D5D1D5093390243
:10291000409338020C0D1D1D801B910B99838883F9
:10292000A89581E014C00196998388830F5F1F4F9B
:10293000C00ED11EAECFEC19FD09F983E8838FEFED
:102940009FEF9093390280933802A89580E0DF9141
:10295000CF911F910F91FF90EF90DF90CF90BF909C
:102960009F908F9008950F931F93CF93DF931F92A3
:102970001F92CDB7DEB78C010BDED9DD97FD0AC003
:1029800089831A8241E050E0BE016F5F7F4FC8012A
:10299000DCD1F3CFC8010F900F90DF91CF911F9141
:1029A0000F9108950895CF92DF92EF92FF920F93C7
:1029B0001F93CF93DF936C017A018B01C0E0D0E0CD
:1029C000CE15DF0581F0D8016D918D01D601ED9115
:1029D000FC910190F081E02DC6011995892B11F031
:1029E0002196EECF7E01C701DF91CF911F910F910C
:1029F000FF90EF90DF90CF90089580E090E00895F1
:102A0000FC01538D448D252F30E0842F90E0821BF4
:102A1000930B541710F0CF96089501970895FC0179
:102A2000918D828D981761F0828DDF01A80FB11D05
:102A30005D968C91928D9F5F9F73928F90E0089529
:102A40008FEF9FEF0895FC01918D828D981731F0E3
:102A5000828DE80FF11D858D90E008958FEF9FEF37
:102A60000895FC01918D228D892F90E0805C9F4F0D
:102A7000821B91098F739927089583E892E0F1DF13
:102A800021E0892B09F420E0822F089580E293E071
:102A9000E8DF21E0892B09F420E0822F08958DEBF7
:102AA00093E0DFDF21E0892B09F420E0822F0895F5
:102AB000FC01848DDF01A80FB11DA35ABF4F2C91DB
:102AC000848D90E001968F739927848FA689B789AA
:102AD0002C93A089B1898C91837080648C93938DA1
:102AE000848D981306C00288F389E02D80818F7D44
:102AF00080830895EF92FF920F931F93CF93DF93FC
:102B0000EC0181E0888F9B8D8C8D981305C0E8893E
:102B1000F989808185FD25C0F62E0B8D10E00F5FB1
:102B20001F4F0F731127E02E8C8DE8120BC00FB6CC
:102B300007FCFACFE889F989808185FFF5CFCE01BE
:102B4000B7DFF2CF8B8DFE01E80FF11DE35AFF4F87
:102B5000F0829FB7F8940B8FEA89FB8980818062AD
:102B60000AC09FB7F894EE89FF896083E889F989E4
:102B700080818370806480839FBF81E090E0DF91DB
:102B8000CF911F910F91FF90EF900895CF93DF9316
:102B9000EC01888D8823C1F0EA89FB89808185FD5D
:102BA00005C0A889B9898C9186FD0EC00FB607FCB7
:102BB000F5CF808185FFF2CFA889B9898C9185FFF7
:102BC000EDCFCE0175DFE8CFDF91CF91089580E0A2
:102BD00090E0892B19F063DF81111BC080E090E049
:102BE000892B41F080E090E0892B21F00E940000C9
:102BF000811112C080E090E0892B19F047DF81112C
:102C00000EC080E090E0892B79F037DF81110AC097
:102C100008950E940000E2CF0E940000EBCF0E94C6
:102C20000000EFCF0C94000008950F931F93CF93F3
:102C3000DF938C01EB01FC0180819181009739F0D9
:102C40006881798161157105A1F40E9473208881E2
:102C50009981F801918380838A819B819383828308
:102C60008C819D8195838483198218821B821A82AC
:102C70000FC0F801428153812C813D8142175307D7
:102C800020F30E94C5248C819D81F8019583848363
:102C90001D821C82DF91CF911F910F9108950F9398
:102CA0001F93CF93DF93EC0188819981009729F0DE
:102CB0002A813B812617370788F48B016F5F7F4F8E
:102CC0000E94D123009761F0998388831B830A8334
:102CD0002C813D81232B11F4FC01108281E001C085
:102CE00080E0DF91CF911F910F910895EF92FF92B5
:102CF0000F931F93CF93DF936115710511F480E05B
:102D00001DC08B01EC01CB010E9403210097A9F0AB
:102D10002C813D817C01E20EF31EB701CE01BFDFA5
:102D2000882369F3288139818C819D81B801820FC4
:102D3000931F0E94FC20FD82EC8281E0DF91CF9105
:102D40001F910F91FF90EF900895EF92FF920F93D4
:102D50001F93CF93DF936115710511F480E01BC0C1
:102D600041155105B9F07B01EC018C819D818A01EF
:102D7000080F191FB801CE0192DF882379F328814B
:102D800039818C819D81B701820F931F0E94C524D8
:102D90001D830C8381E0DF91CF911F910F91FF90F4
:102DA000EF900895FB014481558160817181CDCF01
:102DB000CF93DF93EC0188819981009711F00E94F5
:102DC0007320198218821D821C821B821A82DF9155
:102DD000CF910895CF93DF93EC0188DF811102C07A
:102DE000CE01E6DFCE01DF91CF910895EF92FF9201
:102DF0000F931F93CF93DF93EC018B016115710546
:102E000049F0CB010E9403217C01BC01CE0147DFC8
:102E1000811103C0CE01CCDF07C0FD82EC82B80176
:102E2000888199810E94FC20CE01DF91CF911F9172
:102E30000F91FF90EF900895EF92FF920F931F93E1
:102E4000CF93DF93EC017B018A01BA0128DF811166
:102E500003C0CE01ADDF07C01D830C83B70188819D
:102E600099810E94C524CE01DF91CF911F910F91CE
:102E7000FF90EF900895CF93DF93EC0161157105FA
:102E800051F0FB0101900020E9F73197AF01461B9B
:102E9000570BD2DF01C08CDFCE01DF91CF910895B7
:102EA000CF93DF93EC01FB018617970751F0608108
:102EB00071816115710521F044815581BDDF01C02B
:102EC00077DFCE01DF91CF910895FC018081918160
:102ED0000C9473200F931F93CF93DF93CDB7DEB77E
:102EE00061970FB6F894DEBF0FBECDBF8C01CB014A
:102EF000F80111821082138212821582148250E02E
:102F0000BE016F5F7F4F0E941621BE016F5F7F4F32
:102F1000C801B1DF61960FB6F894DEBF0FBECDBF1A
:102F2000DF91CF911F910F9108950F931F93CF932E
:102F3000DF93CDB7DEB729970FB6F894DEBF0FBE8B
:102F4000CDBF8C01862FF80111821082138212826C
:102F50001582148250E0BE016F5F7F4F90E00E94A7
:102F60001621BE016F5F7F4FC80185DF29960FB61E
:102F7000F894DEBF0FBECDBFDF91CF911F910F91AF
:102F80000895FC011182108213821282158214822C
:102F90002DCF1F920F920FB60F9211240BB60F92E6
:102FA0002F933F934F935F936F937F938F939F9351
:102FB000AF93BF93EF93FF9383E892E079DDFF91A6
:102FC000EF91BF91AF919F918F917F916F915F91A1
:102FD0004F913F912F910F900BBE0F900FBE0F900E
:102FE0001F9018951F920F920FB60F9211240BB6D7
:102FF0000F922F933F934F935F936F937F938F9392
:103000009F93AF93BF93EF93FF9383E892E00E9467
:10301000FA0EFF91EF91BF91AF919F918F917F91A8
:103020006F915F914F913F912F910F900BBE0F9039
:103030000FBE0F901F9018951F920F920FB60F9210
:1030400011240BB60F922F933F934F935F936F937F
:103050007F938F939F93AF93BF93EF93FF9380E200
:1030600093E026DDFF91EF91BF91AF919F918F91FA
:103070007F916F915F914F913F912F910F900BBE78
:103080000F900FBE0F901F9018951F920F920FB6C2
:103090000F9211240BB60F922F933F934F935F9390
:1030A0006F937F938F939F93AF93BF93EF93FF9310
:1030B00080E293E00E94FA0EFF91EF91BF91AF91F1
:1030C0009F918F917F916F915F914F913F912F9140
:1030D0000F900BBE0F900FBE0F901F9018951F9270
:1030E0000F920FB60F9211240BB60F922F933F93AE
:1030F0004F935F936F937F938F939F93AF93BF9300
:10310000EF93FF938DEB93E0D3DCFF91EF91BF91B1
:10311000AF919F918F917F916F915F914F913F916F
:103120002F910F900BBE0F900FBE0F901F90189510
:103130001F920F920FB60F9211240BB60F922F937E
:103140003F934F935F936F937F938F939F93AF932F
:10315000BF93EF93FF938DEB93E00E94FA0EFF91E4
:10316000EF91BF91AF919F918F917F916F915F91FF
:103170004F913F912F910F900BBE0F900FBE0F906C
:103180001F9018951F920F920FB60F9211240BB635
:103190000F922F933F934F935F936F937F938F93F0
:1031A0009F93AF93BF93EF93FF93E0911E06F0912F
:1031B0001F061995FF91EF91BF91AF919F918F914C
:1031C0007F916F915F914F913F912F910F900BBE27
:1031D0000F900FBE0F901F901895CF92DF92EF9235
:1031E000FF920F931F93CF93DF93EB017B0126E0B8
:1031F000E20EF11C8B016C01C61AD70AC601800FC2
:10320000911F0E946222F80181938F01EE15FF0544
:10321000A9F7CE01DF91CF911F910F91FF90EF9011
:10322000DF90CF9008950C946222CF93DF93CDB7B7
:10323000DEB76E970FB6F894DEBF0FBECDBF7894A1
:1032400084B5826084BD84B5816084BD85B58260AB
:1032500085BD85B5816085BD80916E00816080935C
:103260006E001092810080918100826080938100C5
:1032700080918100816080938100809180008160D5
:10328000809380008091B10084608093B100809130
:10329000B00081608093B000809191008260809343
:1032A00091008091910081608093910080919000C5
:1032B0008160809390008091A10082608093A10042
:1032C0008091A10081608093A1008091A000816025
:1032D0008093A000809121018260809321018091E0
:1032E0002101816080932101809120018160809380
:1032F000200180917A00846080937A0080917A0026
:10330000826080937A0080917A00816080937A0055
:1033100080917A00806880937A001092C1000FB685
:10332000F894A89580916000886180936000109265
:1033300060000FBE98E288E10FB6F894A8958093DC
:1033400060000FBE909360008CE2D3D98DE2D1D99A
:103350008EE2CFD98AE2CDD961E08AE20E94690F7C
:1033600066E970E080E090E00E94970F8BE2C1D99F
:1033700061E08BE20E94690F62E370E080E090E020
:103380000E94970F60E08AE20E94690F66E970E090
:1033900080E090E00E94970F8FE2ABD961E08FE26E
:1033A0000E94690F62E370E080E090E00E94970F56
:1033B00060E08BE20E94690F66E970E080E090E0D7
:1033C0000E94970F60E08FE20E94690F66E970E04B
:1033D00080E090E00E94970F61E08AE20E94690F0E
:1033E0006FE070E080E090E00E94970F61E08FE274
:1033F0000E94690F6FE070E080E090E00E94970FFC
:1034000061E08BE20E94690F6FE070E080E090E085
:103410000E94970F61E08CE20E94690F6FE070E0FC
:1034200080E090E00E94970F61E08DE20E94690FBA
:103430006FE070E080E090E00E94970F61E08EE224
:103440000E94690F60E971E080E090E00E94970FB0
:1034500060E08AE20E94690F60E08FE20E94690FDB
:1034600060E08BE20E94690F60E08CE20E94690FCD
:1034700060E08DE20E94690F60E08EE20E94690FB9
:1034800026E040E05BE460E070E08DEB93E0CCD8B8
:103490000E9443040E94E50E6DEA74E08DEB93E018
:1034A000B3D862E874E08DEB93E0AED864E070E0EE
:1034B0008CE594E0F4DB63E170E082E694E0EFDB1E
:1034C00060E971E088E694E0EADB8EE192E0ABDE51
:1034D0004AE0682FCE01019628DD8DE192E0A3DE5F
:1034E0004AE0682FCE01079620DD8CE192E09BDE5A
:1034F0004AE0682FCE010D9618DD8BE192E093DE55
:103500004AE0682FCE01499610DD1C8A1B8A1E8A6C
:103510001D8A188E1F8ABE01675E7F4FCE014396BB
:10352000BFDC64EC73E0CE01439654DCBE01635F04
:103530007F4F04D962EC73E04DDCBE01695F7F4FC1
:10354000FDD860EC73E046DCBE016F5F7F4FF6D8BC
:10355000BC0182E694E0A4DCCE014396B6DCCE0149
:103560004996B3DCCE010D96B0DCCE010796ADDCFA
:10357000CE010196AADC62E674E08DEB93E0D8D828
:1035800068EB73E08DEB93E03FD88FE192E00E940F
:103590002B044AE0BC01CE0101969CDCBE016F5FAA
:1035A0007F4F8CE594E041DBCE0101968EDC6CE52B
:1035B00074E08DEB93E0BCD866EC73E08DEB93E0A8
:1035C00023D886E292E00E942B04909368028093B5
:1035D00067026AE070E02AD96EEC73E08DEB93E04D
:1035E00013D883E292E00E942B046AE070E01ED9B7
:1035F00065ED73E08DEB93E007D882E292E013DE95
:103600008093370282508B3318F084E08093370226
:103610006091370225E0629FB0011124072E000C53
:10362000880B990B4AE09BD86CED73E08DEB93E02F
:103630000E9404138AE292E0F6DD80933202815008
:10364000823018F081E08093320280913202E8D813
:1036500064EE73E08DEB93E00E9404138BE292E042
:10366000E2DD80937002833010F01092700280913E
:103670007002D6D861EF73E08DEB93E00E94E61202
:1036800080917002811103C06FEE73E009C0813038
:1036900019F46BEE73E004C0823031F46DEE73E028
:1036A0008DEB93E00E9404138CE292E0BCDD81304C
:1036B00019F480E390E010C0823011F0853018F0EA
:1036C00080E690E009C0833019F480EC90E004C0FB
:1036D000843031F480E891E0909336028093350293
:1036E00080913502909136026AE070E024E6AC01E8
:1036F000249FC001259F900D112498D867EF73E097
:103700008DEB93E00E9404138DE292E08CDD8093B8
:1037100075028150843118F083E0809375028091A6
:1037200075027ED863E074E08DEB93E00E94041391
:10373000A89567E574E08DEB93E00E9404130E9466
:103740005B0488E592E0909334028093330210E0AA
:10375000809133029091340220915A0430915B049D
:103760002817390708F466C0A895BE016F5F7F4F20
:1037700034DD89818F3F09F45DC0811102C01F5F74
:103780004FC062E574E08DEB93E00E94E612898100
:1037900047D860E574E08DEB93E00E94E6126BE49D
:1037A00074E08DEB93E00E94E6128A8139D869E4D7
:1037B00074E08DEB93E00E94E61264E474E08DEB1C
:1037C00093E00E94E6128B812BD862E474E08DEBCB
:1037D00093E00E94E6126FE374E08DEB93E00E94A9
:1037E000E6126AE070E08C819D8120D86DE374E080
:1037F0008DEB93E00E94E61269E374E08DEB93E0B9
:103800000E94E6128E810CD867E374E08DEB93E0A2
:103810000E94E61265E374E08DEB93E00E940413CE
:1038200080913302909134020696909334028093F3
:1038300033028ECF63E374E08DEB93E00E94E612D7
:1038400025E0C22ED12C6AE274E08DEB93E00E9459
:10385000E61251E0C51AD108B1F78DEB93E00E9452
:10386000E312A89580913302909134029C01265076
:1038700031093093340220933302212F30E08E55EA
:10388000924066E070E057D76F5F7F4F261737078B
:1038900099F562E274E08DEB93E00E94041311232A
:1038A00059F169E174E08DEB93E00E94E6126AE061
:1038B00070E080913302909134020E94161460E10E
:1038C00074E08DEB93E00E940413C0903302D0901B
:1038D0003402C601F7D58F3F19F06FEFC601FAD554
:1038E0008091330290913402069790933402809332
:1038F00033021150A895D3CFA89564E774E08DEBFF
:1039000093E00E94E61226E040E855E260E070E0B5
:1039100080E293E00E94141361E774E080E293E098
:103920000E940413CE0101961ED8BE016F5F7F4F27
:103930008DEB93E00E94D50ECE010196C6DA81E3AD
:103940000E9479138091700281110EC0809135021E
:103950009091360224E6289FA001299F500D112442
:1039600060E070E026E01FC0813071F48091350284
:103970009091360224E6289FA001299F500D112422
:1039800060E070E026E30FC0823089F48091350258
:103990009091360224E6289FA001299F500D112402
:1039A00060E070E026E283E892E00E94141385E173
:1039B00094E090931B0680931A0681E194E0909323
:1039C0001D0680931C060E949A06A8950E94CF0FA0
:1039D00024E630E040E050E08BD52093760230932F
:1039E000770240937802509379020E94CF0F66E6E7
:1039F00074E08DEB93E00E9404130E9443040E9444
:103A0000E50EA89584E6282E312C412C512C93E804
:103A1000892E92E0992E66246A94EFEBF5E084916A
:103A2000EFE7F6E01491E9E3F6E00491002309F4EE
:103A3000CEC181110E94130FE02FF0E0EE0FFF1FA7
:103A4000E854FB4FA591B4918C91182309F4BFC1A0
:103A500068E875E08DEB93E00E940413A8950E943E
:103A6000CF0F10913702A201910142D580917602C9
:103A700090917702A0917802B0917902BA01A901E0
:103A8000481B590B6A0B7B0BF2E31F9FC0011124EB
:103A9000092E000CAA0BBB0B84179507A607B707C6
:103AA000E8F60EE614E0E12C60E08CE20E94690F7B
:103AB000D090750260E08FE20E94690F0E9443047B
:103AC0000E94E50E772473947E0C872D0E948E044D
:103AD0008130F9F0872D0E948E04882309F498C064
:103AE000872D0E948E04823041F00D5F1F4FE72C1E
:103AF000B2E3AB2E7A10D8CF52C18E2D90E0FC01EC
:103B0000EE0FFF1F8E0F9F1FFC01E259FB4F6082DB
:103B100046C1EE24EA94ED0CF80181819281E3D252
:103B2000D80112961C921E92119780916A0280937E
:103B300006059092050580920405109211061092D8
:103B4000130610921206A89580916B02833089F4B7
:103B500080916E0290E020916C0230916D02309362
:103B600008052093070590930A058093090583E0D3
:103B700012C0843099F480916E0220916C023091D1
:103B80006D02309308052093070590E090930A0595
:103B90008093090584E00E94DB0FF82EFF20D9F105
:103BA0008CE20E944505B2E0FB1203C06EE675E0B0
:103BB00027C0E3E0FE1203C063E575E021C0F4E036
:103BC000FF1203C06DE375E01BC0F1EEAF2EFA10DB
:103BD00003C064E275E014C0E2EEBE2EFB1003C029
:103BE00064E175E00DC070EEC72EFC1003C06BEFF2
:103BF00074E006C063EED62EFD1006C067EE74E0DA
:103C00008DEB93E00E940413EE2011F0EA949BCF19
:103C1000D8011C926ACF61E08CE20E94690F66EDC8
:103C200074E08DEB93E00E94E612809169020E949D
:103C3000211480916E02F801808362E070E090E0D0
:103C400096D5D80112969C938E931197E12C809172
:103C50006E02E81610F0E12C83C0F801A181B28158
:103C60002E2D30E06901CC0CDD1CAD014C0D5D1D2D
:103C7000FFE3FE1538F0C6018C5F9A4FFC01878187
:103C8000908502C08FEF9FEFFA01918380835601E8
:103C9000F2E0AF0EB11CAA0DBB1DE1E0EE0DE03469
:103CA00040F4F0E0EE0FFF1FEC5FFA4F8781908544
:103CB00002C08FEF9FEF8D939C93A89580916C022B
:103CC00090916D0201966AE070E0820F931F0E944E
:103CD000161464ED74E08DEB93E00E94E612D801B7
:103CE00011968D919C911297FC01EA0DFB1D40816C
:103CF000518160E070E0BA0155274427FC01EC0DCA
:103D0000FD1D80819181A0E0B0E05A016B01A82ADD
:103D1000B92ACA2ADB2AC601B501A0927102B09263
:103D20007202C0927302D092740240E10E94AF13FB
:103D300062ED74E08DEB93E00E94E61260917102F7
:103D400070917202809173029091740242E00E941D
:103D5000F70D8DEB93E00E94E312E394E39477CFA9
:103D60008E2D90E0D8012C91022E000C330B82177F
:103D7000930784F4880F991F1196ED91FC91129787
:103D8000E80FF91F60E170E0808191810E941614B4
:103D9000E394E6CF8DEB93E00E94E312A6CE0E945F
:103DA000CF0FA2019101A4D3209376023093770222
:103DB00040937802509379020E9443040E94E50EDA
:103DC0008EEF0E94BE098F3F09F427CEFACF61E043
:103DD0008FE20E94690F3CCE1092860210928502FB
:103DE00048EE53E060E070E0409387025093880211
:103DF0006093890270938A0284E492E09093840233
:103E00008093830225E331E03093900220938F0268
:103E100024E331E0309392022093910220E331E0D9
:103E2000309394022093930221E331E03093960281
:103E30002093950222E331E0309398022093970279
:103E400026E331E030939A022093990210929C026B
:103E500010929D0210929E0210929F0210922303D4
:103E6000109222034093240350932503609326036A
:103E700070932703909321038093200325ED30E076
:103E800030932D0320932C0324ED30E030932F0347
:103E900020932E0320ED30E0309331032093300344
:103EA00021ED30E0309333032093320322ED30E0F4
:103EB000309335032093340326ED30E030933703FD
:103EC000209336031092390310923A0310923B0369
:103ED00010923C031092C0031092BF034093C103A1
:103EE0005093C2036093C3037093C4039093BE03C3
:103EF0008093BD0385EC90E09093CA038093C9033F
:103F000084EC90E09093CC038093CB0380EC90E022
:103F10009093CE038093CD0381EC90E09093D003F7
:103F20008093CF0382EC90E09093D2038093D103EF
:103F300086EC90E09093D4038093D3031092D60341
:103F40001092D7031092D8031092D9031092190639
:103F50001092180610921B0610921A0610921D0657
:103F600010921C06EEE6F4E084E095E02FEF20834B
:103F700033968E179F07D9F788E694E00E94C812FF
:103F800082E694E00E94C8128CE594E00E94C81278
:103F90008EE793E090935B0480935A0408958CE538
:103FA00094E00E94651782E694E00E94651788E617
:103FB00094E00C9465170F931F93CF93DF93823097
:103FC000910510F482E090E0E0912206F091230642
:103FD00020E030E0A0E0B0E0309719F1408151815D
:103FE0000281138148175907C8F08417950769F4AF
:103FF000109731F012960C93129713961C9327C0CA
:10400000009322061093230622C02115310519F0D2
:104010004217530718F49A01BD01EF01DF01F801BF
:10402000DBCF21153105F9F0281B390B2430310580
:1040300080F48A819B816115710521F0FB019383D6
:10404000828304C09093230680932206FE01329659
:1040500044C0FE01E20FF31F819391932250310976
:10406000398328833AC02091200630912106232BE2
:1040700041F420913C0230913D023093210620937F
:10408000200620913A0230913B022115310541F47E
:104090002DB73EB740913E0250913F02241B350B95
:1040A000E0912006F0912106E217F307A0F42E1B01
:1040B0003F0B2817390778F0AC014E5F5F4F24178C
:1040C000350748F04E0F5F1F50932106409320069E
:1040D0008193919302C0E0E0F0E0CF01DF91CF91B6
:1040E0001F910F910895CF93DF93009709F481C03A
:1040F000FC01329713821282A0912206B09123060E
:10410000109781F420813181820F931F2091200626
:10411000309121062817390751F5F0932106E093D5
:10412000200667C0ED0120E030E0CE17DF0740F445
:104130004A815B819E0141155105F1F0EA01F5CFFD
:10414000D383C28340815181840F951FC817D9073B
:1041500059F488819981840F951F029691838083F9
:104160008A819B81938382832115310529F4F09301
:104170002306E09322063DC0E901FB83EA834991CF
:104180005991C40FD51FEC17FD0761F4808191810F
:10419000840F951F0296E901998388838281938118
:1041A0009B838A83E0E0F0E012968D919C911397B7
:1041B000009719F0FD01DC01F7CF8D919C911197CB
:1041C0009D012E5F3F4F820F931F2091200630915B
:1041D00021062817390769F4309729F4109223062D
:1041E0001092220602C013821282B0932106A0937D
:1041F0002006DF91CF910895FB01DC0105900D921F
:104200000020E1F70895FC0105900020E9F7809572
:1042100090958E0F9F1F0895BB274A3031F4992344
:1042200022F4BDE2909581959F4F0BC04532510518
:1042300018F4423008F004C0FB011082CB0108954D
:10424000BB27FB015527AA27880F991FAA1FA41770
:1042500010F0A41B83955051B9F7A05DAA3308F064
:10426000A95DA193009779F7B111B1931192CB0198
:1042700000C0DC01FC01672F71917723E1F73297D1
:1042800004C07C916D9370836291AE17BF07C8F331
:10429000089540D008F481E00895E89409C097FBA0
:1042A0003EF490958095709561957F4F8F4F9F4F0D
:1042B0009923A9F0F92F96E9BB279395F695879551
:1042C00077956795B795F111F8CFFAF4BB0F11F414
:1042D00060FF1BC06F5F7F4F8F4F9F4F16C08823BB
:1042E00011F096E911C0772321F09EE8872F762FF1
:1042F00005C0662371F096E8862F70E060E02AF032
:104300009A95660F771F881FDAF7880F969587951D
:1043100097F90895990F0008550FAA0BE0E8FEEFF2
:1043200016161706E807F907C0F012161306E40779
:10433000F50798F0621B730B840B950B39F40A2672
:1043400061F0232B242B252B21F408950A2609F450
:10435000A140A6958FEF811D811D08950BD078C0D7
:1043600069D028F06ED018F0952309F05AC05FC0CC
:104370001124A2C07ED0A0F3959FD1F3950F50E0F9
:10438000551F629FF001729FBB27F00DB11D639F07
:10439000AA27F00DB11DAA1F649F6627B00DA11DAD
:1043A000661F829F2227B00DA11D621F739FB00D53
:1043B000A11D621F839FA00D611D221F749F3327C3
:1043C000A00D611D231F849F600D211D822F762F5C
:1043D0006A2F11249F5750408AF0E1F088234AF059
:1043E000EE0FFF1FBB1F661F771F881F91505040A5
:1043F000A9F79E3F510570F014C05EC05F3FECF31B
:10440000983EDCF3869577956795B795F795E79590
:104410009F5FC1F7FE2B880F911D9695879597F9A1
:10442000089597F99F6780E870E060E008959FEF36
:1044300080EC089500240A9416161706180609063B
:10444000089500240A94121613061406050608950A
:10445000092E0394000C11F4882352F0BB0F40F492
:10446000BF2B11F460FF04C06F5F7F4F8F4F9F4FD2
:10447000089557FD9058440F551F59F05F3F71F054
:104480004795880F97FB991F61F09F3F79F08795BB
:104490000895121613061406551FF2CF4695F1DF44
:1044A00008C0161617061806991FF1CF86957105D4
:1044B000610508940895E894BB2766277727CB0108
:1044C00097F90895F999FECF92BD81BDF89A992781
:1044D00080B50895262FF999FECF1FBA92BD81BDF0
:1044E00020BD0FB6F894FA9AF99A0FBE0196089576
:1044F000A1E21A2EAA1BBB1BFD010DC0AA1FBB1FE8
:10450000EE1FFF1FA217B307E407F50720F0A21B59
:10451000B30BE40BF50B661F771F881F991F1A94C6
:1045200069F760957095809590959B01AC01BD01F0
:10453000CF0108955058BB27AA270ED089CF7ADF24
:1045400030F07FDF20F031F49F3F11F41EF46FCF85
:104550000EF4E095E7FB65CFE92F8BDF80F3BA1708
:10456000620773078407950718F071F49EF5A3CFCF
:104570000EF4E0950B2EBA2FA02D0B01B90190017E
:104580000C01CA01A0011124FF27591B99F0593FC2
:1045900050F4503E68F11A16F040A22F232F342F0A
:1045A0004427585FF3CF469537952795A795F04058
:1045B0005395C9F77EF41F16BA0B620B730B840B6D
:1045C000BAF09150A1F0FF0FBB1F661F771F881F25
:1045D000C2F70EC0BA0F621F731F841F48F487957D
:1045E00077956795B795F7959E3F08F0B3CF93956C
:1045F000880F08F09927EE0F9795879508950CD0AE
:1046000027CF1FDF40F016DF30F021F45F3F19F0B5
:1046100008CF511151CF0BCF2CDF98F39923C9F359
:104620005523B1F3951B550BBB27AA2762177307B8
:10463000840738F09F5F5F4F220F331F441FAA1F6C
:10464000A9F333D00E2E3AF0E0E830D0915050402C
:10465000E695001CCAF729D0FE2F27D0660F771FDA
:10466000881FBB1F261737074807AB07B0E809F0BC
:10467000BB0B802DBF01FF2793585F4F2AF09E3F51
:10468000510568F0CECE18CF5F3FECF3983EDCF3D7
:10469000869577956795B795F7959F5FC9F7880FCA
:1046A000911D9695879597F90895E1E0660F771F1C
:1046B000881FBB1F621773078407BA0720F0621BAD
:1046C000730B840BBA0BEE1F88F7E0950895D9DEC3
:1046D00088F09F5790F0B92F9927B751A0F0D1F0EB
:1046E000660F771F881F991F1AF0BA95C9F712C075
:1046F000B13081F0E0DEB1E00895DDCE672F782F94
:104700008827B85F39F0B93FCCF3869577956795E0
:10471000B395D9F73EF490958095709561957F4F4C
:104720008F4F9F4F0895F6DD08F48FEF0895F2DD67
:10473000880B990B0895AA1BBB1B51E107C0AA1F48
:10474000BB1FA617B70710F0A61BB70B881F991F32
:104750005A95A9F780959095BC01CD010895EE0F6B
:10476000FF1F881F8BBF0790F691E02D19940F93C0
:104770001F93CF93DF93869F8001879F100D969F95
:10478000100D1124C80117DCEC01009721F0A801DD
:1047900060E070E0F3D0CE01DF91CF911F910F91D7
:1047A00008956F927F928F929F92AF92BF92CF9215
:1047B000DF92EF92FF920F931F93CF93DF930097B7
:1047C00081F4CB01DF91CF911F910F91FF90EF907A
:1047D000DF90CF90BF90AF909F908F907F906F9021
:1047E000EACBFC01E60FF71F9C0122503109E217CA
:1047F000F30708F4A5C0EC01D9010D911C911197A4
:1048000006171707A8F00530110508F497C0C8016E
:1048100004978617970708F491C002501109061BE8
:10482000170B019311936D937C93CF015CDC86C0D1
:104830005B01A01AB10A4C01800E911EA0912206C4
:10484000B0912306612C712CE12CF12C109709F406
:1048500046C08D919C911197A815B905B1F56C01D1
:1048600042E0C40ED11CCA14DB0478F14C018A1852
:104870009B08640142E0C40ED11C1296BC901297B2
:104880001396AC91B5E0CB16D10440F0B282A3836D
:1048900091828082D9016D937C9309C00E5F1F4F76
:1048A000800F911FF90191838083EB2DFA2FE11482
:1048B000F10431F0D7011396FC93EE9312973EC0AA
:1048C000F0932306E093220639C06816790608F4AF
:1048D0003C017D0112960D90BC91A02DB7CF809127
:1048E00020069091210688169906E1F4661677064F
:1048F000C8F480913A0290913B02009741F48DB741
:104900009EB740913E0250913F02841B950BE817E1
:10491000F907B0F4F0932106E0932006F9017183C2
:1049200060830CC0CB0147DB7C01009749F0A801F4
:10493000BE011BD0CE01D7DBC70104C0CE0102C02F
:1049400080E090E0DF91CF911F910F91FF90EF9069
:10495000DF90CF90BF90AF909F908F907F906F909F
:10496000089581E090E0F89417C0FB01DC0102C0DB
:1049700001900D9241505040D8F70895DC0101C0DC
:104980006D9341505040E0F70895FB01DC01019028
:104990000D920020E1F7089513E0CCE4D3E000E0AD
:1049A00005C0802FFE01DBDE2196011DCD34D1072D
:0A49B00080E00807B1F7F894FFCF8C
:1049BA00FFFFFFFFFFFFFFFFFFFFFFFFFFFFFFFFFD
:1049CA00FFFFFFFFFFFFFFFFFFFFFFFFFFFFFFFFED
:1049DA00FFFFFFFFFFFFFFFFFFFFFFFFFFFFFFFFDD
:1049EA00FFFF015802600006FFFF00002406800056
:1049FA00000000007A15D3140015C61531150F15DD
:104A0A0023156E616E00696E66006F7666000D0A88
:024A1A0000009A
:020000023000CC
:10E000000D9489F10D94B2F10D94B2F10D94B2F129
:10E010000D94B2F10D94B2F10D94B2F10D94B2F1F0
:10E020000D94B2F10D94B2F10D94B2F10D94B2F1E0
:10E030000D94B2F10D94B2F10D94B2F10D94B2F1D0
:10E040000D94B2F10D94B2F10D94B2F10D94B2F1C0
:10E050000D94B2F10D94B2F10D94B2F10D94B2F1B0
:10E060000D94B2F10D94B2F10D94B2F10D94B2F1A0
:10E070000D94B2F10D94B2F10D94B2F10D94B2F190
:10E080000D94B2F10D94B2F10D94B2F10D94B2F180
:10E090000D94B2F10D94B2F10D94B2F10D94B2F170
:10E0A0000D94B2F10D94B2F10D94B2F10D94B2F160
:10E0B0000D94B2F10D94B2F10D94B2F10D94B2F150
:10E0C0000D94B2F10D94B2F10D94B2F10D94B2F140
:10E0D0000D94B2F10D94B2F10D94B2F10D94B2F130
:10E0E0000D94B2F141546D656761323536300041AF
:10E0F000726475696E6F206578706C6F72657220DE
:10E1000073746B3530305632206279204D4C530099
:10E11000426F6F746C6F616465723E004875683F52
:10E1200000436F6D70696C6564206F6E203D200048
:10E130004350552054797065202020203D20005FF9
:10E140005F4156525F415243485F5F3D2000415658
:10E1500052204C696243205665723D20004743437C
:10E160002056657273696F6E203D20004350552024
:10E1700049442020202020203D20004C6F7720663D
:10E18000757365202020203D20004869676820665F
:10E190007573652020203D200045787420667573D6
:10E1A00065202020203D20004C6F636B2066757336
:10E1B000652020203D20004D617220203720323024
:10E1C000313300312E362E3800342E332E350056A2
:10E1D00023202020414444522020206F7020636F70
:10E1E00064652020202020696E73747275637469E1
:10E1F0006F6E2061646472202020496E74657272B3
:10E20000757074006E6F20766563746F7200726A49
:10E210006D702020006A6D70200057686174207056
:10E220006F72743A00506F7274206E6F7420737541
:10E2300070706F72746564004D7573742062652030
:10E2400061206C6574746572002000577269747483
:10E25000696E672045450052656164696E672045B7
:10E26000450045452065727220636E743D00504F35
:10E27000525400303D5A65726F2061646472003FF1
:10E280003D43505520737461747300403D454550C3
:10E29000524F4D207465737400423D426C696E6B41
:10E2A000204C454400453D44756D70204545505215
:10E2B0004F4D00463D44756D7020464C415348001B
:10E2C000483D48656C70004C3D4C69737420492F83
:10E2D0004F20506F72747300513D51756974005234
:10E2E0003D44756D702052414D00563D73686F7707
:10E2F00020696E7465727275707420566563746FF0
:10E30000727300593D506F727420626C696E6B00BD
:10E310002A0011241FBECFEFD1E2DEBFCDBF01E046
:10E320000CBF12E0A0E0B2E0EEE1FDEF03E00BBFB6
:10E3300002C007900D92A030B107D9F712E0A0E01B
:10E34000B2E001C01D92AE30B107E1F70F9460F367
:10E350000D948DFE01E20EBF0FEF0DBF11241FBE05
:10E360000D9460F30D9400F020E030E040ED57E0B4
:10E3700005C0FA013197F1F72F5F3F4F2817390792
:10E38000C0F308959C01260F311DC901A0E0B0E043
:10E390002F5F3F4FABBFFC018791882361F08093D3
:10E3A000C6008091C00086FFFCCF8091C0008064D1
:10E3B0008093C000EACF08958DE08093C6008091DD
:10E3C000C00086FFFCCF8091C00080648093C000B5
:10E3D0008AE08093C6008091C00086FFFCCF8091C8
:10E3E000C00080648093C00008950F94C2F10F9420
:10E3F000DCF10895FC019081992359F09093C600B7
:10E400008091C00086FFFCCF8091C0008064809323
:10E41000C0003196992379F70895282F982F929567
:10E420009F70892F805D8A3308F0895F8093C600D2
:10E430008091C00086FFFCCF8091C00080648093F3
:10E44000C000822F8F70982F905D9A3308F0995FEB
:10E450009093C6008091C00086FFFCCF8091C000E1
:10E4600080648093C00008959C01FB01853691056E
:10E470001CF46330710594F0C90164E670E00F94F8
:10E480002EFE605D7F4F6093C6008091C00086FFC6
:10E49000FCCF8091C00080648093C0002B30310598
:10E4A00014F43297B4F0C90164E670E00F942EFEC4
:10E4B0006AE070E00F942EFE605D7F4F6093C600AF
:10E4C0008091C00086FFFCCF8091C0008064809363
:10E4D000C000C9016AE070E00F942EFEC0968093E0
:10E4E000C6008091C00086FFFCCF8091C000806490
:10E4F0008093C00008951F93182F8EE692EE60E07F
:10E500000F94C2F11093C6008091C00086FFFCCF2B
:10E510008091C00080648093C0000F94DCF11F9153
:10E5200008952F923F924F925F926F927F928F92B7
:10E530009F92AF92BF92CF92DF92EF92FF920F9392
:10E540001F93DF93CF93CDB7DEB762970FB6F894E2
:10E55000DEBF0FBECDBF382E622ECA01DB015C01CB
:10E560006D01772420E2222E2E010894411C511CBB
:10E570008BC081E0A81680E0B80681E0C80680E084
:10E58000D80628F0C601AA27BB270F940DF2BB2797
:10E59000AD2D9C2D8B2D0F940DF28A2D0F940DF225
:10E5A0002092C6008091C00086FFFCCF8091C00001
:10E5B00080648093C0009DE29093C6008091C0006B
:10E5C00086FFFCCF8091C00080648093C0002092C1
:10E5D000C6008091C00086FFFCCF8091C00080649F
:10E5E0008093C00019828601750188249924A1E0D6
:10E5F0003A1651F03A1620F0B2E03B1661F409C029
:10E600000BBFF701779007C0C7010F9477FE782EF4
:10E6100002C0F7017080872D0F940DF22092C60082
:10E620008091C00086FFFCCF8091C0008064809301
:10E63000C000872D8052F401EF70F0708F3520F408
:10E64000E40DF51D708204C0E40DF51D8EE280839B
:10E650000894E11CF11C011D111D0894811C911CE2
:10E6600090E18916910409F0C2CF80E190E0A0E02A
:10E67000B0E0A80EB91ECA1EDB1E198AC2010F9493
:10E68000FAF10F94DCF16A94662009F072CF629679
:10E690000FB6F894DEBF0FBECDBFCF91DF911F91B3
:10E6A0000F91FF90EF90DF90CF90BF90AF909F9031
:10E6B0008F907F906F905F904F903F902F90089534
:10E6C0002F923F924F925F926F927F928F929F9282
:10E6D000AF92BF92CF92DF92EF92FF920F931F9370
:10E6E000DF93CF93CDB7DEB7CD53D1400FB6F894BB
:10E6F000DEBF0FBECDBF01E20EBF0FEF0DBF94B75F
:10E70000F894A89514BE80916000886180936000A1
:10E7100010926000789493FF05C0E0910002F091A0
:10E7200001021995279A2F9A8091C00082608093E8
:10E73000C00080E18093C40088E18093C1000000A4
:10E74000EE24FF24870144E0A42EB12CCC24DD2448
:10E7500024C0C5010197F1F70894E11CF11C011DCB
:10E76000111D21E2E2162EE4F20620E0020720E06D
:10E77000120718F031E0C32ED12CC801B70127ECE5
:10E780003BE140E050E00F9441FE611571058105C9
:10E79000910519F485B1805885B98091C00087FD35
:10E7A00003C0C114D104A9F2A6014F5F5F4FC25E3E
:10E7B000DE4F59834883CE51D140C25EDE4F8881FF
:10E7C0009981CE51D140019711F00D9410FEC05D9A
:10E7D000DE4F19821882C053D14060E0C15DDE4F28
:10E7E0001882CF52D14088249924C35DDE4F19820C
:10E7F0001882CD52D140C05EDE4F188219821A8233
:10E800001B82C052D140CE5CDE4F188219821A8220
:10E810001B82C253D140EE24FF2487010BBFF701B6
:10E8200007911691C45CDE4F19830883CC53D14005
:10E830000D940BFEC25EDE4F28813981CE51D1404E
:10E840002130310509F52091C600C25EDE4F1982E4
:10E850001882CE51D14022C02F5F3F4F4F4F5F4FA4
:10E86000213082E138078AE7480780E0580780F0C6
:10E87000C45CDE4FE881F981CC53D140EF5FFF4F9C
:10E8800019F0EE27FF27099420E030E040E050E047
:10E890008091C00087FFE0CF2091C600C35DDE4FAE
:10E8A00048815981CD52D1404F5F5F4FC35DDE4FEC
:10E8B00059834883CD52D140213209F063C64A3092
:10E8C000510508F05FC60894811C911C53E0851621
:10E8D000910409F059C600E010E018C081E280936D
:10E8E000C6008091C00086FFFCCF8091C00080648C
:10E8F0008093C0002F5F3F4F2931310579F70F9486
:10E90000DCF10F5F1F4F0530110519F020E030E0FA
:10E91000E5CF10920A0210920B0210920C02109294
:10E920000D02109206021092070210920802109235
:10E930000902109202021092030210920402109235
:10E9400005028FEE90EE60E00F94F5F180E191EE1C
:10E9500060E00F94C2F18091C00087FFFCCF9091DE
:10E96000C600903608F09F759032B8F09093C600BC
:10E970008091C00086FFFCCF8091C00080648093AE
:10E98000C000A0E2A093C6008091C00086FFFCCF2B
:10E990008091C00080648093C000983409F4D7C18E
:10E9A0009934B8F4923409F459C1933458F490333B
:10E9B00019F1903308F4E3C59F33A1F1903409F0C5
:10E9C000DEC5BDC0953409F470C1963409F0D7C5D1
:10E9D00098C1923509F42BC2933538F49C3409F46C
:10E9E000F5C1913509F0CBC518C2963509F445C279
:10E9F000993509F0C4C567C483E792EE62E00F94CD
:10EA0000F5F110920602109207021092080210927D
:10EA1000090210920A0210920B0210920C0210923C
:10EA20000D0213C18FE792EE62E00F94F5F18FEEC5
:10EA300090EE60E00F94F5F181E291EE60E00F94CA
:10EA4000C2F187EB91EE60E00F94F5F180E391EE77
:10EA500060E00F94C2F184EE90EE60E00F94F5F167
:10EA60008FE391EE60E00F94C2F186E090E061E008
:10EA700070E00F9434F20F94DCF18DE591EE60E0DC
:10EA80000F94C2F189EC91EE60E00F94F5F18EE401
:10EA900091EE60E00F94C2F183EC91EE60E00F9490
:10EAA000F5F18CE691EE60E00F94C2F18EE10F94E7
:10EAB0000DF288E90F940DF281E00F940DF20F949E
:10EAC000DCF18BE791EE60E00F94C2F119E0E0E039
:10EAD000F0E010935700E4918E2F0F940DF20F94F5
:10EAE000DCF18AE891EE60E00F94C2F1E3E0F0E03F
:10EAF00010935700E4918E2F0F940DF20F94DCF1D8
:10EB000089E991EE60E00F94C2F1E2E0F0E0109349
:10EB10005700E4918E2F0F940DF20F94DCF188EAE8
:10EB200091EE60E00F94C2F1E1E0F0E01093570045
:10EB30001491812F0F940DF20F94DCF107CF8BE825
:10EB400092EE62E00F94F5F18BE492EE60E00F94A8
:10EB5000F5F10F94DCF100E010E019C0C8016F2D51
:10EB60000F947FFEFF2031F489E492EE60E00F9471
:10EB7000C2F10BC0F092C6008091C00086FFFCCFAE
:10EB80008091C00080648093C0000F5F1F4FC80158
:10EB900081519F41A0E0B0E0ABBFFC01F790BAE229
:10EBA000FB1621F0E2E000301E07C1F60F94DCF105
:10EBB0000F94DCF187E592EE60E00F94F5F10F948D
:10EBC000DCF1CC24DD2400E010E01EC0C8010F946D
:10EBD00077FEF82E882331F489E492EE60E00F94FA
:10EBE000C2F10BC08093C6008091C00086FFFCCFAD
:10EBF0008091C00080648093C000FE1419F00894D6
:10EC0000C11CD11C0F5F1F4FC80181519F41A0E063
:10EC1000B0E0ABBFFC01E790FAE2EF1621F022E092
:10EC20000030120799F60F94DCF10F94DCF182E6C4
:10EC300092EE60E00F94C2F1C60161E070E00F94C3
:10EC400034F20F94DCF10F94DCF110920202109276
:10EC50000302109204021092050278CE89E992EE26
:10EC600062E00F94F5F1279A2F9A16C02F9880E052
:10EC700090E0E0EDF7E03197F1F7019684369105E9
:10EC8000C1F72F9A80E090E0E0EDF7E03197F1F7DF
:10EC9000019684369105C1F78091C00087FFE6CFC9
:10ECA0008091C00087FFFCCF64C485EA92EE62E0E9
:10ECB0000F94F5F140910202509103026091040219
:10ECC0007091050281E020E10F9491F2809102029F
:10ECD00090910302A0910402B091050280509F4FD1
:10ECE000AF4FBF4F8093020290930302A0930402A0
:10ECF000B093050280509041A040B04008F426CE69
:10ED0000A4CF83EB92EE62E00F94F5F140910602FE
:10ED100050910702609108027091090280E020E1A1
:10ED20000F9491F28091060290910702A09108023F
:10ED3000B091090280509F4FAF4FBF4F80930602A2
:10ED400090930702A0930802B0930902FFCD80ECD4
:10ED500092EE62E00F94F5F183E792EE60E00F949B
:10ED6000F5F18FE792EE60E00F94F5F18BE892EE0B
:10ED700060E00F94F5F189E992EE60E00F94F5F10F
:10ED800085EA92EE60E00F94F5F183EB92EE60E09D
:10ED90000F94F5F180EC92EE60E00F94F5F187ECC2
:10EDA00092EE60E00F94F5F188ED92EE60E00F9442
:10EDB000F5F18FED92EE60E00F94F5F18AEE92EEB0
:10EDC00060E00F94F5F183E093EEBDCD87EC92EE19
:10EDD00062E00F94F5F181E40F947BF282E40F94EA
:10EDE0007BF283E40F947BF284E40F947BF285E45E
:10EDF0000F947BF286E40F947BF287E40F947BF20E
:10EE000088E40F947BF28AE40F947BF28BE40F94F6
:10EE10007BF28CE40F947BF299CD88ED92EE62E068
:10EE20000F94F5F1772473948824992409C48FED05
:10EE300092EE62E00F94F5F140910A0250910B02BC
:10EE400060910C0270910D0282E020E10F9491F22A
:10EE500080910A0290910B02A0910C02B0910D02D8
:10EE600080509F4FAF4FBF4F80930A0290930B0289
:10EE7000A0930C02B0930D0269CD8AEE92EE62E08F
:10EE80000F94F5F184EE90EE60E00F94F5F18FECC5
:10EE900091EE60E00F94F5F1662477244301CC5D98
:10EEA000DE4F19821882C452D140D401C301B695F5
:10EEB000A79597958795CA5DDE4F88839983AA8326
:10EEC000BB83C652D140CC5DDE4FA881B981C4520C
:10EED000D1401196CC5DDE4FB983A883C452D14096
:10EEE000CD0162E070E00F9434F2B0E2B093C6005E
:10EEF0008091C00086FFFCCF8091C0008064809329
:10EF0000C000EDE2E093C6008091C00086FFFCCF18
:10EF10008091C00080648093C000F0E2F093C6004E
:10EF20008091C00086FFFCCF8091C00080648093F8
:10EF3000C000CA5DDE4FE880F9800A811B81C6529D
:10EF4000D140BB27A12F902F8F2D0F940DF2CA5DBA
:10EF5000DE4F8881C652D1400F940DF2B0E2FB2EF5
:10EF6000F092C6008091C00086FFFCCF8091C00067
:10EF700080648093C0000DE30093C6008091C000C0
:10EF800086FFFCCF8091C00080648093C00010E2B7
:10EF90001093C6008091C00086FFFCCF8091C00016
:10EFA00080648093C0008BBEF3012791C65DDE4F65
:10EFB0002883CA52D140A22EBB24CC24DD2408943D
:10EFC000611C711C811C911C8BBEF3018791282E42
:10EFD0003324442455240894611C711C811C911C09
:10EFE0008BBEF3013791C55DDE4F3883CB52D140E4
:10EFF0000894611C711C811C911C8BBEF30147910C
:10F00000C45DDE4F4883CC52D140ADEFEA2EAFEF66
:10F01000FA2EAFEF0A2FAFEF1A2F6E0C7F1C801E57
:10F02000911E142D032DF22CEE24EA0CFB1C0C1D5A
:10F030001D1D0F940DF220E22093C6008091C000A8
:10F0400086FFFCCF8091C00080648093C000C65DC5
:10F05000DE4F8881CA52D1400F940DF230E23093D6
:10F06000C6008091C00086FFFCCF8091C000806404
:10F070008093C000C45DDE4F8881CC52D1400F9494
:10F080000DF240E24093C6008091C00086FFFCCFA5
:10F090008091C00080648093C000C55DDE4F888190
:10F0A000CB52D1400F940DF250E25093C6008091A4
:10F0B000C00086FFFCCF8091C00080648093C000B8
