:100000000C9464000C948C000C948C000C940306EB
:100010000C9403060C9403060C948C000C94DF04DF
:100020000C948C000C948C000C948C000C948C0020
:100030000C948C000C948C000C948C000C948C0010
:100040000C94B9050C948C000C9487050C946105F4
:100050000C948C000C948C000C948C000C948C00F0
:100060000C948C000C948C000000000024002700ED
:100070002A0000000008000201000003040700003D
:100080000000000000000200000000250028002BF6
:1000900000000000002300260029000404040404DA
:1000A0000404040202020202020303030303030125
:1000B00002040810204080010204081020010204FC
:1000C000081020007D06160B11241FBECFEFD8E0CC
:1000D000DEBFCDBF11E0A0E0B1E0E0E7F0E202C09A
:1000E00005900D92AE3CB107D9F722E0AEECB1E03D
:1000F00001C01D92A73FB207E1F710E0C3E6D0E0D0
:1001000004C02197FE010E946A0BC236D107C9F7CD
:100110000E9428070C942B100C940000E0913702E9
:10012000F09138020190F081E02D682F87E392E092
:100130000994FC01248135816217730720F48081C2
:100140009181009729F41092280288E292E00895A4
:10015000860F971F08950895CF93DF93EC012FB773
:10016000F89480911D0290911E02A0911F02B091FF
:1001700020022FBF88879987AA87BB87E881F981EA
:100180000680F781E02DCE01099597FF1EC02FB79D
:10019000F89480911D0290911E02A0911F02B091CF
:1001A00020022FBF488559856A857B85841B950B66
:1001B000A60BB70B4C815D816E817F8184179507FB
:1001C000A607B707D8F28FEF9FEFDF91CF91089581
:1001D000CF92DF92EF92FF920F931F93CF93DF9313
:1001E0006C017A018B01C0E0D0E0CE15DF0589F00B
:1001F000D8016D918D01D601ED91FC910190F081B6
:10020000E02DC6010995892B11F47E0102C02196CB
:10021000ECCFC701DF91CF911F910F91FF90EF902D
:10022000DF90CF900895FC01918D828D981761F039
:10023000828DDF01A80FB11D5D968C91928D9F5F1D
:100240009F73928F90E008958FEF9FEF0895FC01C8
:10025000918D828D981731F0828DE80FF11D858D7B
:1002600090E008958FEF9FEF0895FC01918D228D0E
:10027000892F90E0805C9F4F821B91098F73992793
:10028000089587E392E00E94350121E0892B09F46B
:1002900020E0822F0895FC01848DDF01A80FB11D9D
:1002A000A35ABF4F2C91848D90E001968F739927AC
:1002B000848FA689B7892C93A089B1898C91806499
:1002C0008C93938D848D981306C00288F389E02D5A
:1002D00080818F7D80830895EF92FF920F931F930B
:1002E000CF93DF93EC0181E0888F9B8D8C8D9813E9
:1002F00005C0E889F989808185FD24C0F62E0B8D23
:1003000010E00F5F1F4F0F731127E02E8C8DE81246
:100310000CC00FB607FCFACFE889F989808185FF08
:10032000F5CFCE010E944B01F1CF8B8DFE01E80F7E
:10033000F11DE35AFF4FF0820B8FEA89FB89808120
:10034000806207C0EE89FF896083E889F98980812E
:100350008064808381E090E0DF91CF911F910F91C5
:10036000FF90EF900895CF93DF93EC01888D882361
:10037000C9F0EA89FB89808185FD05C0A889B98912
:100380008C9186FD0FC00FB607FCF5CF808185FFED
:10039000F2CFA889B9898C9185FFEDCFCE010E945B
:1003A0004B01E7CFDF91CF91089580E090E0892B5A
:1003B00029F00E94410181110C940000089590E001
:1003C000FC01EE58FF4F3491FC01E155FF4F2491A1
:1003D000FC01E556FF4FE491EE2309F43BC03323C3
:1003E00039F1333091F038F43130A9F0323001F581
:1003F00084B58F7D12C0373091F03830A1F03430A1
:10040000B9F4809180008F7D03C0809180008F7748
:10041000809380000DC084B58F7784BD09C0809122
:10042000B0008F7703C08091B0008F7D8093B000C3
:10043000F0E0EE0FFF1FE957FF4FA591B4918FB782
:10044000F894EC91611103C020952E2301C02E2B4E
:100450002C938FBF0895CF93DF9390E0FC01E1557B
:10046000FF4F2491FC01E556FF4F8491882361F1F1
:1004700090E0880F991FFC01E859FF4FC591D49176
:10048000FC01E957FF4FA591B491611109C09FB7D5
:10049000F8948881209582238883EC912E230BC0C9
:1004A000623061F49FB7F8943881822F809583235E
:1004B0008883EC912E2B2C939FBF06C08FB7F894A6
:1004C000E8812E2B28838FBFDF91CF910895209153
:1004D0002B0230912C022817390771F490912902D0
:1004E00080912A02981741F0E0912902F0E0E85249
:1004F000FE4F808190E008958FEF9FEF089508955B
:100500001F93CF93DF93DC015C962D913C915D9717
:100510002115310539F481E090E013969C938E9378
:1005200012973DC05196ED91FC91529750969C9137
:100530005097892F80951FB75E964C915E9741FB2F
:10054000772770F941FD6095F8944081772311F089
:10055000492B01C048234083E9012197F1F748E086
:10056000508160FF02C0592B01C058235083E9011C
:100570002197F1F76695415099F7772321F0908103
:100580008923808303C08081982B90831FBF5C9652
:100590008D919C915D970197F1F721E030E0C901C1
:1005A000DF91CF911F91089520912B0230912C0261
:1005B0002817390771F480912A022091290290E0CE
:1005C000805C9F4F821B910960E470E00E94200BC9
:1005D000089580E090E0089520912B0230912C0244
:1005E00028173907B9F49091290280912A029817A7
:1005F00089F0E0912902F0E0E852FE4F80812091DD
:10060000290230E02F5F3F4F2F73332720932902B9
:1006100090E008958FEF9FEF0895E0912B02F09105
:100620002C02E817F90769F4A389B4899C9185899C
:10063000809589238C9310922C0210922B0281E0DA
:10064000089580E008956115710579F0FB0101902E
:100650000020E9F73197AF01461B570BDC01ED9104
:10066000FC910280F381E02D099480E090E00895F0
:100670008F929F92AF92BF920F931F93CF93DF936E
:10068000CDB7DEB7A1970FB6F894DEBF0FBECDBFD2
:1006900019A2423008F44AE08E010F5D1F4F842EEC
:1006A000912CA12CB12CA50194010E94340BE62FB2
:1006B000B901CA0101501109EA3014F4E05D01C02A
:1006C000E95CD801EC93232B242B252B61F7B8018F
:1006D00087E392E00E942303A1960FB6F894DEBF51
:1006E0000FBECDBFDF91CF911F910F91BF90AF9003
:1006F0009F908F900895CF92DF92EF92FF92CF93C9
:10070000DF936C01990FEE08FF08F7FE12C08DE22F
:100710000E948E00EC0166277727CB016C197D09BA
:100720008E099F094AE00E9438037C01EC0EFD1EF1
:1007300006C04AE0C701B6010E9438037C0167E2A7
:1007400071E087E392E00E9423038E0D9F1DDF91ED
:10075000CF91FF90EF90DF90CF9008950F931F936C
:10076000CF93DF93EC010E9423038C0167E271E0D9
:10077000CE010E942303800F911FDF91CF911F9123
:100780000F9108950F931F93CF93DF93EC01E881AE
:10079000F981DB0114964D915C9115976D917C91D7
:1007A0000280F381E02D09958C0167E271E0CE01B2
:1007B0000E942303800F911FDF91CF911F910F9112
:1007C00008950E947F0E0F931F93CF93DF938C01A8
:1007D000EB01FC01808191810097B1F06881798102
:1007E0006115710579F0428153812C813D81421759
:1007F000530740F00E948D0E8C819D81F8019583F6
:10080000848313C00E941D0D88819981F801918312
:1008100080838A819B81938382838C819D81958350
:100820008483198218821B821A821D821C82DF91A6
:10083000CF911F910F910895FC01808191810C94BB
:100840001D0D0F931F93CF93DF93EC018881998146
:10085000009729F02A813B812617370788F48B01FE
:100860006F5F7F4F0E94B50D009761F09983888379
:100870001B830A832C813D81232B11F4FC01108200
:1008800081E001C080E0DF91CF911F910F91089529
:10089000EF92FF920F931F93CF93DF9300D0CDB7CA
:1008A000DEB78C0169831A82FC01E480F580FFEFDA
:1008B000EF1AFF0AB7010E942104882381F0F80192
:1008C0002081318184819581BE016F5F7F4F820FCE
:1008D000931F0E948D0EF801F582E48281E00F9053
:1008E0000F90DF91CF911F910F91FF90EF9008959E
:1008F000EF92FF920F931F93CF93DF93EC017B0155
:100900008A01BA010E9421042881398181110DC018
:100910002115310519F0C9010E941D0D1982188297
:100920001D821C821B821A8206C01D830C83B701A4
:10093000C9010E948D0ECE01DF91CF911F910F91C1
:10094000FF90EF900895CF93DF93EC0140E050E0EB
:1009500069E271E00E947804CE01DF91CF910895A1
:10096000FC01118210821382128215821482611599
:10097000710551F0FB0101900020E9F73197AF01BB
:10098000461B570B0C94780408950F931F93CF9335
:10099000DF93EC018B0169E271E00E94B004C801B1
:1009A0000E94AC0097FD05C0682FCE010E9448044C
:1009B000F6CFCE01DF91CF911F910F9108951F9235
:1009C0000F920FB60F9211242F933F934F935F9383
:1009D0006F937F938F939F93AF93BF93EF93FF9307
:1009E0008091240290912502A0912602B0912702C5
:1009F000892B8A2B8B2B59F180912302E0912102C4
:100A0000F091220290818927808380912402909125
:100A10002502A0912602B0912702181619061A067F
:100A20001B060CF03DC08091240290912502A091FC
:100A30002602B09127020197A109B10980932402EF
:100A400090932502A0932602B093270229C080919B
:100A50000001E6E8F0E0E4919FEF90930001E130BF
:100A6000B9F098F0E230C9F4909170009D7F9093B6
:100A7000700091E09093B0009091B100987F9460E5
:100A80009093B1001092B30008C010926E0005C0A0
:100A900090916F009D7F90936F0060E00E94DF0156
:100AA000FF91EF91BF91AF919F918F917F916F9146
:100AB0005F914F913F912F910F900FBE0F901F901C
:100AC00018951F920F920FB60F9211242F933F93F8
:100AD0004F935F936F937F938F939F93AF93BF9346
:100AE000EF93FF9387E392E00E944B01FF91EF9118
:100AF000BF91AF919F918F917F916F915F914F9136
:100B00003F912F910F900FBE0F901F9018951F923D
:100B10000F920FB60F9211242F938F939F93EF9301
:100B2000FF93E0914702F09148028081E0914D02ED
:100B3000F0914E0282FD12C09081809150028F5F31
:100B40008F7320915102821751F0E0915002F0E032
:100B5000E95CFD4F958F8093500201C08081FF9129
:100B6000EF919F918F912F910F900FBE0F901F903B
:100B700018951F920F920FB60F9211242F933F9347
:100B80008F939F93AF93BF9380911D0290911E020C
:100B9000A0911F02B091200230911C0223E0230F8C
:100BA0002D3720F40196A11DB11D05C026E8230FA5
:100BB0000296A11DB11D20931C0280931D029093EB
:100BC0001E02A0931F02B093200280911802909100
:100BD0001902A0911A02B0911B020196A11DB11D2C
:100BE0008093180290931902A0931A02B0931B02EB
:100BF000BF91AF919F918F913F912F910F900FBE19
:100C00000F901F9018951F920F920FB60F921124FC
:100C10002F933F934F935F936F937F938F939F9304
:100C2000AF93BF93EF93FF93E0912B02F0912C02CF
:100C3000309709F451C0968DA685B785858591FFBB
:100C400004C09C91892329F447C09C91892309F011
:100C500043C0A389B4899C918589809589238C930D
:100C6000868997890197F1F7608D718DA685B78583
:100C7000558538E020E0CB010197F1F7822F90E015
:100C800095958795282F4C91452309F02068315080
:100C900091F7868D81FD209580912A0290E0019642
:100CA0008F73992730912902381749F0A0912A02B1
:100CB000B0E0A852BE4F2C9380932A0203C0868DC9
:100CC0008160868F828D938D0197F1F7A389B48916
:100CD0009C918589892B8C93FF91EF91BF91AF9166
:100CE0009F918F917F916F915F914F913F912F9144
:100CF0000F900FBE0F901F90189510923A0210920D
:100D0000390288EE93E0A0E0B0E080933B0290933C
:100D10003C02A0933D02B0933E022BE031E03093C1
:100D200038022093370225EC30E0309344022093C0
:100D3000430224EC30E0309346022093450220EC3D
:100D400030E0309348022093470221EC30E03093AA
:100D50004A022093490222EC30E030934C02209367
:100D60004B0226EC30E030934E0220934D0210925D
:100D7000500210925102109252021092530210929D
:100D8000D7021092D6028093D8029093D902A093F2
:100D9000DA02B093DB028BE191E09093D50280936D
:100DA000D4021092EB021092EA021092ED0210921D
:100DB000EC021092EF021092EE021092F1021092E9
:100DC000F0026091F2026E7F6D7F6093F202669591
:100DD000617081E0682788E00E94DF0161E088E0BF
:100DE0000E942B02E7EBF0E0E491E093E402E3EAF7
:100DF000F0E0E491F0E0EE0FFF1FE957FF4F85911F
:100E000094919093E6028093E50260E087E00E946F
:100E10002B028091F20281FD04C061E087E00E9414
:100E2000DF0187E08093E002E6EBF0E0E491E093FD
:100E3000E102E2EAF0E0E491F0E0EE0FFF1FEF568E
:100E4000FF4F859194919093E3028093E20208957D
:100E5000CF93DF93CDB7DEB72C970FB6F894DEBFF4
:100E60000FBECDBF789484B5826084BD84B58160A7
:100E700084BD85B5826085BD85B5816085BD809165
:100E80006E00816080936E001092810080918100DD
:100E900082608093810080918100816080938100D5
:100EA000809180008160809380008091B100846097
:100EB0008093B1008091B00081608093B0008091F8
:100EC0007A00846080937A0080917A0082608093B7
:100ED0007A0080917A00816080937A0080917A0014
:100EE000806880937A001092C10061E08CE00E94DB
:100EF0002B0261E08CE00E942B021092EF02109214
:100F0000EE021092ED021092EC021092EB0210929F
:100F1000EA028DE991E09093F1028093F0029091C2
:100F2000E002963108F057C02DEB30E03093EB0231
:100F30002093EA022BE931E03093ED022093EC029A
:100F40002CE231E03093EF022093EE022091680012
:100F5000983050F031E09E3008F430E081E001C07C
:100F6000880F3A95EAF701C084E0822B80936800ED
:100F7000983038F09E3040F0963148F020E030E074
:100F800008C02DE630E005C02BE630E002C02CE6BC
:100F900030E03093E8022093E702983030F481E0AB
:100FA00001C0880F9A95EAF70EC0292F30E09E30D5
:100FB00018F42850310902C02E50310981E001C0D7
:100FC000880F2A95EAF78093E9028091F0029091C8
:100FD000F1020197F1F78091EE029091EF02892BD7
:100FE00021F180912B0290912C0222E0843D920706
:100FF000E1F0009711F00E940D038091F2028E7FC4
:101000008093F20210922A021092290284ED92E05B
:1010100090932C0280932B02E091E702F091E8027A
:1010200090818091E902892B8083E0914702F091C1
:10103000480282E08083E0914302F09144021082F2
:10104000E0914502F09146028FEC808310924F02AE
:10105000E0914B02F0914C0286E08083E0914902DE
:10106000F0914A02808180618083E0914902F09191
:101070004A02808188608083E0914902F0914A02AF
:10108000808180688083E0914902F0914A028081EA
:101090008F7D80836AE271E084ED92E00E94AE036E
:1010A00064ED72E0CE0101960E94C504BE016F5F3F
:1010B0007F4F87E392E00E94C203CE0101960E9417
:1010C0001C0461E371E084ED92E00E94AE0364EDE4
:1010D00072E0CE0101960E94C504BE016F5F7F4F92
:1010E00087E392E00E94C203CE0101960E941C0495
:1010F00064E371E084ED92E00E94AE0364ED72E07F
:10110000CE0101960E94C504BE016F5F7F4F87E349
:1011100092E00E94C203CE0101960E941C046DE37E
:1011200071E084ED92E00E94AE0364ED72E0CE01C6
:1011300001960E94C504BE016F5F7F4F87E392E076
:101140000E94C203CE0101960E941C0469E471E072
:1011500084ED92E00E94AE0364ED72E0CE01019650
:101160000E94C504BE016F5F7F4F87E392E00E943B
:10117000C203CE0101960E941C046BE671E084ED6F
:1011800092E00E94AE0364ED72E0CE0101960E94EF
:10119000C504BE016F5F7F4F87E392E00E94C203E8
:1011A000CE0101960E941C0467E771E084ED92E095
:1011B0000E94AE0364ED72E0CE0101960E94C50468
:1011C000BE016F5F7F4F87E392E00E94C203CE01B2
:1011D00001960E941C0484ED92E00E94D402892BA7
:1011E00009F4AAC069E871E087E392E00E94AE03C7
:1011F00069E271E0CE0107960E94B00464ED72E0EE
:10120000CE0101960E94C504BE016F5F7F4FCE01E3
:1012100007960E94E303CE0101960E941C0462E03F
:1012200070E0CE0107960E949900FC0180818B320C
:1012300009F06DC063E070E0CE0107960E9499004E
:10124000FC018081893409F062C064E070E0CE0165
:1012500007960E949900FC018081803509F057C0F3
:1012600065E070E0CE0107960E949900FC01808144
:10127000843409F04CC09DC0E0902D02F0902E0205
:1012800089819A81009709F43DC10E94940E6E0DE8
:101290007F1D70932E0260932D02072E000C880B89
:1012A000990B0E94D70E20E030E048EC52E40E94F7
:1012B000DD0B6B017C014B015C0160932F0270938D
:1012C000300280933102909332029B01AC010E9464
:1012D000830C882309F41AC168E971E087E392E07E
:1012E0000E94230367E271E087E392E00E942303F8
:1012F000CE0101960E941C040F5F1F4FB801CE0162
:1013000007960E949900FC01808181115BC04B858A
:101310005C856F81788587E392E00E94E80067E250
:1013200071E087E392E00E942303CE0107960E94BA
:10133000A304CE0107964DCF87E392E00E943501CA
:10134000892BA1F164EA71E087E392E00E94AE0389
:1013500069E271E0CE0107960E94B00467E372E093
:10136000CE0101960E94C504BE016F5F7F4FCE0182
:1013700007960E94E303CE0101960E941C04BE0161
:10138000695F7F4F87E392E00E94C203BE01695FFD
:101390007F4F84ED92E00E94C203CE0107960E9427
:1013A000A304CE0107960E941C04C6CF0E94D5015B
:1013B00012CF6FEA71E087E392E00E94AE0309E08A
:1013C00010E09CCFB801CE0107960E949900FC0165
:1013D0008081883509F090CF69E271E0CE010196F5
:1013E0000E94B0041092360210923502109234021C
:1013F0001092330210922F0210923002109231029A
:10140000109232027801FFEFEF1AFF0AB701CE0106
:1014100007960E949900FC01808187010F5F1F4F92
:10142000893569F0B701CE0107960E949900FC0149
:101430006081CE0101960E9448047801E7CF89813E
:101440009A81009719F00E94940E03C060E070E04A
:10145000CB017093360260933502CB010E947B036F
:10146000CE0101960E94A304B801CE0107960E9406
:101470009900FC01808198012F5F3F4F79018435ED
:1014800069F0B801CE0107960E949900FC016081C5
:10149000CE0101960E9448048701E6CF00913302F5
:1014A0001091340289819A81009719F00E94940E5C
:1014B00003C060E070E0CB01C801860F971F9093D6
:1014C0003402809333020E947B03CE0101960E9476
:1014D000A3048701B801CE0107960E949900FC0180
:1014E0008081853409F4C8CEB801CE0107960E94E8
:1014F0009900FC016081CE0101960E9448040F5FB3
:101500001F4FE8CF60E070E0CB01C1CE260137016C
:10151000E89477F82FEF3FEF4FE75FE7C301B201A1
:101520000E94830C81110DC02FEF3FEF4FE75FE763
:10153000C301B2010E94D00E18161CF46CE971E0D0
:10154000CDCE2FEF3FEF4FE75FE4C701B6010E941A
:101550007E0C18161CF460EA71E0C0CE2FEF3FEF4E
:101560004FE75FECC701B6010E94D00E87FDF3CFB5
:1015700020E030E0A901C701B6010E94D00E87FF2C
:1015800009C08DE20E948E0046015701B7FAB0945F
:10159000B7F8B0942AE037ED43EA5BE3C501B40144
:1015A0000E94710B4B015C010E944F0C6B017C018E
:1015B0000E94D50E9B01AC01C501B4010E94700BC5
:1015C0004B015C014AE0C701B6010E9438038EE27C
:1015D0000E948E0020E030E040E251E4C501B401F9
:1015E0000E94360F4B015C010E944F0C6B01E12CF5
:1015F000F12C4AE0C701B6010E943803C701B601C9
:101600000E94D50E9B01AC01C501B4010E94700B74
:1016100020E030E040E251E40E94360F0E944F0C7F
:1016200080E090E04AE00E9438035CCE8BE191E0DC
:101630009093D5028093D40284ED92E00C940D0334
:1016400097FB072E16F4009407D077FD09D00E946F
:10165000560B07FC05D03EF4909581959F4F089559
:10166000709561957F4F0895A1E21A2EAA1BBB1BAE
:10167000FD010DC0AA1FBB1FEE1FFF1FA217B3075E
:10168000E407F50720F0A21BB30BE40BF50B661F74
:10169000771F881F991F1A9469F760957095809538
:1016A00090959B01AC01BD01CF010895AA1BBB1B06
:1016B00051E107C0AA1FBB1FA617B70710F0A61B52
:1016C000B70B881F991F5A95A9F780959095BC0173
:1016D000CD010895EE0FFF1F0590F491E02D0994C0
:1016E0005058BB27AA270E94880B0C94BA0F0E945F
:1016F000AC0F38F00E94B30F20F039F49F3F19F47B
:1017000026F40C94A90F0EF4E095E7FB0C94A30FBC
:10171000E92F0E94CB0F58F3BA17620773078407AB
:10172000950720F079F4A6F50C94ED0F0EF4E095F2
:101730000B2EBA2FA02D0B01B90190010C01CA018B
:10174000A0011124FF27591B99F0593F50F4503E36
:1017500068F11A16F040A22F232F342F4427585F28
:10176000F3CF469537952795A795F0405395C9F740
:101770007EF41F16BA0B620B730B840BBAF09150F8
:10178000A1F0FF0FBB1F661F771F881FC2F70EC097
:10179000BA0F621F731F841F48F48795779567956A
:1017A000B795F7959E3F08F0B0CF9395880F08F056
:1017B0009927EE0F9795879508950E94F10B0C9449
:1017C000BA0F0E94B30F58F00E94AC0F40F029F4FA
:1017D0005F3F29F00C94A30F51110C94EE0F0C9461
:1017E000A90F0E94CB0F68F39923B1F3552391F30E
:1017F000951B550BBB27AA2762177307840738F080
:101800009F5F5F4F220F331F441FAA1FA9F335D0DC
:101810000E2E3AF0E0E832D091505040E695001C90
:10182000CAF72BD0FE2F29D0660F771F881FBB1F4A
:10183000261737074807AB07B0E809F0BB0B802D28
:10184000BF01FF2793585F4F3AF09E3F510578F054
:101850000C94A30F0C94EE0F5F3FE4F3983ED4F387
:10186000869577956795B795F7959F5FC9F7880F28
:10187000911D9695879597F90895E1E0660F771F7A
:10188000881FBB1F621773078407BA0720F0621B0B
:10189000730B840BBA0BEE1F88F7E09508950E9436
:1018A000D30F88F09F5798F0B92F9927B751B0F010
:1018B000E1F0660F771F881F991F1AF0BA95C9F7D4
:1018C00014C0B13091F00E94ED0FB1E008950C9476
:1018D000ED0F672F782F8827B85F39F0B93FCCF329
:1018E000869577956795B395D9F73EF49095809551
:1018F000709561957F4F8F4F9F4F08950E94120FF3
:1019000008F48FEF08950E94120F880B990B089529
:10191000CF93DF938230910510F482E090E0E09164
:10192000F502F091F60220E030E0C0E0D0E0309720
:1019300011F14081518148175907C0F048175907E4
:1019400061F482819381209719F09B838A832BC055
:101950009093F6028093F50226C02115310519F007
:101960004217530718F49A01BE01DF01EF0102800C
:10197000F381E02DDCCF2115310509F1281B390B4E
:101980002430310590F412968D919C911397611536
:10199000710521F0FB019383828304C09093F602CA
:1019A0008093F502FD01329644C0FD01E20FF31F62
:1019B00081939193225031092D933C933AC0209109
:1019C000F3023091F402232B41F420910301309172
:1019D00004013093F4022093F3022091010130912D
:1019E00002012115310541F42DB73EB740910501A3
:1019F00050910601241B350BE091F302F091F402A3
:101A0000E217F307A0F42E1B3F0B2817390778F0D5
:101A1000AC014E5F5F4F2417350748F04E0F5F1F34
:101A20005093F4024093F3028193919302C0E0E05B
:101A3000F0E0CF01DF91CF9108950F931F93CF93E3
:101A4000DF93009709F48CC0FC0132971382128255
:101A50000091F5021091F6020115110581F4208123
:101A60003181820F931F2091F3023091F4022817E5
:101A7000390779F5F093F402E093F30271C0D801CD
:101A800040E050E0AE17BF0750F412962D913C9104
:101A90001397AD012115310509F1D901F3CF9D014E
:101AA000DA013383228360817181860F971F821749
:101AB000930769F4EC0128813981260F371F2E5FC7
:101AC0003F4F318320838A819B8193838283452B7F
:101AD00029F4F093F602E093F50242C01396FC93CA
:101AE000EE931297ED01499159919E01240F351FF4
:101AF000E217F30771F480819181840F951F02969C
:101B000011969C938E938281938113969C938E93CE
:101B10001297E0E0F0E0D80112968D919C91139716
:101B2000009719F0F8018C01F6CF8D919C919801E6
:101B30002E5F3F4F820F931F2091F3023091F402EA
:101B40002817390769F4309729F41092F602109299
:101B5000F50202C0138212821093F4020093F30282
:101B6000DF91CF911F910F910895A0E0B0E0EBEBD2
:101B7000FDE00C94F80FEC01009721F4CB010E94DA
:101B8000880CB8C0FC01E60FF71F9C0122503109F8
:101B9000E217F30708F4ACC0D9010D911C9111971D
:101BA00006171707B0F00530110508F49FC0C801EB
:101BB00004978617970708F499C002501109061B6D
:101BC000170B019311936D937C93CF010E941D0D10
:101BD0008DC05B01A01AB10A4C01800E911EA0912C
:101BE000F502B091F60240E050E0E12CF12C1097A4
:101BF00009F44AC0A815B905D1F56D907C901197EC
:101C0000630182E0C80ED11CCA14DB0480F1A30179
:101C10004A195B096A0182E0C80ED11C1296BC9079
:101C200012971396AC91B5E0CB16D10440F0B28276
:101C3000A38351834083D9016D937C930AC00E5FC7
:101C40001F4FC301800F911FF90191838083EB2DFA
:101C5000FA2FE114F10431F0D7011396FC93EE93BF
:101C6000129744C0F093F602E093F5023FC08D91C5
:101C70009C9111974817590708F4AC017D01129601
:101C80000D90BC91A02DB3CF8091F3029091F402FE
:101C900088159905E1F446175707C8F480910101AA
:101CA00090910201009741F48DB79EB740910501D4
:101CB00050910601841B950BE817F907C8F4F093BF
:101CC000F402E093F302F901718360830FC0CB014A
:101CD0000E94880C7C01009759F0A801BE010E9467
:101CE000840ECE010E941D0DC70104C0CE0102C0AA
:101CF00080E090E0CDB7DEB7EEE00C94141081E008
:101D000090E0F8940C942B10FB01DC0102C00190D0
:101D10000D9241505040D8F70895FB01DC0101902D
:101D20000D920020E1F708951F93FC019927882761
:101D3000BC01E89411911032E9F3193010F01E3013
:101D4000C8F31B3251F01D3249F4689406C00E945A
:101D5000BB0E610F711D811D911D119110531A3021
:101D6000B0F33EF490958095709561957F4F8F4FBD
:101D70009F4F1F910895592F482F372F262F660FF9
:101D8000771F881F991F660F771F881F991F620F83
:101D9000731F841F951F660F771F881F991F089553
:101DA0000E94120F08F481E00895E89409C097FB9F
:101DB0003EF490958095709561957F4F8F4F9F4F22
:101DC0009923A9F0F92F96E9BB279395F695879566
:101DD00077956795B795F111F8CFFAF4BB0F11F429
:101DE00060FF1BC06F5F7F4F8F4F9F4F16C08823D0
:101DF00011F096E911C0772321F09EE8872F762F06
:101E000005C0662371F096E8862F70E060E02AF046
:101E10009A95660F771F881FDAF7880F9695879532
:101E200097F90895990F0008550FAA0BE0E8FEEF07
:101E300016161706E807F907C0F012161306E4078E
:101E4000F50798F0621B730B840B950B39F40A2687
:101E500061F0232B242B252B21F408950A2609F465
:101E6000A140A6958FEF811D811D08950E94490F05
:101E70000C94BA0F0E94AC0F38F00E94B30F20F000
:101E8000952311F00C94A30F0C94A90F11240C941A
:101E9000EE0F0E94CB0F70F3959FC1F3950F50E0AA
:101EA000551F629FF001729FBB27F00DB11D639F0C
:101EB000AA27F00DB11DAA1F649F6627B00DA11DB2
:101EC000661F829F2227B00DA11D621F739FB00D58
:101ED000A11D621F839FA00D611D221F749F3327C8
:101EE000A00D611D231F849F600D211D822F762F61
:101EF0006A2F11249F5750409AF0F1F088234AF03E
:101F0000EE0FFF1FBB1F661F771F881F91505040A9
:101F1000A9F79E3F510580F00C94A30F0C94EE0F8F
:101F20005F3FE4F3983ED4F3869577956795B79530
:101F3000F795E7959F5FC1F7FE2B880F911D96954A
:101F4000879597F9089597F99F6780E870E060E0BA
:101F500008959FEF80EC089500240A941616170642
:101F600018060906089500240A941216130614068A
:101F700005060895092E0394000C11F4882352F0ED
:101F8000BB0F40F4BF2B11F460FF04C06F5F7F4FA5
:101F90008F4F9F4F089557FD9058440F551F59F08C
:101FA0005F3F71F04795880F97FB991F61F09F3F46
:101FB00079F087950895121613061406551FF2CF6F
:101FC0004695F1DF08C0161617061806991FF1CFBF
:101FD00086957105610508940895E894BB276627E6
:101FE0007727CB0197F908952F923F924F925F92F6
:101FF0006F927F928F929F92AF92BF92CF92DF9219
:10200000EF92FF920F931F93CF93DF93CDB7DEB77D
:10201000CA1BDB0B0FB6F894DEBF0FBECDBF099411
:102020002A88398848885F846E847D848C849B8468
:10203000AA84B984C884DF80EE80FD800C811B8176
:10204000AA81B981CE0FD11D0FB6F894DEBF0FBEA5
:10205000CDBFED01089510E0C3E6D0E004C0FE015D
:102060000E946A0B2196C436D107C9F7F894FFCFB6
:10207000FF0000F7028000000000006C01E800355E
:102080000113012701B301000000008002E800D421
:1020900002EC0267027F020D0A0041542B52535496
:1020A0000041540041542B43575141500041542B9F
:1020B00043574D4F44453D320041542B4357534104
:1020C000503D2244455649434531222C223132337A
:1020D0003435363738222C342C300041542B4349C8
:1020E000504D55583D310041542B434950534552B2
:1020F0005645523D312C35330072656164696E6717
:10210000202E2E2E2E2E2E006E616E00696E660021
:102110006F76660077726974696E672E2E2E005294
:102120006563656976656420657874726163746956
:0E2130006E6720783220616E642079320000E4
:00000001FF
